{
  "contractName": "MeDao",
  "abi": [
    {
      "constant": true,
      "inputs": [],
      "name": "hash",
      "outputs": [
        {
          "name": "",
          "type": "string"
        }
      ],
      "payable": false,
      "stateMutability": "view",
      "type": "function"
    },
    {
      "constant": true,
      "inputs": [],
      "name": "lastPayTimestamp",
      "outputs": [
        {
          "name": "",
          "type": "uint256"
        }
      ],
      "payable": false,
      "stateMutability": "view",
      "type": "function"
    },
    {
      "constant": true,
      "inputs": [],
      "name": "maxTokenSupply",
      "outputs": [
        {
          "name": "",
          "type": "uint256"
        }
      ],
      "payable": false,
      "stateMutability": "view",
      "type": "function"
    },
    {
      "constant": true,
      "inputs": [],
      "name": "birthTimestamp",
      "outputs": [
        {
          "name": "",
          "type": "int256"
        }
      ],
      "payable": false,
      "stateMutability": "view",
      "type": "function"
    },
    {
      "constant": true,
      "inputs": [],
      "name": "owner",
      "outputs": [
        {
          "name": "",
          "type": "address"
        }
      ],
      "payable": false,
      "stateMutability": "view",
      "type": "function"
    },
    {
      "constant": true,
      "inputs": [],
      "name": "blockInitialized",
      "outputs": [
        {
          "name": "",
          "type": "uint256"
        }
      ],
      "payable": false,
      "stateMutability": "view",
      "type": "function"
    },
    {
      "constant": true,
      "inputs": [],
      "name": "factory",
      "outputs": [
        {
          "name": "",
          "type": "address"
        }
      ],
      "payable": false,
      "stateMutability": "view",
      "type": "function"
    },
    {
      "constant": true,
      "inputs": [],
      "name": "timeToken",
      "outputs": [
        {
          "name": "",
          "type": "address"
        }
      ],
      "payable": false,
      "stateMutability": "view",
      "type": "function"
    },
    {
      "constant": false,
      "inputs": [
        {
          "name": "newOwner",
          "type": "address"
        }
      ],
      "name": "transferOwnership",
      "outputs": [],
      "payable": false,
      "stateMutability": "nonpayable",
      "type": "function"
    },
    {
      "constant": true,
      "inputs": [],
      "name": "reserveToken",
      "outputs": [
        {
          "name": "",
          "type": "address"
        }
      ],
      "payable": false,
      "stateMutability": "view",
      "type": "function"
    },
    {
      "inputs": [],
      "payable": false,
      "stateMutability": "nonpayable",
      "type": "constructor"
    },
    {
      "anonymous": false,
      "inputs": [
        {
          "indexed": false,
          "name": "tokenAmount",
          "type": "uint256"
        }
      ],
      "name": "Pay_event",
      "type": "event"
    },
    {
      "anonymous": false,
      "inputs": [
        {
          "indexed": false,
          "name": "newHash",
          "type": "string"
        }
      ],
      "name": "Update_event",
      "type": "event"
    },
    {
      "anonymous": false,
      "inputs": [
        {
          "indexed": false,
          "name": "msgSender",
          "type": "address"
        },
        {
          "indexed": false,
          "name": "reserveAmount",
          "type": "uint256"
        },
        {
          "indexed": false,
          "name": "tokenAmount",
          "type": "uint256"
        }
      ],
      "name": "Invest_event",
      "type": "event"
    },
    {
      "anonymous": false,
      "inputs": [
        {
          "indexed": false,
          "name": "msgSender",
          "type": "address"
        },
        {
          "indexed": false,
          "name": "tokenAmount",
          "type": "uint256"
        },
        {
          "indexed": false,
          "name": "reserveAmount",
          "type": "uint256"
        }
      ],
      "name": "Divest_event",
      "type": "event"
    },
    {
      "constant": false,
      "inputs": [
        {
          "name": "_owner",
          "type": "address"
        },
        {
          "name": "_timeToken",
          "type": "address"
        },
        {
          "name": "_reserveToken",
          "type": "address"
        },
        {
          "name": "_birthTimestamp",
          "type": "int256"
        },
        {
          "name": "_tokenClaim",
          "type": "uint256"
        }
      ],
      "name": "initialize",
      "outputs": [],
      "payable": false,
      "stateMutability": "nonpayable",
      "type": "function"
    },
    {
      "constant": true,
      "inputs": [
        {
          "name": "reserveAmount",
          "type": "uint256"
        }
      ],
      "name": "calculateTokenClaim",
      "outputs": [
        {
          "name": "",
          "type": "uint256"
        }
      ],
      "payable": false,
      "stateMutability": "view",
      "type": "function"
    },
    {
      "constant": true,
      "inputs": [
        {
          "name": "tokenAmount",
          "type": "uint256"
        }
      ],
      "name": "calculateReserveClaim",
      "outputs": [
        {
          "name": "",
          "type": "uint256"
        }
      ],
      "payable": false,
      "stateMutability": "view",
      "type": "function"
    },
    {
      "constant": false,
      "inputs": [],
      "name": "pay",
      "outputs": [],
      "payable": false,
      "stateMutability": "nonpayable",
      "type": "function"
    },
    {
      "constant": false,
      "inputs": [
        {
          "name": "reserveAmount",
          "type": "uint256"
        }
      ],
      "name": "invest",
      "outputs": [],
      "payable": false,
      "stateMutability": "nonpayable",
      "type": "function"
    },
    {
      "constant": false,
      "inputs": [
        {
          "name": "tokenAmount",
          "type": "uint256"
        }
      ],
      "name": "divest",
      "outputs": [],
      "payable": false,
      "stateMutability": "nonpayable",
      "type": "function"
    },
    {
      "constant": false,
      "inputs": [
        {
          "name": "tokenAmount",
          "type": "uint256"
        }
      ],
      "name": "burn",
      "outputs": [],
      "payable": false,
      "stateMutability": "nonpayable",
      "type": "function"
    },
    {
      "constant": false,
      "inputs": [
        {
          "name": "newHash",
          "type": "string"
        }
      ],
      "name": "setHash",
      "outputs": [],
      "payable": false,
      "stateMutability": "nonpayable",
      "type": "function"
    },
    {
      "constant": false,
      "inputs": [
        {
          "name": "_owner",
          "type": "address"
        }
      ],
      "name": "proxyPayment",
      "outputs": [
        {
          "name": "",
          "type": "bool"
        }
      ],
      "payable": true,
      "stateMutability": "payable",
      "type": "function"
    },
    {
      "constant": false,
      "inputs": [
        {
          "name": "_from",
          "type": "address"
        },
        {
          "name": "_to",
          "type": "address"
        },
        {
          "name": "_amount",
          "type": "uint256"
        }
      ],
      "name": "onTransfer",
      "outputs": [
        {
          "name": "",
          "type": "bool"
        }
      ],
      "payable": false,
      "stateMutability": "nonpayable",
      "type": "function"
    },
    {
      "constant": false,
      "inputs": [
        {
          "name": "_owner",
          "type": "address"
        },
        {
          "name": "_spender",
          "type": "address"
        },
        {
          "name": "_amount",
          "type": "uint256"
        }
      ],
      "name": "onApprove",
      "outputs": [
        {
          "name": "",
          "type": "bool"
        }
      ],
      "payable": false,
      "stateMutability": "nonpayable",
      "type": "function"
    }
  ],
  "bytecode": "0x608060405234801561001057600080fd5b50336000806101000a81548173ffffffffffffffffffffffffffffffffffffffff021916908373ffffffffffffffffffffffffffffffffffffffff16021790555043600281905550612249806100676000396000f3fe60806040526004361061011d576000357c0100000000000000000000000000000000000000000000000000000000900463ffffffff16806309bd5a60146101225780631b9265b8146101b25780631ed83fd4146101c957806326f2d67d146102915780632afcf480146102bc57806342966c68146102f75780634a3931491461033257806350f7c204146103c5578063718bf49c146103f05780638ca179951461041b5780638da5cb5b146104565780639bc40c4c146104ad578063b163ecd2146104d8578063c45a015514610527578063c502f1621461057e578063da682aeb14610623578063dbadaa5c146106b6578063e27af3b914610705578063f2fde38b1461075c578063f4325d67146107ad578063f48c305414610804575b600080fd5b34801561012e57600080fd5b50610137610860565b6040518080602001828103825283818151815260200191508051906020019080838360005b8381101561017757808201518184015260208101905061015c565b50505050905090810190601f1680156101a45780820380516001836020036101000a031916815260200191505b509250505060405180910390f35b3480156101be57600080fd5b506101c76108fe565b005b3480156101d557600080fd5b5061028f600480360360208110156101ec57600080fd5b810190808035906020019064010000000081111561020957600080fd5b82018360208201111561021b57600080fd5b8035906020019184600183028401116401000000008311171561023d57600080fd5b91908080601f016020809104026020016040519081016040528093929190818152602001838380828437600081840152601f19601f820116905080830192505050505050509192919290505050610c96565b005b34801561029d57600080fd5b506102a6610e10565b6040518082815260200191505060405180910390f35b3480156102c857600080fd5b506102f5600480360360208110156102df57600080fd5b8101908080359060200190929190505050610e16565b005b34801561030357600080fd5b506103306004803603602081101561031a57600080fd5b81019080803590602001909291905050506112fc565b005b34801561033e57600080fd5b506103ab6004803603606081101561035557600080fd5b81019080803573ffffffffffffffffffffffffffffffffffffffff169060200190929190803573ffffffffffffffffffffffffffffffffffffffff16906020019092919080359060200190929190505050611473565b604051808215151515815260200191505060405180910390f35b3480156103d157600080fd5b506103da6114f5565b6040518082815260200191505060405180910390f35b3480156103fc57600080fd5b506104056114fb565b6040518082815260200191505060405180910390f35b34801561042757600080fd5b506104546004803603602081101561043e57600080fd5b8101908080359060200190929190505050611501565b005b34801561046257600080fd5b5061046b61186d565b604051808273ffffffffffffffffffffffffffffffffffffffff1673ffffffffffffffffffffffffffffffffffffffff16815260200191505060405180910390f35b3480156104b957600080fd5b506104c2611892565b6040518082815260200191505060405180910390f35b3480156104e457600080fd5b50610511600480360360208110156104fb57600080fd5b8101908080359060200190929190505050611898565b6040518082815260200191505060405180910390f35b34801561053357600080fd5b5061053c611a62565b604051808273ffffffffffffffffffffffffffffffffffffffff1673ffffffffffffffffffffffffffffffffffffffff16815260200191505060405180910390f35b34801561058a57600080fd5b50610621600480360360a08110156105a157600080fd5b81019080803573ffffffffffffffffffffffffffffffffffffffff169060200190929190803573ffffffffffffffffffffffffffffffffffffffff169060200190929190803573ffffffffffffffffffffffffffffffffffffffff1690602001909291908035906020019092919080359060200190929190505050611a88565b005b34801561062f57600080fd5b5061069c6004803603606081101561064657600080fd5b81019080803573ffffffffffffffffffffffffffffffffffffffff169060200190929190803573ffffffffffffffffffffffffffffffffffffffff16906020019092919080359060200190929190505050611e44565b604051808215151515815260200191505060405180910390f35b3480156106c257600080fd5b506106ef600480360360208110156106d957600080fd5b8101908080359060200190929190505050611e51565b6040518082815260200191505060405180910390f35b34801561071157600080fd5b5061071a61201b565b604051808273ffffffffffffffffffffffffffffffffffffffff1673ffffffffffffffffffffffffffffffffffffffff16815260200191505060405180910390f35b34801561076857600080fd5b506107ab6004803603602081101561077f57600080fd5b81019080803573ffffffffffffffffffffffffffffffffffffffff169060200190929190505050612041565b005b3480156107b957600080fd5b506107c2612148565b604051808273ffffffffffffffffffffffffffffffffffffffff1673ffffffffffffffffffffffffffffffffffffffff16815260200191505060405180910390f35b6108466004803603602081101561081a57600080fd5b81019080803573ffffffffffffffffffffffffffffffffffffffff16906020019092919050505061216e565b604051808215151515815260200191505060405180910390f35b60088054600181600116156101000203166002900480601f0160208091040260200160405190810160405280929190818152602001828054600181600116156101000203166002900480156108f65780601f106108cb576101008083540402835291602001916108f6565b820191906000526020600020905b8154815290600101906020018083116108d957829003601f168201915b505050505081565b6000809054906101000a900473ffffffffffffffffffffffffffffffffffffffff1673ffffffffffffffffffffffffffffffffffffffff163373ffffffffffffffffffffffffffffffffffffffff161415156109c2576040517f08c379a00000000000000000000000000000000000000000000000000000000081526004018080602001828103825260178152602001807f6d73672073656e646572206973206e6f74206f776e657200000000000000000081525060200191505060405180910390fd5b6000600360075442038115156109d457fe5b04905060006012600a6006540218600360009054906101000a900473ffffffffffffffffffffffffffffffffffffffff1673ffffffffffffffffffffffffffffffffffffffff166318160ddd6040518163ffffffff167c010000000000000000000000000000000000000000000000000000000002815260040160206040518083038186803b158015610a6657600080fd5b505afa158015610a7a573d6000803e3d6000fd5b505050506040513d6020811015610a9057600080fd5b81019080805190602001909291905050508302811515610aac57fe5b0490508160066000828254019250508190555042600781905550600360009054906101000a900473ffffffffffffffffffffffffffffffffffffffff1673ffffffffffffffffffffffffffffffffffffffff1663827f32c06000809054906101000a900473ffffffffffffffffffffffffffffffffffffffff16836040518363ffffffff167c0100000000000000000000000000000000000000000000000000000000028152600401808373ffffffffffffffffffffffffffffffffffffffff1673ffffffffffffffffffffffffffffffffffffffff16815260200182815260200192505050602060405180830381600087803b158015610bac57600080fd5b505af1158015610bc0573d6000803e3d6000fd5b505050506040513d6020811015610bd657600080fd5b81019080805190602001909291905050501515610c5b576040517f08c379a00000000000000000000000000000000000000000000000000000000081526004018080602001828103825260198152602001807f6661696c656420746f2067656e657261746520746f6b656e730000000000000081525060200191505060405180910390fd5b7f7da7dfe20590cbafe5c54c5d3549ea4da4244587ec0474d5b7a0a5f3f3ee158e816040518082815260200191505060405180910390a15050565b6000809054906101000a900473ffffffffffffffffffffffffffffffffffffffff1673ffffffffffffffffffffffffffffffffffffffff163373ffffffffffffffffffffffffffffffffffffffff16141515610d5a576040517f08c379a00000000000000000000000000000000000000000000000000000000081526004018080602001828103825260178152602001807f6d73672073656e646572206973206e6f74206f776e657200000000000000000081525060200191505060405180910390fd5b8060089080519060200190610d70929190612178565b507fa0e4aeaf130c848d84d392f43fc68b611f7119167463efc24a92aca581f8ce0c816040518080602001828103825283818151815260200191508051906020019080838360005b83811015610dd3578082015181840152602081019050610db8565b50505050905090810190601f168015610e005780820380516001836020036101000a031916815260200191505b509250505060405180910390a150565b60075481565b6000600360009054906101000a900473ffffffffffffffffffffffffffffffffffffffff1673ffffffffffffffffffffffffffffffffffffffff166318160ddd6040518163ffffffff167c010000000000000000000000000000000000000000000000000000000002815260040160206040518083038186803b158015610e9c57600080fd5b505afa158015610eb0573d6000803e3d6000fd5b505050506040513d6020811015610ec657600080fd5b81019080805190602001909291905050506012600a60065402180390506000610eee83611e51565b9050808210151515610f68576040517f08c379a00000000000000000000000000000000000000000000000000000000081526004018080602001828103825260168152602001807f696e76616c6964207265736572766520616d6f756e740000000000000000000081525060200191505060405180910390fd5b600460009054906101000a900473ffffffffffffffffffffffffffffffffffffffff1673ffffffffffffffffffffffffffffffffffffffff166323b872dd3330866040518463ffffffff167c0100000000000000000000000000000000000000000000000000000000028152600401808473ffffffffffffffffffffffffffffffffffffffff1673ffffffffffffffffffffffffffffffffffffffff1681526020018373ffffffffffffffffffffffffffffffffffffffff1673ffffffffffffffffffffffffffffffffffffffff1681526020018281526020019350505050602060405180830381600087803b15801561106157600080fd5b505af1158015611075573d6000803e3d6000fd5b505050506040513d602081101561108b57600080fd5b81019080805190602001909291905050501515611110576040517f08c379a00000000000000000000000000000000000000000000000000000000081526004018080602001828103825260128152602001807f6661696c656420746f207472616e73666572000000000000000000000000000081525060200191505060405180910390fd5b600360009054906101000a900473ffffffffffffffffffffffffffffffffffffffff1673ffffffffffffffffffffffffffffffffffffffff1663827f32c033836040518363ffffffff167c0100000000000000000000000000000000000000000000000000000000028152600401808373ffffffffffffffffffffffffffffffffffffffff1673ffffffffffffffffffffffffffffffffffffffff16815260200182815260200192505050602060405180830381600087803b1580156111d557600080fd5b505af11580156111e9573d6000803e3d6000fd5b505050506040513d60208110156111ff57600080fd5b81019080805190602001909291905050501515611284576040517f08c379a00000000000000000000000000000000000000000000000000000000081526004018080602001828103825260198152602001807f6661696c656420746f2067656e657261746520746f6b656e730000000000000081525060200191505060405180910390fd5b7f64f218c88dfcb74b07ae7dce32c3cf1cbbc84aca938033113d18a040b44f04ad338483604051808473ffffffffffffffffffffffffffffffffffffffff1673ffffffffffffffffffffffffffffffffffffffff168152602001838152602001828152602001935050505060405180910390a1505050565b600360009054906101000a900473ffffffffffffffffffffffffffffffffffffffff1673ffffffffffffffffffffffffffffffffffffffff1663d3ce77fe33836040518363ffffffff167c0100000000000000000000000000000000000000000000000000000000028152600401808373ffffffffffffffffffffffffffffffffffffffff1673ffffffffffffffffffffffffffffffffffffffff16815260200182815260200192505050602060405180830381600087803b1580156113c157600080fd5b505af11580156113d5573d6000803e3d6000fd5b505050506040513d60208110156113eb57600080fd5b81019080805190602001909291905050501515611470576040517f08c379a00000000000000000000000000000000000000000000000000000000081526004018080602001828103825260158152602001807f6661696c656420746f206275726e20746f6b656e73000000000000000000000081525060200191505060405180910390fd5b50565b60003073ffffffffffffffffffffffffffffffffffffffff168373ffffffffffffffffffffffffffffffffffffffff1614806114db5750600073ffffffffffffffffffffffffffffffffffffffff168373ffffffffffffffffffffffffffffffffffffffff16145b156114e957600090506114ee565b600190505b9392505050565b60065481565b60055481565b600061150c82611898565b9050600360009054906101000a900473ffffffffffffffffffffffffffffffffffffffff1673ffffffffffffffffffffffffffffffffffffffff1663d3ce77fe33846040518363ffffffff167c0100000000000000000000000000000000000000000000000000000000028152600401808373ffffffffffffffffffffffffffffffffffffffff1673ffffffffffffffffffffffffffffffffffffffff16815260200182815260200192505050602060405180830381600087803b1580156115d357600080fd5b505af11580156115e7573d6000803e3d6000fd5b505050506040513d60208110156115fd57600080fd5b81019080805190602001909291905050501515611682576040517f08c379a00000000000000000000000000000000000000000000000000000000081526004018080602001828103825260188152602001807f6661696c656420746f2064657374726f7920746f6b656e73000000000000000081525060200191505060405180910390fd5b600460009054906101000a900473ffffffffffffffffffffffffffffffffffffffff1673ffffffffffffffffffffffffffffffffffffffff1663a9059cbb33836040518363ffffffff167c0100000000000000000000000000000000000000000000000000000000028152600401808373ffffffffffffffffffffffffffffffffffffffff1673ffffffffffffffffffffffffffffffffffffffff16815260200182815260200192505050602060405180830381600087803b15801561174757600080fd5b505af115801561175b573d6000803e3d6000fd5b505050506040513d602081101561177157600080fd5b810190808051906020019092919050505015156117f6576040517f08c379a00000000000000000000000000000000000000000000000000000000081526004018080602001828103825260128152602001807f6661696c656420746f207472616e73666572000000000000000000000000000081525060200191505060405180910390fd5b7f40eb9b460e777456b2dd903bc4974e15c1390da40ac0a0062c58cfcc5800cc1a338383604051808473ffffffffffffffffffffffffffffffffffffffff1673ffffffffffffffffffffffffffffffffffffffff168152602001838152602001828152602001935050505060405180910390a15050565b6000809054906101000a900473ffffffffffffffffffffffffffffffffffffffff1681565b60025481565b6000600360009054906101000a900473ffffffffffffffffffffffffffffffffffffffff1673ffffffffffffffffffffffffffffffffffffffff166318160ddd6040518163ffffffff167c010000000000000000000000000000000000000000000000000000000002815260040160206040518083038186803b15801561191e57600080fd5b505afa158015611932573d6000803e3d6000fd5b505050506040513d602081101561194857600080fd5b810190808051906020019092919050505082600460009054906101000a900473ffffffffffffffffffffffffffffffffffffffff1673ffffffffffffffffffffffffffffffffffffffff166370a08231306040518263ffffffff167c0100000000000000000000000000000000000000000000000000000000028152600401808273ffffffffffffffffffffffffffffffffffffffff1673ffffffffffffffffffffffffffffffffffffffff16815260200191505060206040518083038186803b158015611a1557600080fd5b505afa158015611a29573d6000803e3d6000fd5b505050506040513d6020811015611a3f57600080fd5b810190808051906020019092919050505002811515611a5a57fe5b049050919050565b600160009054906101000a900473ffffffffffffffffffffffffffffffffffffffff1681565b6000600254141515611b02576040517f08c379a000000000000000000000000000000000000000000000000000000000815260040180806020018281038252601c8152602001807f636f6e747261637420616c726561647920696e697469616c697a65640000000081525060200191505060405180910390fd5b4282121515611b79576040517f08c379a00000000000000000000000000000000000000000000000000000000081526004018080602001828103825260178152602001807f696e76616c69642062697274682074696d657374616d7000000000000000000081525060200191505060405180910390fd5b4360028190555033600160006101000a81548173ffffffffffffffffffffffffffffffffffffffff021916908373ffffffffffffffffffffffffffffffffffffffff160217905550846000806101000a81548173ffffffffffffffffffffffffffffffffffffffff021916908373ffffffffffffffffffffffffffffffffffffffff16021790555083600360006101000a81548173ffffffffffffffffffffffffffffffffffffffff021916908373ffffffffffffffffffffffffffffffffffffffff16021790555082600460006101000a81548173ffffffffffffffffffffffffffffffffffffffff021916908373ffffffffffffffffffffffffffffffffffffffff1602179055508160058190555060036005544203811515611c9a57fe5b0460068190555042600781905550600360009054906101000a900473ffffffffffffffffffffffffffffffffffffffff1673ffffffffffffffffffffffffffffffffffffffff1663827f32c06000809054906101000a900473ffffffffffffffffffffffffffffffffffffffff16836040518363ffffffff167c0100000000000000000000000000000000000000000000000000000000028152600401808373ffffffffffffffffffffffffffffffffffffffff1673ffffffffffffffffffffffffffffffffffffffff16815260200182815260200192505050602060405180830381600087803b158015611d8e57600080fd5b505af1158015611da2573d6000803e3d6000fd5b505050506040513d6020811015611db857600080fd5b81019080805190602001909291905050501515611e3d576040517f08c379a00000000000000000000000000000000000000000000000000000000081526004018080602001828103825260198152602001807f6661696c656420746f2067656e657261746520746f6b656e730000000000000081525060200191505060405180910390fd5b5050505050565b6000600190509392505050565b6000600460009054906101000a900473ffffffffffffffffffffffffffffffffffffffff1673ffffffffffffffffffffffffffffffffffffffff166370a08231306040518263ffffffff167c0100000000000000000000000000000000000000000000000000000000028152600401808273ffffffffffffffffffffffffffffffffffffffff1673ffffffffffffffffffffffffffffffffffffffff16815260200191505060206040518083038186803b158015611f0e57600080fd5b505afa158015611f22573d6000803e3d6000fd5b505050506040513d6020811015611f3857600080fd5b810190808051906020019092919050505082600360009054906101000a900473ffffffffffffffffffffffffffffffffffffffff1673ffffffffffffffffffffffffffffffffffffffff166318160ddd6040518163ffffffff167c010000000000000000000000000000000000000000000000000000000002815260040160206040518083038186803b158015611fce57600080fd5b505afa158015611fe2573d6000803e3d6000fd5b505050506040513d6020811015611ff857600080fd5b81019080805190602001909291905050500281151561201357fe5b049050919050565b600360009054906101000a900473ffffffffffffffffffffffffffffffffffffffff1681565b6000809054906101000a900473ffffffffffffffffffffffffffffffffffffffff1673ffffffffffffffffffffffffffffffffffffffff163373ffffffffffffffffffffffffffffffffffffffff16141515612105576040517f08c379a00000000000000000000000000000000000000000000000000000000081526004018080602001828103825260178152602001807f6d73672073656e646572206973206e6f74206f776e657200000000000000000081525060200191505060405180910390fd5b806000806101000a81548173ffffffffffffffffffffffffffffffffffffffff021916908373ffffffffffffffffffffffffffffffffffffffff16021790555050565b600460009054906101000a900473ffffffffffffffffffffffffffffffffffffffff1681565b6000809050919050565b828054600181600116156101000203166002900490600052602060002090601f016020900481019282601f106121b957805160ff19168380011785556121e7565b828001600101855582156121e7579182015b828111156121e65782518255916020019190600101906121cb565b5b5090506121f491906121f8565b5090565b61221a91905b808211156122165760008160009055506001016121fe565b5090565b9056fea165627a7a7230582095d7ac3a2d4b95fa5f6e1b52cba2dbf464a0d44475eecec094b155975911e0540029",
  "source": "pragma solidity ^0.5.0;\n\nimport \"./external/MiniMeToken.sol\";\nimport \"./external/ERC20.sol\";\nimport \"./external/Owned.sol\";\n\ncontract MeDao is Owned, TokenController {\n\n    address public factory;\n    uint public blockInitialized;\n\n    MiniMeToken public timeToken;\n    ERC20 public reserveToken;\n    int public birthTimestamp;\n    uint public maxTokenSupply;\n    uint public lastPayTimestamp;\n    string public hash;\n\n    constructor () public {\n        blockInitialized = block.number;\n    }\n\n    function initialize (\n        address _owner,\n        MiniMeToken _timeToken,\n        ERC20 _reserveToken,\n        int _birthTimestamp,\n        uint _tokenClaim\n    ) public {\n        require(blockInitialized == 0, 'contract already initialized');\n        require(_birthTimestamp < int(now), 'invalid birth timestamp');\n\n        blockInitialized = block.number;\n        factory = msg.sender;\n\n        owner = _owner;\n        timeToken = _timeToken;\n        reserveToken = _reserveToken;\n        birthTimestamp = _birthTimestamp;\n        maxTokenSupply = uint(int(now) - birthTimestamp) / 3;\n        lastPayTimestamp = now;\n\n        require(timeToken.generateTokens(owner, _tokenClaim), \"failed to generate tokens\");\n    }\n\n    function calculateTokenClaim (uint reserveAmount) public view returns (uint) {\n        return timeToken.totalSupply() * reserveAmount / reserveToken.balanceOf(address(this));\n    }\n\n    function calculateReserveClaim (uint tokenAmount) public view returns (uint) {\n        return reserveToken.balanceOf(address(this)) * tokenAmount / timeToken.totalSupply();\n    }\n\n    function pay () public onlyOwner {\n        uint elapsedSeconds = (now - lastPayTimestamp) / 3;\n        uint fundedTime = elapsedSeconds * timeToken.totalSupply() / (maxTokenSupply * 10^18);\n        maxTokenSupply += elapsedSeconds;\n        lastPayTimestamp = now;\n        require(timeToken.generateTokens(owner, fundedTime), \"failed to generate tokens\");\n        emit Pay_event(fundedTime);\n    }\n\n    function invest (uint reserveAmount) public {\n        uint availableSeconds = (maxTokenSupply * 10^18) - timeToken.totalSupply();\n        uint claimedTokens = calculateTokenClaim(reserveAmount);\n        require(availableSeconds >= claimedTokens, \"invalid reserve amount\");\n        require(reserveToken.transferFrom(msg.sender, address(this), reserveAmount), \"failed to transfer\");\n        require(timeToken.generateTokens(msg.sender, claimedTokens), \"failed to generate tokens\");\n        emit Invest_event(msg.sender, reserveAmount, claimedTokens);\n    }\n\n    function divest (uint tokenAmount) public {\n        uint reserveClaim = calculateReserveClaim(tokenAmount);\n        require(timeToken.destroyTokens(msg.sender, tokenAmount), \"failed to destroy tokens\");\n        require(reserveToken.transfer(msg.sender, reserveClaim), \"failed to transfer\");\n        emit Divest_event(msg.sender, tokenAmount, reserveClaim);\n    }\n\n    function burn (uint tokenAmount) public {\n        require(timeToken.destroyTokens(msg.sender, tokenAmount), \"failed to burn tokens\");\n    }\n\n    function setHash (string memory newHash) public onlyOwner {\n        hash = newHash;\n        emit Update_event(newHash);\n    }\n\n    event Pay_event (uint tokenAmount);\n    event Update_event (string newHash);\n    event Invest_event (address msgSender, uint reserveAmount, uint tokenAmount);\n    event Divest_event (address msgSender, uint tokenAmount, uint reserveAmount);\n\n/// Token Controller Functions\n\n    function proxyPayment (address _owner) public payable returns(bool) {\n        _owner;\n        return false;\n    }\n\n    function onTransfer (address _from, address _to, uint _amount) public returns(bool) {\n        _from; _amount;\n        if(_to == address(this) || _to == address(0x0))\n            return false;\n\n        return true;\n    }\n\n    function onApprove (address _owner, address _spender, uint _amount) public returns(bool) {\n        _owner; _spender; _amount;\n        return true;\n    }\n\n}\n",
  "sourcePath": "/home/joe/Documents/github/chicobitcoinjoe/MeDao/contracts/MeDao.sol",
  "compiler": {
    "name": "solc",
    "version": "0.5.0+commit.1d4f565a.Emscripten.clang"
  },
  "schemaVersion": "3.0.11",
  "updatedAt": "2019-06-13T03:08:29.666Z",
  "devdoc": {
    "methods": {}
  },
  "userdoc": {
    "methods": {
      "proxyPayment(address)": {
        "notice": "Token Controller Functions"
      }
    }
  }
}