{
  "contractName": "MeDaoRegistry",
  "abi": [
    {
      "constant": true,
      "inputs": [
        {
          "name": "",
          "type": "address"
        }
      ],
      "name": "registry",
      "outputs": [
        {
          "name": "",
          "type": "address"
        }
      ],
      "payable": false,
      "stateMutability": "view",
      "type": "function"
    },
    {
      "constant": true,
      "inputs": [],
      "name": "weth",
      "outputs": [
        {
          "name": "",
          "type": "address"
        }
      ],
      "payable": false,
      "stateMutability": "view",
      "type": "function"
    },
    {
      "constant": true,
      "inputs": [
        {
          "name": "",
          "type": "address"
        }
      ],
      "name": "transferRegistry",
      "outputs": [
        {
          "name": "",
          "type": "address"
        }
      ],
      "payable": false,
      "stateMutability": "view",
      "type": "function"
    },
    {
      "constant": true,
      "inputs": [],
      "name": "factory",
      "outputs": [
        {
          "name": "",
          "type": "address"
        }
      ],
      "payable": false,
      "stateMutability": "view",
      "type": "function"
    },
    {
      "constant": true,
      "inputs": [],
      "name": "dai",
      "outputs": [
        {
          "name": "",
          "type": "address"
        }
      ],
      "payable": false,
      "stateMutability": "view",
      "type": "function"
    },
    {
      "inputs": [
        {
          "name": "_factory",
          "type": "address"
        },
        {
          "name": "_dai",
          "type": "address"
        },
        {
          "name": "_weth",
          "type": "address"
        }
      ],
      "payable": false,
      "stateMutability": "nonpayable",
      "type": "constructor"
    },
    {
      "constant": false,
      "inputs": [
        {
          "name": "name",
          "type": "string"
        },
        {
          "name": "birthTimestamp",
          "type": "int256"
        },
        {
          "name": "tokenClaim",
          "type": "uint256"
        },
        {
          "name": "converter",
          "type": "address"
        },
        {
          "name": "minFillAmount",
          "type": "uint256"
        }
      ],
      "name": "create",
      "outputs": [
        {
          "name": "medao",
          "type": "address"
        }
      ],
      "payable": true,
      "stateMutability": "payable",
      "type": "function"
    },
    {
      "constant": false,
      "inputs": [
        {
          "name": "name",
          "type": "string"
        },
        {
          "name": "birthTimestamp",
          "type": "int256"
        },
        {
          "name": "tokenClaim",
          "type": "uint256"
        },
        {
          "name": "initialReserve",
          "type": "uint256"
        }
      ],
      "name": "create",
      "outputs": [
        {
          "name": "medao",
          "type": "address"
        }
      ],
      "payable": false,
      "stateMutability": "nonpayable",
      "type": "function"
    },
    {
      "constant": false,
      "inputs": [
        {
          "name": "name",
          "type": "string"
        },
        {
          "name": "birthTimestamp",
          "type": "int256"
        },
        {
          "name": "tokenClaim",
          "type": "uint256"
        },
        {
          "name": "converter",
          "type": "address"
        },
        {
          "name": "convertAmount",
          "type": "uint256"
        },
        {
          "name": "minFillAmount",
          "type": "uint256"
        }
      ],
      "name": "create",
      "outputs": [
        {
          "name": "medao",
          "type": "address"
        }
      ],
      "payable": false,
      "stateMutability": "nonpayable",
      "type": "function"
    },
    {
      "constant": false,
      "inputs": [
        {
          "name": "newOwner",
          "type": "address"
        }
      ],
      "name": "transfer",
      "outputs": [],
      "payable": false,
      "stateMutability": "nonpayable",
      "type": "function"
    },
    {
      "constant": false,
      "inputs": [
        {
          "name": "oldOwner",
          "type": "address"
        }
      ],
      "name": "claimTransfer",
      "outputs": [],
      "payable": false,
      "stateMutability": "nonpayable",
      "type": "function"
    }
  ],
  "bytecode": "0x608060405234801561001057600080fd5b506040516060806123538339810180604052606081101561003057600080fd5b81019080805190602001909291908051906020019092919080519060200190929190505050826000806101000a81548173ffffffffffffffffffffffffffffffffffffffff021916908373ffffffffffffffffffffffffffffffffffffffff16021790555081600160006101000a81548173ffffffffffffffffffffffffffffffffffffffff021916908373ffffffffffffffffffffffffffffffffffffffff16021790555080600260006101000a81548173ffffffffffffffffffffffffffffffffffffffff021916908373ffffffffffffffffffffffffffffffffffffffff16021790555050505061222a806101296000396000f3fe6080604052600436106100a4576000357c0100000000000000000000000000000000000000000000000000000000900463ffffffff16806301363db5146100a9578063038defd7146101e25780631a6952301461027357806335b00543146102c45780633fc8cef3146103ea578063482480e21461044157806398ee9ffd14610492578063b68d08e0146105e2578063c45a015514610673578063f4b9fa75146106ca575b600080fd5b6101a0600480360360a08110156100bf57600080fd5b81019080803590602001906401000000008111156100dc57600080fd5b8201836020820111156100ee57600080fd5b8035906020019184600183028401116401000000008311171561011057600080fd5b91908080601f016020809104026020016040519081016040528093929190818152602001838380828437600081840152601f19601f8201169050808301925050505050505091929192908035906020019092919080359060200190929190803573ffffffffffffffffffffffffffffffffffffffff16906020019092919080359060200190929190505050610721565b604051808273ffffffffffffffffffffffffffffffffffffffff1673ffffffffffffffffffffffffffffffffffffffff16815260200191505060405180910390f35b3480156101ee57600080fd5b506102316004803603602081101561020557600080fd5b81019080803573ffffffffffffffffffffffffffffffffffffffff169060200190929190505050610e57565b604051808273ffffffffffffffffffffffffffffffffffffffff1673ffffffffffffffffffffffffffffffffffffffff16815260200191505060405180910390f35b34801561027f57600080fd5b506102c26004803603602081101561029657600080fd5b81019080803573ffffffffffffffffffffffffffffffffffffffff169060200190929190505050610e8a565b005b3480156102d057600080fd5b506103a8600480360360808110156102e757600080fd5b810190808035906020019064010000000081111561030457600080fd5b82018360208201111561031657600080fd5b8035906020019184600183028401116401000000008311171561033857600080fd5b91908080601f016020809104026020016040519081016040528093929190818152602001838380828437600081840152601f19601f820116905080830192505050505050509192919290803590602001909291908035906020019092919080359060200190929190505050610fa5565b604051808273ffffffffffffffffffffffffffffffffffffffff1673ffffffffffffffffffffffffffffffffffffffff16815260200191505060405180910390f35b3480156103f657600080fd5b506103ff6115b8565b604051808273ffffffffffffffffffffffffffffffffffffffff1673ffffffffffffffffffffffffffffffffffffffff16815260200191505060405180910390f35b34801561044d57600080fd5b506104906004803603602081101561046457600080fd5b81019080803573ffffffffffffffffffffffffffffffffffffffff1690602001909291905050506115de565b005b34801561049e57600080fd5b506105a0600480360360c08110156104b557600080fd5b81019080803590602001906401000000008111156104d257600080fd5b8201836020820111156104e457600080fd5b8035906020019184600183028401116401000000008311171561050657600080fd5b91908080601f016020809104026020016040519081016040528093929190818152602001838380828437600081840152601f19601f8201169050808301925050505050505091929192908035906020019092919080359060200190929190803573ffffffffffffffffffffffffffffffffffffffff16906020019092919080359060200190929190803590602001909291905050506118b5565b604051808273ffffffffffffffffffffffffffffffffffffffff1673ffffffffffffffffffffffffffffffffffffffff16815260200191505060405180910390f35b3480156105ee57600080fd5b506106316004803603602081101561060557600080fd5b81019080803573ffffffffffffffffffffffffffffffffffffffff169060200190929190505050612180565b604051808273ffffffffffffffffffffffffffffffffffffffff1673ffffffffffffffffffffffffffffffffffffffff16815260200191505060405180910390f35b34801561067f57600080fd5b506106886121b3565b604051808273ffffffffffffffffffffffffffffffffffffffff1673ffffffffffffffffffffffffffffffffffffffff16815260200191505060405180910390f35b3480156106d657600080fd5b506106df6121d8565b604051808273ffffffffffffffffffffffffffffffffffffffff1673ffffffffffffffffffffffffffffffffffffffff16815260200191505060405180910390f35b60008073ffffffffffffffffffffffffffffffffffffffff16600360003373ffffffffffffffffffffffffffffffffffffffff1673ffffffffffffffffffffffffffffffffffffffff16815260200190815260200160002060009054906101000a900473ffffffffffffffffffffffffffffffffffffffff1673ffffffffffffffffffffffffffffffffffffffff161415156107bc57600080fd5b600260009054906101000a900473ffffffffffffffffffffffffffffffffffffffff1673ffffffffffffffffffffffffffffffffffffffff1663d0e30db0346040518263ffffffff167c01000000000000000000000000000000000000000000000000000000000281526004016000604051808303818588803b15801561084257600080fd5b505af1158015610856573d6000803e3d6000fd5b5050505050600260009054906101000a900473ffffffffffffffffffffffffffffffffffffffff1673ffffffffffffffffffffffffffffffffffffffff1663095ea7b384346040518363ffffffff167c0100000000000000000000000000000000000000000000000000000000028152600401808373ffffffffffffffffffffffffffffffffffffffff1673ffffffffffffffffffffffffffffffffffffffff16815260200182815260200192505050602060405180830381600087803b15801561092057600080fd5b505af1158015610934573d6000803e3d6000fd5b505050506040513d602081101561094a57600080fd5b8101908080519060200190929190505050151561096657600080fd5b60008373ffffffffffffffffffffffffffffffffffffffff166396e4ee3d34856040518363ffffffff167c01000000000000000000000000000000000000000000000000000000000281526004018083815260200182815260200192505050602060405180830381600087803b1580156109df57600080fd5b505af11580156109f3573d6000803e3d6000fd5b505050506040513d6020811015610a0957600080fd5b81019080805190602001909291905050509050600160009054906101000a900473ffffffffffffffffffffffffffffffffffffffff1673ffffffffffffffffffffffffffffffffffffffff1663095ea7b36000809054906101000a900473ffffffffffffffffffffffffffffffffffffffff16836040518363ffffffff167c0100000000000000000000000000000000000000000000000000000000028152600401808373ffffffffffffffffffffffffffffffffffffffff1673ffffffffffffffffffffffffffffffffffffffff16815260200182815260200192505050602060405180830381600087803b158015610b0257600080fd5b505af1158015610b16573d6000803e3d6000fd5b505050506040513d6020811015610b2c57600080fd5b81019080805190602001909291905050501515610b4857600080fd5b6000809054906101000a900473ffffffffffffffffffffffffffffffffffffffff1673ffffffffffffffffffffffffffffffffffffffff1663d2d0d52533600160009054906101000a900473ffffffffffffffffffffffffffffffffffffffff168a8a8a876040518763ffffffff167c0100000000000000000000000000000000000000000000000000000000028152600401808773ffffffffffffffffffffffffffffffffffffffff1673ffffffffffffffffffffffffffffffffffffffff1681526020018673ffffffffffffffffffffffffffffffffffffffff1673ffffffffffffffffffffffffffffffffffffffff16815260200180602001858152602001848152602001838152602001828103825286818151815260200191508051906020019080838360005b83811015610c8e578082015181840152602081019050610c73565b50505050905090810190601f168015610cbb5780820380516001836020036101000a031916815260200191505b50975050505050505050602060405180830381600087803b158015610cdf57600080fd5b505af1158015610cf3573d6000803e3d6000fd5b505050506040513d6020811015610d0957600080fd5b810190808051906020019092919050505091508173ffffffffffffffffffffffffffffffffffffffff1663f2fde38b336040518263ffffffff167c0100000000000000000000000000000000000000000000000000000000028152600401808273ffffffffffffffffffffffffffffffffffffffff1673ffffffffffffffffffffffffffffffffffffffff168152602001915050600060405180830381600087803b158015610db757600080fd5b505af1158015610dcb573d6000803e3d6000fd5b5050505081600360003373ffffffffffffffffffffffffffffffffffffffff1673ffffffffffffffffffffffffffffffffffffffff16815260200190815260200160002060006101000a81548173ffffffffffffffffffffffffffffffffffffffff021916908373ffffffffffffffffffffffffffffffffffffffff1602179055505095945050505050565b60036020528060005260406000206000915054906101000a900473ffffffffffffffffffffffffffffffffffffffff1681565b600073ffffffffffffffffffffffffffffffffffffffff16600360008373ffffffffffffffffffffffffffffffffffffffff1673ffffffffffffffffffffffffffffffffffffffff16815260200190815260200160002060009054906101000a900473ffffffffffffffffffffffffffffffffffffffff1673ffffffffffffffffffffffffffffffffffffffff16141515610f2457600080fd5b80600460003373ffffffffffffffffffffffffffffffffffffffff1673ffffffffffffffffffffffffffffffffffffffff16815260200190815260200160002060006101000a81548173ffffffffffffffffffffffffffffffffffffffff021916908373ffffffffffffffffffffffffffffffffffffffff16021790555050565b60008073ffffffffffffffffffffffffffffffffffffffff16600360003373ffffffffffffffffffffffffffffffffffffffff1673ffffffffffffffffffffffffffffffffffffffff16815260200190815260200160002060009054906101000a900473ffffffffffffffffffffffffffffffffffffffff1673ffffffffffffffffffffffffffffffffffffffff1614151561104057600080fd5b600160009054906101000a900473ffffffffffffffffffffffffffffffffffffffff1673ffffffffffffffffffffffffffffffffffffffff166323b872dd3330856040518463ffffffff167c0100000000000000000000000000000000000000000000000000000000028152600401808473ffffffffffffffffffffffffffffffffffffffff1673ffffffffffffffffffffffffffffffffffffffff1681526020018373ffffffffffffffffffffffffffffffffffffffff1673ffffffffffffffffffffffffffffffffffffffff1681526020018281526020019350505050602060405180830381600087803b15801561113957600080fd5b505af115801561114d573d6000803e3d6000fd5b505050506040513d602081101561116357600080fd5b8101908080519060200190929190505050151561117f57600080fd5b600160009054906101000a900473ffffffffffffffffffffffffffffffffffffffff1673ffffffffffffffffffffffffffffffffffffffff1663095ea7b36000809054906101000a900473ffffffffffffffffffffffffffffffffffffffff16846040518363ffffffff167c0100000000000000000000000000000000000000000000000000000000028152600401808373ffffffffffffffffffffffffffffffffffffffff1673ffffffffffffffffffffffffffffffffffffffff16815260200182815260200192505050602060405180830381600087803b15801561126557600080fd5b505af1158015611279573d6000803e3d6000fd5b505050506040513d602081101561128f57600080fd5b810190808051906020019092919050505015156112ab57600080fd5b6000809054906101000a900473ffffffffffffffffffffffffffffffffffffffff1673ffffffffffffffffffffffffffffffffffffffff1663d2d0d52533600160009054906101000a900473ffffffffffffffffffffffffffffffffffffffff16888888886040518763ffffffff167c0100000000000000000000000000000000000000000000000000000000028152600401808773ffffffffffffffffffffffffffffffffffffffff1673ffffffffffffffffffffffffffffffffffffffff1681526020018673ffffffffffffffffffffffffffffffffffffffff1673ffffffffffffffffffffffffffffffffffffffff16815260200180602001858152602001848152602001838152602001828103825286818151815260200191508051906020019080838360005b838110156113f15780820151818401526020810190506113d6565b50505050905090810190601f16801561141e5780820380516001836020036101000a031916815260200191505b50975050505050505050602060405180830381600087803b15801561144257600080fd5b505af1158015611456573d6000803e3d6000fd5b505050506040513d602081101561146c57600080fd5b810190808051906020019092919050505090508073ffffffffffffffffffffffffffffffffffffffff1663f2fde38b336040518263ffffffff167c0100000000000000000000000000000000000000000000000000000000028152600401808273ffffffffffffffffffffffffffffffffffffffff1673ffffffffffffffffffffffffffffffffffffffff168152602001915050600060405180830381600087803b15801561151a57600080fd5b505af115801561152e573d6000803e3d6000fd5b5050505080600360003373ffffffffffffffffffffffffffffffffffffffff1673ffffffffffffffffffffffffffffffffffffffff16815260200190815260200160002060006101000a81548173ffffffffffffffffffffffffffffffffffffffff021916908373ffffffffffffffffffffffffffffffffffffffff160217905550949350505050565b600260009054906101000a900473ffffffffffffffffffffffffffffffffffffffff1681565b600073ffffffffffffffffffffffffffffffffffffffff16600360003373ffffffffffffffffffffffffffffffffffffffff1673ffffffffffffffffffffffffffffffffffffffff16815260200190815260200160002060009054906101000a900473ffffffffffffffffffffffffffffffffffffffff1673ffffffffffffffffffffffffffffffffffffffff1614151561167857600080fd5b3373ffffffffffffffffffffffffffffffffffffffff16600460008373ffffffffffffffffffffffffffffffffffffffff1673ffffffffffffffffffffffffffffffffffffffff16815260200190815260200160002060009054906101000a900473ffffffffffffffffffffffffffffffffffffffff1673ffffffffffffffffffffffffffffffffffffffff1614151561171157600080fd5b600360008273ffffffffffffffffffffffffffffffffffffffff1673ffffffffffffffffffffffffffffffffffffffff16815260200190815260200160002060009054906101000a900473ffffffffffffffffffffffffffffffffffffffff16600360003373ffffffffffffffffffffffffffffffffffffffff1673ffffffffffffffffffffffffffffffffffffffff16815260200190815260200160002060006101000a81548173ffffffffffffffffffffffffffffffffffffffff021916908373ffffffffffffffffffffffffffffffffffffffff160217905550600460008273ffffffffffffffffffffffffffffffffffffffff1673ffffffffffffffffffffffffffffffffffffffff16815260200190815260200160002060006101000a81549073ffffffffffffffffffffffffffffffffffffffff0219169055600360008273ffffffffffffffffffffffffffffffffffffffff1673ffffffffffffffffffffffffffffffffffffffff16815260200190815260200160002060006101000a81549073ffffffffffffffffffffffffffffffffffffffff021916905550565b60008073ffffffffffffffffffffffffffffffffffffffff16600360003373ffffffffffffffffffffffffffffffffffffffff1673ffffffffffffffffffffffffffffffffffffffff16815260200190815260200160002060009054906101000a900473ffffffffffffffffffffffffffffffffffffffff1673ffffffffffffffffffffffffffffffffffffffff1614151561195057600080fd5b8373ffffffffffffffffffffffffffffffffffffffff166396336b306040518163ffffffff167c010000000000000000000000000000000000000000000000000000000002815260040160206040518083038186803b1580156119b257600080fd5b505afa1580156119c6573d6000803e3d6000fd5b505050506040513d60208110156119dc57600080fd5b810190808051906020019092919050505073ffffffffffffffffffffffffffffffffffffffff166323b872dd3330866040518463ffffffff167c0100000000000000000000000000000000000000000000000000000000028152600401808473ffffffffffffffffffffffffffffffffffffffff1673ffffffffffffffffffffffffffffffffffffffff1681526020018373ffffffffffffffffffffffffffffffffffffffff1673ffffffffffffffffffffffffffffffffffffffff1681526020018281526020019350505050602060405180830381600087803b158015611ac357600080fd5b505af1158015611ad7573d6000803e3d6000fd5b505050506040513d6020811015611aed57600080fd5b81019080805190602001909291905050501515611b0957600080fd5b8373ffffffffffffffffffffffffffffffffffffffff166396336b306040518163ffffffff167c010000000000000000000000000000000000000000000000000000000002815260040160206040518083038186803b158015611b6b57600080fd5b505afa158015611b7f573d6000803e3d6000fd5b505050506040513d6020811015611b9557600080fd5b810190808051906020019092919050505073ffffffffffffffffffffffffffffffffffffffff1663095ea7b385856040518363ffffffff167c0100000000000000000000000000000000000000000000000000000000028152600401808373ffffffffffffffffffffffffffffffffffffffff1673ffffffffffffffffffffffffffffffffffffffff16815260200182815260200192505050602060405180830381600087803b158015611c4857600080fd5b505af1158015611c5c573d6000803e3d6000fd5b505050506040513d6020811015611c7257600080fd5b81019080805190602001909291905050501515611c8e57600080fd5b60008473ffffffffffffffffffffffffffffffffffffffff166396e4ee3d85856040518363ffffffff167c01000000000000000000000000000000000000000000000000000000000281526004018083815260200182815260200192505050602060405180830381600087803b158015611d0757600080fd5b505af1158015611d1b573d6000803e3d6000fd5b505050506040513d6020811015611d3157600080fd5b81019080805190602001909291905050509050600160009054906101000a900473ffffffffffffffffffffffffffffffffffffffff1673ffffffffffffffffffffffffffffffffffffffff1663095ea7b36000809054906101000a900473ffffffffffffffffffffffffffffffffffffffff16836040518363ffffffff167c0100000000000000000000000000000000000000000000000000000000028152600401808373ffffffffffffffffffffffffffffffffffffffff1673ffffffffffffffffffffffffffffffffffffffff16815260200182815260200192505050602060405180830381600087803b158015611e2a57600080fd5b505af1158015611e3e573d6000803e3d6000fd5b505050506040513d6020811015611e5457600080fd5b81019080805190602001909291905050501515611e7057600080fd5b6000809054906101000a900473ffffffffffffffffffffffffffffffffffffffff1673ffffffffffffffffffffffffffffffffffffffff1663d2d0d52533600160009054906101000a900473ffffffffffffffffffffffffffffffffffffffff168b8b8b876040518763ffffffff167c0100000000000000000000000000000000000000000000000000000000028152600401808773ffffffffffffffffffffffffffffffffffffffff1673ffffffffffffffffffffffffffffffffffffffff1681526020018673ffffffffffffffffffffffffffffffffffffffff1673ffffffffffffffffffffffffffffffffffffffff16815260200180602001858152602001848152602001838152602001828103825286818151815260200191508051906020019080838360005b83811015611fb6578082015181840152602081019050611f9b565b50505050905090810190601f168015611fe35780820380516001836020036101000a031916815260200191505b50975050505050505050602060405180830381600087803b15801561200757600080fd5b505af115801561201b573d6000803e3d6000fd5b505050506040513d602081101561203157600080fd5b810190808051906020019092919050505091508173ffffffffffffffffffffffffffffffffffffffff1663f2fde38b336040518263ffffffff167c0100000000000000000000000000000000000000000000000000000000028152600401808273ffffffffffffffffffffffffffffffffffffffff1673ffffffffffffffffffffffffffffffffffffffff168152602001915050600060405180830381600087803b1580156120df57600080fd5b505af11580156120f3573d6000803e3d6000fd5b5050505081600360003373ffffffffffffffffffffffffffffffffffffffff1673ffffffffffffffffffffffffffffffffffffffff16815260200190815260200160002060006101000a81548173ffffffffffffffffffffffffffffffffffffffff021916908373ffffffffffffffffffffffffffffffffffffffff160217905550509695505050505050565b60046020528060005260406000206000915054906101000a900473ffffffffffffffffffffffffffffffffffffffff1681565b6000809054906101000a900473ffffffffffffffffffffffffffffffffffffffff1681565b600160009054906101000a900473ffffffffffffffffffffffffffffffffffffffff168156fea165627a7a723058200ecf7588606f9f47720d2b1677d581675a2f9378eeba4d91e9a4d6af10c6d7090029",
  "source": "pragma solidity ^0.5.0;\n\nimport \"./Interfaces.sol\";\nimport \"./MeDaoFactory.sol\";\n\ncontract MeDaoRegistry {\n\n    address constant NULL = address(0x0);\n\n    MeDaoFactory public factory;\n    ERC20 public dai;\n    WETH public weth;\n\n    mapping (address => MeDao) public registry;\n    mapping (address => address) public transferRegistry;\n\n    constructor (\n        MeDaoFactory _factory,\n        ERC20 _dai,\n        WETH _weth\n    ) public {\n        factory = _factory;\n        dai = _dai;\n        weth = _weth;\n    }\n\n    function create (\n        string memory name,\n        int birthTimestamp,\n        uint tokenClaim,\n        uint initialReserve\n    ) public returns (MeDao medao) {\n        require(address(registry[msg.sender]) == NULL);\n\n        require(dai.transferFrom(msg.sender, address(this), initialReserve));\n        require(dai.approve(address(factory), initialReserve));\n\n        medao = MeDao(factory.create(\n            msg.sender,\n            dai,\n            name,\n            birthTimestamp,\n            tokenClaim,\n            initialReserve\n        ));\n\n        medao.transferOwnership(msg.sender);\n        registry[msg.sender] = medao;\n    }\n\n    function create (\n        string memory name,\n        int birthTimestamp,\n        uint tokenClaim,\n        TokenConverter converter,\n        uint minFillAmount\n    ) public payable returns (MeDao medao) {\n        require(address(registry[msg.sender]) == NULL);\n\n        weth.deposit.value(msg.value)();\n        require(weth.approve(address(converter), msg.value));\n        uint initialReserve = converter.convert(msg.value, minFillAmount);\n        require(dai.approve(address(factory), initialReserve));\n\n        medao = MeDao(factory.create(\n            msg.sender,\n            dai,\n            name,\n            birthTimestamp,\n            tokenClaim,\n            initialReserve\n        ));\n\n        medao.transferOwnership(msg.sender);\n        registry[msg.sender] = medao;\n    }\n\n    function create (\n        string memory name,\n        int birthTimestamp,\n        uint tokenClaim,\n        TokenConverter converter,\n        uint convertAmount,\n        uint minFillAmount\n    ) public returns (MeDao medao) {\n        require(address(registry[msg.sender]) == NULL);\n\n        require(converter.payToken().transferFrom(msg.sender, address(this), convertAmount));\n        require(converter.payToken().approve(address(converter), convertAmount));\n\n        uint initialReserve = converter.convert(convertAmount, minFillAmount);\n        require(dai.approve(address(factory), initialReserve));\n\n        medao = MeDao(factory.create(\n            msg.sender,\n            dai,\n            name,\n            birthTimestamp,\n            tokenClaim,\n            initialReserve\n        ));\n\n        medao.transferOwnership(msg.sender);\n        registry[msg.sender] = medao;\n    }\n\n    function transfer (address newOwner) public {\n        require(address(registry[newOwner]) == address(0x0));\n\n        transferRegistry[msg.sender] = newOwner;\n    }\n\n    function claimTransfer (address oldOwner) public {\n        require(address(registry[msg.sender]) == address(0x0));\n        require(transferRegistry[oldOwner] == msg.sender);\n\n        registry[msg.sender] = registry[oldOwner];\n        delete transferRegistry[oldOwner];\n        delete registry[oldOwner];\n    }\n\n}\n",
  "sourcePath": "/home/joe/Documents/github/chicobitcoinjoe/MeDao/contracts/MeDaoRegistry.sol",
  "compiler": {
    "name": "solc",
    "version": "0.5.0+commit.1d4f565a.Emscripten.clang"
  },
  "schemaVersion": "3.0.9",
  "updatedAt": "2019-05-29T20:14:20.824Z",
  "devdoc": {
    "methods": {}
  },
  "userdoc": {
    "methods": {}
  }
}