{
  "contractName": "Employee",
  "abi": [
    {
      "constant": true,
      "inputs": [],
      "name": "hash",
      "outputs": [
        {
          "name": "",
          "type": "string"
        }
      ],
      "payable": false,
      "stateMutability": "view",
      "type": "function"
    },
    {
      "constant": true,
      "inputs": [],
      "name": "identity",
      "outputs": [
        {
          "name": "",
          "type": "address"
        }
      ],
      "payable": false,
      "stateMutability": "view",
      "type": "function"
    },
    {
      "constant": true,
      "inputs": [
        {
          "name": "",
          "type": "uint256"
        }
      ],
      "name": "tokens",
      "outputs": [
        {
          "name": "",
          "type": "address"
        }
      ],
      "payable": false,
      "stateMutability": "view",
      "type": "function"
    },
    {
      "constant": true,
      "inputs": [],
      "name": "maxTokenSupply",
      "outputs": [
        {
          "name": "",
          "type": "uint256"
        }
      ],
      "payable": false,
      "stateMutability": "view",
      "type": "function"
    },
    {
      "constant": true,
      "inputs": [],
      "name": "shareToken",
      "outputs": [
        {
          "name": "",
          "type": "address"
        }
      ],
      "payable": false,
      "stateMutability": "view",
      "type": "function"
    },
    {
      "constant": true,
      "inputs": [],
      "name": "burnedTokenSupply",
      "outputs": [
        {
          "name": "",
          "type": "uint256"
        }
      ],
      "payable": false,
      "stateMutability": "view",
      "type": "function"
    },
    {
      "constant": true,
      "inputs": [],
      "name": "paycheckTimestamp",
      "outputs": [
        {
          "name": "",
          "type": "uint256"
        }
      ],
      "payable": false,
      "stateMutability": "view",
      "type": "function"
    },
    {
      "constant": true,
      "inputs": [],
      "name": "owner",
      "outputs": [
        {
          "name": "",
          "type": "address"
        }
      ],
      "payable": false,
      "stateMutability": "view",
      "type": "function"
    },
    {
      "constant": true,
      "inputs": [],
      "name": "blockInitialized",
      "outputs": [
        {
          "name": "",
          "type": "uint256"
        }
      ],
      "payable": false,
      "stateMutability": "view",
      "type": "function"
    },
    {
      "constant": true,
      "inputs": [],
      "name": "factory",
      "outputs": [
        {
          "name": "",
          "type": "address"
        }
      ],
      "payable": false,
      "stateMutability": "view",
      "type": "function"
    },
    {
      "constant": false,
      "inputs": [
        {
          "name": "newOwner",
          "type": "address"
        }
      ],
      "name": "transferOwnership",
      "outputs": [],
      "payable": false,
      "stateMutability": "nonpayable",
      "type": "function"
    },
    {
      "constant": true,
      "inputs": [],
      "name": "reserveToken",
      "outputs": [
        {
          "name": "",
          "type": "address"
        }
      ],
      "payable": false,
      "stateMutability": "view",
      "type": "function"
    },
    {
      "inputs": [],
      "payable": false,
      "stateMutability": "nonpayable",
      "type": "constructor"
    },
    {
      "anonymous": false,
      "inputs": [
        {
          "indexed": false,
          "name": "msgSender",
          "type": "address"
        },
        {
          "indexed": false,
          "name": "reserveAmount",
          "type": "uint256"
        },
        {
          "indexed": false,
          "name": "shareClaim",
          "type": "uint256"
        }
      ],
      "name": "Invest_event",
      "type": "event"
    },
    {
      "anonymous": false,
      "inputs": [
        {
          "indexed": false,
          "name": "msgSender",
          "type": "address"
        },
        {
          "indexed": false,
          "name": "shareAmount",
          "type": "uint256"
        },
        {
          "indexed": false,
          "name": "reserveClaim",
          "type": "uint256"
        }
      ],
      "name": "Divest_event",
      "type": "event"
    },
    {
      "anonymous": false,
      "inputs": [
        {
          "indexed": false,
          "name": "msgSender",
          "type": "address"
        },
        {
          "indexed": false,
          "name": "shareAmount",
          "type": "uint256"
        }
      ],
      "name": "Burn_event",
      "type": "event"
    },
    {
      "anonymous": false,
      "inputs": [
        {
          "indexed": false,
          "name": "reserveAmount",
          "type": "uint256"
        }
      ],
      "name": "Pay_event",
      "type": "event"
    },
    {
      "anonymous": false,
      "inputs": [
        {
          "indexed": false,
          "name": "token",
          "type": "address"
        }
      ],
      "name": "Token_event",
      "type": "event"
    },
    {
      "constant": false,
      "inputs": [
        {
          "name": "_owner",
          "type": "address"
        },
        {
          "name": "_reserveToken",
          "type": "address"
        },
        {
          "name": "_shareToken",
          "type": "address"
        },
        {
          "name": "_maxTokenSupply",
          "type": "uint256"
        },
        {
          "name": "_initialShares",
          "type": "uint256"
        },
        {
          "name": "_initialReserves",
          "type": "uint256"
        }
      ],
      "name": "initialize",
      "outputs": [],
      "payable": false,
      "stateMutability": "nonpayable",
      "type": "function"
    },
    {
      "constant": true,
      "inputs": [
        {
          "name": "reserveAmount",
          "type": "uint256"
        }
      ],
      "name": "calculateShareClaim",
      "outputs": [
        {
          "name": "",
          "type": "uint256"
        }
      ],
      "payable": false,
      "stateMutability": "view",
      "type": "function"
    },
    {
      "constant": true,
      "inputs": [
        {
          "name": "shareAmount",
          "type": "uint256"
        }
      ],
      "name": "calculateReserveClaim",
      "outputs": [
        {
          "name": "",
          "type": "uint256"
        }
      ],
      "payable": false,
      "stateMutability": "view",
      "type": "function"
    },
    {
      "constant": true,
      "inputs": [],
      "name": "calculateCurrentPaycheck",
      "outputs": [
        {
          "name": "",
          "type": "uint256"
        }
      ],
      "payable": false,
      "stateMutability": "view",
      "type": "function"
    },
    {
      "constant": false,
      "inputs": [],
      "name": "collectPaycheck",
      "outputs": [
        {
          "name": "reserveClaim",
          "type": "uint256"
        }
      ],
      "payable": false,
      "stateMutability": "nonpayable",
      "type": "function"
    },
    {
      "constant": false,
      "inputs": [
        {
          "name": "reserveAmount",
          "type": "uint256"
        }
      ],
      "name": "invest",
      "outputs": [],
      "payable": false,
      "stateMutability": "nonpayable",
      "type": "function"
    },
    {
      "constant": false,
      "inputs": [
        {
          "name": "shareAmount",
          "type": "uint256"
        }
      ],
      "name": "divest",
      "outputs": [],
      "payable": false,
      "stateMutability": "nonpayable",
      "type": "function"
    },
    {
      "constant": false,
      "inputs": [
        {
          "name": "shareAmount",
          "type": "uint256"
        }
      ],
      "name": "burn",
      "outputs": [],
      "payable": false,
      "stateMutability": "nonpayable",
      "type": "function"
    },
    {
      "constant": false,
      "inputs": [
        {
          "name": "token",
          "type": "address"
        }
      ],
      "name": "addToken",
      "outputs": [],
      "payable": false,
      "stateMutability": "nonpayable",
      "type": "function"
    },
    {
      "constant": true,
      "inputs": [],
      "name": "getTokens",
      "outputs": [
        {
          "name": "",
          "type": "address[]"
        }
      ],
      "payable": false,
      "stateMutability": "view",
      "type": "function"
    },
    {
      "constant": true,
      "inputs": [],
      "name": "getTotalTokens",
      "outputs": [
        {
          "name": "",
          "type": "uint256"
        }
      ],
      "payable": false,
      "stateMutability": "view",
      "type": "function"
    },
    {
      "constant": false,
      "inputs": [
        {
          "name": "_owner",
          "type": "address"
        }
      ],
      "name": "proxyPayment",
      "outputs": [
        {
          "name": "",
          "type": "bool"
        }
      ],
      "payable": true,
      "stateMutability": "payable",
      "type": "function"
    },
    {
      "constant": false,
      "inputs": [
        {
          "name": "_from",
          "type": "address"
        },
        {
          "name": "_to",
          "type": "address"
        },
        {
          "name": "_amount",
          "type": "uint256"
        }
      ],
      "name": "onTransfer",
      "outputs": [
        {
          "name": "",
          "type": "bool"
        }
      ],
      "payable": false,
      "stateMutability": "nonpayable",
      "type": "function"
    },
    {
      "constant": false,
      "inputs": [
        {
          "name": "_owner",
          "type": "address"
        },
        {
          "name": "_spender",
          "type": "address"
        },
        {
          "name": "_amount",
          "type": "uint256"
        }
      ],
      "name": "onApprove",
      "outputs": [
        {
          "name": "",
          "type": "bool"
        }
      ],
      "payable": false,
      "stateMutability": "nonpayable",
      "type": "function"
    }
  ],
  "bytecode": "0x608060405234801561001057600080fd5b50336000806101000a81548173ffffffffffffffffffffffffffffffffffffffff021916908373ffffffffffffffffffffffffffffffffffffffff160217905550436002819055506124a6806100676000396000f3fe6080604052600436106101815760003560e01c80638ca17995116100d1578063d48bfca71161008a578063f08b82e611610064578063f08b82e6146108d0578063f2fde38b146108fb578063f4325d671461094c578063f48c3054146109a357610181565b8063d48bfca7146107c1578063da682aeb14610812578063e2e7afa3146108a557610181565b80638ca17995146105f25780638da5cb5b1461062d5780639bc40c4c14610684578063aa6ca808146106af578063b163ecd21461071b578063c45a01551461076a57610181565b80634f64b2be1161013e5780636c9fa59e116101185780636c9fa59e14610496578063728cdbca146104ed57806375ef2fe91461059c5780637d86f195146105c757610181565b80634f64b2be146103c557806350f7c20414610440578063651c7a731461046b57610181565b806309bd5a60146101865780632afcf480146102165780632c159a1a14610251578063327ca4a8146102a857806342966c68146102f75780634a39314914610332575b600080fd5b34801561019257600080fd5b5061019b6109ff565b6040518080602001828103825283818151815260200191508051906020019080838360005b838110156101db5780820151818401526020810190506101c0565b50505050905090810190601f1680156102085780820380516001836020036101000a031916815260200191505b509250505060405180910390f35b34801561022257600080fd5b5061024f6004803603602081101561023957600080fd5b8101908080359060200190929190505050610a9d565b005b34801561025d57600080fd5b50610266610f23565b604051808273ffffffffffffffffffffffffffffffffffffffff1673ffffffffffffffffffffffffffffffffffffffff16815260200191505060405180910390f35b3480156102b457600080fd5b506102e1600480360360208110156102cb57600080fd5b8101908080359060200190929190505050610f49565b6040518082815260200191505060405180910390f35b34801561030357600080fd5b506103306004803603602081101561031a57600080fd5b81019080803590602001909291905050506110d9565b005b34801561033e57600080fd5b506103ab6004803603606081101561035557600080fd5b81019080803573ffffffffffffffffffffffffffffffffffffffff169060200190929190803573ffffffffffffffffffffffffffffffffffffffff169060200190929190803590602001909291905050506112bd565b604051808215151515815260200191505060405180910390f35b3480156103d157600080fd5b506103fe600480360360208110156103e857600080fd5b81019080803590602001909291905050506112ca565b604051808273ffffffffffffffffffffffffffffffffffffffff1673ffffffffffffffffffffffffffffffffffffffff16815260200191505060405180910390f35b34801561044c57600080fd5b50610455611306565b6040518082815260200191505060405180910390f35b34801561047757600080fd5b5061048061130c565b6040518082815260200191505060405180910390f35b3480156104a257600080fd5b506104ab6113f7565b604051808273ffffffffffffffffffffffffffffffffffffffff1673ffffffffffffffffffffffffffffffffffffffff16815260200191505060405180910390f35b3480156104f957600080fd5b5061059a600480360360c081101561051057600080fd5b81019080803573ffffffffffffffffffffffffffffffffffffffff169060200190929190803573ffffffffffffffffffffffffffffffffffffffff169060200190929190803573ffffffffffffffffffffffffffffffffffffffff16906020019092919080359060200190929190803590602001909291908035906020019092919050505061141d565b005b3480156105a857600080fd5b506105b1611950565b6040518082815260200191505060405180910390f35b3480156105d357600080fd5b506105dc611956565b6040518082815260200191505060405180910390f35b3480156105fe57600080fd5b5061062b6004803603602081101561061557600080fd5b810190808035906020019092919050505061195c565b005b34801561063957600080fd5b50610642611c8c565b604051808273ffffffffffffffffffffffffffffffffffffffff1673ffffffffffffffffffffffffffffffffffffffff16815260200191505060405180910390f35b34801561069057600080fd5b50610699611cb1565b6040518082815260200191505060405180910390f35b3480156106bb57600080fd5b506106c4611cb7565b6040518080602001828103825283818151815260200191508051906020019060200280838360005b838110156107075780820151818401526020810190506106ec565b505050509050019250505060405180910390f35b34801561072757600080fd5b506107546004803603602081101561073e57600080fd5b8101908080359060200190929190505050611d45565b6040518082815260200191505060405180910390f35b34801561077657600080fd5b5061077f611ed5565b604051808273ffffffffffffffffffffffffffffffffffffffff1673ffffffffffffffffffffffffffffffffffffffff16815260200191505060405180910390f35b3480156107cd57600080fd5b50610810600480360360208110156107e457600080fd5b81019080803573ffffffffffffffffffffffffffffffffffffffff169060200190929190505050611efb565b005b34801561081e57600080fd5b5061088b6004803603606081101561083557600080fd5b81019080803573ffffffffffffffffffffffffffffffffffffffff169060200190929190803573ffffffffffffffffffffffffffffffffffffffff16906020019092919080359060200190929190505050612089565b604051808215151515815260200191505060405180910390f35b3480156108b157600080fd5b506108ba612096565b6040518082815260200191505060405180910390f35b3480156108dc57600080fd5b506108e5612315565b6040518082815260200191505060405180910390f35b34801561090757600080fd5b5061094a6004803603602081101561091e57600080fd5b81019080803573ffffffffffffffffffffffffffffffffffffffff169060200190929190505050612322565b005b34801561095857600080fd5b50610961612427565b604051808273ffffffffffffffffffffffffffffffffffffffff1673ffffffffffffffffffffffffffffffffffffffff16815260200191505060405180910390f35b6109e5600480360360208110156109b957600080fd5b81019080803573ffffffffffffffffffffffffffffffffffffffff16906020019092919050505061244d565b604051808215151515815260200191505060405180910390f35b60098054600181600116156101000203166002900480601f016020809104026020016040519081016040528092919081815260200182805460018160011615610100020316600290048015610a955780601f10610a6a57610100808354040283529160200191610a95565b820191906000526020600020905b815481529060010190602001808311610a7857829003601f168201915b505050505081565b6000600460009054906101000a900473ffffffffffffffffffffffffffffffffffffffff1673ffffffffffffffffffffffffffffffffffffffff166318160ddd6040518163ffffffff1660e01b815260040160206040518083038186803b158015610b0757600080fd5b505afa158015610b1b573d6000803e3d6000fd5b505050506040513d6020811015610b3157600080fd5b81019080805190602001909291905050506005540390506000610b5383610f49565b905080821015610bcb576040517f08c379a00000000000000000000000000000000000000000000000000000000081526004018080602001828103825260168152602001807f696e76616c6964207265736572766520616d6f756e740000000000000000000081525060200191505060405180910390fd5b600360009054906101000a900473ffffffffffffffffffffffffffffffffffffffff1673ffffffffffffffffffffffffffffffffffffffff166323b872dd3330866040518463ffffffff1660e01b8152600401808473ffffffffffffffffffffffffffffffffffffffff1673ffffffffffffffffffffffffffffffffffffffff1681526020018373ffffffffffffffffffffffffffffffffffffffff1673ffffffffffffffffffffffffffffffffffffffff1681526020018281526020019350505050602060405180830381600087803b158015610ca857600080fd5b505af1158015610cbc573d6000803e3d6000fd5b505050506040513d6020811015610cd257600080fd5b8101908080519060200190929190505050610d55576040517f08c379a00000000000000000000000000000000000000000000000000000000081526004018080602001828103825260128152602001807f6661696c656420746f207472616e73666572000000000000000000000000000081525060200191505060405180910390fd5b600460009054906101000a900473ffffffffffffffffffffffffffffffffffffffff1673ffffffffffffffffffffffffffffffffffffffff1663827f32c033836040518363ffffffff1660e01b8152600401808373ffffffffffffffffffffffffffffffffffffffff1673ffffffffffffffffffffffffffffffffffffffff16815260200182815260200192505050602060405180830381600087803b158015610dfe57600080fd5b505af1158015610e12573d6000803e3d6000fd5b505050506040513d6020811015610e2857600080fd5b8101908080519060200190929190505050610eab576040517f08c379a00000000000000000000000000000000000000000000000000000000081526004018080602001828103825260198152602001807f6661696c656420746f2067656e657261746520746f6b656e730000000000000081525060200191505060405180910390fd5b7f64f218c88dfcb74b07ae7dce32c3cf1cbbc84aca938033113d18a040b44f04ad338483604051808473ffffffffffffffffffffffffffffffffffffffff1673ffffffffffffffffffffffffffffffffffffffff168152602001838152602001828152602001935050505060405180910390a1505050565b600760009054906101000a900473ffffffffffffffffffffffffffffffffffffffff1681565b6000600360009054906101000a900473ffffffffffffffffffffffffffffffffffffffff1673ffffffffffffffffffffffffffffffffffffffff166370a08231306040518263ffffffff1660e01b8152600401808273ffffffffffffffffffffffffffffffffffffffff1673ffffffffffffffffffffffffffffffffffffffff16815260200191505060206040518083038186803b158015610fea57600080fd5b505afa158015610ffe573d6000803e3d6000fd5b505050506040513d602081101561101457600080fd5b810190808051906020019092919050505082600460009054906101000a900473ffffffffffffffffffffffffffffffffffffffff1673ffffffffffffffffffffffffffffffffffffffff166318160ddd6040518163ffffffff1660e01b815260040160206040518083038186803b15801561108e57600080fd5b505afa1580156110a2573d6000803e3d6000fd5b505050506040513d60208110156110b857600080fd5b810190808051906020019092919050505002816110d157fe5b049050919050565b600460009054906101000a900473ffffffffffffffffffffffffffffffffffffffff1673ffffffffffffffffffffffffffffffffffffffff1663d3ce77fe33836040518363ffffffff1660e01b8152600401808373ffffffffffffffffffffffffffffffffffffffff1673ffffffffffffffffffffffffffffffffffffffff16815260200182815260200192505050602060405180830381600087803b15801561118257600080fd5b505af1158015611196573d6000803e3d6000fd5b505050506040513d60208110156111ac57600080fd5b810190808051906020019092919050505061122f576040517f08c379a00000000000000000000000000000000000000000000000000000000081526004018080602001828103825260158152602001807f6661696c656420746f206275726e20736861726573000000000000000000000081525060200191505060405180910390fd5b80600560008282540392505081905550806006600082825401925050819055507fc1fa857748d1f74a939a783f0c9da4b72454f85826975cafa980d493c8f410793382604051808373ffffffffffffffffffffffffffffffffffffffff1673ffffffffffffffffffffffffffffffffffffffff1681526020018281526020019250505060405180910390a150565b6000600190509392505050565b600a81815481106112d757fe5b906000526020600020016000915054906101000a900473ffffffffffffffffffffffffffffffffffffffff1681565b60055481565b60008060085442039050600060a86028670de0b6b3a76400008402028161132f57fe5b0490506000600554600460009054906101000a900473ffffffffffffffffffffffffffffffffffffffff1673ffffffffffffffffffffffffffffffffffffffff166318160ddd6040518163ffffffff1660e01b815260040160206040518083038186803b15801561139f57600080fd5b505afa1580156113b3573d6000803e3d6000fd5b505050506040513d60208110156113c957600080fd5b81019080805190602001909291905050508302816113e357fe5b0490506113ef81611d45565b935050505090565b600460009054906101000a900473ffffffffffffffffffffffffffffffffffffffff1681565b600060025414611495576040517f08c379a000000000000000000000000000000000000000000000000000000000815260040180806020018281038252601c8152602001807f636f6e747261637420616c726561647920696e697469616c697a65640000000081525060200191505060405180910390fd5b8183101561150b576040517f08c379a00000000000000000000000000000000000000000000000000000000081526004018080602001828103825260168152602001807f696e697469616c2073686172657320696e76616c69640000000000000000000081525060200191505060405180910390fd5b4360028190555033600160006101000a81548173ffffffffffffffffffffffffffffffffffffffff021916908373ffffffffffffffffffffffffffffffffffffffff16021790555042600881905550856000806101000a81548173ffffffffffffffffffffffffffffffffffffffff021916908373ffffffffffffffffffffffffffffffffffffffff16021790555085600760006101000a81548173ffffffffffffffffffffffffffffffffffffffff021916908373ffffffffffffffffffffffffffffffffffffffff16021790555083600460006101000a81548173ffffffffffffffffffffffffffffffffffffffff021916908373ffffffffffffffffffffffffffffffffffffffff16021790555084600360006101000a81548173ffffffffffffffffffffffffffffffffffffffff021916908373ffffffffffffffffffffffffffffffffffffffff16021790555082600581905550600360009054906101000a900473ffffffffffffffffffffffffffffffffffffffff1673ffffffffffffffffffffffffffffffffffffffff166323b872dd3330846040518463ffffffff1660e01b8152600401808473ffffffffffffffffffffffffffffffffffffffff1673ffffffffffffffffffffffffffffffffffffffff1681526020018373ffffffffffffffffffffffffffffffffffffffff1673ffffffffffffffffffffffffffffffffffffffff1681526020018281526020019350505050602060405180830381600087803b15801561174157600080fd5b505af1158015611755573d6000803e3d6000fd5b505050506040513d602081101561176b57600080fd5b81019080805190602001909291905050506117d1576040517f08c379a00000000000000000000000000000000000000000000000000000000081526004018080602001828103825260238152602001806124586023913960400191505060405180910390fd5b600460009054906101000a900473ffffffffffffffffffffffffffffffffffffffff1673ffffffffffffffffffffffffffffffffffffffff1663827f32c06000809054906101000a900473ffffffffffffffffffffffffffffffffffffffff16846040518363ffffffff1660e01b8152600401808373ffffffffffffffffffffffffffffffffffffffff1673ffffffffffffffffffffffffffffffffffffffff16815260200182815260200192505050602060405180830381600087803b15801561189b57600080fd5b505af11580156118af573d6000803e3d6000fd5b505050506040513d60208110156118c557600080fd5b8101908080519060200190929190505050611948576040517f08c379a00000000000000000000000000000000000000000000000000000000081526004018080602001828103825260198152602001807f6661696c656420746f2067656e6572617465207368617265730000000000000081525060200191505060405180910390fd5b505050505050565b60065481565b60085481565b600061196782611d45565b9050600460009054906101000a900473ffffffffffffffffffffffffffffffffffffffff1673ffffffffffffffffffffffffffffffffffffffff1663d3ce77fe33846040518363ffffffff1660e01b8152600401808373ffffffffffffffffffffffffffffffffffffffff1673ffffffffffffffffffffffffffffffffffffffff16815260200182815260200192505050602060405180830381600087803b158015611a1257600080fd5b505af1158015611a26573d6000803e3d6000fd5b505050506040513d6020811015611a3c57600080fd5b8101908080519060200190929190505050611abf576040517f08c379a00000000000000000000000000000000000000000000000000000000081526004018080602001828103825260188152602001807f6661696c656420746f2064657374726f7920746f6b656e73000000000000000081525060200191505060405180910390fd5b600360009054906101000a900473ffffffffffffffffffffffffffffffffffffffff1673ffffffffffffffffffffffffffffffffffffffff1663a9059cbb33836040518363ffffffff1660e01b8152600401808373ffffffffffffffffffffffffffffffffffffffff1673ffffffffffffffffffffffffffffffffffffffff16815260200182815260200192505050602060405180830381600087803b158015611b6857600080fd5b505af1158015611b7c573d6000803e3d6000fd5b505050506040513d6020811015611b9257600080fd5b8101908080519060200190929190505050611c15576040517f08c379a00000000000000000000000000000000000000000000000000000000081526004018080602001828103825260128152602001807f6661696c656420746f207472616e73666572000000000000000000000000000081525060200191505060405180910390fd5b7f40eb9b460e777456b2dd903bc4974e15c1390da40ac0a0062c58cfcc5800cc1a338383604051808473ffffffffffffffffffffffffffffffffffffffff1673ffffffffffffffffffffffffffffffffffffffff168152602001838152602001828152602001935050505060405180910390a15050565b6000809054906101000a900473ffffffffffffffffffffffffffffffffffffffff1681565b60025481565b6060600a805480602002602001604051908101604052809291908181526020018280548015611d3b57602002820191906000526020600020905b8160009054906101000a900473ffffffffffffffffffffffffffffffffffffffff1673ffffffffffffffffffffffffffffffffffffffff1681526020019060010190808311611cf1575b5050505050905090565b6000600460009054906101000a900473ffffffffffffffffffffffffffffffffffffffff1673ffffffffffffffffffffffffffffffffffffffff166318160ddd6040518163ffffffff1660e01b815260040160206040518083038186803b158015611daf57600080fd5b505afa158015611dc3573d6000803e3d6000fd5b505050506040513d6020811015611dd957600080fd5b810190808051906020019092919050505082600360009054906101000a900473ffffffffffffffffffffffffffffffffffffffff1673ffffffffffffffffffffffffffffffffffffffff166370a08231306040518263ffffffff1660e01b8152600401808273ffffffffffffffffffffffffffffffffffffffff1673ffffffffffffffffffffffffffffffffffffffff16815260200191505060206040518083038186803b158015611e8a57600080fd5b505afa158015611e9e573d6000803e3d6000fd5b505050506040513d6020811015611eb457600080fd5b81019080805190602001909291905050500281611ecd57fe5b049050919050565b600160009054906101000a900473ffffffffffffffffffffffffffffffffffffffff1681565b6000809054906101000a900473ffffffffffffffffffffffffffffffffffffffff1673ffffffffffffffffffffffffffffffffffffffff163373ffffffffffffffffffffffffffffffffffffffff1614611fbd576040517f08c379a00000000000000000000000000000000000000000000000000000000081526004018080602001828103825260178152602001807f6d73672073656e646572206973206e6f74206f776e657200000000000000000081525060200191505060405180910390fd5b600a8190806001815401808255809150509060018203906000526020600020016000909192909190916101000a81548173ffffffffffffffffffffffffffffffffffffffff021916908373ffffffffffffffffffffffffffffffffffffffff160217905550507fb1a9b00b9547a74641ee6daf36717d4800d8b97a1f353fd88c423ae6430ff4ff81604051808273ffffffffffffffffffffffffffffffffffffffff1673ffffffffffffffffffffffffffffffffffffffff16815260200191505060405180910390a150565b6000600190509392505050565b60008060009054906101000a900473ffffffffffffffffffffffffffffffffffffffff1673ffffffffffffffffffffffffffffffffffffffff163373ffffffffffffffffffffffffffffffffffffffff161461215a576040517f08c379a00000000000000000000000000000000000000000000000000000000081526004018080602001828103825260178152602001807f6d73672073656e646572206973206e6f74206f776e657200000000000000000081525060200191505060405180910390fd5b61216261130c565b9050600360009054906101000a900473ffffffffffffffffffffffffffffffffffffffff1673ffffffffffffffffffffffffffffffffffffffff1663a9059cbb6000809054906101000a900473ffffffffffffffffffffffffffffffffffffffff16836040518363ffffffff1660e01b8152600401808373ffffffffffffffffffffffffffffffffffffffff1673ffffffffffffffffffffffffffffffffffffffff16815260200182815260200192505050602060405180830381600087803b15801561222e57600080fd5b505af1158015612242573d6000803e3d6000fd5b505050506040513d602081101561225857600080fd5b81019080805190602001909291905050506122db576040517f08c379a000000000000000000000000000000000000000000000000000000000815260040180806020018281038252600d8152602001807f6661696c656420746f207061790000000000000000000000000000000000000081525060200191505060405180910390fd5b7f7da7dfe20590cbafe5c54c5d3549ea4da4244587ec0474d5b7a0a5f3f3ee158e816040518082815260200191505060405180910390a190565b6000600a80549050905090565b6000809054906101000a900473ffffffffffffffffffffffffffffffffffffffff1673ffffffffffffffffffffffffffffffffffffffff163373ffffffffffffffffffffffffffffffffffffffff16146123e4576040517f08c379a00000000000000000000000000000000000000000000000000000000081526004018080602001828103825260178152602001807f6d73672073656e646572206973206e6f74206f776e657200000000000000000081525060200191505060405180910390fd5b806000806101000a81548173ffffffffffffffffffffffffffffffffffffffff021916908373ffffffffffffffffffffffffffffffffffffffff16021790555050565b600360009054906101000a900473ffffffffffffffffffffffffffffffffffffffff1681565b600080905091905056fe6661696c656420746f207472616e7366657220696e697469616c207265736572766573a165627a7a72305820b9e5cb4b2b854efc4a3bbc0e7613f0ef81ef0ca0799a18caa1a3f110c7ddfb070029",
  "source": "pragma solidity ^0.5.0;\n\nimport \"./external/MiniMeToken.sol\";\nimport \"./external/ERC20.sol\";\nimport \"./external/Owned.sol\";\nimport \"./external/CloneFactory.sol\";\n\ncontract EmployeeRegistry is CloneFactory {\n\n    Employee Blueprint;\n    ERC20 public Dai;\n    MiniMeTokenFactory public Factory;\n\n    mapping (address => bool) public created;\n    mapping (address => Employee) public registry;\n\n    constructor (\n        Employee _Blueprint,\n        ERC20 _Dai,\n        MiniMeTokenFactory _Factory\n    ) public {\n        Blueprint = _Blueprint;\n        Dai = _Dai;\n        Factory = _Factory;\n    }\n\n    function register (\n        string memory name,\n        uint maxTokenSupply,\n        uint initialShares,\n        uint initialReserves\n    ) public returns (Employee employee){\n        require(!isRegistered(msg.sender));\n        require(maxTokenSupply > 0);\n        require(maxTokenSupply >= initialShares);\n        require(Dai.transferFrom(msg.sender, address(this), initialReserves));\n\n        MiniMeToken shareToken = Factory.createCloneToken(\n            address(0x0),\n            0,\n            name,\n            18,\n            'seconds',\n            true\n        );\n\n        employee = Employee(createClone(address(Blueprint)));\n        employee.initialize(\n            msg.sender,\n            Dai,\n            shareToken,\n            maxTokenSupply,\n            initialShares,\n            initialReserves\n        );\n\n        registry[msg.sender] = employee;\n        created[address(employee)] = true;\n    }\n\n    function register (Employee employee) public {\n        require(created[address(employee)]);\n        require(!isRegistered(msg.sender));\n        require(employee.identity() == address(employee));\n        registry[msg.sender] = employee;\n    }\n\n    function isRegistered (address identity) public view returns (bool) {\n        return address(registry[identity]) != address(0x0);\n    }\n\n}\n\n/**\n    The goal of this contract is to allow anyone in the world to invest directly in the value of a person.\n    Similar to a crowdfund, many people deposit into a pool of currency. The employee then collects a\n    salary over time from the pool. Unlike traditional crowdfunds, funds are secured by a smart contract\n    with certain gaurantees. In addition, as an Employee adds utility to their token, investors have the\n    potential of making a profit if extra currency is payed the pool or if shares are burned through use.\n\n    1. Investors convert a reserve token into a share token up to a maximum\n    2. The reserve token provides a price floor on the value of the person\n    3. The owner can withdraw reserve currency over time as compensation for work done\n    4. At any point, an investor can convert their share tokens back into an equal portion of the reserve tokens.\n    5. The employee can give back to investors by increasing the reserve token backing or decreasing the total supply of shares\n    6. Additionally, the employee can create snapshot tokens with an equivalent distribution of their share token.\n\n    Whitepaper: https://docs.google.com/document/d/1A8fjq-fONbSUo_zS8ac7Qs3hqog2Ap78eWHjDGHI5_s/edit#heading=h.m1cmgqsdjew5\n**/\ncontract Employee is Owned, TokenController {\n\n    address public factory;         // The factory that deployed this contract\n    uint public blockInitialized;   // The block this contract was initialized\n\n    ERC20 public reserveToken;      // A reserve token to hold the value of a person\n    MiniMeToken public shareToken;  // A cloneable token that represents a share of a person\n    uint public maxTokenSupply;     // The maximum amount of tokens that can be created\n    uint public burnedTokenSupply;  // The total amount of time burned by this contract\n\n    address public identity;        // The account associated with this medao\n    uint public paycheckTimestamp;  // The timestamp a paycheck was last collected\n    string public hash;             // The hash of any relevant data about this medao\n    address[] public tokens;          // A list of tokens associated with the employee\n\n    constructor () public {\n        blockInitialized = block.number;\n    }\n\n    function initialize (\n        address _owner,\n        ERC20 _reserveToken,\n        MiniMeToken _shareToken,\n        uint _maxTokenSupply,\n        uint _initialShares,\n        uint _initialReserves\n    ) public {\n        require(blockInitialized == 0, 'contract already initialized');\n        require(_maxTokenSupply >= _initialShares, 'initial shares invalid');\n\n        blockInitialized = block.number;\n        factory = msg.sender;\n        paycheckTimestamp = now;\n\n        owner = _owner;\n        identity = _owner;\n        shareToken = _shareToken;\n        reserveToken = _reserveToken;\n        maxTokenSupply = _maxTokenSupply;\n\n        require(reserveToken.transferFrom(msg.sender, address(this), _initialReserves), \"failed to transfer initial reserves\");\n        require(shareToken.generateTokens(owner, _initialShares), \"failed to generate shares\");\n    }\n\n    function calculateShareClaim (uint reserveAmount) public view returns (uint) {\n        return shareToken.totalSupply() * reserveAmount / reserveToken.balanceOf(address(this));\n    }\n\n    function calculateReserveClaim (uint shareAmount) public view returns (uint) {\n        return reserveToken.balanceOf(address(this)) * shareAmount / shareToken.totalSupply();\n    }\n\n    function calculateCurrentPaycheck () public view returns (uint) {\n        uint elapsedSeconds = now - paycheckTimestamp;\n        uint workTime = elapsedSeconds * 1 ether * 40 / 168;\n        uint earnedShares = workTime * shareToken.totalSupply() / maxTokenSupply;\n        return calculateReserveClaim(earnedShares);\n    }\n\n    function collectPaycheck () public onlyOwner returns (uint reserveClaim) {\n        reserveClaim = calculateCurrentPaycheck();\n        require(reserveToken.transfer(owner, reserveClaim), 'failed to pay');\n        emit Pay_event(reserveClaim);\n    }\n\n    function invest (uint reserveAmount) public {\n        uint availableSeconds = maxTokenSupply - shareToken.totalSupply();\n        uint claimedShares = calculateShareClaim(reserveAmount);\n        require(availableSeconds >= claimedShares, \"invalid reserve amount\");\n        require(reserveToken.transferFrom(msg.sender, address(this), reserveAmount), \"failed to transfer\");\n        require(shareToken.generateTokens(msg.sender, claimedShares), \"failed to generate tokens\");\n        emit Invest_event(msg.sender, reserveAmount, claimedShares);\n    }\n\n    function divest (uint shareAmount) public {\n        uint reserveClaim = calculateReserveClaim(shareAmount);\n        require(shareToken.destroyTokens(msg.sender, shareAmount), \"failed to destroy tokens\");\n        require(reserveToken.transfer(msg.sender, reserveClaim), \"failed to transfer\");\n        emit Divest_event(msg.sender, shareAmount, reserveClaim);\n    }\n\n    function burn (uint shareAmount) public {\n        require(shareToken.destroyTokens(msg.sender, shareAmount), \"failed to burn shares\");\n        maxTokenSupply -= shareAmount;\n        burnedTokenSupply += shareAmount;\n        emit Burn_event(msg.sender, shareAmount);\n    }\n\n    function addToken (ERC20 token) public onlyOwner {\n        tokens.push(address(token));\n        emit Token_event(token);\n    }\n\n    function getTokens () public view returns (address[] memory) {\n        return tokens;\n    }\n\n    function getTotalTokens () public view returns (uint) {\n        return tokens.length;\n    }\n\n    /// Token Controller Functions\n\n    function proxyPayment (address _owner) public payable returns(bool) {\n        _owner;\n        return false;\n    }\n\n    function onTransfer (address _from, address _to, uint _amount) public returns(bool) {\n        _from; _to; _amount;\n        return true;\n    }\n\n    function onApprove (address _owner, address _spender, uint _amount) public returns(bool) {\n        _owner; _spender; _amount;\n        return true;\n    }\n\n    /// Events\n\n    event Invest_event (address msgSender, uint reserveAmount, uint shareClaim);\n    event Divest_event (address msgSender, uint shareAmount, uint reserveClaim);\n    event Burn_event (address msgSender, uint shareAmount);\n    event Pay_event (uint reserveAmount);\n    event Token_event (ERC20 token);\n\n}\n",
  "sourcePath": "/home/joe/Documents/github/chicobitcoinjoe/medao/contracts/Employee.sol",
  "compiler": {
    "name": "solc",
    "version": "0.5.8+commit.23d335f2.Emscripten.clang"
  },
  "schemaVersion": "3.0.11",
  "updatedAt": "2019-08-01T04:55:58.924Z",
  "devdoc": {
    "methods": {}
  },
  "userdoc": {
    "methods": {
      "proxyPayment(address)": {
        "notice": "Token Controller Functions"
      }
    },
    "notice": "The goal of this contract is to allow anyone in the world to invest directly in the value of a person. Similar to a crowdfund, many people deposit into a pool of currency. The employee then collects a salary over time from the pool. Unlike traditional crowdfunds, funds are secured by a smart contract with certain gaurantees. In addition, as an Employee adds utility to their token, investors have the potential of making a profit if extra currency is payed the pool or if shares are burned through use. 1. Investors convert a reserve token into a share token up to a maximum 2. The reserve token provides a price floor on the value of the person 3. The owner can withdraw reserve currency over time as compensation for work done 4. At any point, an investor can convert their share tokens back into an equal portion of the reserve tokens. 5. The employee can give back to investors by increasing the reserve token backing or decreasing the total supply of shares 6. Additionally, the employee can create snapshot tokens with an equivalent distribution of their share token. Whitepaper: https://docs.google.com/document/d/1A8fjq-fONbSUo_zS8ac7Qs3hqog2Ap78eWHjDGHI5_s/edit#heading=h.m1cmgqsdjew5*"
  }
}