{
  "contractName": "EthToDai",
  "abi": [
    {
      "constant": true,
      "inputs": [
        {
          "name": "token",
          "type": "address"
        },
        {
          "name": "amount",
          "type": "uint256"
        },
        {
          "name": "returnToken",
          "type": "address"
        },
        {
          "name": "minReturnAmount",
          "type": "uint256"
        }
      ],
      "name": "payToken",
      "outputs": [
        {
          "name": "",
          "type": "address"
        }
      ],
      "payable": false,
      "stateMutability": "view",
      "type": "function"
    },
    {
      "constant": true,
      "inputs": [
        {
          "name": "_eth2dai",
          "type": "address"
        },
        {
          "name": "_weth",
          "type": "address"
        }
      ],
      "name": "buyToken",
      "outputs": [
        {
          "name": "",
          "type": "address"
        }
      ],
      "payable": false,
      "stateMutability": "view",
      "type": "function"
    },
    {
      "constant": false,
      "inputs": [
        {
          "name": "_exchange",
          "type": "address"
        },
        {
          "name": "_buyToken",
          "type": "address"
        },
        {
          "name": "_payToken",
          "type": "address"
        }
      ],
      "name": "convert",
      "outputs": [
        {
          "name": "fillAmount",
          "type": "uint256"
        }
      ],
      "payable": false,
      "stateMutability": "nonpayable",
      "type": "constructor"
    },
    {
      "constant": false,
      "inputs": [
        {
          "name": "tokenAmount",
          "type": "uint256"
        }
      ],
      "name": "convert",
      "outputs": [
        {
          "name": "fillAmount",
          "type": "uint256"
        }
      ],
      "payable": false,
      "stateMutability": "nonpayable",
      "type": "function"
    },
    {
      "constant": true,
      "inputs": [
        {
          "name": "tokenAmount",
          "type": "uint256"
        }
      ],
      "name": "predictFillAmount",
      "outputs": [
        {
          "name": "",
          "type": "uint256"
        }
      ],
      "payable": false,
      "stateMutability": "view",
      "type": "function"
    }
  ],
  "bytecode": "0x608060405234801561001057600080fd5b5060405160608061065e8339810180604052606081101561003057600080fd5b8101908080519060200190929190805190602001909291908051906020019092919050505082600260006101000a81548173ffffffffffffffffffffffffffffffffffffffff021916908373ffffffffffffffffffffffffffffffffffffffff16021790555080600360006101000a81548173ffffffffffffffffffffffffffffffffffffffff021916908373ffffffffffffffffffffffffffffffffffffffff16021790555081600460006101000a81548173ffffffffffffffffffffffffffffffffffffffff021916908373ffffffffffffffffffffffffffffffffffffffff1602179055505050506105348061012a6000396000f3fe608060405260043610610062576000357c0100000000000000000000000000000000000000000000000000000000900463ffffffff16806396336b3014610067578063a3908e1b146100be578063a48217191461010d578063ba6689dc14610164575b600080fd5b34801561007357600080fd5b5061007c6101b3565b604051808273ffffffffffffffffffffffffffffffffffffffff1673ffffffffffffffffffffffffffffffffffffffff16815260200191505060405180910390f35b3480156100ca57600080fd5b506100f7600480360360208110156100e157600080fd5b81019080803590602001909291905050506101d9565b6040518082815260200191505060405180910390f35b34801561011957600080fd5b50610122610363565b604051808273ffffffffffffffffffffffffffffffffffffffff1673ffffffffffffffffffffffffffffffffffffffff16815260200191505060405180910390f35b34801561017057600080fd5b5061019d6004803603602081101561018757600080fd5b8101908080359060200190929190505050610389565b6040518082815260200191505060405180910390f35b600360009054906101000a900473ffffffffffffffffffffffffffffffffffffffff1681565b6000600260009054906101000a900473ffffffffffffffffffffffffffffffffffffffff1673ffffffffffffffffffffffffffffffffffffffff16630621b4f6600360009054906101000a900473ffffffffffffffffffffffffffffffffffffffff1684600460009054906101000a900473ffffffffffffffffffffffffffffffffffffffff1660006040518563ffffffff167c0100000000000000000000000000000000000000000000000000000000028152600401808573ffffffffffffffffffffffffffffffffffffffff1673ffffffffffffffffffffffffffffffffffffffff1681526020018481526020018373ffffffffffffffffffffffffffffffffffffffff1673ffffffffffffffffffffffffffffffffffffffff168152602001828152602001945050505050602060405180830381600087803b15801561032157600080fd5b505af1158015610335573d6000803e3d6000fd5b505050506040513d602081101561034b57600080fd5b81019080805190602001909291905050509050919050565b600460009054906101000a900473ffffffffffffffffffffffffffffffffffffffff1681565b6000600260009054906101000a900473ffffffffffffffffffffffffffffffffffffffff1673ffffffffffffffffffffffffffffffffffffffff1663144a2752600460009054906101000a900473ffffffffffffffffffffffffffffffffffffffff16600360009054906101000a900473ffffffffffffffffffffffffffffffffffffffff16856040518463ffffffff167c0100000000000000000000000000000000000000000000000000000000028152600401808473ffffffffffffffffffffffffffffffffffffffff1673ffffffffffffffffffffffffffffffffffffffff1681526020018373ffffffffffffffffffffffffffffffffffffffff1673ffffffffffffffffffffffffffffffffffffffff168152602001828152602001935050505060206040518083038186803b1580156104c657600080fd5b505afa1580156104da573d6000803e3d6000fd5b505050506040513d60208110156104f057600080fd5b8101908080519060200190929190505050905091905056fea165627a7a72305820c816ac09693836a549b7c17ece480bca04634e146ab8337a384b8a70d5c2b13d0029",
  "source": "pragma solidity ^0.5.0;\n\nimport \"./external/ERC20.sol\";\nimport \"./Interfaces.sol\";\n\ncontract EthToDai is TokenConverter {\n\n    DEX exchange;\n    WETH public payToken;\n    ERC20 public buyToken;\n\n    constructor (\n        DEX _exchange,\n        ERC20 _buyToken,\n        WETH _payToken\n    ) public {\n        exchange = _exchange;\n        payToken = _payToken;\n        buyToken = _buyToken;\n    }\n\n    function convert (uint tokenAmount) public returns (uint fillAmount) {\n        fillAmount = exchange.sellAllAmount(payToken, tokenAmount, buyToken, 0);\n    }\n\n    function predictFillAmount (uint tokenAmount) public view returns (uint) {\n        return exchange.getBuyAmount(buyToken, payToken, tokenAmount);\n    }\n\n}\n",
  "sourcePath": "/home/joe/Documents/github/chicobitcoinjoe/MeDao/contracts/TokenConverter.sol",
  "compiler": {
    "name": "solc",
    "version": "0.5.0+commit.1d4f565a.Emscripten.clang"
  },
  "schemaVersion": "3.0.9",
  "updatedAt": "2019-05-22T04:43:24.237Z",
  "devdoc": {
    "methods": {}
  },
  "userdoc": {
    "methods": {}
  }
}