{
  "contractName": "FundraiserFactory",
  "abi": [
    {
      "constant": true,
      "inputs": [],
      "name": "Dai",
      "outputs": [
        {
          "name": "",
          "type": "address"
        }
      ],
      "payable": false,
      "stateMutability": "view",
      "type": "function"
    },
    {
      "constant": true,
      "inputs": [],
      "name": "TokenFactory",
      "outputs": [
        {
          "name": "",
          "type": "address"
        }
      ],
      "payable": false,
      "stateMutability": "view",
      "type": "function"
    },
    {
      "constant": true,
      "inputs": [
        {
          "name": "",
          "type": "address"
        }
      ],
      "name": "created",
      "outputs": [
        {
          "name": "",
          "type": "bool"
        }
      ],
      "payable": false,
      "stateMutability": "view",
      "type": "function"
    },
    {
      "inputs": [
        {
          "name": "_Dai",
          "type": "address"
        },
        {
          "name": "_blueprint",
          "type": "address"
        },
        {
          "name": "_TokenFactory",
          "type": "address"
        }
      ],
      "payable": false,
      "stateMutability": "nonpayable",
      "type": "constructor"
    },
    {
      "constant": false,
      "inputs": [
        {
          "name": "name",
          "type": "string"
        },
        {
          "name": "fundraiserGoal",
          "type": "uint256"
        },
        {
          "name": "fundraiserDuration",
          "type": "uint256"
        }
      ],
      "name": "create",
      "outputs": [
        {
          "name": "",
          "type": "address"
        }
      ],
      "payable": false,
      "stateMutability": "nonpayable",
      "type": "function"
    }
  ],
  "bytecode": "0x608060405234801561001057600080fd5b506040516060806108018339810180604052606081101561003057600080fd5b8101908080519060200190929190805190602001909291908051906020019092919050505082600160006101000a81548173ffffffffffffffffffffffffffffffffffffffff021916908373ffffffffffffffffffffffffffffffffffffffff160217905550816000806101000a81548173ffffffffffffffffffffffffffffffffffffffff021916908373ffffffffffffffffffffffffffffffffffffffff16021790555080600260006101000a81548173ffffffffffffffffffffffffffffffffffffffff021916908373ffffffffffffffffffffffffffffffffffffffff1602179055505050506106d8806101296000396000f3fe608060405234801561001057600080fd5b506004361061004c5760003560e01c806320f5170714610051578063aa66b27c1461009b578063cda3c499146100e5578063d42efd83146101f4575b600080fd5b610059610250565b604051808273ffffffffffffffffffffffffffffffffffffffff1673ffffffffffffffffffffffffffffffffffffffff16815260200191505060405180910390f35b6100a3610276565b604051808273ffffffffffffffffffffffffffffffffffffffff1673ffffffffffffffffffffffffffffffffffffffff16815260200191505060405180910390f35b6101b2600480360360608110156100fb57600080fd5b810190808035906020019064010000000081111561011857600080fd5b82018360208201111561012a57600080fd5b8035906020019184600183028401116401000000008311171561014c57600080fd5b91908080601f016020809104026020016040519081016040528093929190818152602001838380828437600081840152601f19601f820116905080830192505050505050509192919290803590602001909291908035906020019092919050505061029c565b604051808273ffffffffffffffffffffffffffffffffffffffff1673ffffffffffffffffffffffffffffffffffffffff16815260200191505060405180910390f35b6102366004803603602081101561020a57600080fd5b81019080803573ffffffffffffffffffffffffffffffffffffffff169060200190929190505050610622565b604051808215151515815260200191505060405180910390f35b600160009054906101000a900473ffffffffffffffffffffffffffffffffffffffff1681565b600260009054906101000a900473ffffffffffffffffffffffffffffffffffffffff1681565b60008083116102aa57600080fd5b600082116102b757600080fd5b6000600260009054906101000a900473ffffffffffffffffffffffffffffffffffffffff1673ffffffffffffffffffffffffffffffffffffffff16635b7b72c160008088601260016040518663ffffffff1660e01b8152600401808673ffffffffffffffffffffffffffffffffffffffff1673ffffffffffffffffffffffffffffffffffffffff168152602001858152602001806020018460ff1681526020018060200184151515158152602001838103835286818151815260200191508051906020019080838360005b8381101561039d578082015181840152602081019050610382565b50505050905090810190601f1680156103ca5780820380516001836020036101000a031916815260200191505b50838103825260078152602001807f7365636f6e647300000000000000000000000000000000000000000000000000815250602001975050505050505050602060405180830381600087803b15801561042257600080fd5b505af1158015610436573d6000803e3d6000fd5b505050506040513d602081101561044c57600080fd5b81019080805190602001909291905050509050600061048b6000809054906101000a900473ffffffffffffffffffffffffffffffffffffffff16610642565b90508073ffffffffffffffffffffffffffffffffffffffff1663a6b63eb833600160009054906101000a900473ffffffffffffffffffffffffffffffffffffffff168589896040518663ffffffff1660e01b8152600401808673ffffffffffffffffffffffffffffffffffffffff1673ffffffffffffffffffffffffffffffffffffffff1681526020018573ffffffffffffffffffffffffffffffffffffffff1673ffffffffffffffffffffffffffffffffffffffff1681526020018473ffffffffffffffffffffffffffffffffffffffff1673ffffffffffffffffffffffffffffffffffffffff16815260200183815260200182815260200195505050505050600060405180830381600087803b1580156105a657600080fd5b505af11580156105ba573d6000803e3d6000fd5b505050506001600360008373ffffffffffffffffffffffffffffffffffffffff1673ffffffffffffffffffffffffffffffffffffffff16815260200190815260200160002060006101000a81548160ff02191690831515021790555080925050509392505050565b60036020528060005260406000206000915054906101000a900460ff1681565b6000808260601b90506040517f3d602d80600a3d3981f3363d3d373d3d3d363d7300000000000000000000000081528160148201527f5af43d82803e903d91602b57fd5bf3000000000000000000000000000000000060288201526037816000f09250505091905056fea165627a7a72305820c1fb8f5b3a55897da252af2c9a55869881950689e536e8df5b55d7baeb8c95df0029",
  "source": "pragma solidity ^0.5.0;\n\nimport \"./external/MiniMeToken.sol\";\nimport \"./external/ERC20Token.sol\";\nimport \"./external/Owned.sol\";\nimport \"./external/CloneFactory.sol\";\n\nimport \"./Interfaces.sol\";\n\ncontract Fundraiser is IFundraiser, Owned, TokenController {\n\n    address public factory;         // The factory that deployed this contract\n    uint public blockInitialized;   // The block this contract was initialized\n\n    ERC20Token public reserveToken;      // A reserve token to hold the value of a person\n    MiniMeToken public shareToken;  // A cloneable token that represents a share of a person\n    uint public desiredWage;        // How much the owner desires to earn per second worked\n    uint public maxTokenSupply;     // The maximum amount of shares that can be created\n    uint public collectedTimestamp; // The timestamp when a paycheck was last collected\n\n    constructor () public {\n        blockInitialized = block.number;\n    }\n\n    function initialize (\n        address _owner,\n        ERC20Token _reserveToken,\n        MiniMeToken _shareToken,\n        uint _fundraiserGoal,\n        uint _fundraiserDuration\n    ) public {\n        require(blockInitialized == 0, \"contract already initialized\");\n\n        blockInitialized = block.number;\n\n        owner = _owner;\n        reserveToken = _reserveToken;\n        shareToken = _shareToken;\n        collectedTimestamp = now;\n\n        desiredWage = _fundraiserGoal / _fundraiserDuration;\n        maxTokenSupply = _fundraiserDuration * 1 ether;\n        collectedTimestamp = now;\n    }\n\n    function calculateShareClaim (uint reserveAmount) public view returns (uint) {\n        return reserveAmount * 1 ether / desiredWage;\n    }\n\n    function calculateReserveClaim (uint shareAmount) public view returns (uint) {\n        return reserveToken.balanceOf(address(this)) * shareAmount / shareToken.totalSupply();\n    }\n\n    function calculateWorkTime () public view returns (uint){\n        uint elapsedSeconds = now - collectedTimestamp;\n        return elapsedSeconds * 1 ether * 40 / 168;\n    }\n\n    function collect (uint claimedWorkTime) public onlyOwner returns (uint reserveClaim) {\n        uint maxWorkTime = calculateWorkTime();\n        require(maxWorkTime >= claimedWorkTime, \"invalid work time\");\n        uint maxReserveClaim = claimedWorkTime * desiredWage / 1 ether;\n        reserveClaim = maxReserveClaim * shareToken.totalSupply() / maxTokenSupply;\n        require(reserveToken.transfer(owner, reserveClaim), 'failed to pay');\n        emit Collect_event(claimedWorkTime, reserveClaim);\n    }\n\n    function deposit (uint reserveAmount) public returns (uint shareClaim) {\n        uint availableSeconds = maxTokenSupply - shareToken.totalSupply();\n        shareClaim = calculateShareClaim(reserveAmount);\n        require(availableSeconds >= shareClaim, \"invalid reserve amount\");\n        require(reserveToken.transferFrom(msg.sender, address(this), reserveAmount), \"failed to transfer\");\n        require(shareToken.generateTokens(msg.sender, shareClaim), \"failed to generate tokens\");\n        emit Deposit_event(msg.sender, reserveAmount, shareClaim);\n    }\n\n    function withdraw (uint shareAmount) public returns (uint reserveClaim) {\n        reserveClaim = calculateReserveClaim(shareAmount);\n        require(shareToken.destroyTokens(msg.sender, shareAmount), \"failed to destroy tokens\");\n        require(reserveToken.transfer(msg.sender, reserveClaim), \"failed to transfer\");\n        emit Withdraw_event(msg.sender, shareAmount, reserveClaim);\n    }\n\n    /// Token Controller Functions\n\n    function proxyPayment (address _owner) public payable returns(bool) {\n        _owner;\n        return false;\n    }\n\n    function onTransfer (address _from, address _to, uint _amount) public returns(bool) {\n        _from; _to; _amount;\n        return true;\n    }\n\n    function onApprove (address _owner, address _spender, uint _amount) public returns(bool) {\n        _owner; _spender; _amount;\n        return true;\n    }\n\n    /// Events\n\n    event Collect_event (uint workTime, uint reserveClaim);\n    event Deposit_event (address msgSender, uint reserveAmount, uint shareClaim);\n    event Withdraw_event (address msgSender, uint shareAmount, uint reserveClaim);\n\n}\n\ncontract FundraiserFactory is IFundraiserFactory, CloneFactory {\n\n    Fundraiser blueprint;\n    ERC20Token public Dai;\n    MiniMeTokenFactory public TokenFactory;\n\n    mapping (address => bool) public created;\n\n    constructor (\n        ERC20Token _Dai,\n        Fundraiser _blueprint,\n        MiniMeTokenFactory _TokenFactory\n    ) public {\n        Dai = _Dai;\n        blueprint = _blueprint;\n        TokenFactory = _TokenFactory;\n    }\n\n    function create (\n        string memory name,\n        uint fundraiserGoal,\n        uint fundraiserDuration\n    ) public returns (IFundraiser) {\n        require(fundraiserGoal > 0);\n        require(fundraiserDuration > 0);\n\n        MiniMeToken shareToken = TokenFactory.createCloneToken(\n            address(0x0),\n            0,\n            name,\n            18,\n            'seconds',\n            true\n        );\n\n        Fundraiser fundraiser = Fundraiser(createClone(address(blueprint)));\n        fundraiser.initialize(\n            msg.sender,\n            Dai,\n            shareToken,\n            fundraiserGoal,\n            fundraiserDuration\n        );\n\n        created[address(fundraiser)] = true;\n        return fundraiser;\n    }\n\n}\n",
  "sourcePath": "/home/joe/Documents/github/chicobitcoinjoe/medao/contracts/Fundraiser.sol",
  "compiler": {
    "name": "solc",
    "version": "0.5.8+commit.23d335f2.Emscripten.clang"
  },
  "schemaVersion": "3.0.11",
  "updatedAt": "2019-08-04T03:12:14.105Z",
  "devdoc": {
    "methods": {}
  },
  "userdoc": {
    "methods": {}
  }
}