{
  "contractName": "HumanCapital",
  "abi": [
    {
      "constant": true,
      "inputs": [],
      "name": "Dai",
      "outputs": [
        {
          "name": "",
          "type": "address"
        }
      ],
      "payable": false,
      "stateMutability": "view",
      "type": "function"
    },
    {
      "constant": true,
      "inputs": [],
      "name": "Dao",
      "outputs": [
        {
          "name": "",
          "type": "address"
        }
      ],
      "payable": false,
      "stateMutability": "view",
      "type": "function"
    },
    {
      "constant": true,
      "inputs": [],
      "name": "Scheduler",
      "outputs": [
        {
          "name": "",
          "type": "address"
        }
      ],
      "payable": false,
      "stateMutability": "view",
      "type": "function"
    },
    {
      "constant": true,
      "inputs": [],
      "name": "owner",
      "outputs": [
        {
          "name": "",
          "type": "address"
        }
      ],
      "payable": false,
      "stateMutability": "view",
      "type": "function"
    },
    {
      "constant": true,
      "inputs": [],
      "name": "blockInitialized",
      "outputs": [
        {
          "name": "",
          "type": "uint256"
        }
      ],
      "payable": false,
      "stateMutability": "view",
      "type": "function"
    },
    {
      "constant": false,
      "inputs": [
        {
          "name": "newOwner",
          "type": "address"
        }
      ],
      "name": "transferOwnership",
      "outputs": [],
      "payable": false,
      "stateMutability": "nonpayable",
      "type": "function"
    },
    {
      "constant": false,
      "inputs": [
        {
          "name": "_Dai",
          "type": "address"
        },
        {
          "name": "_Dao",
          "type": "address"
        },
        {
          "name": "_Scheduler",
          "type": "address"
        }
      ],
      "name": "initialize",
      "outputs": [],
      "payable": false,
      "stateMutability": "nonpayable",
      "type": "function"
    },
    {
      "constant": false,
      "inputs": [
        {
          "name": "fundraisers",
          "type": "address[]"
        }
      ],
      "name": "collectPaycheck",
      "outputs": [
        {
          "name": "payAmount",
          "type": "uint256"
        }
      ],
      "payable": false,
      "stateMutability": "nonpayable",
      "type": "function"
    }
  ],
  "bytecode": "0x608060405233600160006101000a81548173ffffffffffffffffffffffffffffffffffffffff021916908373ffffffffffffffffffffffffffffffffffffffff16021790555061099f806100546000396000f3fe608060405234801561001057600080fd5b50600436106100885760003560e01c80639bc40c4c1161005b5780639bc40c4c146101b5578063c0c53b8b146101d3578063d810bcd614610257578063f2fde38b1461032357610088565b806320f517071461008d5780632c68b868146100d757806345fe6e2a146101215780638da5cb5b1461016b575b600080fd5b610095610367565b604051808273ffffffffffffffffffffffffffffffffffffffff1673ffffffffffffffffffffffffffffffffffffffff16815260200191505060405180910390f35b6100df61038d565b604051808273ffffffffffffffffffffffffffffffffffffffff1673ffffffffffffffffffffffffffffffffffffffff16815260200191505060405180910390f35b6101296103b3565b604051808273ffffffffffffffffffffffffffffffffffffffff1673ffffffffffffffffffffffffffffffffffffffff16815260200191505060405180910390f35b6101736103d9565b604051808273ffffffffffffffffffffffffffffffffffffffff1673ffffffffffffffffffffffffffffffffffffffff16815260200191505060405180910390f35b6101bd6103ff565b6040518082815260200191505060405180910390f35b610255600480360360608110156101e957600080fd5b81019080803573ffffffffffffffffffffffffffffffffffffffff169060200190929190803573ffffffffffffffffffffffffffffffffffffffff169060200190929190803573ffffffffffffffffffffffffffffffffffffffff169060200190929190505050610405565b005b61030d6004803603602081101561026d57600080fd5b810190808035906020019064010000000081111561028a57600080fd5b82018360208201111561029c57600080fd5b803590602001918460208302840111640100000000831117156102be57600080fd5b919080806020026020016040519081016040528093929190818152602001838360200280828437600081840152601f19601f8201169050808301925050505050505091929192905050506104e2565b6040518082815260200191505060405180910390f35b6103656004803603602081101561033957600080fd5b81019080803573ffffffffffffffffffffffffffffffffffffffff16906020019092919050505061086c565b005b600260009054906101000a900473ffffffffffffffffffffffffffffffffffffffff1681565b600360009054906101000a900473ffffffffffffffffffffffffffffffffffffffff1681565b600460009054906101000a900473ffffffffffffffffffffffffffffffffffffffff1681565b600160009054906101000a900473ffffffffffffffffffffffffffffffffffffffff1681565b60005481565b600080541461041357600080fd5b82600260006101000a81548173ffffffffffffffffffffffffffffffffffffffff021916908373ffffffffffffffffffffffffffffffffffffffff16021790555081600360006101000a81548173ffffffffffffffffffffffffffffffffffffffff021916908373ffffffffffffffffffffffffffffffffffffffff16021790555080600460006101000a81548173ffffffffffffffffffffffffffffffffffffffff021916908373ffffffffffffffffffffffffffffffffffffffff16021790555043600081905550505050565b6000600160009054906101000a900473ffffffffffffffffffffffffffffffffffffffff1673ffffffffffffffffffffffffffffffffffffffff163373ffffffffffffffffffffffffffffffffffffffff16146105a7576040517f08c379a00000000000000000000000000000000000000000000000000000000081526004018080602001828103825260178152602001807f6d73672073656e646572206973206e6f74206f776e657200000000000000000081525060200191505060405180910390fd5b600080905060008090505b83518110156108655760008482815181106105c957fe5b6020026020010151905060008173ffffffffffffffffffffffffffffffffffffffff16635b9806286040518163ffffffff1660e01b8152600401602060405180830381600087803b15801561061d57600080fd5b505af1158015610631573d6000803e3d6000fd5b505050506040513d602081101561064757600080fd5b810190808051906020019092919050505090506000600460009054906101000a900473ffffffffffffffffffffffffffffffffffffffff1673ffffffffffffffffffffffffffffffffffffffff16634b70cec4846040518263ffffffff1660e01b8152600401808273ffffffffffffffffffffffffffffffffffffffff1673ffffffffffffffffffffffffffffffffffffffff16815260200191505060206040518083038186803b1580156106fb57600080fd5b505afa15801561070f573d6000803e3d6000fd5b505050506040513d602081101561072557600080fd5b810190808051906020019092919050505090506170808111156107485761708090505b60006170808284028161075757fe5b04905060008184039050600260009054906101000a900473ffffffffffffffffffffffffffffffffffffffff1673ffffffffffffffffffffffffffffffffffffffff1663a9059cbb86836040518363ffffffff1660e01b8152600401808373ffffffffffffffffffffffffffffffffffffffff1673ffffffffffffffffffffffffffffffffffffffff16815260200182815260200192505050602060405180830381600087803b15801561080a57600080fd5b505af115801561081e573d6000803e3d6000fd5b505050506040513d602081101561083457600080fd5b810190808051906020019092919050505061084e57600080fd5b8187019650505050505080806001019150506105b2565b5050919050565b600160009054906101000a900473ffffffffffffffffffffffffffffffffffffffff1673ffffffffffffffffffffffffffffffffffffffff163373ffffffffffffffffffffffffffffffffffffffff161461092f576040517f08c379a00000000000000000000000000000000000000000000000000000000081526004018080602001828103825260178152602001807f6d73672073656e646572206973206e6f74206f776e657200000000000000000081525060200191505060405180910390fd5b80600160006101000a81548173ffffffffffffffffffffffffffffffffffffffff021916908373ffffffffffffffffffffffffffffffffffffffff1602179055505056fea165627a7a72305820f9f7dc06eb394b3db6f9fe3281bf365310f5ec7eb974fd8dc2166cd59057d4830029",
  "source": "pragma solidity ^0.5.0;\n\nimport \"./external/CloneFactory.sol\";\nimport \"./MeDao.sol\";\nimport \"./TimeScheduler.sol\";\nimport \"./MoneyPool.sol\";\nimport \"./Interfaces.sol\";\n\ncontract HumanCapital is Initialized, Owned {\n\n    ERC20Token public Dai;\n\n    MeDao public Dao;\n    TimeScheduler public Scheduler;\n\n    function initialize (\n        ERC20Token _Dai,\n        MeDao _Dao,\n        TimeScheduler _Scheduler\n    ) public runOnce {\n        Dai = _Dai;\n        Dao = _Dao;\n        Scheduler = _Scheduler;\n    }\n\n    function collectPaycheck (IFundraiser[] memory fundraisers) public onlyOwner returns (uint payAmount) {\n        uint totalCollectedFunds = 0;\n        for(uint i = 0; i < fundraisers.length; i++) {\n            IFundraiser fundraiser = fundraisers[i];\n            uint collectedFunds = fundraiser.collectFunds();\n            uint scheduledTime = Scheduler.getTime(address(fundraiser));\n            if(scheduledTime > 8 hours) {\n                scheduledTime = 8 hours;\n            }\n\n            uint earnedFunds = collectedFunds * scheduledTime / 8 hours;\n            uint refund = collectedFunds - earnedFunds;\n            require(Dai.transfer(address(fundraiser), refund));\n            totalCollectedFunds += earnedFunds;\n        }\n    }\n\n}\n\ncontract HumanCapitalFactory is CloneFactory {\n\n    HumanCapital public blueprint;\n    MeDaoFactory public MedaoFactory;\n    TimeSchedulerFactory public SchedulerFactory;\n    ERC20Token public Dai;\n\n    function register (\n        string memory name,\n        uint maxTokenSupply,\n        uint baseShareValue\n    ) public returns (HumanCapital person){\n        MeDao dao = MedaoFactory.create(\n            Dai,\n            name,\n            maxTokenSupply,\n            baseShareValue\n        );\n\n        TimeScheduler scheduler = SchedulerFactory.create(address(dao), 16 hours);\n        person = HumanCapital(createClone(address(blueprint)));\n        person.initialize(Dai, dao, scheduler);\n        dao.transferOwnership(address(person));\n        scheduler.transferOwnership(address(person));\n    }\n\n}\n\n\n/*\ncontract Identity is IIdentity, Owned {\n\n    uint public blockInitialized;\n\n    struct Project {\n        IFundraiser fundraiser;\n        uint startTimestamp;\n        uint endTimestamp;\n        uint fundraiserDuration;\n        uint fundraiserGoal;\n    }\n\n    mapping (address => bool) allowedFactories; // This flag allows a factory to schedule a project\n    IFundraiser public Dao;         // The dao financially supporting this person\n    ITimeScheduler public Schedule; // Manages alloted time for projects\n    address public identity;        // The account associated with this person\n\n    function initialize (\n        IFundraiser _Dao,\n        ITimeScheduler _Schedule\n    ) public runOnce {\n        Dao = _Dao;\n        Schedule = _Schedule;\n        owner = msg.sender;\n        identity = msg.sender;\n    }\n\n    function scheduleProject (\n        IFundraiser fundraiser,\n        uint expectedWorkTime\n    ) public onlyAllowedFactories  {\n        Schedule.register(address(fundraiser));\n        Schedule.assign(expectedWorkTime, address(fundraiser), address(Dao));\n    }\n\n    function reschedule (uint time, address projectA, address projectB) public onlyOwner {\n        Schedule.assign(time, projectA, projectB);\n    }\n\n    function collectPay (IFundraiser[] memory fundraisers) public onlyOwner {\n        uint totalCollectedFunds = 0;\n        for(uint i = 0; i < fundraisers.length; i++) {\n            IFundraiser fundraiser = fundraisers[i];\n            uint collectedFunds = fundraiser.collectFunds();\n            uint scheduledTime = Schedule.getTime(address(fundraiser));\n            if(scheduledTime > 8 hours) {\n                scheduledTime = 8 hours;\n            }\n\n            uint earnedFunds = collectedFunds * scheduledTime / 8 hours;\n            uint refund = collectedFunds - earnedFunds;\n            require(fundraiser.reserveToken().transfer(address(fundraiser), refund));\n            totalCollectedFunds += earnedFunds;\n        }\n    }\n\n    function allowFactory (address factory, bool allowed) public onlyOwner {\n        allowedFactories[factory] = allowed;\n    }\n\n    // MeDao\n\n    function setHash (string memory newHash) public onlyOwner {\n        hash = newHash;\n        emit NewHash_event(newHash);\n    }\n\n    function createCloneToken (\n        MiniMeToken cloneableToken,\n        string memory tokenName,\n        string memory tokenSymbol,\n        uint snapshotBlock\n    ) public onlyOwner {\n        address token = cloneableToken.createCloneToken(\n            tokenName,\n            18,\n            tokenSymbol,\n            snapshotBlock,\n            true\n        );\n\n        clones.push(token);\n        emit Clone_event(token);\n    }\n    function getClones () public view returns (address[] memory) {\n        return clones;\n    }\n\n    function getTotalClones () public view returns (uint) {\n        return clones.length;\n    }\n\n    // TimeScheduler\n\n    function lock () public {}\n\n    function unlock () public {}\n\n    // Getters and Setters\n\n    function setIdentity (address newIdentity) public onlyOwner {\n        identity = newIdentity;\n        emit NewIdentity_event(newIdentity);\n    }\n\n    // Modifiers and Events\n\n    modifier onlyAllowedFactories () {\n        require(allowedFactories[msg.sender]);\n        _;\n    }\n\n    modifier runOnce () {\n        require(blockInitialized == 0);\n        _;\n        blockInitialized = block.number;\n    }\n\n    event NewIdentity_event (address newIdentity);\n\n}\n\ncontract EmployeeRegistry is CloneFactory {\n\n    Employee Blueprint;\n    ERC20 public Dai;\n    MiniMeTokenFactory public Factory;\n\n    mapping (address => bool) public created;\n    mapping (address => Employee) public registry;\n\n    constructor (\n        Employee _Blueprint,\n        ERC20 _Dai,\n        MiniMeTokenFactory _Factory\n    ) public {\n        Blueprint = _Blueprint;\n        Dai = _Dai;\n        Factory = _Factory;\n    }\n\n    function register (\n        string memory name,\n        uint maxTokenSupply,\n        uint initialShares,\n        uint initialReserves\n    ) public returns (Employee employee){\n        require(!isRegistered(msg.sender));\n        require(maxTokenSupply > 0);\n        require(maxTokenSupply >= initialShares);\n        require(Dai.transferFrom(msg.sender, address(this), initialReserves));\n\n        MiniMeToken shareToken = Factory.createCloneToken(\n            address(0x0),\n            0,\n            name,\n            18,\n            'seconds',\n            true\n        );\n\n        employee = Employee(createClone(address(Blueprint)));\n        employee.initialize(\n            msg.sender,\n            Dai,\n            shareToken,\n            maxTokenSupply,\n            initialShares,\n            initialReserves\n        );\n\n        registry[msg.sender] = employee;\n        created[address(employee)] = true;\n    }\n\n    function register (Employee employee) public {\n        require(created[address(employee)]);\n        require(!isRegistered(msg.sender));\n        require(employee.identity() == address(employee));\n        registry[msg.sender] = employee;\n    }\n\n    function isRegistered (address identity) public view returns (bool) {\n        return address(registry[identity]) != address(0x0);\n    }\n\n}\n*/\n/**\n    The goal of this contract is to allow anyone in the world to invest directly in the value of a person.\n    Similar to a crowdfund, many people deposit into a pool of currency. The employee then collects a\n    salary over time from the pool. Unlike traditional crowdfunds, funds are secured by a smart contract\n    with certain gaurantees. In addition, as an Employee adds utility to their token, investors have the\n    potential of making a profit if extra currency is payed the pool or if shares are burned through use.\n\n    1. Investors convert a reserve token into a share token up to a maximum\n    2. The reserve token provides a price floor on the value of the person\n    3. The owner can withdraw reserve currency over time as compensation for work done\n    4. At any point, an investor can convert their share tokens back into an equal portion of the reserve tokens.\n    5. The employee can give back to investors by increasing the reserve token backing or decreasing the total supply of shares\n    6. Additionally, the employee can create snapshot tokens with an equivalent distribution of their share token.\n\n    Whitepaper: https://docs.google.com/document/d/1A8fjq-fONbSUo_zS8ac7Qs3hqog2Ap78eWHjDGHI5_s/edit#heading=h.m1cmgqsdjew5\n**/\n/*\ncontract EmployeeOld is Owned, TokenController {\n\n    address public factory;         // The factory that deployed this contract\n    uint public blockInitialized;   // The block this contract was initialized\n\n    ERC20 public reserveToken;      // A reserve token to hold the value of a person\n    MiniMeToken public shareToken;  // A cloneable token that represents a share of a person\n    uint public maxTokenSupply;     // The maximum amount of tokens that can be created\n    uint public burnedTokenSupply;  // The total amount of time burned by this contract\n\n    address public identity;        // The account associated with this medao\n    uint public paycheckTimestamp;  // The timestamp a paycheck was last collected\n    string public hash;             // The hash of any relevant data about this medao\n    address[] public tokens;        // A list of tokens associated with the employee\n\n    constructor () public {\n        blockInitialized = block.number;\n    }\n\n    function initialize (\n        address _owner,\n        ERC20 _reserveToken,\n        MiniMeToken _shareToken,\n        uint _maxTokenSupply,\n        uint _initialShares,\n        uint _initialReserves\n    ) public {\n        require(blockInitialized == 0, 'contract already initialized');\n        require(_maxTokenSupply >= _initialShares, 'initial shares invalid');\n\n        blockInitialized = block.number;\n        factory = msg.sender;\n        paycheckTimestamp = now;\n\n        owner = _owner;\n        identity = _owner;\n        shareToken = _shareToken;\n        reserveToken = _reserveToken;\n        maxTokenSupply = _maxTokenSupply;\n\n        require(reserveToken.transferFrom(msg.sender, address(this), _initialReserves), \"failed to transfer initial reserves\");\n        require(shareToken.generateTokens(owner, _initialShares), \"failed to generate shares\");\n    }\n\n    function calculateShareClaim (uint reserveAmount) public view returns (uint) {\n        return shareToken.totalSupply() * reserveAmount / reserveToken.balanceOf(address(this));\n    }\n\n    function calculateReserveClaim (uint shareAmount) public view returns (uint) {\n        return reserveToken.balanceOf(address(this)) * shareAmount / shareToken.totalSupply();\n    }\n\n    function calculateCurrentPaycheck () public view returns (uint) {\n        uint elapsedSeconds = now - paycheckTimestamp;\n        uint workTime = elapsedSeconds * 1 ether * 40 / 168;\n        return workTime * shareToken.totalSupply() / maxTokenSupply;\n    }\n\n    function collectPaycheck () public onlyOwner returns (uint shareClaim) {\n        shareClaim = calculateCurrentPaycheck();\n        require(shareToken.generateTokens(owner, shareClaim), 'failed to pay');\n        emit Pay_event(shareClaim);\n    }\n\n    function invest (uint reserveAmount) public {\n        uint availableSeconds = maxTokenSupply - shareToken.totalSupply();\n        uint claimedShares = calculateShareClaim(reserveAmount);\n        require(availableSeconds >= claimedShares, \"invalid reserve amount\");\n        require(reserveToken.transferFrom(msg.sender, address(this), reserveAmount), \"failed to transfer\");\n        require(shareToken.generateTokens(msg.sender, claimedShares), \"failed to generate tokens\");\n        emit Invest_event(msg.sender, reserveAmount, claimedShares);\n    }\n\n    function divest (uint shareAmount) public {\n        uint reserveClaim = calculateReserveClaim(shareAmount);\n        require(shareToken.destroyTokens(msg.sender, shareAmount), \"failed to destroy tokens\");\n        require(reserveToken.transfer(msg.sender, reserveClaim), \"failed to transfer\");\n        emit Divest_event(msg.sender, shareAmount, reserveClaim);\n    }\n\n    function burn (uint shareAmount) public {\n        require(shareToken.destroyTokens(msg.sender, shareAmount), \"failed to burn shares\");\n        maxTokenSupply -= shareAmount;\n        burnedTokenSupply += shareAmount;\n        emit Burn_event(msg.sender, shareAmount);\n    }\n\n    function addToken (ERC20 token) public onlyOwner {\n        tokens.push(address(token));\n        emit Token_event(token);\n    }\n\n    function getTokens () public view returns (address[] memory) {\n        return tokens;\n    }\n\n    function getTotalTokens () public view returns (uint) {\n        return tokens.length;\n    }\n\n    /// Token Controller Functions\n\n    function proxyPayment (address _owner) public payable returns(bool) {\n        _owner;\n        return false;\n    }\n\n    function onTransfer (address _from, address _to, uint _amount) public returns(bool) {\n        _from; _to; _amount;\n        return true;\n    }\n\n    function onApprove (address _owner, address _spender, uint _amount) public returns(bool) {\n        _owner; _spender; _amount;\n        return true;\n    }\n\n    /// Events\n\n    event Invest_event (address msgSender, uint reserveAmount, uint shareClaim);\n    event Divest_event (address msgSender, uint shareAmount, uint reserveClaim);\n    event Burn_event (address msgSender, uint shareAmount);\n    event Pay_event (uint shareClaim);\n    event Token_event (ERC20 token);\n\n}\n\n*/\n",
  "sourcePath": "/home/joe/Documents/github/chicobitcoinjoe/medao/contracts/HumanCapital.sol",
  "compiler": {
    "name": "solc",
    "version": "0.5.8+commit.23d335f2.Emscripten.clang"
  },
  "schemaVersion": "3.0.11",
  "updatedAt": "2019-08-06T00:16:25.825Z",
  "devdoc": {
    "methods": {}
  },
  "userdoc": {
    "methods": {}
  }
}