{
  "contractName": "HumanCapitalFactory",
  "abi": [
    {
      "constant": true,
      "inputs": [],
      "name": "SchedulerFactory",
      "outputs": [
        {
          "name": "",
          "type": "address"
        }
      ],
      "payable": false,
      "stateMutability": "view",
      "type": "function"
    },
    {
      "constant": true,
      "inputs": [],
      "name": "MedaoFactory",
      "outputs": [
        {
          "name": "",
          "type": "address"
        }
      ],
      "payable": false,
      "stateMutability": "view",
      "type": "function"
    },
    {
      "constant": true,
      "inputs": [],
      "name": "blueprint",
      "outputs": [
        {
          "name": "",
          "type": "address"
        }
      ],
      "payable": false,
      "stateMutability": "view",
      "type": "function"
    },
    {
      "constant": false,
      "inputs": [
        {
          "name": "reserveToken",
          "type": "address"
        },
        {
          "name": "name",
          "type": "string"
        },
        {
          "name": "maxTokenSupply",
          "type": "uint256"
        },
        {
          "name": "baseShareValue",
          "type": "uint256"
        }
      ],
      "name": "register",
      "outputs": [
        {
          "name": "human",
          "type": "address"
        }
      ],
      "payable": false,
      "stateMutability": "nonpayable",
      "type": "function"
    }
  ],
  "bytecode": "0x608060405234801561001057600080fd5b506108e5806100206000396000f3fe608060405234801561001057600080fd5b506004361061004c5760003560e01c80630e6e18df146100515780639d45ee471461009b578063a7bb35e4146101ca578063c05efa1514610214575b600080fd5b61005961025e565b604051808273ffffffffffffffffffffffffffffffffffffffff1673ffffffffffffffffffffffffffffffffffffffff16815260200191505060405180910390f35b610188600480360360808110156100b157600080fd5b81019080803573ffffffffffffffffffffffffffffffffffffffff169060200190929190803590602001906401000000008111156100ee57600080fd5b82018360208201111561010057600080fd5b8035906020019184600183028401116401000000008311171561012257600080fd5b91908080601f016020809104026020016040519081016040528093929190818152602001838380828437600081840152601f19601f8201169050808301925050505050505091929192908035906020019092919080359060200190929190505050610284565b604051808273ffffffffffffffffffffffffffffffffffffffff1673ffffffffffffffffffffffffffffffffffffffff16815260200191505060405180910390f35b6101d2610804565b604051808273ffffffffffffffffffffffffffffffffffffffff1673ffffffffffffffffffffffffffffffffffffffff16815260200191505060405180910390f35b61021c61082a565b604051808273ffffffffffffffffffffffffffffffffffffffff1673ffffffffffffffffffffffffffffffffffffffff16815260200191505060405180910390f35b600260009054906101000a900473ffffffffffffffffffffffffffffffffffffffff1681565b600080600160009054906101000a900473ffffffffffffffffffffffffffffffffffffffff1673ffffffffffffffffffffffffffffffffffffffff1663da566a6f878787876040518563ffffffff1660e01b8152600401808573ffffffffffffffffffffffffffffffffffffffff1673ffffffffffffffffffffffffffffffffffffffff16815260200180602001848152602001838152602001828103825285818151815260200191508051906020019080838360005b8381101561035657808201518184015260208101905061033b565b50505050905090810190601f1680156103835780820380516001836020036101000a031916815260200191505b5095505050505050602060405180830381600087803b1580156103a557600080fd5b505af11580156103b9573d6000803e3d6000fd5b505050506040513d60208110156103cf57600080fd5b810190808051906020019092919050505090506000600260009054906101000a900473ffffffffffffffffffffffffffffffffffffffff1673ffffffffffffffffffffffffffffffffffffffff16630ecaea733061e1006040518363ffffffff1660e01b8152600401808373ffffffffffffffffffffffffffffffffffffffff1673ffffffffffffffffffffffffffffffffffffffff16815260200182815260200192505050602060405180830381600087803b15801561048f57600080fd5b505af11580156104a3573d6000803e3d6000fd5b505050506040513d60208110156104b957600080fd5b810190808051906020019092919050505090508073ffffffffffffffffffffffffffffffffffffffff1663e485a6d861708084306040518463ffffffff1660e01b8152600401808481526020018373ffffffffffffffffffffffffffffffffffffffff1673ffffffffffffffffffffffffffffffffffffffff1681526020018273ffffffffffffffffffffffffffffffffffffffff1673ffffffffffffffffffffffffffffffffffffffff1681526020019350505050600060405180830381600087803b15801561058957600080fd5b505af115801561059d573d6000803e3d6000fd5b505050506105cb6000809054906101000a900473ffffffffffffffffffffffffffffffffffffffff1661084f565b92508273ffffffffffffffffffffffffffffffffffffffff1663c0c53b8b83838a6040518463ffffffff1660e01b8152600401808473ffffffffffffffffffffffffffffffffffffffff1673ffffffffffffffffffffffffffffffffffffffff1681526020018373ffffffffffffffffffffffffffffffffffffffff1673ffffffffffffffffffffffffffffffffffffffff1681526020018273ffffffffffffffffffffffffffffffffffffffff1673ffffffffffffffffffffffffffffffffffffffff1681526020019350505050600060405180830381600087803b1580156106b457600080fd5b505af11580156106c8573d6000803e3d6000fd5b505050508173ffffffffffffffffffffffffffffffffffffffff1663f2fde38b846040518263ffffffff1660e01b8152600401808273ffffffffffffffffffffffffffffffffffffffff1673ffffffffffffffffffffffffffffffffffffffff168152602001915050600060405180830381600087803b15801561074b57600080fd5b505af115801561075f573d6000803e3d6000fd5b505050508073ffffffffffffffffffffffffffffffffffffffff1663f2fde38b846040518263ffffffff1660e01b8152600401808273ffffffffffffffffffffffffffffffffffffffff1673ffffffffffffffffffffffffffffffffffffffff168152602001915050600060405180830381600087803b1580156107e257600080fd5b505af11580156107f6573d6000803e3d6000fd5b505050505050949350505050565b600160009054906101000a900473ffffffffffffffffffffffffffffffffffffffff1681565b6000809054906101000a900473ffffffffffffffffffffffffffffffffffffffff1681565b6000808260601b90506040517f3d602d80600a3d3981f3363d3d373d3d3d363d7300000000000000000000000081528160148201527f5af43d82803e903d91602b57fd5bf3000000000000000000000000000000000060288201526037816000f09250505091905056fea165627a7a72305820700d660cc49b286ac1a67af1349eab3e00899734159dea8c4e998fafd12301790029",
  "source": "pragma solidity ^0.5.0;\n\nimport \"./external/CloneFactory.sol\";\nimport \"./Interfaces.sol\";\n\n/**\n    The goal of this contract is to allow anyone in the world to invest directly in the value of a person.\n    Similar to a crowdfund, many people deposit into a pool of currency. The employee then collects a\n    salary over time from the pool. Unlike traditional crowdfunds, funds are secured by a smart contract\n    with certain gaurantees. In addition, as an Employee adds utility to their token, investors have the\n    potential of making a profit if extra currency is payed the pool or if shares are burned through use.\n\n    1. Investors convert a reserve token into a share token up to a maximum\n    2. The reserve token provides a price floor on the value of the person\n    3. The owner can withdraw reserve currency over time as compensation for work done\n    4. At any point, an investor can convert their share tokens back into an equal portion of the reserve tokens.\n    5. The employee can give back to investors by increasing the reserve token backing or decreasing the total supply of shares\n    6. Additionally, the employee can create snapshot tokens with an equivalent distribution of their share token.\n\n    Whitepaper: https://docs.google.com/document/d/1A8fjq-fONbSUo_zS8ac7Qs3hqog2Ap78eWHjDGHI5_s/edit#heading=h.m1cmgqsdjew5\n**/\ncontract HumanCapital is Initialized, Owned {\n\n    address public identity;\n    ERC20Token public ReserveToken;\n    IMeDao public Dao;\n    ITimeScheduler public Scheduler;\n\n    mapping (address => bool) public factories;  // This flag allows a factory to schedule a project\n\n    function initialize (\n        IMeDao _Dao,\n        ITimeScheduler _Scheduler,\n        ERC20Token _ReserveToken\n    ) public runOnce {\n        ReserveToken = _ReserveToken;\n        Dao = _Dao;\n        Scheduler = _Scheduler;\n    }\n\n    function scheduleFundraiser (\n        uint expectedWorkTime,\n        IFundraiser fundraiser\n    ) public onlyAllowedFactories returns (IFundraiser) {\n        Scheduler.assign(expectedWorkTime, address(fundraiser), address(Dao));\n    }\n\n    function collectPaycheck (IFundraiser[] memory fundraisers) public onlyOwner returns (uint paycheckAmount) {\n        for(uint i = 0; i < fundraisers.length; i++) {\n            IFundraiser fundraiser = fundraisers[i];\n            uint collectedFunds = fundraiser.collectFunds();\n            uint scheduledTime = Scheduler.getTime(address(fundraiser));\n            if(scheduledTime > 8 hours) {\n                scheduledTime = 8 hours;\n            }\n\n            uint earnedFunds = collectedFunds * scheduledTime / 8 hours;\n            uint refund = collectedFunds - earnedFunds;\n            require(ReserveToken.transfer(address(fundraiser), refund));\n            paycheckAmount += earnedFunds;\n        }\n\n        require(ReserveToken.transfer(owner, paycheckAmount), \"failed to transfer paycheck\");\n    }\n\n    function reschedule (uint time, address taskA, address taskB) public onlyOwner {\n        Scheduler.assign(time, taskA, taskB);\n    }\n\n    function allowFactory (address factory, bool allowed) public onlyOwner {\n        factories[factory] = allowed;\n    }\n\n    /*\n    function setHash (string memory newHash) public onlyOwner {\n        hash = newHash;\n        emit NewHash_event(newHash);\n    }\n\n    function createCloneToken (\n        MiniMeToken cloneableToken,\n        string memory tokenName,\n        string memory tokenSymbol,\n        uint snapshotBlock\n    ) public onlyOwner {\n        address token = cloneableToken.createCloneToken(\n            tokenName,\n            18,\n            tokenSymbol,\n            snapshotBlock,\n            true\n        );\n\n        clones.push(token);\n        emit Clone_event(token);\n    }\n\n    function getClones () public view returns (address[] memory) {\n        return clones;\n    }\n\n    function getTotalClones () public view returns (uint) {\n        return clones.length;\n    }\n    */\n\n    function setIdentity (address newIdentity) public onlyOwner {\n        identity = newIdentity;\n        emit NewIdentity_event(newIdentity);\n    }\n\n    // Modifiers and Events\n\n    modifier onlyAllowedFactories () {\n        require(factories[msg.sender]);\n        _;\n    }\n\n    event NewIdentity_event (address newIdentity);\n\n}\n\ncontract HumanCapitalFactory is CloneFactory {\n\n    HumanCapital public blueprint;\n    IMeDaoFactory public MedaoFactory;\n    ITimeSchedulerFactory public SchedulerFactory;\n\n    function register (\n        ERC20Token reserveToken,\n        string memory name,\n        uint maxTokenSupply,\n        uint baseShareValue\n    ) public returns (HumanCapital human){\n        IMeDao dao = MedaoFactory.create(\n            reserveToken,\n            name,\n            maxTokenSupply,\n            baseShareValue\n        );\n\n        ITimeScheduler scheduler = SchedulerFactory.create(address(this), 16 hours);\n        scheduler.assign(8 hours, address(dao), address(this));\n        human = HumanCapital(createClone(address(blueprint)));\n        human.initialize(dao, scheduler, reserveToken);\n        dao.transferOwnership(address(human));\n        scheduler.transferOwnership(address(human));\n    }\n\n}\n",
  "sourcePath": "/home/joe/Documents/github/chicobitcoinjoe/medao/contracts/HumanCapital.sol",
  "compiler": {
    "name": "solc",
    "version": "0.5.8+commit.23d335f2.Emscripten.clang"
  },
  "schemaVersion": "3.0.11",
  "updatedAt": "2019-08-09T00:35:49.964Z",
  "devdoc": {
    "methods": {}
  },
  "userdoc": {
    "methods": {}
  }
}