{
  "contractName": "IMeDao",
  "abi": [
    {
      "constant": true,
      "inputs": [],
      "name": "shareToken",
      "outputs": [
        {
          "name": "",
          "type": "address"
        }
      ],
      "payable": false,
      "stateMutability": "view",
      "type": "function"
    },
    {
      "constant": true,
      "inputs": [],
      "name": "reserveToken",
      "outputs": [
        {
          "name": "",
          "type": "address"
        }
      ],
      "payable": false,
      "stateMutability": "view",
      "type": "function"
    }
  ],
  "bytecode": "0x608060405234801561001057600080fd5b50610146806100206000396000f3fe608060405234801561001057600080fd5b50600436106100365760003560e01c80636c9fa59e1461003b578063f4325d6714610085575b600080fd5b6100436100cf565b604051808273ffffffffffffffffffffffffffffffffffffffff1673ffffffffffffffffffffffffffffffffffffffff16815260200191505060405180910390f35b61008d6100f5565b604051808273ffffffffffffffffffffffffffffffffffffffff1673ffffffffffffffffffffffffffffffffffffffff16815260200191505060405180910390f35b600160009054906101000a900473ffffffffffffffffffffffffffffffffffffffff1681565b6000809054906101000a900473ffffffffffffffffffffffffffffffffffffffff168156fea165627a7a72305820cb783f34bd0dce2ece74046a8f437b335f31df5b4ffb3505387797ed448719e20029",
  "source": "pragma solidity ^0.5.0;\n\nimport \"./external/ERC20Token.sol\";\nimport \"./external/MiniMeToken.sol\";\n\ncontract ITimeManager {\n    function assign (address task, uint time) public;\n    function assign (address taskA, uint time, address taskB) public;\n    function get (address task) public view returns (uint time);\n    function lock (address task) public;\n    function unlock (address task) public;\n}\n\ncontract IFundraiser {\n\n}\n\ncontract IFundraiserFactory {\n    function create (\n        string memory name,\n        uint fundraiserGoal,\n        uint fundraiserDuration\n    ) public returns (IFundraiser);\n}\n\ncontract IPerson {\n    IMeDao public Dao;              // The dao financially supporting this person\n    ITimeManager public Schedule;   // Manages alloted time for projects\n    address public identity;        // The account associated with this person\n}\n\ncontract IMeDao {\n    ERC20Token public reserveToken;\n    MiniMeToken public shareToken;\n}\n",
  "sourcePath": "/home/joe/Documents/github/chicobitcoinjoe/medao/contracts/Interfaces.sol",
  "compiler": {
    "name": "solc",
    "version": "0.5.8+commit.23d335f2.Emscripten.clang"
  },
  "schemaVersion": "3.0.11",
  "updatedAt": "2019-08-04T03:59:19.501Z",
  "devdoc": {
    "methods": {}
  },
  "userdoc": {
    "methods": {}
  }
}