{
  "contractName": "MeDaoFactory",
  "abi": [
    {
      "constant": true,
      "inputs": [],
      "name": "blueprint",
      "outputs": [
        {
          "name": "",
          "type": "address"
        }
      ],
      "payable": false,
      "stateMutability": "view",
      "type": "function"
    },
    {
      "constant": true,
      "inputs": [
        {
          "name": "",
          "type": "address"
        }
      ],
      "name": "created",
      "outputs": [
        {
          "name": "",
          "type": "bool"
        }
      ],
      "payable": false,
      "stateMutability": "view",
      "type": "function"
    },
    {
      "constant": false,
      "inputs": [
        {
          "name": "reserveToken",
          "type": "address"
        },
        {
          "name": "name",
          "type": "string"
        },
        {
          "name": "maxTokenSupply",
          "type": "uint256"
        },
        {
          "name": "baseShareValue",
          "type": "uint256"
        }
      ],
      "name": "create",
      "outputs": [
        {
          "name": "medao",
          "type": "address"
        }
      ],
      "payable": false,
      "stateMutability": "nonpayable",
      "type": "function"
    }
  ],
  "bytecode": "0x608060405234801561001057600080fd5b50610607806100206000396000f3fe608060405234801561001057600080fd5b50600436106100415760003560e01c8063c05efa1514610046578063d42efd8314610090578063da566a6f146100ec575b600080fd5b61004e61021b565b604051808273ffffffffffffffffffffffffffffffffffffffff1673ffffffffffffffffffffffffffffffffffffffff16815260200191505060405180910390f35b6100d2600480360360208110156100a657600080fd5b81019080803573ffffffffffffffffffffffffffffffffffffffff169060200190929190505050610240565b604051808215151515815260200191505060405180910390f35b6101d96004803603608081101561010257600080fd5b81019080803573ffffffffffffffffffffffffffffffffffffffff1690602001909291908035906020019064010000000081111561013f57600080fd5b82018360208201111561015157600080fd5b8035906020019184600183028401116401000000008311171561017357600080fd5b91908080601f016020809104026020016040519081016040528093929190818152602001838380828437600081840152601f19601f8201169050808301925050505050505091929192908035906020019092919080359060200190929190505050610260565b604051808273ffffffffffffffffffffffffffffffffffffffff1673ffffffffffffffffffffffffffffffffffffffff16815260200191505060405180910390f35b6000809054906101000a900473ffffffffffffffffffffffffffffffffffffffff1681565b60026020528060005260406000206000915054906101000a900460ff1681565b600080600160009054906101000a900473ffffffffffffffffffffffffffffffffffffffff1673ffffffffffffffffffffffffffffffffffffffff16635b7b72c160008088601260016040518663ffffffff1660e01b8152600401808673ffffffffffffffffffffffffffffffffffffffff1673ffffffffffffffffffffffffffffffffffffffff168152602001858152602001806020018460ff1681526020018060200184151515158152602001838103835286818151815260200191508051906020019080838360005b8381101561034757808201518184015260208101905061032c565b50505050905090810190601f1680156103745780820380516001836020036101000a031916815260200191505b50838103825260078152602001807f7365636f6e647300000000000000000000000000000000000000000000000000815250602001975050505050505050602060405180830381600087803b1580156103cc57600080fd5b505af11580156103e0573d6000803e3d6000fd5b505050506040513d60208110156103f657600080fd5b810190808051906020019092919050505090506104336000809054906101000a900473ffffffffffffffffffffffffffffffffffffffff16610571565b91508173ffffffffffffffffffffffffffffffffffffffff1663eb990c59878387876040518563ffffffff1660e01b8152600401808573ffffffffffffffffffffffffffffffffffffffff1673ffffffffffffffffffffffffffffffffffffffff1681526020018473ffffffffffffffffffffffffffffffffffffffff1673ffffffffffffffffffffffffffffffffffffffff168152602001838152602001828152602001945050505050600060405180830381600087803b1580156104f857600080fd5b505af115801561050c573d6000803e3d6000fd5b505050506001600260008473ffffffffffffffffffffffffffffffffffffffff1673ffffffffffffffffffffffffffffffffffffffff16815260200190815260200160002060006101000a81548160ff02191690831515021790555050949350505050565b6000808260601b90506040517f3d602d80600a3d3981f3363d3d373d3d3d363d7300000000000000000000000081528160148201527f5af43d82803e903d91602b57fd5bf3000000000000000000000000000000000060288201526037816000f09250505091905056fea165627a7a72305820f7acca4f681867410f51205174593bc9efb211edd9b4e2fa51ffae36ab5c8ba00029",
  "source": "pragma solidity ^0.5.0;\n\nimport \"./external/CloneFactory.sol\";\nimport \"./MoneyPool.sol\";\nimport \"./Interfaces.sol\";\n\ncontract MeDao is IFundraiser, MoneyPool {\n\n    uint public collectedTimestamp; // The timestamp when a paycheck was last collected\n\n    function initialize (\n        ERC20Token _reserveToken,\n        MiniMeToken _shareToken,\n        uint _maxTokenSupply,\n        uint _baseShareValue\n    ) public runOnce {\n        collectedTimestamp = now;\n\n        setupMoneyPool (\n            _reserveToken,\n            _shareToken,\n            _maxTokenSupply,\n            _baseShareValue,\n            false\n        );\n    }\n\n    function calculateWorkTime (uint elapsedSeconds) public pure returns (uint) {\n        return elapsedSeconds * 1 ether * 40 / 168;\n    }\n\n    function collectFunds () public onlyOwner returns (uint collectedFunds){\n        uint elapsedSeconds = now - collectedTimestamp;\n        uint workTime = calculateWorkTime(elapsedSeconds);\n        collectedFunds = workTime * shareToken.totalSupply() / maxTokenSupply;\n        issue(owner, collectedFunds);\n        emit Collect_event(collectedFunds);\n    }\n\n}\n\ncontract MeDaoFactory is CloneFactory {\n\n    MeDao public blueprint;\n    MiniMeTokenFactory factory;\n\n    mapping (address => bool) public created;\n\n    function create (\n        ERC20Token reserveToken,\n        string memory name,\n        uint maxTokenSupply,\n        uint baseShareValue\n    ) public returns (MeDao medao) {\n        MiniMeToken shareToken = factory.createCloneToken(\n            address(0x0),\n            0,\n            name,\n            18,\n            'seconds',\n            true\n        );\n\n        medao = MeDao(createClone(address(blueprint)));\n        medao.initialize(\n            reserveToken,\n            shareToken,\n            maxTokenSupply,\n            baseShareValue\n        );\n\n        created[address(medao)] = true;\n    }\n\n}\n\n/*\ncontract MeDao is Owned, SimpleTokenController {\n\n    address public factory;         // The factory that deployed this contract\n    uint public blockInitialized;   // The block this contract was initialized\n\n    ERC20Token public reserveToken; // A reserve token to hold the value of a person\n    MiniMeToken public shareToken;  // A cloneable token that represents a share of a person\n    uint public desiredWage;        // How much the owner desires to earn per second worked\n    uint public maxTokenSupply;     // The maximum amount of shares that can be created\n    uint public burnedTokenSupply;  // The maximum amount of shares that can be created\n    uint public collectedTimestamp; // The timestamp when a paycheck was last collected\n\n    constructor () public {\n        blockInitialized = block.number;\n    }\n\n    function initialize (\n        address _owner,\n        ERC20Token _reserveToken,\n        MiniMeToken _shareToken,\n        uint _fundraiserGoal,\n        uint _fundraiserDuration\n    ) public {\n        require(blockInitialized == 0, \"contract already initialized\");\n\n        blockInitialized = block.number;\n\n        owner = _owner;\n        reserveToken = _reserveToken;\n        shareToken = _shareToken;\n        collectedTimestamp = now;\n\n        desiredWage = _fundraiserGoal / _fundraiserDuration;\n        maxTokenSupply = _fundraiserDuration * 1 ether;\n        collectedTimestamp = now;\n    }\n\n    function calculateTimeClaim (uint daiAmount) public view returns (uint) {\n        return shareToken.totalSupply() * daiAmount / reserveToken.balanceOf(address(this));\n    }\n\n    function calculateDaiClaim (uint timeAmount) public view returns (uint) {\n        return reserveToken.balanceOf(address(this)) * timeAmount / shareToken.totalSupply();\n    }\n\n    function calculateWorkTime (uint elapsedSeconds) public pure returns (uint) {\n        return elapsedSeconds * 1 ether * 40 / 168;\n    }\n\n    function collectFunds () public onlyOwner returns (uint collectedFunds){\n        uint elapsedSeconds = now - collectedTimestamp;\n        uint workTime = calculateWorkTime(elapsedSeconds);\n        uint fundedTime = workTime * shareToken.totalSupply() / maxTokenSupply;\n        collectedFunds = calculateDaiClaim(fundedTime);\n        require(reserveToken.transfer(owner, collectedFunds), 'failed to transfer');\n        collectedTimestamp = now;\n        emit Pay_event(fundedTime, collectedFunds);\n    }\n\n    function deposit (uint daiAmount) public {\n        uint availableSeconds = maxTokenSupply - shareToken.totalSupply();\n        uint claimedTime = calculateTimeClaim(daiAmount);\n        require(availableSeconds >= claimedTime, \"invalid reserve amount\");\n        require(reserveToken.transferFrom(msg.sender, address(this), daiAmount), \"failed to transfer\");\n        require(shareToken.generateTokens(msg.sender, claimedTime), \"failed to generate tokens\");\n        emit ConvertDai_event(msg.sender, daiAmount, claimedTime);\n    }\n\n    function withdraw (uint timeAmount) public {\n        uint daiClaim = calculateDaiClaim(timeAmount);\n        require(shareToken.destroyTokens(msg.sender, timeAmount), \"failed to destroy tokens\");\n        require(reserveToken.transfer(msg.sender, daiClaim), \"failed to transfer\");\n        emit ConvertTime_event(msg.sender, timeAmount, daiClaim);\n    }\n\n    function burn (uint timeAmount) public {\n        require(shareToken.destroyTokens(msg.sender, timeAmount), \"failed to burn tokens\");\n        maxTokenSupply -= timeAmount;\n        burnedTokenSupply += timeAmount;\n        emit Burn_event(msg.sender, timeAmount);\n    }\n\n    event Pay_event (uint timeAmount, uint daiAmount);\n    event ConvertDai_event (address msgSender, uint daiAmount, uint timeAmount);\n    event ConvertTime_event (address msgSender, uint timeAmount, uint daiAmount);\n    event Burn_event (address msgSender, uint timeAmount);\n    event NewHash_event (string newHash);\n\n}\n\ncontract MeDaoFactory is CloneFactory {\n\n    address public blueprint;\n    ERC20Token public dai;\n    MiniMeTokenFactory factory;\n\n    mapping (address => bool) public created;\n    mapping (address => MeDao) public registry;\n\n    constructor (\n        address _blueprint,\n        ERC20Token _dai,\n        MiniMeTokenFactory _factory\n    ) public {\n        blueprint = _blueprint;\n        dai = _dai;\n        factory = _factory;\n    }\n\n    function create (\n        string memory name,\n        //int birthTimestamp,\n        uint tokenClaim,\n        uint initialReserve\n    ) public returns (MeDao medao) {\n        require(address(registry[msg.sender]) == address(0x0));\n        require(initialReserve > 0);\n        require(tokenClaim > 0);\n\n        MiniMeToken timeToken = factory.createCloneToken(\n            address(0x0),\n            0,\n            name,\n            18,\n            'seconds',\n            true\n        );\n\n        medao = MeDao(createClone(blueprint));\n        created[address(medao)] = true;\n        timeToken.changeController(address(medao));\n        require(dai.transferFrom(msg.sender, address(medao), initialReserve));\n        //medao.initialize(msg.sender, dai, timeToken, birthTimestamp, tokenClaim);\n\n        registry[msg.sender] = medao;\n        emit Register_event(msg.sender, medao);\n    }\n\n    event Register_event (address indexed owner, MeDao medao);\n}\n*/\n",
  "sourcePath": "/home/joe/Documents/github/chicobitcoinjoe/medao/contracts/MeDao.sol",
  "compiler": {
    "name": "solc",
    "version": "0.5.8+commit.23d335f2.Emscripten.clang"
  },
  "schemaVersion": "3.0.11",
  "updatedAt": "2019-08-06T03:13:26.819Z",
  "devdoc": {
    "methods": {}
  },
  "userdoc": {
    "methods": {}
  }
}