{
  "contractName": "MeDao",
  "abi": [
    {
      "constant": false,
      "inputs": [
        {
          "name": "_reserveToken",
          "type": "address"
        },
        {
          "name": "_shareToken",
          "type": "address"
        },
        {
          "name": "_maxTokenSupply",
          "type": "uint256"
        },
        {
          "name": "_baseShareValue",
          "type": "uint256"
        },
        {
          "name": "_useBaseValue",
          "type": "bool"
        }
      ],
      "name": "setupMoneyPool",
      "outputs": [],
      "payable": false,
      "stateMutability": "nonpayable",
      "type": "function"
    },
    {
      "constant": false,
      "inputs": [
        {
          "name": "shareAmount",
          "type": "uint256"
        }
      ],
      "name": "withdraw",
      "outputs": [
        {
          "name": "reserveClaim",
          "type": "uint256"
        }
      ],
      "payable": false,
      "stateMutability": "nonpayable",
      "type": "function"
    },
    {
      "constant": true,
      "inputs": [
        {
          "name": "reserveAmount",
          "type": "uint256"
        }
      ],
      "name": "calculateShareClaim",
      "outputs": [
        {
          "name": "",
          "type": "uint256"
        }
      ],
      "payable": false,
      "stateMutability": "view",
      "type": "function"
    },
    {
      "constant": false,
      "inputs": [
        {
          "name": "_from",
          "type": "address"
        },
        {
          "name": "_to",
          "type": "address"
        },
        {
          "name": "_amount",
          "type": "uint256"
        }
      ],
      "name": "onTransfer",
      "outputs": [
        {
          "name": "",
          "type": "bool"
        }
      ],
      "payable": false,
      "stateMutability": "nonpayable",
      "type": "function"
    },
    {
      "constant": true,
      "inputs": [],
      "name": "maxTokenSupply",
      "outputs": [
        {
          "name": "",
          "type": "uint256"
        }
      ],
      "payable": false,
      "stateMutability": "view",
      "type": "function"
    },
    {
      "constant": true,
      "inputs": [],
      "name": "shareToken",
      "outputs": [
        {
          "name": "",
          "type": "address"
        }
      ],
      "payable": false,
      "stateMutability": "view",
      "type": "function"
    },
    {
      "constant": true,
      "inputs": [],
      "name": "baseShareValue",
      "outputs": [
        {
          "name": "",
          "type": "uint256"
        }
      ],
      "payable": false,
      "stateMutability": "view",
      "type": "function"
    },
    {
      "constant": true,
      "inputs": [],
      "name": "owner",
      "outputs": [
        {
          "name": "",
          "type": "address"
        }
      ],
      "payable": false,
      "stateMutability": "view",
      "type": "function"
    },
    {
      "constant": true,
      "inputs": [],
      "name": "useBaseValue",
      "outputs": [
        {
          "name": "",
          "type": "bool"
        }
      ],
      "payable": false,
      "stateMutability": "view",
      "type": "function"
    },
    {
      "constant": true,
      "inputs": [],
      "name": "blockInitialized",
      "outputs": [
        {
          "name": "",
          "type": "uint256"
        }
      ],
      "payable": false,
      "stateMutability": "view",
      "type": "function"
    },
    {
      "constant": true,
      "inputs": [
        {
          "name": "shareAmount",
          "type": "uint256"
        }
      ],
      "name": "calculateReserveClaim",
      "outputs": [
        {
          "name": "",
          "type": "uint256"
        }
      ],
      "payable": false,
      "stateMutability": "view",
      "type": "function"
    },
    {
      "constant": false,
      "inputs": [
        {
          "name": "reserveAmount",
          "type": "uint256"
        }
      ],
      "name": "deposit",
      "outputs": [
        {
          "name": "shareClaim",
          "type": "uint256"
        }
      ],
      "payable": false,
      "stateMutability": "nonpayable",
      "type": "function"
    },
    {
      "constant": true,
      "inputs": [],
      "name": "collectedTimestamp",
      "outputs": [
        {
          "name": "",
          "type": "uint256"
        }
      ],
      "payable": false,
      "stateMutability": "view",
      "type": "function"
    },
    {
      "constant": false,
      "inputs": [
        {
          "name": "_owner",
          "type": "address"
        },
        {
          "name": "_spender",
          "type": "address"
        },
        {
          "name": "_amount",
          "type": "uint256"
        }
      ],
      "name": "onApprove",
      "outputs": [
        {
          "name": "",
          "type": "bool"
        }
      ],
      "payable": false,
      "stateMutability": "nonpayable",
      "type": "function"
    },
    {
      "constant": false,
      "inputs": [
        {
          "name": "newOwner",
          "type": "address"
        }
      ],
      "name": "transferOwnership",
      "outputs": [],
      "payable": false,
      "stateMutability": "nonpayable",
      "type": "function"
    },
    {
      "constant": true,
      "inputs": [],
      "name": "reserveToken",
      "outputs": [
        {
          "name": "",
          "type": "address"
        }
      ],
      "payable": false,
      "stateMutability": "view",
      "type": "function"
    },
    {
      "constant": false,
      "inputs": [
        {
          "name": "_owner",
          "type": "address"
        }
      ],
      "name": "proxyPayment",
      "outputs": [
        {
          "name": "",
          "type": "bool"
        }
      ],
      "payable": true,
      "stateMutability": "payable",
      "type": "function"
    },
    {
      "anonymous": false,
      "inputs": [
        {
          "indexed": false,
          "name": "collectedAmount",
          "type": "uint256"
        }
      ],
      "name": "Collect_event",
      "type": "event"
    },
    {
      "anonymous": false,
      "inputs": [
        {
          "indexed": false,
          "name": "msgSender",
          "type": "address"
        },
        {
          "indexed": false,
          "name": "reserveAmount",
          "type": "uint256"
        },
        {
          "indexed": false,
          "name": "shareClaim",
          "type": "uint256"
        }
      ],
      "name": "Deposit_event",
      "type": "event"
    },
    {
      "anonymous": false,
      "inputs": [
        {
          "indexed": false,
          "name": "msgSender",
          "type": "address"
        },
        {
          "indexed": false,
          "name": "shareAmount",
          "type": "uint256"
        },
        {
          "indexed": false,
          "name": "reserveClaim",
          "type": "uint256"
        }
      ],
      "name": "Withdraw_event",
      "type": "event"
    },
    {
      "anonymous": false,
      "inputs": [
        {
          "indexed": false,
          "name": "account",
          "type": "address"
        },
        {
          "indexed": false,
          "name": "reserveAmount",
          "type": "uint256"
        }
      ],
      "name": "Transfer_event",
      "type": "event"
    },
    {
      "anonymous": false,
      "inputs": [
        {
          "indexed": false,
          "name": "account",
          "type": "address"
        },
        {
          "indexed": false,
          "name": "shareAmount",
          "type": "uint256"
        }
      ],
      "name": "Issue_event",
      "type": "event"
    },
    {
      "anonymous": false,
      "inputs": [
        {
          "indexed": false,
          "name": "account",
          "type": "address"
        },
        {
          "indexed": false,
          "name": "shareAmount",
          "type": "uint256"
        }
      ],
      "name": "Destroy_event",
      "type": "event"
    },
    {
      "constant": false,
      "inputs": [
        {
          "name": "_reserveToken",
          "type": "address"
        },
        {
          "name": "_shareToken",
          "type": "address"
        },
        {
          "name": "_maxTokenSupply",
          "type": "uint256"
        },
        {
          "name": "_baseShareValue",
          "type": "uint256"
        }
      ],
      "name": "initialize",
      "outputs": [],
      "payable": false,
      "stateMutability": "nonpayable",
      "type": "function"
    },
    {
      "constant": true,
      "inputs": [
        {
          "name": "elapsedSeconds",
          "type": "uint256"
        }
      ],
      "name": "calculateWorkTime",
      "outputs": [
        {
          "name": "",
          "type": "uint256"
        }
      ],
      "payable": false,
      "stateMutability": "pure",
      "type": "function"
    },
    {
      "constant": false,
      "inputs": [],
      "name": "collectFunds",
      "outputs": [
        {
          "name": "collectedFunds",
          "type": "uint256"
        }
      ],
      "payable": false,
      "stateMutability": "nonpayable",
      "type": "function"
    }
  ],
  "bytecode": "0x6080604052336000806101000a81548173ffffffffffffffffffffffffffffffffffffffff021916908373ffffffffffffffffffffffffffffffffffffffff1602179055506119fa806100536000396000f3fe60806040526004361061011f5760003560e01c80639bc40c4c116100a0578063da682aeb11610064578063da682aeb14610587578063eb990c591461061a578063f2fde38b1461069f578063f4325d67146106f0578063f48c3054146107475761011f565b80639bc40c4c14610444578063b163ecd21461046f578063b6b55f25146104be578063c65ad5411461050d578063cb29b1c5146105385761011f565b80635b980628116100e75780635b980628146103115780636c9fa59e1461033c578063761537ad146103935780638da5cb5b146103be57806395a1e303146104155761011f565b8063071e899a146101245780632e1a7d4d146101b5578063327ca4a8146102045780634a3931491461025357806350f7c204146102e6575b600080fd5b34801561013057600080fd5b506101b3600480360360a081101561014757600080fd5b81019080803573ffffffffffffffffffffffffffffffffffffffff169060200190929190803573ffffffffffffffffffffffffffffffffffffffff16906020019092919080359060200190929190803590602001909291908035151590602001909291905050506107a3565b005b3480156101c157600080fd5b506101ee600480360360208110156101d857600080fd5b810190808035906020019092919050505061086a565b6040518082815260200191505060405180910390f35b34801561021057600080fd5b5061023d6004803603602081101561022757600080fd5b8101908080359060200190929190505050610b9b565b6040518082815260200191505060405180910390f35b34801561025f57600080fd5b506102cc6004803603606081101561027657600080fd5b81019080803573ffffffffffffffffffffffffffffffffffffffff169060200190929190803573ffffffffffffffffffffffffffffffffffffffff16906020019092919080359060200190929190505050610e42565b604051808215151515815260200191505060405180910390f35b3480156102f257600080fd5b506102fb610e4f565b6040518082815260200191505060405180910390f35b34801561031d57600080fd5b50610326610e55565b6040518082815260200191505060405180910390f35b34801561034857600080fd5b50610351611048565b604051808273ffffffffffffffffffffffffffffffffffffffff1673ffffffffffffffffffffffffffffffffffffffff16815260200191505060405180910390f35b34801561039f57600080fd5b506103a861106e565b6040518082815260200191505060405180910390f35b3480156103ca57600080fd5b506103d3611074565b604051808273ffffffffffffffffffffffffffffffffffffffff1673ffffffffffffffffffffffffffffffffffffffff16815260200191505060405180910390f35b34801561042157600080fd5b5061042a611099565b604051808215151515815260200191505060405180910390f35b34801561045057600080fd5b506104596110ac565b6040518082815260200191505060405180910390f35b34801561047b57600080fd5b506104a86004803603602081101561049257600080fd5b81019080803590602001909291905050506110b2565b6040518082815260200191505060405180910390f35b3480156104ca57600080fd5b506104f7600480360360208110156104e157600080fd5b8101908080359060200190929190505050611242565b6040518082815260200191505060405180910390f35b34801561051957600080fd5b506105226116c8565b6040518082815260200191505060405180910390f35b34801561054457600080fd5b506105716004803603602081101561055b57600080fd5b81019080803590602001909291905050506116ce565b6040518082815260200191505060405180910390f35b34801561059357600080fd5b50610600600480360360608110156105aa57600080fd5b81019080803573ffffffffffffffffffffffffffffffffffffffff169060200190929190803573ffffffffffffffffffffffffffffffffffffffff169060200190929190803590602001909291905050506116ef565b604051808215151515815260200191505060405180910390f35b34801561062657600080fd5b5061069d6004803603608081101561063d57600080fd5b81019080803573ffffffffffffffffffffffffffffffffffffffff169060200190929190803573ffffffffffffffffffffffffffffffffffffffff16906020019092919080359060200190929190803590602001909291905050506116fc565b005b3480156106ab57600080fd5b506106ee600480360360208110156106c257600080fd5b81019080803573ffffffffffffffffffffffffffffffffffffffff16906020019092919050505061172d565b005b3480156106fc57600080fd5b50610705611832565b604051808273ffffffffffffffffffffffffffffffffffffffff1673ffffffffffffffffffffffffffffffffffffffff16815260200191505060405180910390f35b6107896004803603602081101561075d57600080fd5b81019080803573ffffffffffffffffffffffffffffffffffffffff169060200190929190505050611858565b604051808215151515815260200191505060405180910390f35b6000600154146107b257600080fd5b84600660016101000a81548173ffffffffffffffffffffffffffffffffffffffff021916908373ffffffffffffffffffffffffffffffffffffffff16021790555083600760006101000a81548173ffffffffffffffffffffffffffffffffffffffff021916908373ffffffffffffffffffffffffffffffffffffffff160217905550826008819055508160098190555080600a60006101000a81548160ff021916908315150217905550436001819055505050505050565b6000610875826110b2565b9050600760009054906101000a900473ffffffffffffffffffffffffffffffffffffffff1673ffffffffffffffffffffffffffffffffffffffff1663d3ce77fe33846040518363ffffffff1660e01b8152600401808373ffffffffffffffffffffffffffffffffffffffff1673ffffffffffffffffffffffffffffffffffffffff16815260200182815260200192505050602060405180830381600087803b15801561092057600080fd5b505af1158015610934573d6000803e3d6000fd5b505050506040513d602081101561094a57600080fd5b81019080805190602001909291905050506109cd576040517f08c379a00000000000000000000000000000000000000000000000000000000081526004018080602001828103825260188152602001807f6661696c656420746f2064657374726f7920746f6b656e73000000000000000081525060200191505060405180910390fd5b600660019054906101000a900473ffffffffffffffffffffffffffffffffffffffff1673ffffffffffffffffffffffffffffffffffffffff1663a9059cbb33836040518363ffffffff1660e01b8152600401808373ffffffffffffffffffffffffffffffffffffffff1673ffffffffffffffffffffffffffffffffffffffff16815260200182815260200192505050602060405180830381600087803b158015610a7657600080fd5b505af1158015610a8a573d6000803e3d6000fd5b505050506040513d6020811015610aa057600080fd5b8101908080519060200190929190505050610b23576040517f08c379a00000000000000000000000000000000000000000000000000000000081526004018080602001828103825260128152602001807f6661696c656420746f207472616e73666572000000000000000000000000000081525060200191505060405180910390fd5b7ffc66b0b1bed0c04059e1367b6de8a81a90429a81bc9ba512980aad725fb5632c338383604051808473ffffffffffffffffffffffffffffffffffffffff1673ffffffffffffffffffffffffffffffffffffffff168152602001838152602001828152602001935050505060405180910390a1919050565b6000600a60009054906101000a900460ff1680610c9157506000600660019054906101000a900473ffffffffffffffffffffffffffffffffffffffff1673ffffffffffffffffffffffffffffffffffffffff166370a08231306040518263ffffffff1660e01b8152600401808273ffffffffffffffffffffffffffffffffffffffff1673ffffffffffffffffffffffffffffffffffffffff16815260200191505060206040518083038186803b158015610c5457600080fd5b505afa158015610c68573d6000803e3d6000fd5b505050506040513d6020811015610c7e57600080fd5b8101908080519060200190929190505050145b15610cb357600954670de0b6b3a7640000830281610cab57fe5b049050610e3d565b600660019054906101000a900473ffffffffffffffffffffffffffffffffffffffff1673ffffffffffffffffffffffffffffffffffffffff166370a08231306040518263ffffffff1660e01b8152600401808273ffffffffffffffffffffffffffffffffffffffff1673ffffffffffffffffffffffffffffffffffffffff16815260200191505060206040518083038186803b158015610d5257600080fd5b505afa158015610d66573d6000803e3d6000fd5b505050506040513d6020811015610d7c57600080fd5b810190808051906020019092919050505082600760009054906101000a900473ffffffffffffffffffffffffffffffffffffffff1673ffffffffffffffffffffffffffffffffffffffff166318160ddd6040518163ffffffff1660e01b815260040160206040518083038186803b158015610df657600080fd5b505afa158015610e0a573d6000803e3d6000fd5b505050506040513d6020811015610e2057600080fd5b81019080805190602001909291905050500281610e3957fe5b0490505b919050565b6000600190509392505050565b60085481565b60008060009054906101000a900473ffffffffffffffffffffffffffffffffffffffff1673ffffffffffffffffffffffffffffffffffffffff163373ffffffffffffffffffffffffffffffffffffffff1614610f19576040517f08c379a00000000000000000000000000000000000000000000000000000000081526004018080602001828103825260178152602001807f6d73672073656e646572206973206e6f74206f776e657200000000000000000081525060200191505060405180910390fd5b6000600b54420390506000610f2d826116ce565b9050600854600760009054906101000a900473ffffffffffffffffffffffffffffffffffffffff1673ffffffffffffffffffffffffffffffffffffffff166318160ddd6040518163ffffffff1660e01b815260040160206040518083038186803b158015610f9a57600080fd5b505afa158015610fae573d6000803e3d6000fd5b505050506040513d6020811015610fc457600080fd5b8101908080519060200190929190505050820281610fde57fe5b04925061100c6000809054906101000a900473ffffffffffffffffffffffffffffffffffffffff1684611862565b7fa21cd14946039cdfc580e41550837d39a3d20e9736124610d1814f0ca157f86e836040518082815260200191505060405180910390a1505090565b600760009054906101000a900473ffffffffffffffffffffffffffffffffffffffff1681565b60095481565b6000809054906101000a900473ffffffffffffffffffffffffffffffffffffffff1681565b600a60009054906101000a900460ff1681565b60015481565b6000600760009054906101000a900473ffffffffffffffffffffffffffffffffffffffff1673ffffffffffffffffffffffffffffffffffffffff166318160ddd6040518163ffffffff1660e01b815260040160206040518083038186803b15801561111c57600080fd5b505afa158015611130573d6000803e3d6000fd5b505050506040513d602081101561114657600080fd5b810190808051906020019092919050505082600660019054906101000a900473ffffffffffffffffffffffffffffffffffffffff1673ffffffffffffffffffffffffffffffffffffffff166370a08231306040518263ffffffff1660e01b8152600401808273ffffffffffffffffffffffffffffffffffffffff1673ffffffffffffffffffffffffffffffffffffffff16815260200191505060206040518083038186803b1580156111f757600080fd5b505afa15801561120b573d6000803e3d6000fd5b505050506040513d602081101561122157600080fd5b8101908080519060200190929190505050028161123a57fe5b049050919050565b600080600760009054906101000a900473ffffffffffffffffffffffffffffffffffffffff1673ffffffffffffffffffffffffffffffffffffffff166318160ddd6040518163ffffffff1660e01b815260040160206040518083038186803b1580156112ad57600080fd5b505afa1580156112c1573d6000803e3d6000fd5b505050506040513d60208110156112d757600080fd5b81019080805190602001909291905050506008540390506112f783610b9b565b91508181101561136f576040517f08c379a00000000000000000000000000000000000000000000000000000000081526004018080602001828103825260168152602001807f696e76616c6964207265736572766520616d6f756e740000000000000000000081525060200191505060405180910390fd5b600660019054906101000a900473ffffffffffffffffffffffffffffffffffffffff1673ffffffffffffffffffffffffffffffffffffffff166323b872dd3330866040518463ffffffff1660e01b8152600401808473ffffffffffffffffffffffffffffffffffffffff1673ffffffffffffffffffffffffffffffffffffffff1681526020018373ffffffffffffffffffffffffffffffffffffffff1673ffffffffffffffffffffffffffffffffffffffff1681526020018281526020019350505050602060405180830381600087803b15801561144c57600080fd5b505af1158015611460573d6000803e3d6000fd5b505050506040513d602081101561147657600080fd5b81019080805190602001909291905050506114f9576040517f08c379a00000000000000000000000000000000000000000000000000000000081526004018080602001828103825260128152602001807f6661696c656420746f207472616e73666572000000000000000000000000000081525060200191505060405180910390fd5b600760009054906101000a900473ffffffffffffffffffffffffffffffffffffffff1673ffffffffffffffffffffffffffffffffffffffff1663827f32c033846040518363ffffffff1660e01b8152600401808373ffffffffffffffffffffffffffffffffffffffff1673ffffffffffffffffffffffffffffffffffffffff16815260200182815260200192505050602060405180830381600087803b1580156115a257600080fd5b505af11580156115b6573d6000803e3d6000fd5b505050506040513d60208110156115cc57600080fd5b810190808051906020019092919050505061164f576040517f08c379a00000000000000000000000000000000000000000000000000000000081526004018080602001828103825260198152602001807f6661696c656420746f2067656e657261746520746f6b656e730000000000000081525060200191505060405180910390fd5b7f48ac3b6d8a059a533cd86121b6616d2b78cc16910bc22eafff12e1f166591a22338484604051808473ffffffffffffffffffffffffffffffffffffffff1673ffffffffffffffffffffffffffffffffffffffff168152602001838152602001828152602001935050505060405180910390a150919050565b600b5481565b600060a86028670de0b6b3a7640000840202816116e757fe5b049050919050565b6000600190509392505050565b60006001541461170b57600080fd5b42600b819055506117208484848460006107a3565b4360018190555050505050565b6000809054906101000a900473ffffffffffffffffffffffffffffffffffffffff1673ffffffffffffffffffffffffffffffffffffffff163373ffffffffffffffffffffffffffffffffffffffff16146117ef576040517f08c379a00000000000000000000000000000000000000000000000000000000081526004018080602001828103825260178152602001807f6d73672073656e646572206973206e6f74206f776e657200000000000000000081525060200191505060405180910390fd5b806000806101000a81548173ffffffffffffffffffffffffffffffffffffffff021916908373ffffffffffffffffffffffffffffffffffffffff16021790555050565b600660019054906101000a900473ffffffffffffffffffffffffffffffffffffffff1681565b6000809050919050565b600760009054906101000a900473ffffffffffffffffffffffffffffffffffffffff1673ffffffffffffffffffffffffffffffffffffffff1663827f32c083836040518363ffffffff1660e01b8152600401808373ffffffffffffffffffffffffffffffffffffffff1673ffffffffffffffffffffffffffffffffffffffff16815260200182815260200192505050602060405180830381600087803b15801561190b57600080fd5b505af115801561191f573d6000803e3d6000fd5b505050506040513d602081101561193557600080fd5b810190808051906020019092919050505061194f57600080fd5b806008600082825401925050819055507ffb82d8e745091d2d2020311ee7db0d74371569f79ab4247f0b268dfef2e9a69f8282604051808373ffffffffffffffffffffffffffffffffffffffff1673ffffffffffffffffffffffffffffffffffffffff1681526020018281526020019250505060405180910390a1505056fea165627a7a72305820e85c89eefbe52a6027546a50f317faf7dfef436d2957cbbd0335a4fc49121d2c0029",
  "source": "pragma solidity ^0.5.0;\n\nimport \"./external/CloneFactory.sol\";\nimport \"./MoneyPool.sol\";\nimport \"./Interfaces.sol\";\n\ncontract MeDao is IFundraiser, MoneyPool {\n\n    uint public collectedTimestamp; // The timestamp when a paycheck was last collected\n\n    function initialize (\n        ERC20Token _reserveToken,\n        MiniMeToken _shareToken,\n        uint _maxTokenSupply,\n        uint _baseShareValue\n    ) public runOnce {\n        collectedTimestamp = now;\n\n        setupMoneyPool (\n            _reserveToken,\n            _shareToken,\n            _maxTokenSupply,\n            _baseShareValue,\n            false\n        );\n    }\n\n    function calculateWorkTime (uint elapsedSeconds) public pure returns (uint) {\n        return elapsedSeconds * 1 ether * 40 / 168;\n    }\n\n    function collectFunds () public onlyOwner returns (uint collectedFunds){\n        uint elapsedSeconds = now - collectedTimestamp;\n        uint workTime = calculateWorkTime(elapsedSeconds);\n        collectedFunds = workTime * shareToken.totalSupply() / maxTokenSupply;\n        issue(owner, collectedFunds);\n        emit Collect_event(collectedFunds);\n    }\n\n}\n\ncontract MeDaoFactory is CloneFactory {\n\n    MeDao public blueprint;\n    MiniMeTokenFactory factory;\n\n    mapping (address => bool) public created;\n\n    function create (\n        ERC20Token reserveToken,\n        string memory name,\n        uint maxTokenSupply,\n        uint baseShareValue\n    ) public returns (MeDao medao) {\n        MiniMeToken shareToken = factory.createCloneToken(\n            address(0x0),\n            0,\n            name,\n            18,\n            'seconds',\n            true\n        );\n\n        medao = MeDao(createClone(address(blueprint)));\n        medao.initialize(\n            reserveToken,\n            shareToken,\n            maxTokenSupply,\n            baseShareValue\n        );\n\n        created[address(medao)] = true;\n    }\n\n}\n\n/*\ncontract MeDao is Owned, SimpleTokenController {\n\n    address public factory;         // The factory that deployed this contract\n    uint public blockInitialized;   // The block this contract was initialized\n\n    ERC20Token public reserveToken; // A reserve token to hold the value of a person\n    MiniMeToken public shareToken;  // A cloneable token that represents a share of a person\n    uint public desiredWage;        // How much the owner desires to earn per second worked\n    uint public maxTokenSupply;     // The maximum amount of shares that can be created\n    uint public burnedTokenSupply;  // The maximum amount of shares that can be created\n    uint public collectedTimestamp; // The timestamp when a paycheck was last collected\n\n    constructor () public {\n        blockInitialized = block.number;\n    }\n\n    function initialize (\n        address _owner,\n        ERC20Token _reserveToken,\n        MiniMeToken _shareToken,\n        uint _fundraiserGoal,\n        uint _fundraiserDuration\n    ) public {\n        require(blockInitialized == 0, \"contract already initialized\");\n\n        blockInitialized = block.number;\n\n        owner = _owner;\n        reserveToken = _reserveToken;\n        shareToken = _shareToken;\n        collectedTimestamp = now;\n\n        desiredWage = _fundraiserGoal / _fundraiserDuration;\n        maxTokenSupply = _fundraiserDuration * 1 ether;\n        collectedTimestamp = now;\n    }\n\n    function calculateTimeClaim (uint daiAmount) public view returns (uint) {\n        return shareToken.totalSupply() * daiAmount / reserveToken.balanceOf(address(this));\n    }\n\n    function calculateDaiClaim (uint timeAmount) public view returns (uint) {\n        return reserveToken.balanceOf(address(this)) * timeAmount / shareToken.totalSupply();\n    }\n\n    function calculateWorkTime (uint elapsedSeconds) public pure returns (uint) {\n        return elapsedSeconds * 1 ether * 40 / 168;\n    }\n\n    function collectFunds () public onlyOwner returns (uint collectedFunds){\n        uint elapsedSeconds = now - collectedTimestamp;\n        uint workTime = calculateWorkTime(elapsedSeconds);\n        uint fundedTime = workTime * shareToken.totalSupply() / maxTokenSupply;\n        collectedFunds = calculateDaiClaim(fundedTime);\n        require(reserveToken.transfer(owner, collectedFunds), 'failed to transfer');\n        collectedTimestamp = now;\n        emit Pay_event(fundedTime, collectedFunds);\n    }\n\n    function deposit (uint daiAmount) public {\n        uint availableSeconds = maxTokenSupply - shareToken.totalSupply();\n        uint claimedTime = calculateTimeClaim(daiAmount);\n        require(availableSeconds >= claimedTime, \"invalid reserve amount\");\n        require(reserveToken.transferFrom(msg.sender, address(this), daiAmount), \"failed to transfer\");\n        require(shareToken.generateTokens(msg.sender, claimedTime), \"failed to generate tokens\");\n        emit ConvertDai_event(msg.sender, daiAmount, claimedTime);\n    }\n\n    function withdraw (uint timeAmount) public {\n        uint daiClaim = calculateDaiClaim(timeAmount);\n        require(shareToken.destroyTokens(msg.sender, timeAmount), \"failed to destroy tokens\");\n        require(reserveToken.transfer(msg.sender, daiClaim), \"failed to transfer\");\n        emit ConvertTime_event(msg.sender, timeAmount, daiClaim);\n    }\n\n    function burn (uint timeAmount) public {\n        require(shareToken.destroyTokens(msg.sender, timeAmount), \"failed to burn tokens\");\n        maxTokenSupply -= timeAmount;\n        burnedTokenSupply += timeAmount;\n        emit Burn_event(msg.sender, timeAmount);\n    }\n\n    event Pay_event (uint timeAmount, uint daiAmount);\n    event ConvertDai_event (address msgSender, uint daiAmount, uint timeAmount);\n    event ConvertTime_event (address msgSender, uint timeAmount, uint daiAmount);\n    event Burn_event (address msgSender, uint timeAmount);\n    event NewHash_event (string newHash);\n\n}\n\ncontract MeDaoFactory is CloneFactory {\n\n    address public blueprint;\n    ERC20Token public dai;\n    MiniMeTokenFactory factory;\n\n    mapping (address => bool) public created;\n    mapping (address => MeDao) public registry;\n\n    constructor (\n        address _blueprint,\n        ERC20Token _dai,\n        MiniMeTokenFactory _factory\n    ) public {\n        blueprint = _blueprint;\n        dai = _dai;\n        factory = _factory;\n    }\n\n    function create (\n        string memory name,\n        //int birthTimestamp,\n        uint tokenClaim,\n        uint initialReserve\n    ) public returns (MeDao medao) {\n        require(address(registry[msg.sender]) == address(0x0));\n        require(initialReserve > 0);\n        require(tokenClaim > 0);\n\n        MiniMeToken timeToken = factory.createCloneToken(\n            address(0x0),\n            0,\n            name,\n            18,\n            'seconds',\n            true\n        );\n\n        medao = MeDao(createClone(blueprint));\n        created[address(medao)] = true;\n        timeToken.changeController(address(medao));\n        require(dai.transferFrom(msg.sender, address(medao), initialReserve));\n        //medao.initialize(msg.sender, dai, timeToken, birthTimestamp, tokenClaim);\n\n        registry[msg.sender] = medao;\n        emit Register_event(msg.sender, medao);\n    }\n\n    event Register_event (address indexed owner, MeDao medao);\n}\n*/\n",
  "sourcePath": "/home/joe/Documents/github/chicobitcoinjoe/medao/contracts/MeDao.sol",
  "compiler": {
    "name": "solc",
    "version": "0.5.8+commit.23d335f2.Emscripten.clang"
  },
  "schemaVersion": "3.0.11",
  "updatedAt": "2019-08-06T03:13:26.817Z",
  "devdoc": {
    "methods": {}
  },
  "userdoc": {
    "methods": {}
  }
}