{
  "contractName": "MeDaoFactory",
  "abi": [
    {
      "constant": true,
      "inputs": [],
      "name": "blueprint",
      "outputs": [
        {
          "name": "",
          "type": "address"
        }
      ],
      "payable": false,
      "stateMutability": "view",
      "type": "function"
    },
    {
      "constant": true,
      "inputs": [
        {
          "name": "",
          "type": "address"
        }
      ],
      "name": "created",
      "outputs": [
        {
          "name": "",
          "type": "bool"
        }
      ],
      "payable": false,
      "stateMutability": "view",
      "type": "function"
    },
    {
      "inputs": [
        {
          "name": "_blueprint",
          "type": "address"
        }
      ],
      "payable": false,
      "stateMutability": "nonpayable",
      "type": "constructor"
    },
    {
      "constant": false,
      "inputs": [
        {
          "name": "reserveToken",
          "type": "address"
        },
        {
          "name": "name",
          "type": "string"
        },
        {
          "name": "birthTimestamp",
          "type": "uint256"
        },
        {
          "name": "tokenClaim",
          "type": "uint256"
        }
      ],
      "name": "create",
      "outputs": [
        {
          "name": "medao",
          "type": "address"
        }
      ],
      "payable": false,
      "stateMutability": "nonpayable",
      "type": "function"
    }
  ],
  "bytecode": "0x608060405234801561001057600080fd5b506040516020806136f38339810180604052602081101561003057600080fd5b8101908080519060200190929190505050806000806101000a81548173ffffffffffffffffffffffffffffffffffffffff021916908373ffffffffffffffffffffffffffffffffffffffff16021790555050613662806100916000396000f3fe608060405260043610610057576000357c0100000000000000000000000000000000000000000000000000000000900463ffffffff168063c05efa151461005c578063d42efd83146100b3578063da566a6f1461011c575b600080fd5b34801561006857600080fd5b50610071610258565b604051808273ffffffffffffffffffffffffffffffffffffffff1673ffffffffffffffffffffffffffffffffffffffff16815260200191505060405180910390f35b3480156100bf57600080fd5b50610102600480360360208110156100d657600080fd5b81019080803573ffffffffffffffffffffffffffffffffffffffff16906020019092919050505061027d565b604051808215151515815260200191505060405180910390f35b34801561012857600080fd5b506102166004803603608081101561013f57600080fd5b81019080803573ffffffffffffffffffffffffffffffffffffffff1690602001909291908035906020019064010000000081111561017c57600080fd5b82018360208201111561018e57600080fd5b803590602001918460018302840111640100000000831117156101b057600080fd5b91908080601f016020809104026020016040519081016040528093929190818152602001838380828437600081840152601f19601f820116905080830192505050505050509192919290803590602001909291908035906020019092919050505061029d565b604051808273ffffffffffffffffffffffffffffffffffffffff1673ffffffffffffffffffffffffffffffffffffffff16815260200191505060405180910390f35b6000809054906101000a900473ffffffffffffffffffffffffffffffffffffffff1681565b60016020528060005260406000206000915054906101000a900460ff1681565b6000806102ca6000809054906101000a900473ffffffffffffffffffffffffffffffffffffffff166107ca565b905080915060003060008088601260016102e2610840565b808773ffffffffffffffffffffffffffffffffffffffff1673ffffffffffffffffffffffffffffffffffffffff1681526020018673ffffffffffffffffffffffffffffffffffffffff1673ffffffffffffffffffffffffffffffffffffffff168152602001858152602001806020018460ff1681526020018060200184151515158152602001838103835286818151815260200191508051906020019080838360005b838110156103a0578082015181840152602081019050610385565b50505050905090810190601f1680156103cd5780820380516001836020036101000a031916815260200191505b50838103825260078152602001807f7365636f6e64730000000000000000000000000000000000000000000000000081525060200198505050505050505050604051809103906000f080158015610428573d6000803e3d6000fd5b5090508073ffffffffffffffffffffffffffffffffffffffff1663827f32c033866040518363ffffffff167c0100000000000000000000000000000000000000000000000000000000028152600401808373ffffffffffffffffffffffffffffffffffffffff1673ffffffffffffffffffffffffffffffffffffffff16815260200182815260200192505050602060405180830381600087803b1580156104ce57600080fd5b505af11580156104e2573d6000803e3d6000fd5b505050506040513d60208110156104f857600080fd5b8101908080519060200190929190505050151561051457600080fd5b8073ffffffffffffffffffffffffffffffffffffffff16633cebb823836040518263ffffffff167c0100000000000000000000000000000000000000000000000000000000028152600401808273ffffffffffffffffffffffffffffffffffffffff1673ffffffffffffffffffffffffffffffffffffffff168152602001915050600060405180830381600087803b1580156105af57600080fd5b505af11580156105c3573d6000803e3d6000fd5b505050508273ffffffffffffffffffffffffffffffffffffffff16631794bb3c8289886040518463ffffffff167c0100000000000000000000000000000000000000000000000000000000028152600401808473ffffffffffffffffffffffffffffffffffffffff1673ffffffffffffffffffffffffffffffffffffffff1681526020018373ffffffffffffffffffffffffffffffffffffffff1673ffffffffffffffffffffffffffffffffffffffff1681526020018281526020019350505050600060405180830381600087803b15801561069e57600080fd5b505af11580156106b2573d6000803e3d6000fd5b505050508273ffffffffffffffffffffffffffffffffffffffff1663f2fde38b336040518263ffffffff167c0100000000000000000000000000000000000000000000000000000000028152600401808273ffffffffffffffffffffffffffffffffffffffff1673ffffffffffffffffffffffffffffffffffffffff168152602001915050600060405180830381600087803b15801561075157600080fd5b505af1158015610765573d6000803e3d6000fd5b5050505060018060008573ffffffffffffffffffffffffffffffffffffffff1673ffffffffffffffffffffffffffffffffffffffff16815260200190815260200160002060006101000a81548160ff0219169083151502179055505050949350505050565b600080826c010000000000000000000000000290506040517f3d602d80600a3d3981f3363d3d373d3d3d363d7300000000000000000000000081528160148201527f5af43d82803e903d91602b57fd5bf3000000000000000000000000000000000060288201526037816000f092505050919050565b604051612de6806108518339019056fe60806040526040805190810160405280600781526020017f4d4d545f302e32000000000000000000000000000000000000000000000000008152506004908051906020019062000051929190620002a6565b503480156200005f57600080fd5b5060405162002de638038062002de6833981018060405260e08110156200008557600080fd5b810190808051906020019092919080519060200190929190805190602001909291908051640100000000811115620000bc57600080fd5b82810190506020810184811115620000d357600080fd5b8151856001820283011164010000000082111715620000f157600080fd5b50509291906020018051906020019092919080516401000000008111156200011857600080fd5b828101905060208101848111156200012f57600080fd5b81518560018202830111640100000000821117156200014d57600080fd5b505092919060200180519060200190929190505050336000806101000a81548173ffffffffffffffffffffffffffffffffffffffff021916908373ffffffffffffffffffffffffffffffffffffffff16021790555086600b60016101000a81548173ffffffffffffffffffffffffffffffffffffffff021916908373ffffffffffffffffffffffffffffffffffffffff1602179055508360019080519060200190620001fb929190620002a6565b5082600260006101000a81548160ff021916908360ff16021790555081600390805190602001906200022f929190620002a6565b5085600560006101000a81548173ffffffffffffffffffffffffffffffffffffffff021916908373ffffffffffffffffffffffffffffffffffffffff1602179055508460068190555080600b60006101000a81548160ff021916908315150217905550436007819055505050505050505062000355565b828054600181600116156101000203166002900490600052602060002090601f016020900481019282601f10620002e957805160ff19168380011785556200031a565b828001600101855582156200031a579182015b8281111562000319578251825591602001919060010190620002fc565b5b5090506200032991906200032d565b5090565b6200035291905b808211156200034e57600081600090555060010162000334565b5090565b90565b612a8180620003656000396000f3fe60806040526004361061013e576000357c0100000000000000000000000000000000000000000000000000000000900463ffffffff16806306fdde0314610278578063095ea7b314610308578063176345141461037b57806318160ddd146103a657806323b872dd146103d1578063313ce567146104645780633cebb823146104955780634ee2cd7e146104e657806354fd4d50146105555780636638c087146105e557806370a08231146107a757806380a540011461080c578063827f32c01461086357806395d89b41146108d6578063981b24d014610966578063a9059cbb146109b5578063bef97c8714610a28578063c5bcc4f114610a57578063cae9ca5114610a82578063d3ce77fe14610b8c578063dd62ed3e14610bff578063e77772fe14610c84578063f41e60c514610cdb578063f77c479114610d18575b6101686000809054906101000a900473ffffffffffffffffffffffffffffffffffffffff16610d6f565b151561017357600080fd5b6000809054906101000a900473ffffffffffffffffffffffffffffffffffffffff1673ffffffffffffffffffffffffffffffffffffffff1663f48c305434336040518363ffffffff167c0100000000000000000000000000000000000000000000000000000000028152600401808273ffffffffffffffffffffffffffffffffffffffff1673ffffffffffffffffffffffffffffffffffffffff1681526020019150506020604051808303818588803b15801561022f57600080fd5b505af1158015610243573d6000803e3d6000fd5b50505050506040513d602081101561025a57600080fd5b8101908080519060200190929190505050151561027657600080fd5b005b34801561028457600080fd5b5061028d610dc2565b6040518080602001828103825283818151815260200191508051906020019080838360005b838110156102cd5780820151818401526020810190506102b2565b50505050905090810190601f1680156102fa5780820380516001836020036101000a031916815260200191505b509250505060405180910390f35b34801561031457600080fd5b506103616004803603604081101561032b57600080fd5b81019080803573ffffffffffffffffffffffffffffffffffffffff16906020019092919080359060200190929190505050610e60565b604051808215151515815260200191505060405180910390f35b34801561038757600080fd5b50610390611171565b6040518082815260200191505060405180910390f35b3480156103b257600080fd5b506103bb611177565b6040518082815260200191505060405180910390f35b3480156103dd57600080fd5b5061044a600480360360608110156103f457600080fd5b81019080803573ffffffffffffffffffffffffffffffffffffffff169060200190929190803573ffffffffffffffffffffffffffffffffffffffff16906020019092919080359060200190929190505050611187565b604051808215151515815260200191505060405180910390f35b34801561047057600080fd5b50610479611326565b604051808260ff1660ff16815260200191505060405180910390f35b3480156104a157600080fd5b506104e4600480360360208110156104b857600080fd5b81019080803573ffffffffffffffffffffffffffffffffffffffff169060200190929190505050611339565b005b3480156104f257600080fd5b5061053f6004803603604081101561050957600080fd5b81019080803573ffffffffffffffffffffffffffffffffffffffff169060200190929190803590602001909291905050506113d7565b6040518082815260200191505060405180910390f35b34801561056157600080fd5b5061056a611677565b6040518080602001828103825283818151815260200191508051906020019080838360005b838110156105aa57808201518184015260208101905061058f565b50505050905090810190601f1680156105d75780820380516001836020036101000a031916815260200191505b509250505060405180910390f35b3480156105f157600080fd5b50610765600480360360a081101561060857600080fd5b810190808035906020019064010000000081111561062557600080fd5b82018360208201111561063757600080fd5b8035906020019184600183028401116401000000008311171561065957600080fd5b91908080601f016020809104026020016040519081016040528093929190818152602001838380828437600081840152601f19601f820116905080830192505050505050509192919290803560ff169060200190929190803590602001906401000000008111156106c957600080fd5b8201836020820111156106db57600080fd5b803590602001918460018302840111640100000000831117156106fd57600080fd5b91908080601f016020809104026020016040519081016040528093929190818152602001838380828437600081840152601f19601f82011690508083019250505050505050919291929080359060200190929190803515159060200190929190505050611715565b604051808273ffffffffffffffffffffffffffffffffffffffff1673ffffffffffffffffffffffffffffffffffffffff16815260200191505060405180910390f35b3480156107b357600080fd5b506107f6600480360360208110156107ca57600080fd5b81019080803573ffffffffffffffffffffffffffffffffffffffff169060200190929190505050611a29565b6040518082815260200191505060405180910390f35b34801561081857600080fd5b50610821611a3c565b604051808273ffffffffffffffffffffffffffffffffffffffff1673ffffffffffffffffffffffffffffffffffffffff16815260200191505060405180910390f35b34801561086f57600080fd5b506108bc6004803603604081101561088657600080fd5b81019080803573ffffffffffffffffffffffffffffffffffffffff16906020019092919080359060200190929190505050611a62565b604051808215151515815260200191505060405180910390f35b3480156108e257600080fd5b506108eb611bc3565b6040518080602001828103825283818151815260200191508051906020019080838360005b8381101561092b578082015181840152602081019050610910565b50505050905090810190601f1680156109585780820380516001836020036101000a031916815260200191505b509250505060405180910390f35b34801561097257600080fd5b5061099f6004803603602081101561098957600080fd5b8101908080359060200190929190505050611c61565b6040518082815260200191505060405180910390f35b3480156109c157600080fd5b50610a0e600480360360408110156109d857600080fd5b81019080803573ffffffffffffffffffffffffffffffffffffffff16906020019092919080359060200190929190505050611e15565b604051808215151515815260200191505060405180910390f35b348015610a3457600080fd5b50610a3d611e47565b604051808215151515815260200191505060405180910390f35b348015610a6357600080fd5b50610a6c611e5a565b6040518082815260200191505060405180910390f35b348015610a8e57600080fd5b50610b7260048036036060811015610aa557600080fd5b81019080803573ffffffffffffffffffffffffffffffffffffffff1690602001909291908035906020019092919080359060200190640100000000811115610aec57600080fd5b820183602082011115610afe57600080fd5b80359060200191846001830284011164010000000083111715610b2057600080fd5b91908080601f016020809104026020016040519081016040528093929190818152602001838380828437600081840152601f19601f820116905080830192505050505050509192919290505050611e60565b604051808215151515815260200191505060405180910390f35b348015610b9857600080fd5b50610be560048036036040811015610baf57600080fd5b81019080803573ffffffffffffffffffffffffffffffffffffffff16906020019092919080359060200190929190505050611fde565b604051808215151515815260200191505060405180910390f35b348015610c0b57600080fd5b50610c6e60048036036040811015610c2257600080fd5b81019080803573ffffffffffffffffffffffffffffffffffffffff169060200190929190803573ffffffffffffffffffffffffffffffffffffffff16906020019092919050505061213b565b6040518082815260200191505060405180910390f35b348015610c9057600080fd5b50610c996121c2565b604051808273ffffffffffffffffffffffffffffffffffffffff1673ffffffffffffffffffffffffffffffffffffffff16815260200191505060405180910390f35b348015610ce757600080fd5b50610d1660048036036020811015610cfe57600080fd5b810190808035151590602001909291905050506121e8565b005b348015610d2457600080fd5b50610d2d612260565b604051808273ffffffffffffffffffffffffffffffffffffffff1673ffffffffffffffffffffffffffffffffffffffff16815260200191505060405180910390f35b600080600073ffffffffffffffffffffffffffffffffffffffff168373ffffffffffffffffffffffffffffffffffffffff161415610db1576000915050610dbd565b823b9050600081119150505b919050565b60018054600181600116156101000203166002900480601f016020809104026020016040519081016040528092919081815260200182805460018160011615610100020316600290048015610e585780601f10610e2d57610100808354040283529160200191610e58565b820191906000526020600020905b815481529060010190602001808311610e3b57829003601f168201915b505050505081565b6000600b60009054906101000a900460ff161515610e7d57600080fd5b6000821480610f0857506000600960003373ffffffffffffffffffffffffffffffffffffffff1673ffffffffffffffffffffffffffffffffffffffff16815260200190815260200160002060008573ffffffffffffffffffffffffffffffffffffffff1673ffffffffffffffffffffffffffffffffffffffff16815260200190815260200160002054145b1515610f1357600080fd5b610f3d6000809054906101000a900473ffffffffffffffffffffffffffffffffffffffff16610d6f565b15611081576000809054906101000a900473ffffffffffffffffffffffffffffffffffffffff1673ffffffffffffffffffffffffffffffffffffffff1663da682aeb3385856040518463ffffffff167c0100000000000000000000000000000000000000000000000000000000028152600401808473ffffffffffffffffffffffffffffffffffffffff1673ffffffffffffffffffffffffffffffffffffffff1681526020018373ffffffffffffffffffffffffffffffffffffffff1673ffffffffffffffffffffffffffffffffffffffff1681526020018281526020019350505050602060405180830381600087803b15801561103a57600080fd5b505af115801561104e573d6000803e3d6000fd5b505050506040513d602081101561106457600080fd5b8101908080519060200190929190505050151561108057600080fd5b5b81600960003373ffffffffffffffffffffffffffffffffffffffff1673ffffffffffffffffffffffffffffffffffffffff16815260200190815260200160002060008573ffffffffffffffffffffffffffffffffffffffff1673ffffffffffffffffffffffffffffffffffffffff168152602001908152602001600020819055508273ffffffffffffffffffffffffffffffffffffffff163373ffffffffffffffffffffffffffffffffffffffff167f8c5be1e5ebec7d5bd14f71427d1e84f3dd0314c0f7b2291e5b200ac8c7c3b925846040518082815260200191505060405180910390a36001905092915050565b60075481565b600061118243611c61565b905090565b60008060009054906101000a900473ffffffffffffffffffffffffffffffffffffffff1673ffffffffffffffffffffffffffffffffffffffff163373ffffffffffffffffffffffffffffffffffffffff1614151561131057600b60009054906101000a900460ff1615156111fa57600080fd5b81600960008673ffffffffffffffffffffffffffffffffffffffff1673ffffffffffffffffffffffffffffffffffffffff16815260200190815260200160002060003373ffffffffffffffffffffffffffffffffffffffff1673ffffffffffffffffffffffffffffffffffffffff168152602001908152602001600020541015151561128557600080fd5b81600960008673ffffffffffffffffffffffffffffffffffffffff1673ffffffffffffffffffffffffffffffffffffffff16815260200190815260200160002060003373ffffffffffffffffffffffffffffffffffffffff1673ffffffffffffffffffffffffffffffffffffffff168152602001908152602001600020600082825403925050819055505b61131b848484612285565b600190509392505050565b600260009054906101000a900460ff1681565b6000809054906101000a900473ffffffffffffffffffffffffffffffffffffffff1673ffffffffffffffffffffffffffffffffffffffff163373ffffffffffffffffffffffffffffffffffffffff1614151561139457600080fd5b806000806101000a81548173ffffffffffffffffffffffffffffffffffffffff021916908373ffffffffffffffffffffffffffffffffffffffff16021790555050565b600080600860008573ffffffffffffffffffffffffffffffffffffffff1673ffffffffffffffffffffffffffffffffffffffff1681526020019081526020016000208054905014806114b0575081600860008573ffffffffffffffffffffffffffffffffffffffff1673ffffffffffffffffffffffffffffffffffffffff168152602001908152602001600020600081548110151561147257fe5b9060005260206000200160000160009054906101000a90046fffffffffffffffffffffffffffffffff166fffffffffffffffffffffffffffffffff16115b1561162657600073ffffffffffffffffffffffffffffffffffffffff16600560009054906101000a900473ffffffffffffffffffffffffffffffffffffffff1673ffffffffffffffffffffffffffffffffffffffff1614151561161d57600560009054906101000a900473ffffffffffffffffffffffffffffffffffffffff1673ffffffffffffffffffffffffffffffffffffffff16634ee2cd7e8461155885600654612627565b6040518363ffffffff167c0100000000000000000000000000000000000000000000000000000000028152600401808373ffffffffffffffffffffffffffffffffffffffff1673ffffffffffffffffffffffffffffffffffffffff1681526020018281526020019250505060206040518083038186803b1580156115db57600080fd5b505afa1580156115ef573d6000803e3d6000fd5b505050506040513d602081101561160557600080fd5b81019080805190602001909291905050509050611671565b60009050611671565b61166e600860008573ffffffffffffffffffffffffffffffffffffffff1673ffffffffffffffffffffffffffffffffffffffff16815260200190815260200160002083612640565b90505b92915050565b60048054600181600116156101000203166002900480601f01602080910402602001604051908101604052809291908181526020018280546001816001161561010002031660029004801561170d5780601f106116e25761010080835404028352916020019161170d565b820191906000526020600020905b8154815290600101906020018083116116f057829003601f168201915b505050505081565b600080831415611723574392505b6000600b60019054906101000a900473ffffffffffffffffffffffffffffffffffffffff1673ffffffffffffffffffffffffffffffffffffffff16635b7b72c130868a8a8a896040518763ffffffff167c0100000000000000000000000000000000000000000000000000000000028152600401808773ffffffffffffffffffffffffffffffffffffffff1673ffffffffffffffffffffffffffffffffffffffff168152602001868152602001806020018560ff1660ff1681526020018060200184151515158152602001838103835287818151815260200191508051906020019080838360005b8381101561182657808201518184015260208101905061180b565b50505050905090810190601f1680156118535780820380516001836020036101000a031916815260200191505b50838103825285818151815260200191508051906020019080838360005b8381101561188c578082015181840152602081019050611871565b50505050905090810190601f1680156118b95780820380516001836020036101000a031916815260200191505b5098505050505050505050602060405180830381600087803b1580156118de57600080fd5b505af11580156118f2573d6000803e3d6000fd5b505050506040513d602081101561190857600080fd5b810190808051906020019092919050505090508073ffffffffffffffffffffffffffffffffffffffff16633cebb823336040518263ffffffff167c0100000000000000000000000000000000000000000000000000000000028152600401808273ffffffffffffffffffffffffffffffffffffffff1673ffffffffffffffffffffffffffffffffffffffff168152602001915050600060405180830381600087803b1580156119b657600080fd5b505af11580156119ca573d6000803e3d6000fd5b505050508073ffffffffffffffffffffffffffffffffffffffff167f086c875b377f900b07ce03575813022f05dd10ed7640b5282cf6d3c3fc352ade856040518082815260200191505060405180910390a28091505095945050505050565b6000611a3582436113d7565b9050919050565b600560009054906101000a900473ffffffffffffffffffffffffffffffffffffffff1681565b60008060009054906101000a900473ffffffffffffffffffffffffffffffffffffffff1673ffffffffffffffffffffffffffffffffffffffff163373ffffffffffffffffffffffffffffffffffffffff16141515611abf57600080fd5b6000611ac9611177565b90508083820110151515611adc57600080fd5b6000611ae785611a29565b90508084820110151515611afa57600080fd5b611b07600a85840161284f565b611b51600860008773ffffffffffffffffffffffffffffffffffffffff1673ffffffffffffffffffffffffffffffffffffffff16815260200190815260200160002085830161284f565b8473ffffffffffffffffffffffffffffffffffffffff16600073ffffffffffffffffffffffffffffffffffffffff167fddf252ad1be2c89b69c2b068fc378daa952ba7f163c4a11628f55a4df523b3ef866040518082815260200191505060405180910390a360019250505092915050565b60038054600181600116156101000203166002900480601f016020809104026020016040519081016040528092919081815260200182805460018160011615610100020316600290048015611c595780601f10611c2e57610100808354040283529160200191611c59565b820191906000526020600020905b815481529060010190602001808311611c3c57829003601f168201915b505050505081565b600080600a805490501480611cc0575081600a6000815481101515611c8257fe5b9060005260206000200160000160009054906101000a90046fffffffffffffffffffffffffffffffff166fffffffffffffffffffffffffffffffff16115b15611e0257600073ffffffffffffffffffffffffffffffffffffffff16600560009054906101000a900473ffffffffffffffffffffffffffffffffffffffff1673ffffffffffffffffffffffffffffffffffffffff16141515611df957600560009054906101000a900473ffffffffffffffffffffffffffffffffffffffff1673ffffffffffffffffffffffffffffffffffffffff1663981b24d0611d6784600654612627565b6040518263ffffffff167c01000000000000000000000000000000000000000000000000000000000281526004018082815260200191505060206040518083038186803b158015611db757600080fd5b505afa158015611dcb573d6000803e3d6000fd5b505050506040513d6020811015611de157600080fd5b81019080805190602001909291905050509050611e10565b60009050611e10565b611e0d600a83612640565b90505b919050565b6000600b60009054906101000a900460ff161515611e3257600080fd5b611e3d338484612285565b6001905092915050565b600b60009054906101000a900460ff1681565b60065481565b6000611e6c8484610e60565b1515611e7757600080fd5b8373ffffffffffffffffffffffffffffffffffffffff16638f4ffcb1338530866040518563ffffffff167c0100000000000000000000000000000000000000000000000000000000028152600401808573ffffffffffffffffffffffffffffffffffffffff1673ffffffffffffffffffffffffffffffffffffffff1681526020018481526020018373ffffffffffffffffffffffffffffffffffffffff1673ffffffffffffffffffffffffffffffffffffffff16815260200180602001828103825283818151815260200191508051906020019080838360005b83811015611f6c578082015181840152602081019050611f51565b50505050905090810190601f168015611f995780820380516001836020036101000a031916815260200191505b5095505050505050600060405180830381600087803b158015611fbb57600080fd5b505af1158015611fcf573d6000803e3d6000fd5b50505050600190509392505050565b60008060009054906101000a900473ffffffffffffffffffffffffffffffffffffffff1673ffffffffffffffffffffffffffffffffffffffff163373ffffffffffffffffffffffffffffffffffffffff1614151561203b57600080fd5b6000612045611177565b905082811015151561205657600080fd5b600061206185611a29565b905083811015151561207257600080fd5b61207f600a85840361284f565b6120c9600860008773ffffffffffffffffffffffffffffffffffffffff1673ffffffffffffffffffffffffffffffffffffffff16815260200190815260200160002085830361284f565b600073ffffffffffffffffffffffffffffffffffffffff168573ffffffffffffffffffffffffffffffffffffffff167fddf252ad1be2c89b69c2b068fc378daa952ba7f163c4a11628f55a4df523b3ef866040518082815260200191505060405180910390a360019250505092915050565b6000600960008473ffffffffffffffffffffffffffffffffffffffff1673ffffffffffffffffffffffffffffffffffffffff16815260200190815260200160002060008373ffffffffffffffffffffffffffffffffffffffff1673ffffffffffffffffffffffffffffffffffffffff16815260200190815260200160002054905092915050565b600b60019054906101000a900473ffffffffffffffffffffffffffffffffffffffff1681565b6000809054906101000a900473ffffffffffffffffffffffffffffffffffffffff1673ffffffffffffffffffffffffffffffffffffffff163373ffffffffffffffffffffffffffffffffffffffff1614151561224357600080fd5b80600b60006101000a81548160ff02191690831515021790555050565b6000809054906101000a900473ffffffffffffffffffffffffffffffffffffffff1681565b60008114156122f8578173ffffffffffffffffffffffffffffffffffffffff168373ffffffffffffffffffffffffffffffffffffffff167fddf252ad1be2c89b69c2b068fc378daa952ba7f163c4a11628f55a4df523b3ef836040518082815260200191505060405180910390a3612622565b4360065410151561230857600080fd5b600073ffffffffffffffffffffffffffffffffffffffff168273ffffffffffffffffffffffffffffffffffffffff161415801561237157503073ffffffffffffffffffffffffffffffffffffffff168273ffffffffffffffffffffffffffffffffffffffff1614155b151561237c57600080fd5b600061238884436113d7565b905081811015151561239957600080fd5b6123c36000809054906101000a900473ffffffffffffffffffffffffffffffffffffffff16610d6f565b15612507576000809054906101000a900473ffffffffffffffffffffffffffffffffffffffff1673ffffffffffffffffffffffffffffffffffffffff16634a3931498585856040518463ffffffff167c0100000000000000000000000000000000000000000000000000000000028152600401808473ffffffffffffffffffffffffffffffffffffffff1673ffffffffffffffffffffffffffffffffffffffff1681526020018373ffffffffffffffffffffffffffffffffffffffff1673ffffffffffffffffffffffffffffffffffffffff1681526020018281526020019350505050602060405180830381600087803b1580156124c057600080fd5b505af11580156124d4573d6000803e3d6000fd5b505050506040513d60208110156124ea57600080fd5b8101908080519060200190929190505050151561250657600080fd5b5b612551600860008673ffffffffffffffffffffffffffffffffffffffff1673ffffffffffffffffffffffffffffffffffffffff16815260200190815260200160002083830361284f565b600061255d84436113d7565b9050808382011015151561257057600080fd5b6125ba600860008673ffffffffffffffffffffffffffffffffffffffff1673ffffffffffffffffffffffffffffffffffffffff16815260200190815260200160002084830161284f565b8373ffffffffffffffffffffffffffffffffffffffff168573ffffffffffffffffffffffffffffffffffffffff167fddf252ad1be2c89b69c2b068fc378daa952ba7f163c4a11628f55a4df523b3ef856040518082815260200191505060405180910390a350505b505050565b60008183106126365781612638565b825b905092915050565b600080838054905014156126575760009050612849565b82600184805490500381548110151561266c57fe5b9060005260206000200160000160009054906101000a90046fffffffffffffffffffffffffffffffff166fffffffffffffffffffffffffffffffff1682101515612708578260018480549050038154811015156126c557fe5b9060005260206000200160000160109054906101000a90046fffffffffffffffffffffffffffffffff166fffffffffffffffffffffffffffffffff169050612849565b82600081548110151561271757fe5b9060005260206000200160000160009054906101000a90046fffffffffffffffffffffffffffffffff166fffffffffffffffffffffffffffffffff168210156127635760009050612849565b60008090506000600185805490500390505b818111156127fa576000600260018484010181151561279057fe5b0490508486828154811015156127a257fe5b9060005260206000200160000160009054906101000a90046fffffffffffffffffffffffffffffffff166fffffffffffffffffffffffffffffffff161115156127ed578092506127f4565b6001810391505b50612775565b848281548110151561280857fe5b9060005260206000200160000160109054906101000a90046fffffffffffffffffffffffffffffffff166fffffffffffffffffffffffffffffffff16925050505b92915050565b6000828054905014806128b157504382600184805490500381548110151561287357fe5b9060005260206000200160000160009054906101000a90046fffffffffffffffffffffffffffffffff166fffffffffffffffffffffffffffffffff16105b15612960576000828380548091906001016128cc91906129c4565b8154811015156128d857fe5b906000526020600020019050438160000160006101000a8154816fffffffffffffffffffffffffffffffff02191690836fffffffffffffffffffffffffffffffff160217905550818160000160106101000a8154816fffffffffffffffffffffffffffffffff02191690836fffffffffffffffffffffffffffffffff160217905550506129c0565b600082600184805490500381548110151561297757fe5b906000526020600020019050818160000160106101000a8154816fffffffffffffffffffffffffffffffff02191690836fffffffffffffffffffffffffffffffff160217905550505b5050565b8154818355818111156129eb578183600052602060002091820191016129ea91906129f0565b5b505050565b612a5291905b80821115612a4e57600080820160006101000a8154906fffffffffffffffffffffffffffffffff02191690556000820160106101000a8154906fffffffffffffffffffffffffffffffff0219169055506001016129f6565b5090565b9056fea165627a7a72305820569d61ada0657eb590004b2e8969bf7147d3b1fd123c9386fb056f15ff270ca50029a165627a7a7230582093bdc6a08e92bd4b133457b1c3748fff7af8441acfba3fb8bb4bb8a962bce4540029",
  "source": "pragma solidity ^0.5.0;\n\nimport \"./external/CloneFactory.sol\";\nimport \"./MeDao.sol\";\n\ncontract MeDaoFactory is CloneFactory {\n\n    address public blueprint;\n\n    constructor (\n        address _blueprint\n    ) public {\n        blueprint = _blueprint;\n    }\n\n    mapping (address => bool) public created;\n\n    function create (\n        ERC20 reserveToken,\n        string memory name,\n        uint birthTimestamp,\n        uint tokenClaim\n    ) public returns (MeDao medao) {\n        address payable clone = address(uint160(createClone(blueprint)));\n        medao = MeDao(clone);\n\n        MiniMeToken timeToken = new MiniMeToken(\n            address(this),\n            address(0x0),\n            0,\n            name,\n            18,\n            'seconds',\n            true\n        );\n\n        require(timeToken.generateTokens(msg.sender, tokenClaim));\n        timeToken.changeController(address(clone));\n        medao.initialize(timeToken, reserveToken, birthTimestamp);\n        medao.transferOwnership(msg.sender);\n        created[address(medao)] = true;\n    }\n\n}\n",
  "sourcePath": "/home/joe/Documents/github/chicobitcoinjoe/MeDao/contracts/MeDaoFactory.sol",
  "compiler": {
    "name": "solc",
    "version": "0.5.0+commit.1d4f565a.Emscripten.clang"
  },
  "schemaVersion": "3.0.9",
  "updatedAt": "2019-05-23T20:59:24.277Z",
  "devdoc": {
    "methods": {}
  },
  "userdoc": {
    "methods": {}
  }
}