{
  "contractName": "MeDao",
  "abi": [
    {
      "constant": true,
      "inputs": [],
      "name": "maxTokenSupply",
      "outputs": [
        {
          "name": "",
          "type": "uint256"
        }
      ],
      "payable": false,
      "stateMutability": "view",
      "type": "function"
    },
    {
      "constant": true,
      "inputs": [],
      "name": "birthTimestamp",
      "outputs": [
        {
          "name": "",
          "type": "uint256"
        }
      ],
      "payable": false,
      "stateMutability": "view",
      "type": "function"
    },
    {
      "constant": true,
      "inputs": [],
      "name": "owner",
      "outputs": [
        {
          "name": "",
          "type": "address"
        }
      ],
      "payable": false,
      "stateMutability": "view",
      "type": "function"
    },
    {
      "constant": true,
      "inputs": [],
      "name": "blockInitialized",
      "outputs": [
        {
          "name": "",
          "type": "uint256"
        }
      ],
      "payable": false,
      "stateMutability": "view",
      "type": "function"
    },
    {
      "constant": true,
      "inputs": [],
      "name": "lastPaycheck",
      "outputs": [
        {
          "name": "",
          "type": "uint256"
        }
      ],
      "payable": false,
      "stateMutability": "view",
      "type": "function"
    },
    {
      "constant": true,
      "inputs": [],
      "name": "factory",
      "outputs": [
        {
          "name": "",
          "type": "address"
        }
      ],
      "payable": false,
      "stateMutability": "view",
      "type": "function"
    },
    {
      "constant": true,
      "inputs": [],
      "name": "timeToken",
      "outputs": [
        {
          "name": "",
          "type": "address"
        }
      ],
      "payable": false,
      "stateMutability": "view",
      "type": "function"
    },
    {
      "constant": false,
      "inputs": [
        {
          "name": "newOwner",
          "type": "address"
        }
      ],
      "name": "transferOwnership",
      "outputs": [],
      "payable": false,
      "stateMutability": "nonpayable",
      "type": "function"
    },
    {
      "constant": true,
      "inputs": [],
      "name": "reserveToken",
      "outputs": [
        {
          "name": "",
          "type": "address"
        }
      ],
      "payable": false,
      "stateMutability": "view",
      "type": "function"
    },
    {
      "inputs": [],
      "payable": false,
      "stateMutability": "nonpayable",
      "type": "constructor"
    },
    {
      "constant": false,
      "inputs": [
        {
          "name": "_timeToken",
          "type": "address"
        },
        {
          "name": "_reserveToken",
          "type": "address"
        },
        {
          "name": "_birthTimestamp",
          "type": "uint256"
        }
      ],
      "name": "initialize",
      "outputs": [],
      "payable": false,
      "stateMutability": "nonpayable",
      "type": "function"
    },
    {
      "constant": false,
      "inputs": [],
      "name": "collectPaycheck",
      "outputs": [],
      "payable": false,
      "stateMutability": "nonpayable",
      "type": "function"
    },
    {
      "constant": true,
      "inputs": [
        {
          "name": "reserveAmount",
          "type": "uint256"
        }
      ],
      "name": "calculateTokenClaim",
      "outputs": [
        {
          "name": "",
          "type": "uint256"
        }
      ],
      "payable": false,
      "stateMutability": "view",
      "type": "function"
    },
    {
      "constant": true,
      "inputs": [
        {
          "name": "tokenAmount",
          "type": "uint256"
        }
      ],
      "name": "calculateReserveClaim",
      "outputs": [
        {
          "name": "",
          "type": "uint256"
        }
      ],
      "payable": false,
      "stateMutability": "view",
      "type": "function"
    },
    {
      "constant": false,
      "inputs": [
        {
          "name": "reserveAmount",
          "type": "uint256"
        }
      ],
      "name": "invest",
      "outputs": [],
      "payable": false,
      "stateMutability": "nonpayable",
      "type": "function"
    },
    {
      "constant": false,
      "inputs": [
        {
          "name": "tokenAmount",
          "type": "uint256"
        }
      ],
      "name": "divest",
      "outputs": [],
      "payable": false,
      "stateMutability": "nonpayable",
      "type": "function"
    }
  ],
  "bytecode": "0x608060405234801561001057600080fd5b50336000806101000a81548173ffffffffffffffffffffffffffffffffffffffff021916908373ffffffffffffffffffffffffffffffffffffffff16021790555043600181905550611277806100676000396000f3fe6080604052600436106100db576000357c0100000000000000000000000000000000000000000000000000000000900463ffffffff1680631794bb3c146100e05780632afcf4801461015b57806350f7c20414610196578063718bf49c146101c15780638ca17995146101ec5780638da5cb5b146102275780639bc40c4c1461027e578063b163ecd2146102a9578063bb226a9d146102f8578063c45a015514610323578063dbadaa5c1461037a578063e27af3b9146103c9578063e2e7afa314610420578063f2fde38b14610437578063f4325d6714610488575b600080fd5b3480156100ec57600080fd5b506101596004803603606081101561010357600080fd5b81019080803573ffffffffffffffffffffffffffffffffffffffff169060200190929190803573ffffffffffffffffffffffffffffffffffffffff169060200190929190803590602001909291905050506104df565b005b34801561016757600080fd5b506101946004803603602081101561017e57600080fd5b810190808035906020019092919050505061064d565b005b3480156101a257600080fd5b506101ab61097f565b6040518082815260200191505060405180910390f35b3480156101cd57600080fd5b506101d6610985565b6040518082815260200191505060405180910390f35b3480156101f857600080fd5b506102256004803603602081101561020f57600080fd5b810190808035906020019092919050505061098b565b005b34801561023357600080fd5b5061023c610bb2565b604051808273ffffffffffffffffffffffffffffffffffffffff1673ffffffffffffffffffffffffffffffffffffffff16815260200191505060405180910390f35b34801561028a57600080fd5b50610293610bd7565b6040518082815260200191505060405180910390f35b3480156102b557600080fd5b506102e2600480360360208110156102cc57600080fd5b8101908080359060200190929190505050610bdd565b6040518082815260200191505060405180910390f35b34801561030457600080fd5b5061030d610da7565b6040518082815260200191505060405180910390f35b34801561032f57600080fd5b50610338610dad565b604051808273ffffffffffffffffffffffffffffffffffffffff1673ffffffffffffffffffffffffffffffffffffffff16815260200191505060405180910390f35b34801561038657600080fd5b506103b36004803603602081101561039d57600080fd5b8101908080359060200190929190505050610dd3565b6040518082815260200191505060405180910390f35b3480156103d557600080fd5b506103de610f9d565b604051808273ffffffffffffffffffffffffffffffffffffffff1673ffffffffffffffffffffffffffffffffffffffff16815260200191505060405180910390f35b34801561042c57600080fd5b50610435610fc3565b005b34801561044357600080fd5b506104866004803603602081101561045a57600080fd5b81019080803573ffffffffffffffffffffffffffffffffffffffff16906020019092919050505061111e565b005b34801561049457600080fd5b5061049d611225565b604051808273ffffffffffffffffffffffffffffffffffffffff1673ffffffffffffffffffffffffffffffffffffffff16815260200191505060405180910390f35b6000600154141515610559576040517f08c379a000000000000000000000000000000000000000000000000000000000815260040180806020018281038252601c8152602001807f636f6e747261637420616c726561647920696e697469616c697a65640000000081525060200191505060405180910390fd5b4360018190555033600260006101000a81548173ffffffffffffffffffffffffffffffffffffffff021916908373ffffffffffffffffffffffffffffffffffffffff16021790555082600360006101000a81548173ffffffffffffffffffffffffffffffffffffffff021916908373ffffffffffffffffffffffffffffffffffffffff16021790555081600460006101000a81548173ffffffffffffffffffffffffffffffffffffffff021916908373ffffffffffffffffffffffffffffffffffffffff160217905550806005819055506003600554420381151561063a57fe5b0460068190555042600781905550505050565b6000600360009054906101000a900473ffffffffffffffffffffffffffffffffffffffff1673ffffffffffffffffffffffffffffffffffffffff166318160ddd6040518163ffffffff167c010000000000000000000000000000000000000000000000000000000002815260040160206040518083038186803b1580156106d357600080fd5b505afa1580156106e7573d6000803e3d6000fd5b505050506040513d60208110156106fd57600080fd5b8101908080519060200190929190505050600654039050600061071f83610dd3565b905080821015151561073057600080fd5b600460009054906101000a900473ffffffffffffffffffffffffffffffffffffffff1673ffffffffffffffffffffffffffffffffffffffff166323b872dd3330866040518463ffffffff167c0100000000000000000000000000000000000000000000000000000000028152600401808473ffffffffffffffffffffffffffffffffffffffff1673ffffffffffffffffffffffffffffffffffffffff1681526020018373ffffffffffffffffffffffffffffffffffffffff1673ffffffffffffffffffffffffffffffffffffffff1681526020018281526020019350505050602060405180830381600087803b15801561082957600080fd5b505af115801561083d573d6000803e3d6000fd5b505050506040513d602081101561085357600080fd5b8101908080519060200190929190505050151561086f57600080fd5b600360009054906101000a900473ffffffffffffffffffffffffffffffffffffffff1673ffffffffffffffffffffffffffffffffffffffff1663827f32c033836040518363ffffffff167c0100000000000000000000000000000000000000000000000000000000028152600401808373ffffffffffffffffffffffffffffffffffffffff1673ffffffffffffffffffffffffffffffffffffffff16815260200182815260200192505050602060405180830381600087803b15801561093457600080fd5b505af1158015610948573d6000803e3d6000fd5b505050506040513d602081101561095e57600080fd5b8101908080519060200190929190505050151561097a57600080fd5b505050565b60065481565b60055481565b600061099682610bdd565b9050600360009054906101000a900473ffffffffffffffffffffffffffffffffffffffff1673ffffffffffffffffffffffffffffffffffffffff1663d3ce77fe33846040518363ffffffff167c0100000000000000000000000000000000000000000000000000000000028152600401808373ffffffffffffffffffffffffffffffffffffffff1673ffffffffffffffffffffffffffffffffffffffff16815260200182815260200192505050602060405180830381600087803b158015610a5d57600080fd5b505af1158015610a71573d6000803e3d6000fd5b505050506040513d6020811015610a8757600080fd5b81019080805190602001909291905050501515610aa357600080fd5b600460009054906101000a900473ffffffffffffffffffffffffffffffffffffffff1673ffffffffffffffffffffffffffffffffffffffff1663a9059cbb33836040518363ffffffff167c0100000000000000000000000000000000000000000000000000000000028152600401808373ffffffffffffffffffffffffffffffffffffffff1673ffffffffffffffffffffffffffffffffffffffff16815260200182815260200192505050602060405180830381600087803b158015610b6857600080fd5b505af1158015610b7c573d6000803e3d6000fd5b505050506040513d6020811015610b9257600080fd5b81019080805190602001909291905050501515610bae57600080fd5b5050565b6000809054906101000a900473ffffffffffffffffffffffffffffffffffffffff1681565b60015481565b6000600360009054906101000a900473ffffffffffffffffffffffffffffffffffffffff1673ffffffffffffffffffffffffffffffffffffffff166318160ddd6040518163ffffffff167c010000000000000000000000000000000000000000000000000000000002815260040160206040518083038186803b158015610c6357600080fd5b505afa158015610c77573d6000803e3d6000fd5b505050506040513d6020811015610c8d57600080fd5b810190808051906020019092919050505082600460009054906101000a900473ffffffffffffffffffffffffffffffffffffffff1673ffffffffffffffffffffffffffffffffffffffff166370a08231306040518263ffffffff167c0100000000000000000000000000000000000000000000000000000000028152600401808273ffffffffffffffffffffffffffffffffffffffff1673ffffffffffffffffffffffffffffffffffffffff16815260200191505060206040518083038186803b158015610d5a57600080fd5b505afa158015610d6e573d6000803e3d6000fd5b505050506040513d6020811015610d8457600080fd5b810190808051906020019092919050505002811515610d9f57fe5b049050919050565b60075481565b600260009054906101000a900473ffffffffffffffffffffffffffffffffffffffff1681565b6000600460009054906101000a900473ffffffffffffffffffffffffffffffffffffffff1673ffffffffffffffffffffffffffffffffffffffff166370a08231306040518263ffffffff167c0100000000000000000000000000000000000000000000000000000000028152600401808273ffffffffffffffffffffffffffffffffffffffff1673ffffffffffffffffffffffffffffffffffffffff16815260200191505060206040518083038186803b158015610e9057600080fd5b505afa158015610ea4573d6000803e3d6000fd5b505050506040513d6020811015610eba57600080fd5b810190808051906020019092919050505082600360009054906101000a900473ffffffffffffffffffffffffffffffffffffffff1673ffffffffffffffffffffffffffffffffffffffff166318160ddd6040518163ffffffff167c010000000000000000000000000000000000000000000000000000000002815260040160206040518083038186803b158015610f5057600080fd5b505afa158015610f64573d6000803e3d6000fd5b505050506040513d6020811015610f7a57600080fd5b810190808051906020019092919050505002811515610f9557fe5b049050919050565b600360009054906101000a900473ffffffffffffffffffffffffffffffffffffffff1681565b600060036007544203811515610fd557fe5b0490508060066000828254019250508190555042600781905550600360009054906101000a900473ffffffffffffffffffffffffffffffffffffffff1673ffffffffffffffffffffffffffffffffffffffff1663827f32c06000809054906101000a900473ffffffffffffffffffffffffffffffffffffffff16836040518363ffffffff167c0100000000000000000000000000000000000000000000000000000000028152600401808373ffffffffffffffffffffffffffffffffffffffff1673ffffffffffffffffffffffffffffffffffffffff16815260200182815260200192505050602060405180830381600087803b1580156110d557600080fd5b505af11580156110e9573d6000803e3d6000fd5b505050506040513d60208110156110ff57600080fd5b8101908080519060200190929190505050151561111b57600080fd5b50565b6000809054906101000a900473ffffffffffffffffffffffffffffffffffffffff1673ffffffffffffffffffffffffffffffffffffffff163373ffffffffffffffffffffffffffffffffffffffff161415156111e2576040517f08c379a00000000000000000000000000000000000000000000000000000000081526004018080602001828103825260178152602001807f6d73672073656e646572206973206e6f74206f776e657200000000000000000081525060200191505060405180910390fd5b806000806101000a81548173ffffffffffffffffffffffffffffffffffffffff021916908373ffffffffffffffffffffffffffffffffffffffff16021790555050565b600460009054906101000a900473ffffffffffffffffffffffffffffffffffffffff168156fea165627a7a72305820eeb07317ba986b478012772d402e99338633c85bfe6c6f8ca3b43d98f7ad4eea0029",
  "source": "pragma solidity ^0.5.0;\n\nimport \"./external/MiniMeToken.sol\";\nimport \"./external/ERC20.sol\";\nimport \"./external/Owned.sol\";\n\ncontract MeDao is Owned {\n\n    uint public blockInitialized;\n    address public factory;\n\n    MiniMeToken public timeToken;\n    ERC20 public reserveToken;\n    uint public birthTimestamp;\n    uint public maxTokenSupply;\n    uint public lastPaycheck;\n\n    constructor () public {\n        blockInitialized = block.number;\n    }\n\n    function initialize (\n        MiniMeToken _timeToken,\n        ERC20 _reserveToken,\n        uint _birthTimestamp\n    ) public {\n        require(blockInitialized == 0, 'contract already initialized');\n\n        blockInitialized = block.number;\n        factory = msg.sender;\n\n        timeToken = _timeToken;\n        reserveToken = _reserveToken;\n        birthTimestamp = _birthTimestamp;\n        maxTokenSupply = (now - birthTimestamp) / 3;\n        lastPaycheck = now;\n    }\n\n    function collectPaycheck () public {\n        uint elapsedSeconds = (now - lastPaycheck) / 3;\n        maxTokenSupply += elapsedSeconds;\n        lastPaycheck = now;\n        require(timeToken.generateTokens(owner, elapsedSeconds));\n    }\n\n    function calculateTokenClaim (uint reserveAmount) public view returns (uint) {\n        return timeToken.totalSupply() * reserveAmount / reserveToken.balanceOf(address(this));\n    }\n\n    function calculateReserveClaim (uint tokenAmount) public view returns (uint) {\n        return reserveToken.balanceOf(address(this)) * tokenAmount / timeToken.totalSupply();\n    }\n\n    function invest (uint reserveAmount) public {\n        uint availableSeconds = maxTokenSupply - timeToken.totalSupply();\n        uint claimedSeconds = calculateTokenClaim(reserveAmount);\n        require(availableSeconds >= claimedSeconds);\n        require(reserveToken.transferFrom(msg.sender, address(this), reserveAmount));\n        require(timeToken.generateTokens(msg.sender, claimedSeconds));\n    }\n\n    function divest (uint tokenAmount) public {\n        uint reserveClaim = calculateReserveClaim(tokenAmount);\n        require(timeToken.destroyTokens(msg.sender, tokenAmount));\n        require(reserveToken.transfer(msg.sender, reserveClaim));\n    }\n\n}\n",
  "sourcePath": "/home/joe/Documents/github/chicobitcoinjoe/MeDao/contracts/MeDao.sol",
  "compiler": {
    "name": "solc",
    "version": "0.5.0+commit.1d4f565a.Emscripten.clang"
  },
  "schemaVersion": "3.0.9",
  "updatedAt": "2019-05-22T21:44:20.568Z",
  "devdoc": {
    "methods": {}
  },
  "userdoc": {
    "methods": {}
  }
}