{
  "contractName": "MeDaoRegistry",
  "abi": [
    {
      "constant": true,
      "inputs": [
        {
          "name": "",
          "type": "address"
        }
      ],
      "name": "registry",
      "outputs": [
        {
          "name": "",
          "type": "address"
        }
      ],
      "payable": false,
      "stateMutability": "view",
      "type": "function"
    },
    {
      "constant": true,
      "inputs": [],
      "name": "weth",
      "outputs": [
        {
          "name": "",
          "type": "address"
        }
      ],
      "payable": false,
      "stateMutability": "view",
      "type": "function"
    },
    {
      "constant": true,
      "inputs": [],
      "name": "factory",
      "outputs": [
        {
          "name": "",
          "type": "address"
        }
      ],
      "payable": false,
      "stateMutability": "view",
      "type": "function"
    },
    {
      "constant": true,
      "inputs": [],
      "name": "dai",
      "outputs": [
        {
          "name": "",
          "type": "address"
        }
      ],
      "payable": false,
      "stateMutability": "view",
      "type": "function"
    },
    {
      "inputs": [
        {
          "name": "_factory",
          "type": "address"
        },
        {
          "name": "_dai",
          "type": "address"
        },
        {
          "name": "_weth",
          "type": "address"
        }
      ],
      "payable": false,
      "stateMutability": "nonpayable",
      "type": "constructor"
    },
    {
      "anonymous": false,
      "inputs": [
        {
          "indexed": false,
          "name": "owner",
          "type": "address"
        },
        {
          "indexed": false,
          "name": "medao",
          "type": "address"
        }
      ],
      "name": "Register_event",
      "type": "event"
    },
    {
      "constant": false,
      "inputs": [
        {
          "name": "name",
          "type": "string"
        },
        {
          "name": "birthTimestamp",
          "type": "int256"
        },
        {
          "name": "tokenClaim",
          "type": "uint256"
        },
        {
          "name": "reserveAmount",
          "type": "uint256"
        }
      ],
      "name": "create",
      "outputs": [
        {
          "name": "medao",
          "type": "address"
        }
      ],
      "payable": false,
      "stateMutability": "nonpayable",
      "type": "function"
    },
    {
      "constant": false,
      "inputs": [
        {
          "name": "name",
          "type": "string"
        },
        {
          "name": "birthTimestamp",
          "type": "int256"
        },
        {
          "name": "tokenClaim",
          "type": "uint256"
        },
        {
          "name": "exchange",
          "type": "address"
        },
        {
          "name": "payToken",
          "type": "address"
        },
        {
          "name": "maxPayAmount",
          "type": "uint256"
        },
        {
          "name": "reserveAmount",
          "type": "uint256"
        }
      ],
      "name": "create",
      "outputs": [
        {
          "name": "medao",
          "type": "address"
        }
      ],
      "payable": false,
      "stateMutability": "nonpayable",
      "type": "function"
    },
    {
      "constant": false,
      "inputs": [
        {
          "name": "name",
          "type": "string"
        },
        {
          "name": "birthTimestamp",
          "type": "int256"
        },
        {
          "name": "tokenClaim",
          "type": "uint256"
        },
        {
          "name": "reserveAmount",
          "type": "uint256"
        },
        {
          "name": "exchange",
          "type": "address"
        }
      ],
      "name": "create",
      "outputs": [
        {
          "name": "medao",
          "type": "address"
        }
      ],
      "payable": true,
      "stateMutability": "payable",
      "type": "function"
    },
    {
      "constant": false,
      "inputs": [
        {
          "name": "medao",
          "type": "address"
        }
      ],
      "name": "register",
      "outputs": [],
      "payable": false,
      "stateMutability": "nonpayable",
      "type": "function"
    }
  ],
  "bytecode": "0x608060405234801561001057600080fd5b50604051606080611a718339810180604052606081101561003057600080fd5b81019080805190602001909291908051906020019092919080519060200190929190505050826000806101000a81548173ffffffffffffffffffffffffffffffffffffffff021916908373ffffffffffffffffffffffffffffffffffffffff16021790555081600260006101000a81548173ffffffffffffffffffffffffffffffffffffffff021916908373ffffffffffffffffffffffffffffffffffffffff16021790555080600160006101000a81548173ffffffffffffffffffffffffffffffffffffffff021916908373ffffffffffffffffffffffffffffffffffffffff160217905550505050611948806101296000396000f3fe60806040526004361061007b5760003560e01c80636f204cb41161004e5780636f204cb4146102df578063c45a01551461044f578063f4b9fa75146104a6578063f4f1b42c146104fd5761007b565b8063038defd71461008057806335b00543146101115780633fc8cef3146102375780634420e4861461028e575b600080fd5b34801561008c57600080fd5b506100cf600480360360208110156100a357600080fd5b81019080803573ffffffffffffffffffffffffffffffffffffffff169060200190929190505050610636565b604051808273ffffffffffffffffffffffffffffffffffffffff1673ffffffffffffffffffffffffffffffffffffffff16815260200191505060405180910390f35b34801561011d57600080fd5b506101f56004803603608081101561013457600080fd5b810190808035906020019064010000000081111561015157600080fd5b82018360208201111561016357600080fd5b8035906020019184600183028401116401000000008311171561018557600080fd5b91908080601f016020809104026020016040519081016040528093929190818152602001838380828437600081840152601f19601f820116905080830192505050505050509192919290803590602001909291908035906020019092919080359060200190929190505050610669565b604051808273ffffffffffffffffffffffffffffffffffffffff1673ffffffffffffffffffffffffffffffffffffffff16815260200191505060405180910390f35b34801561024357600080fd5b5061024c610a63565b604051808273ffffffffffffffffffffffffffffffffffffffff1673ffffffffffffffffffffffffffffffffffffffff16815260200191505060405180910390f35b34801561029a57600080fd5b506102dd600480360360208110156102b157600080fd5b81019080803573ffffffffffffffffffffffffffffffffffffffff169060200190929190505050610a89565b005b3480156102eb57600080fd5b5061040d600480360360e081101561030257600080fd5b810190808035906020019064010000000081111561031f57600080fd5b82018360208201111561033157600080fd5b8035906020019184600183028401116401000000008311171561035357600080fd5b91908080601f016020809104026020016040519081016040528093929190818152602001838380828437600081840152601f19601f8201169050808301925050505050505091929192908035906020019092919080359060200190929190803573ffffffffffffffffffffffffffffffffffffffff169060200190929190803573ffffffffffffffffffffffffffffffffffffffff1690602001909291908035906020019092919080359060200190929190505050610c83565b604051808273ffffffffffffffffffffffffffffffffffffffff1673ffffffffffffffffffffffffffffffffffffffff16815260200191505060405180910390f35b34801561045b57600080fd5b5061046461124e565b604051808273ffffffffffffffffffffffffffffffffffffffff1673ffffffffffffffffffffffffffffffffffffffff16815260200191505060405180910390f35b3480156104b257600080fd5b506104bb611273565b604051808273ffffffffffffffffffffffffffffffffffffffff1673ffffffffffffffffffffffffffffffffffffffff16815260200191505060405180910390f35b6105f4600480360360a081101561051357600080fd5b810190808035906020019064010000000081111561053057600080fd5b82018360208201111561054257600080fd5b8035906020019184600183028401116401000000008311171561056457600080fd5b91908080601f016020809104026020016040519081016040528093929190818152602001838380828437600081840152601f19601f820116905080830192505050505050509192919290803590602001909291908035906020019092919080359060200190929190803573ffffffffffffffffffffffffffffffffffffffff169060200190929190505050611299565b604051808273ffffffffffffffffffffffffffffffffffffffff1673ffffffffffffffffffffffffffffffffffffffff16815260200191505060405180910390f35b60036020528060005260406000206000915054906101000a900473ffffffffffffffffffffffffffffffffffffffff1681565b6000600260009054906101000a900473ffffffffffffffffffffffffffffffffffffffff1673ffffffffffffffffffffffffffffffffffffffff166323b872dd3330856040518463ffffffff1660e01b8152600401808473ffffffffffffffffffffffffffffffffffffffff1673ffffffffffffffffffffffffffffffffffffffff1681526020018373ffffffffffffffffffffffffffffffffffffffff1673ffffffffffffffffffffffffffffffffffffffff1681526020018281526020019350505050602060405180830381600087803b15801561074857600080fd5b505af115801561075c573d6000803e3d6000fd5b505050506040513d602081101561077257600080fd5b810190808051906020019092919050505061078c57600080fd5b600260009054906101000a900473ffffffffffffffffffffffffffffffffffffffff1673ffffffffffffffffffffffffffffffffffffffff1663095ea7b36000809054906101000a900473ffffffffffffffffffffffffffffffffffffffff16846040518363ffffffff1660e01b8152600401808373ffffffffffffffffffffffffffffffffffffffff1673ffffffffffffffffffffffffffffffffffffffff16815260200182815260200192505050602060405180830381600087803b15801561085657600080fd5b505af115801561086a573d6000803e3d6000fd5b505050506040513d602081101561088057600080fd5b810190808051906020019092919050505061089a57600080fd5b6000809054906101000a900473ffffffffffffffffffffffffffffffffffffffff1673ffffffffffffffffffffffffffffffffffffffff1663d2d0d52533600260009054906101000a900473ffffffffffffffffffffffffffffffffffffffff16888888886040518763ffffffff1660e01b8152600401808773ffffffffffffffffffffffffffffffffffffffff1673ffffffffffffffffffffffffffffffffffffffff1681526020018673ffffffffffffffffffffffffffffffffffffffff1673ffffffffffffffffffffffffffffffffffffffff16815260200180602001858152602001848152602001838152602001828103825286818151815260200191508051906020019080838360005b838110156109c45780820151818401526020810190506109a9565b50505050905090810190601f1680156109f15780820380516001836020036101000a031916815260200191505b50975050505050505050602060405180830381600087803b158015610a1557600080fd5b505af1158015610a29573d6000803e3d6000fd5b505050506040513d6020811015610a3f57600080fd5b81019080805190602001909291905050509050610a5b81610a89565b949350505050565b600160009054906101000a900473ffffffffffffffffffffffffffffffffffffffff1681565b6000809054906101000a900473ffffffffffffffffffffffffffffffffffffffff1673ffffffffffffffffffffffffffffffffffffffff1663d42efd83826040518263ffffffff1660e01b8152600401808273ffffffffffffffffffffffffffffffffffffffff1673ffffffffffffffffffffffffffffffffffffffff16815260200191505060206040518083038186803b158015610b2757600080fd5b505afa158015610b3b573d6000803e3d6000fd5b505050506040513d6020811015610b5157600080fd5b8101908080519060200190929190505050610b6b57600080fd5b80600360003373ffffffffffffffffffffffffffffffffffffffff1673ffffffffffffffffffffffffffffffffffffffff16815260200190815260200160002060006101000a81548173ffffffffffffffffffffffffffffffffffffffff021916908373ffffffffffffffffffffffffffffffffffffffff1602179055507f347b8ea0fe30e336623ec1c0be9f8df5d6c70d0077bd29c56d971c473372c31b3382604051808373ffffffffffffffffffffffffffffffffffffffff1673ffffffffffffffffffffffffffffffffffffffff1681526020018273ffffffffffffffffffffffffffffffffffffffff1673ffffffffffffffffffffffffffffffffffffffff1681526020019250505060405180910390a150565b60008373ffffffffffffffffffffffffffffffffffffffff166323b872dd3330866040518463ffffffff1660e01b8152600401808473ffffffffffffffffffffffffffffffffffffffff1673ffffffffffffffffffffffffffffffffffffffff1681526020018373ffffffffffffffffffffffffffffffffffffffff1673ffffffffffffffffffffffffffffffffffffffff1681526020018281526020019350505050602060405180830381600087803b158015610d4057600080fd5b505af1158015610d54573d6000803e3d6000fd5b505050506040513d6020811015610d6a57600080fd5b8101908080519060200190929190505050610d8457600080fd5b8373ffffffffffffffffffffffffffffffffffffffff1663095ea7b386856040518363ffffffff1660e01b8152600401808373ffffffffffffffffffffffffffffffffffffffff1673ffffffffffffffffffffffffffffffffffffffff16815260200182815260200192505050602060405180830381600087803b158015610e0b57600080fd5b505af1158015610e1f573d6000803e3d6000fd5b505050506040513d6020811015610e3557600080fd5b8101908080519060200190929190505050610e4f57600080fd5b60008573ffffffffffffffffffffffffffffffffffffffff16638185402b600260009054906101000a900473ffffffffffffffffffffffffffffffffffffffff168588886040518563ffffffff1660e01b8152600401808573ffffffffffffffffffffffffffffffffffffffff1673ffffffffffffffffffffffffffffffffffffffff1681526020018481526020018373ffffffffffffffffffffffffffffffffffffffff1673ffffffffffffffffffffffffffffffffffffffff168152602001828152602001945050505050602060405180830381600087803b158015610f3657600080fd5b505af1158015610f4a573d6000803e3d6000fd5b505050506040513d6020811015610f6057600080fd5b81019080805190602001909291905050509050600260009054906101000a900473ffffffffffffffffffffffffffffffffffffffff1673ffffffffffffffffffffffffffffffffffffffff1663095ea7b36000809054906101000a900473ffffffffffffffffffffffffffffffffffffffff16856040518363ffffffff1660e01b8152600401808373ffffffffffffffffffffffffffffffffffffffff1673ffffffffffffffffffffffffffffffffffffffff16815260200182815260200192505050602060405180830381600087803b15801561103d57600080fd5b505af1158015611051573d6000803e3d6000fd5b505050506040513d602081101561106757600080fd5b810190808051906020019092919050505061108157600080fd5b6000809054906101000a900473ffffffffffffffffffffffffffffffffffffffff1673ffffffffffffffffffffffffffffffffffffffff1663d2d0d52533600260009054906101000a900473ffffffffffffffffffffffffffffffffffffffff168c8c8c896040518763ffffffff1660e01b8152600401808773ffffffffffffffffffffffffffffffffffffffff1673ffffffffffffffffffffffffffffffffffffffff1681526020018673ffffffffffffffffffffffffffffffffffffffff1673ffffffffffffffffffffffffffffffffffffffff16815260200180602001858152602001848152602001838152602001828103825286818151815260200191508051906020019080838360005b838110156111ab578082015181840152602081019050611190565b50505050905090810190601f1680156111d85780820380516001836020036101000a031916815260200191505b50975050505050505050602060405180830381600087803b1580156111fc57600080fd5b505af1158015611210573d6000803e3d6000fd5b505050506040513d602081101561122657600080fd5b8101908080519060200190929190505050915061124282610a89565b50979650505050505050565b6000809054906101000a900473ffffffffffffffffffffffffffffffffffffffff1681565b600260009054906101000a900473ffffffffffffffffffffffffffffffffffffffff1681565b600080349050600160009054906101000a900473ffffffffffffffffffffffffffffffffffffffff1673ffffffffffffffffffffffffffffffffffffffff1663d0e30db0826040518263ffffffff1660e01b81526004016000604051808303818588803b15801561130957600080fd5b505af115801561131d573d6000803e3d6000fd5b5050505050600160009054906101000a900473ffffffffffffffffffffffffffffffffffffffff1673ffffffffffffffffffffffffffffffffffffffff1663095ea7b384836040518363ffffffff1660e01b8152600401808373ffffffffffffffffffffffffffffffffffffffff1673ffffffffffffffffffffffffffffffffffffffff16815260200182815260200192505050602060405180830381600087803b1580156113cb57600080fd5b505af11580156113df573d6000803e3d6000fd5b505050506040513d60208110156113f557600080fd5b810190808051906020019092919050505061140f57600080fd5b60008373ffffffffffffffffffffffffffffffffffffffff16638185402b600260009054906101000a900473ffffffffffffffffffffffffffffffffffffffff1687600160009054906101000a900473ffffffffffffffffffffffffffffffffffffffff16866040518563ffffffff1660e01b8152600401808573ffffffffffffffffffffffffffffffffffffffff1673ffffffffffffffffffffffffffffffffffffffff1681526020018481526020018373ffffffffffffffffffffffffffffffffffffffff1673ffffffffffffffffffffffffffffffffffffffff168152602001828152602001945050505050602060405180830381600087803b15801561151857600080fd5b505af115801561152c573d6000803e3d6000fd5b505050506040513d602081101561154257600080fd5b81019080805190602001909291905050509050600160009054906101000a900473ffffffffffffffffffffffffffffffffffffffff1673ffffffffffffffffffffffffffffffffffffffff16632e1a7d4d8284036040518263ffffffff1660e01b815260040180828152602001915050600060405180830381600087803b1580156115cc57600080fd5b505af11580156115e0573d6000803e3d6000fd5b505050503373ffffffffffffffffffffffffffffffffffffffff166108fc3073ffffffffffffffffffffffffffffffffffffffff16319081150290604051600060405180830381858888f19350505050158015611641573d6000803e3d6000fd5b50600260009054906101000a900473ffffffffffffffffffffffffffffffffffffffff1673ffffffffffffffffffffffffffffffffffffffff1663095ea7b36000809054906101000a900473ffffffffffffffffffffffffffffffffffffffff16876040518363ffffffff1660e01b8152600401808373ffffffffffffffffffffffffffffffffffffffff1673ffffffffffffffffffffffffffffffffffffffff16815260200182815260200192505050602060405180830381600087803b15801561170c57600080fd5b505af1158015611720573d6000803e3d6000fd5b505050506040513d602081101561173657600080fd5b810190808051906020019092919050505061175057600080fd5b6000809054906101000a900473ffffffffffffffffffffffffffffffffffffffff1673ffffffffffffffffffffffffffffffffffffffff1663d2d0d52533600260009054906101000a900473ffffffffffffffffffffffffffffffffffffffff168b8b8b8b6040518763ffffffff1660e01b8152600401808773ffffffffffffffffffffffffffffffffffffffff1673ffffffffffffffffffffffffffffffffffffffff1681526020018673ffffffffffffffffffffffffffffffffffffffff1673ffffffffffffffffffffffffffffffffffffffff16815260200180602001858152602001848152602001838152602001828103825286818151815260200191508051906020019080838360005b8381101561187a57808201518184015260208101905061185f565b50505050905090810190601f1680156118a75780820380516001836020036101000a031916815260200191505b50975050505050505050602060405180830381600087803b1580156118cb57600080fd5b505af11580156118df573d6000803e3d6000fd5b505050506040513d60208110156118f557600080fd5b8101908080519060200190929190505050925061191183610a89565b50509594505050505056fea165627a7a72305820650da27801d560916c6b7b0afb69b394d49f3942de085024629f0fea8f2f70970029",
  "source": "pragma solidity ^0.5.0;\n\nimport \"./external/ERC20.sol\";\nimport \"./Interfaces.sol\";\nimport \"./MeDaoFactory.sol\";\n\ncontract MeDaoRegistry {\n\n    MeDaoFactory public factory;\n\n    WETH public weth;\n    ERC20 public dai;\n\n    mapping (address => MeDao) public registry;\n\n    constructor (\n        MeDaoFactory _factory,\n        ERC20 _dai,\n        WETH _weth\n    ) public {\n        factory = _factory;\n        dai = _dai;\n        weth = _weth;\n    }\n\n    function create (\n        string memory name,\n        int birthTimestamp,\n        uint tokenClaim,\n        uint reserveAmount\n    ) public returns (MeDao medao) {\n        require(dai.transferFrom(msg.sender, address(this), reserveAmount));\n        require(dai.approve(address(factory), reserveAmount));\n\n        medao = MeDao(factory.create(\n            msg.sender,\n            dai,\n            name,\n            birthTimestamp,\n            tokenClaim,\n            reserveAmount\n        ));\n\n        register(medao);\n    }\n\n    function create (\n        string memory name,\n        int birthTimestamp,\n        uint tokenClaim,\n        uint reserveAmount,\n        DEX exchange\n    ) public payable returns (MeDao medao) {\n        uint maxPayAmount = msg.value;\n        weth.deposit.value(maxPayAmount)();\n        require(weth.approve(address(exchange), maxPayAmount));\n        uint payedAmount = exchange.buyAllAmount(dai, reserveAmount, weth, maxPayAmount);\n        weth.withdraw(maxPayAmount - payedAmount);\n        msg.sender.transfer(address(this).balance);\n        require(dai.approve(address(factory), reserveAmount));\n\n        medao = MeDao(factory.create(\n            msg.sender,\n            dai,\n            name,\n            birthTimestamp,\n            tokenClaim,\n            reserveAmount\n        ));\n\n        register(medao);\n    }\n\n    function create (\n        string memory name,\n        int birthTimestamp,\n        uint tokenClaim,\n        DEX exchange,\n        ERC20 payToken,\n        uint maxPayAmount,\n        uint reserveAmount\n    ) public returns (MeDao medao) {\n        require(payToken.transferFrom(msg.sender, address(this), maxPayAmount));\n        require(payToken.approve(address(exchange), maxPayAmount));\n        uint payedAmount = exchange.buyAllAmount(dai, reserveAmount, payToken, maxPayAmount);\n        require(dai.approve(address(factory), reserveAmount));\n\n        medao = MeDao(factory.create(\n            msg.sender,\n            dai,\n            name,\n            birthTimestamp,\n            tokenClaim,\n            reserveAmount\n        ));\n\n        register(medao);\n    }\n\n    function register (MeDao medao) public {\n        require(factory.created(address(medao)));\n\n        registry[msg.sender] = medao;\n        emit Register_event(msg.sender, medao);\n    }\n\n    event Register_event (address owner, MeDao medao);\n\n}\n",
  "sourcePath": "/home/joe/Documents/github/chicobitcoinjoe/MeDao/contracts/MeDaoRegistry.sol",
  "compiler": {
    "name": "solc",
    "version": "0.5.8+commit.23d335f2.Emscripten.clang"
  },
  "schemaVersion": "3.0.11",
  "updatedAt": "2019-06-17T03:06:09.759Z",
  "devdoc": {
    "methods": {}
  },
  "userdoc": {
    "methods": {}
  }
}