{
  "contractName": "MeDao",
  "abi": [
    {
      "constant": true,
      "inputs": [],
      "name": "lastPayTimestamp",
      "outputs": [
        {
          "name": "",
          "type": "uint256"
        }
      ],
      "payable": false,
      "stateMutability": "view",
      "type": "function"
    },
    {
      "constant": true,
      "inputs": [],
      "name": "maxTokenSupply",
      "outputs": [
        {
          "name": "",
          "type": "uint256"
        }
      ],
      "payable": false,
      "stateMutability": "view",
      "type": "function"
    },
    {
      "constant": true,
      "inputs": [],
      "name": "birthTimestamp",
      "outputs": [
        {
          "name": "",
          "type": "int256"
        }
      ],
      "payable": false,
      "stateMutability": "view",
      "type": "function"
    },
    {
      "constant": true,
      "inputs": [],
      "name": "owner",
      "outputs": [
        {
          "name": "",
          "type": "address"
        }
      ],
      "payable": false,
      "stateMutability": "view",
      "type": "function"
    },
    {
      "constant": true,
      "inputs": [],
      "name": "blockInitialized",
      "outputs": [
        {
          "name": "",
          "type": "uint256"
        }
      ],
      "payable": false,
      "stateMutability": "view",
      "type": "function"
    },
    {
      "constant": true,
      "inputs": [],
      "name": "factory",
      "outputs": [
        {
          "name": "",
          "type": "address"
        }
      ],
      "payable": false,
      "stateMutability": "view",
      "type": "function"
    },
    {
      "constant": true,
      "inputs": [],
      "name": "timeToken",
      "outputs": [
        {
          "name": "",
          "type": "address"
        }
      ],
      "payable": false,
      "stateMutability": "view",
      "type": "function"
    },
    {
      "constant": false,
      "inputs": [
        {
          "name": "newOwner",
          "type": "address"
        }
      ],
      "name": "transferOwnership",
      "outputs": [],
      "payable": false,
      "stateMutability": "nonpayable",
      "type": "function"
    },
    {
      "constant": true,
      "inputs": [],
      "name": "reserveToken",
      "outputs": [
        {
          "name": "",
          "type": "address"
        }
      ],
      "payable": false,
      "stateMutability": "view",
      "type": "function"
    },
    {
      "inputs": [],
      "payable": false,
      "stateMutability": "nonpayable",
      "type": "constructor"
    },
    {
      "anonymous": false,
      "inputs": [
        {
          "indexed": false,
          "name": "owner",
          "type": "address"
        },
        {
          "indexed": false,
          "name": "tokenAmount",
          "type": "uint256"
        }
      ],
      "name": "Pay_eventAAAA",
      "type": "event"
    },
    {
      "anonymous": false,
      "inputs": [
        {
          "indexed": false,
          "name": "msgSender",
          "type": "address"
        },
        {
          "indexed": false,
          "name": "reserveAmount",
          "type": "uint256"
        },
        {
          "indexed": false,
          "name": "tokenAmount",
          "type": "uint256"
        }
      ],
      "name": "Invest_event",
      "type": "event"
    },
    {
      "anonymous": false,
      "inputs": [
        {
          "indexed": false,
          "name": "msgSender",
          "type": "address"
        },
        {
          "indexed": false,
          "name": "tokenAmount",
          "type": "uint256"
        },
        {
          "indexed": false,
          "name": "reserveAmount",
          "type": "uint256"
        }
      ],
      "name": "Divest_event",
      "type": "event"
    },
    {
      "constant": false,
      "inputs": [
        {
          "name": "_owner",
          "type": "address"
        },
        {
          "name": "_timeToken",
          "type": "address"
        },
        {
          "name": "_reserveToken",
          "type": "address"
        },
        {
          "name": "_birthTimestamp",
          "type": "int256"
        },
        {
          "name": "_tokenClaim",
          "type": "uint256"
        }
      ],
      "name": "initialize",
      "outputs": [],
      "payable": false,
      "stateMutability": "nonpayable",
      "type": "function"
    },
    {
      "constant": true,
      "inputs": [
        {
          "name": "reserveAmount",
          "type": "uint256"
        }
      ],
      "name": "calculateTokenClaim",
      "outputs": [
        {
          "name": "",
          "type": "uint256"
        }
      ],
      "payable": false,
      "stateMutability": "view",
      "type": "function"
    },
    {
      "constant": true,
      "inputs": [
        {
          "name": "tokenAmount",
          "type": "uint256"
        }
      ],
      "name": "calculateReserveClaim",
      "outputs": [
        {
          "name": "",
          "type": "uint256"
        }
      ],
      "payable": false,
      "stateMutability": "view",
      "type": "function"
    },
    {
      "constant": false,
      "inputs": [],
      "name": "collectPay",
      "outputs": [],
      "payable": false,
      "stateMutability": "nonpayable",
      "type": "function"
    },
    {
      "constant": false,
      "inputs": [
        {
          "name": "reserveAmount",
          "type": "uint256"
        }
      ],
      "name": "invest",
      "outputs": [],
      "payable": false,
      "stateMutability": "nonpayable",
      "type": "function"
    },
    {
      "constant": false,
      "inputs": [
        {
          "name": "tokenAmount",
          "type": "uint256"
        }
      ],
      "name": "divest",
      "outputs": [],
      "payable": false,
      "stateMutability": "nonpayable",
      "type": "function"
    }
  ],
  "bytecode": "0x608060405234801561001057600080fd5b50336000806101000a81548173ffffffffffffffffffffffffffffffffffffffff021916908373ffffffffffffffffffffffffffffffffffffffff16021790555043600181905550611a6e806100676000396000f3fe6080604052600436106100db576000357c0100000000000000000000000000000000000000000000000000000000900463ffffffff1680631322846b146100e057806326f2d67d146100f75780632afcf4801461012257806350f7c2041461015d578063718bf49c146101885780638ca17995146101b35780638da5cb5b146101ee5780639bc40c4c14610245578063b163ecd214610270578063c45a0155146102bf578063c502f16214610316578063dbadaa5c146103bb578063e27af3b91461040a578063f2fde38b14610461578063f4325d67146104b2575b600080fd5b3480156100ec57600080fd5b506100f5610509565b005b34801561010357600080fd5b5061010c6108f0565b6040518082815260200191505060405180910390f35b34801561012e57600080fd5b5061015b6004803603602081101561014557600080fd5b81019080803590602001909291905050506108f6565b005b34801561016957600080fd5b50610172610dd6565b6040518082815260200191505060405180910390f35b34801561019457600080fd5b5061019d610ddc565b6040518082815260200191505060405180910390f35b3480156101bf57600080fd5b506101ec600480360360208110156101d657600080fd5b8101908080359060200190929190505050610de2565b005b3480156101fa57600080fd5b5061020361114e565b604051808273ffffffffffffffffffffffffffffffffffffffff1673ffffffffffffffffffffffffffffffffffffffff16815260200191505060405180910390f35b34801561025157600080fd5b5061025a611173565b6040518082815260200191505060405180910390f35b34801561027c57600080fd5b506102a96004803603602081101561029357600080fd5b8101908080359060200190929190505050611179565b6040518082815260200191505060405180910390f35b3480156102cb57600080fd5b506102d4611343565b604051808273ffffffffffffffffffffffffffffffffffffffff1673ffffffffffffffffffffffffffffffffffffffff16815260200191505060405180910390f35b34801561032257600080fd5b506103b9600480360360a081101561033957600080fd5b81019080803573ffffffffffffffffffffffffffffffffffffffff169060200190929190803573ffffffffffffffffffffffffffffffffffffffff169060200190929190803573ffffffffffffffffffffffffffffffffffffffff1690602001909291908035906020019092919080359060200190929190505050611369565b005b3480156103c757600080fd5b506103f4600480360360208110156103de57600080fd5b8101908080359060200190929190505050611725565b6040518082815260200191505060405180910390f35b34801561041657600080fd5b5061041f6118ef565b604051808273ffffffffffffffffffffffffffffffffffffffff1673ffffffffffffffffffffffffffffffffffffffff16815260200191505060405180910390f35b34801561046d57600080fd5b506104b06004803603602081101561048457600080fd5b81019080803573ffffffffffffffffffffffffffffffffffffffff169060200190929190505050611915565b005b3480156104be57600080fd5b506104c7611a1c565b604051808273ffffffffffffffffffffffffffffffffffffffff1673ffffffffffffffffffffffffffffffffffffffff16815260200191505060405180910390f35b6000809054906101000a900473ffffffffffffffffffffffffffffffffffffffff1673ffffffffffffffffffffffffffffffffffffffff163373ffffffffffffffffffffffffffffffffffffffff161415156105cd576040517f08c379a00000000000000000000000000000000000000000000000000000000081526004018080602001828103825260178152602001807f6d73672073656e646572206973206e6f74206f776e657200000000000000000081525060200191505060405180910390fd5b6000600360075442038115156105df57fe5b0490506000600654600360009054906101000a900473ffffffffffffffffffffffffffffffffffffffff1673ffffffffffffffffffffffffffffffffffffffff166318160ddd6040518163ffffffff167c010000000000000000000000000000000000000000000000000000000002815260040160206040518083038186803b15801561066b57600080fd5b505afa15801561067f573d6000803e3d6000fd5b505050506040513d602081101561069557600080fd5b810190808051906020019092919050505083028115156106b157fe5b0490508160066000828254019250508190555042600781905550600360009054906101000a900473ffffffffffffffffffffffffffffffffffffffff1673ffffffffffffffffffffffffffffffffffffffff1663827f32c06000809054906101000a900473ffffffffffffffffffffffffffffffffffffffff16836040518363ffffffff167c0100000000000000000000000000000000000000000000000000000000028152600401808373ffffffffffffffffffffffffffffffffffffffff1673ffffffffffffffffffffffffffffffffffffffff16815260200182815260200192505050602060405180830381600087803b1580156107b157600080fd5b505af11580156107c5573d6000803e3d6000fd5b505050506040513d60208110156107db57600080fd5b81019080805190602001909291905050501515610860576040517f08c379a00000000000000000000000000000000000000000000000000000000081526004018080602001828103825260198152602001807f6661696c656420746f2067656e657261746520746f6b656e730000000000000081525060200191505060405180910390fd5b7fac991e2fe3f8ef848f09717d965f82c08d7c7c63cd66c54e99995a3fc4829d7e6000809054906101000a900473ffffffffffffffffffffffffffffffffffffffff1682604051808373ffffffffffffffffffffffffffffffffffffffff1673ffffffffffffffffffffffffffffffffffffffff1681526020018281526020019250505060405180910390a15050565b60075481565b6000600360009054906101000a900473ffffffffffffffffffffffffffffffffffffffff1673ffffffffffffffffffffffffffffffffffffffff166318160ddd6040518163ffffffff167c010000000000000000000000000000000000000000000000000000000002815260040160206040518083038186803b15801561097c57600080fd5b505afa158015610990573d6000803e3d6000fd5b505050506040513d60208110156109a657600080fd5b810190808051906020019092919050505060065403905060006109c883611725565b9050808210151515610a42576040517f08c379a00000000000000000000000000000000000000000000000000000000081526004018080602001828103825260168152602001807f696e76616c6964207265736572766520616d6f756e740000000000000000000081525060200191505060405180910390fd5b600460009054906101000a900473ffffffffffffffffffffffffffffffffffffffff1673ffffffffffffffffffffffffffffffffffffffff166323b872dd3330866040518463ffffffff167c0100000000000000000000000000000000000000000000000000000000028152600401808473ffffffffffffffffffffffffffffffffffffffff1673ffffffffffffffffffffffffffffffffffffffff1681526020018373ffffffffffffffffffffffffffffffffffffffff1673ffffffffffffffffffffffffffffffffffffffff1681526020018281526020019350505050602060405180830381600087803b158015610b3b57600080fd5b505af1158015610b4f573d6000803e3d6000fd5b505050506040513d6020811015610b6557600080fd5b81019080805190602001909291905050501515610bea576040517f08c379a00000000000000000000000000000000000000000000000000000000081526004018080602001828103825260128152602001807f6661696c656420746f207472616e73666572000000000000000000000000000081525060200191505060405180910390fd5b600360009054906101000a900473ffffffffffffffffffffffffffffffffffffffff1673ffffffffffffffffffffffffffffffffffffffff1663827f32c033836040518363ffffffff167c0100000000000000000000000000000000000000000000000000000000028152600401808373ffffffffffffffffffffffffffffffffffffffff1673ffffffffffffffffffffffffffffffffffffffff16815260200182815260200192505050602060405180830381600087803b158015610caf57600080fd5b505af1158015610cc3573d6000803e3d6000fd5b505050506040513d6020811015610cd957600080fd5b81019080805190602001909291905050501515610d5e576040517f08c379a00000000000000000000000000000000000000000000000000000000081526004018080602001828103825260198152602001807f6661696c656420746f2067656e657261746520746f6b656e730000000000000081525060200191505060405180910390fd5b7f64f218c88dfcb74b07ae7dce32c3cf1cbbc84aca938033113d18a040b44f04ad338483604051808473ffffffffffffffffffffffffffffffffffffffff1673ffffffffffffffffffffffffffffffffffffffff168152602001838152602001828152602001935050505060405180910390a1505050565b60065481565b60055481565b6000610ded82611179565b9050600360009054906101000a900473ffffffffffffffffffffffffffffffffffffffff1673ffffffffffffffffffffffffffffffffffffffff1663d3ce77fe33846040518363ffffffff167c0100000000000000000000000000000000000000000000000000000000028152600401808373ffffffffffffffffffffffffffffffffffffffff1673ffffffffffffffffffffffffffffffffffffffff16815260200182815260200192505050602060405180830381600087803b158015610eb457600080fd5b505af1158015610ec8573d6000803e3d6000fd5b505050506040513d6020811015610ede57600080fd5b81019080805190602001909291905050501515610f63576040517f08c379a00000000000000000000000000000000000000000000000000000000081526004018080602001828103825260188152602001807f6661696c656420746f2064657374726f7920746f6b656e73000000000000000081525060200191505060405180910390fd5b600460009054906101000a900473ffffffffffffffffffffffffffffffffffffffff1673ffffffffffffffffffffffffffffffffffffffff1663a9059cbb33836040518363ffffffff167c0100000000000000000000000000000000000000000000000000000000028152600401808373ffffffffffffffffffffffffffffffffffffffff1673ffffffffffffffffffffffffffffffffffffffff16815260200182815260200192505050602060405180830381600087803b15801561102857600080fd5b505af115801561103c573d6000803e3d6000fd5b505050506040513d602081101561105257600080fd5b810190808051906020019092919050505015156110d7576040517f08c379a00000000000000000000000000000000000000000000000000000000081526004018080602001828103825260128152602001807f6661696c656420746f207472616e73666572000000000000000000000000000081525060200191505060405180910390fd5b7f40eb9b460e777456b2dd903bc4974e15c1390da40ac0a0062c58cfcc5800cc1a338383604051808473ffffffffffffffffffffffffffffffffffffffff1673ffffffffffffffffffffffffffffffffffffffff168152602001838152602001828152602001935050505060405180910390a15050565b6000809054906101000a900473ffffffffffffffffffffffffffffffffffffffff1681565b60015481565b6000600360009054906101000a900473ffffffffffffffffffffffffffffffffffffffff1673ffffffffffffffffffffffffffffffffffffffff166318160ddd6040518163ffffffff167c010000000000000000000000000000000000000000000000000000000002815260040160206040518083038186803b1580156111ff57600080fd5b505afa158015611213573d6000803e3d6000fd5b505050506040513d602081101561122957600080fd5b810190808051906020019092919050505082600460009054906101000a900473ffffffffffffffffffffffffffffffffffffffff1673ffffffffffffffffffffffffffffffffffffffff166370a08231306040518263ffffffff167c0100000000000000000000000000000000000000000000000000000000028152600401808273ffffffffffffffffffffffffffffffffffffffff1673ffffffffffffffffffffffffffffffffffffffff16815260200191505060206040518083038186803b1580156112f657600080fd5b505afa15801561130a573d6000803e3d6000fd5b505050506040513d602081101561132057600080fd5b81019080805190602001909291905050500281151561133b57fe5b049050919050565b600260009054906101000a900473ffffffffffffffffffffffffffffffffffffffff1681565b60006001541415156113e3576040517f08c379a000000000000000000000000000000000000000000000000000000000815260040180806020018281038252601c8152602001807f636f6e747261637420616c726561647920696e697469616c697a65640000000081525060200191505060405180910390fd5b428212151561145a576040517f08c379a00000000000000000000000000000000000000000000000000000000081526004018080602001828103825260178152602001807f696e76616c69642062697274682074696d657374616d7000000000000000000081525060200191505060405180910390fd5b4360018190555033600260006101000a81548173ffffffffffffffffffffffffffffffffffffffff021916908373ffffffffffffffffffffffffffffffffffffffff160217905550846000806101000a81548173ffffffffffffffffffffffffffffffffffffffff021916908373ffffffffffffffffffffffffffffffffffffffff16021790555083600360006101000a81548173ffffffffffffffffffffffffffffffffffffffff021916908373ffffffffffffffffffffffffffffffffffffffff16021790555082600460006101000a81548173ffffffffffffffffffffffffffffffffffffffff021916908373ffffffffffffffffffffffffffffffffffffffff160217905550816005819055506003600554420381151561157b57fe5b0460068190555042600781905550600360009054906101000a900473ffffffffffffffffffffffffffffffffffffffff1673ffffffffffffffffffffffffffffffffffffffff1663827f32c06000809054906101000a900473ffffffffffffffffffffffffffffffffffffffff16836040518363ffffffff167c0100000000000000000000000000000000000000000000000000000000028152600401808373ffffffffffffffffffffffffffffffffffffffff1673ffffffffffffffffffffffffffffffffffffffff16815260200182815260200192505050602060405180830381600087803b15801561166f57600080fd5b505af1158015611683573d6000803e3d6000fd5b505050506040513d602081101561169957600080fd5b8101908080519060200190929190505050151561171e576040517f08c379a00000000000000000000000000000000000000000000000000000000081526004018080602001828103825260198152602001807f6661696c656420746f2067656e657261746520746f6b656e730000000000000081525060200191505060405180910390fd5b5050505050565b6000600460009054906101000a900473ffffffffffffffffffffffffffffffffffffffff1673ffffffffffffffffffffffffffffffffffffffff166370a08231306040518263ffffffff167c0100000000000000000000000000000000000000000000000000000000028152600401808273ffffffffffffffffffffffffffffffffffffffff1673ffffffffffffffffffffffffffffffffffffffff16815260200191505060206040518083038186803b1580156117e257600080fd5b505afa1580156117f6573d6000803e3d6000fd5b505050506040513d602081101561180c57600080fd5b810190808051906020019092919050505082600360009054906101000a900473ffffffffffffffffffffffffffffffffffffffff1673ffffffffffffffffffffffffffffffffffffffff166318160ddd6040518163ffffffff167c010000000000000000000000000000000000000000000000000000000002815260040160206040518083038186803b1580156118a257600080fd5b505afa1580156118b6573d6000803e3d6000fd5b505050506040513d60208110156118cc57600080fd5b8101908080519060200190929190505050028115156118e757fe5b049050919050565b600360009054906101000a900473ffffffffffffffffffffffffffffffffffffffff1681565b6000809054906101000a900473ffffffffffffffffffffffffffffffffffffffff1673ffffffffffffffffffffffffffffffffffffffff163373ffffffffffffffffffffffffffffffffffffffff161415156119d9576040517f08c379a00000000000000000000000000000000000000000000000000000000081526004018080602001828103825260178152602001807f6d73672073656e646572206973206e6f74206f776e657200000000000000000081525060200191505060405180910390fd5b806000806101000a81548173ffffffffffffffffffffffffffffffffffffffff021916908373ffffffffffffffffffffffffffffffffffffffff16021790555050565b600460009054906101000a900473ffffffffffffffffffffffffffffffffffffffff168156fea165627a7a723058205b15d05007383d14284cfa5b7bc806c7fdd3843d7e10c8c37036655e7c76d4d10029",
  "source": "pragma solidity ^0.5.0;\n\nimport \"./external/MiniMeToken.sol\";\nimport \"./external/ERC20.sol\";\nimport \"./external/Owned.sol\";\n\ncontract MeDao is Owned {\n\n    uint public blockInitialized;\n    address public factory;\n\n    MiniMeToken public timeToken;\n    ERC20 public reserveToken;\n    int public birthTimestamp;\n    uint public maxTokenSupply;\n    uint public lastPayTimestamp;\n\n    constructor () public {\n        blockInitialized = block.number;\n    }\n\n    function initialize (\n        address _owner,\n        MiniMeToken _timeToken,\n        ERC20 _reserveToken,\n        int _birthTimestamp,\n        uint _tokenClaim\n    ) public {\n        require(blockInitialized == 0, 'contract already initialized');\n        require(_birthTimestamp < int(now), 'invalid birth timestamp');\n\n        blockInitialized = block.number;\n        factory = msg.sender;\n\n        owner = _owner;\n        timeToken = _timeToken;\n        reserveToken = _reserveToken;\n        birthTimestamp = _birthTimestamp;\n        maxTokenSupply = uint(int(now) - birthTimestamp) / 3;\n        lastPayTimestamp = now;\n\n        require(timeToken.generateTokens(owner, _tokenClaim), \"failed to generate tokens\");\n    }\n\n    function calculateTokenClaim (uint reserveAmount) public view returns (uint) {\n        return timeToken.totalSupply() * reserveAmount / reserveToken.balanceOf(address(this));\n    }\n\n    function calculateReserveClaim (uint tokenAmount) public view returns (uint) {\n        return reserveToken.balanceOf(address(this)) * tokenAmount / timeToken.totalSupply();\n    }\n\n    function collectPay () public onlyOwner {\n        uint elapsedSeconds = (now - lastPayTimestamp) / 3;\n        uint fundedTime = elapsedSeconds * timeToken.totalSupply() / maxTokenSupply;\n        maxTokenSupply += elapsedSeconds;\n        lastPayTimestamp = now;\n        require(timeToken.generateTokens(owner, fundedTime), \"failed to generate tokens\");\n        emit Pay_eventAAAA(owner, fundedTime);\n    }\n\n    function invest (uint reserveAmount) public {\n        uint availableSeconds = maxTokenSupply - timeToken.totalSupply();\n        uint claimedTokens = calculateTokenClaim(reserveAmount);\n        require(availableSeconds >= claimedTokens, \"invalid reserve amount\");\n        require(reserveToken.transferFrom(msg.sender, address(this), reserveAmount), \"failed to transfer\");\n        require(timeToken.generateTokens(msg.sender, claimedTokens), \"failed to generate tokens\");\n        emit Invest_event(msg.sender, reserveAmount, claimedTokens);\n    }\n\n    function divest (uint tokenAmount) public {\n        uint reserveClaim = calculateReserveClaim(tokenAmount);\n        require(timeToken.destroyTokens(msg.sender, tokenAmount), \"failed to destroy tokens\");\n        require(reserveToken.transfer(msg.sender, reserveClaim), \"failed to transfer\");\n        emit Divest_event(msg.sender, tokenAmount, reserveClaim);\n    }\n\n    event Pay_eventAAAA (address owner, uint tokenAmount);\n    event Invest_event (address msgSender, uint reserveAmount, uint tokenAmount);\n    event Divest_event (address msgSender, uint tokenAmount, uint reserveAmount);\n}\n",
  "sourcePath": "/home/joe/Documents/github/chicobitcoinjoe/MeDao/contracts/MeDao.sol",
  "compiler": {
    "name": "solc",
    "version": "0.5.0+commit.1d4f565a.Emscripten.clang"
  },
  "schemaVersion": "3.0.9",
  "updatedAt": "2019-05-29T23:31:20.345Z",
  "devdoc": {
    "methods": {}
  },
  "userdoc": {
    "methods": {}
  }
}