{
  "contractName": "MeDao",
  "abi": [
    {
      "constant": false,
      "inputs": [
        {
          "name": "shareTokens",
          "type": "uint256"
        }
      ],
      "name": "withdraw",
      "outputs": [
        {
          "name": "reserveClaim",
          "type": "uint256"
        }
      ],
      "payable": false,
      "stateMutability": "nonpayable",
      "type": "function"
    },
    {
      "constant": true,
      "inputs": [
        {
          "name": "reserveTokens",
          "type": "uint256"
        }
      ],
      "name": "calculateShareClaim",
      "outputs": [
        {
          "name": "",
          "type": "uint256"
        }
      ],
      "payable": false,
      "stateMutability": "view",
      "type": "function"
    },
    {
      "constant": false,
      "inputs": [
        {
          "name": "_from",
          "type": "address"
        },
        {
          "name": "_to",
          "type": "address"
        },
        {
          "name": "_amount",
          "type": "uint256"
        }
      ],
      "name": "onTransfer",
      "outputs": [
        {
          "name": "",
          "type": "bool"
        }
      ],
      "payable": false,
      "stateMutability": "nonpayable",
      "type": "function"
    },
    {
      "constant": false,
      "inputs": [
        {
          "name": "_reserveToken",
          "type": "address"
        },
        {
          "name": "_shareToken",
          "type": "address"
        },
        {
          "name": "_maxTokenSupply",
          "type": "uint256"
        },
        {
          "name": "_baseShareValue",
          "type": "uint256"
        }
      ],
      "name": "setupMoneyPool",
      "outputs": [],
      "payable": false,
      "stateMutability": "nonpayable",
      "type": "function"
    },
    {
      "constant": true,
      "inputs": [],
      "name": "maxTokenSupply",
      "outputs": [
        {
          "name": "",
          "type": "uint256"
        }
      ],
      "payable": false,
      "stateMutability": "view",
      "type": "function"
    },
    {
      "constant": true,
      "inputs": [],
      "name": "shareToken",
      "outputs": [
        {
          "name": "",
          "type": "address"
        }
      ],
      "payable": false,
      "stateMutability": "view",
      "type": "function"
    },
    {
      "constant": true,
      "inputs": [],
      "name": "baseShareValue",
      "outputs": [
        {
          "name": "",
          "type": "uint256"
        }
      ],
      "payable": false,
      "stateMutability": "view",
      "type": "function"
    },
    {
      "constant": true,
      "inputs": [],
      "name": "owner",
      "outputs": [
        {
          "name": "",
          "type": "address"
        }
      ],
      "payable": false,
      "stateMutability": "view",
      "type": "function"
    },
    {
      "constant": true,
      "inputs": [],
      "name": "useBaseValue",
      "outputs": [
        {
          "name": "",
          "type": "bool"
        }
      ],
      "payable": false,
      "stateMutability": "view",
      "type": "function"
    },
    {
      "constant": true,
      "inputs": [],
      "name": "blockInitialized",
      "outputs": [
        {
          "name": "",
          "type": "uint256"
        }
      ],
      "payable": false,
      "stateMutability": "view",
      "type": "function"
    },
    {
      "constant": true,
      "inputs": [
        {
          "name": "shareTokens",
          "type": "uint256"
        }
      ],
      "name": "calculateReserveClaim",
      "outputs": [
        {
          "name": "",
          "type": "uint256"
        }
      ],
      "payable": false,
      "stateMutability": "view",
      "type": "function"
    },
    {
      "constant": false,
      "inputs": [
        {
          "name": "reserveTokens",
          "type": "uint256"
        }
      ],
      "name": "deposit",
      "outputs": [
        {
          "name": "shareClaim",
          "type": "uint256"
        }
      ],
      "payable": false,
      "stateMutability": "nonpayable",
      "type": "function"
    },
    {
      "constant": true,
      "inputs": [],
      "name": "collectedTimestamp",
      "outputs": [
        {
          "name": "",
          "type": "uint256"
        }
      ],
      "payable": false,
      "stateMutability": "view",
      "type": "function"
    },
    {
      "constant": false,
      "inputs": [
        {
          "name": "_owner",
          "type": "address"
        },
        {
          "name": "_spender",
          "type": "address"
        },
        {
          "name": "_amount",
          "type": "uint256"
        }
      ],
      "name": "onApprove",
      "outputs": [
        {
          "name": "",
          "type": "bool"
        }
      ],
      "payable": false,
      "stateMutability": "nonpayable",
      "type": "function"
    },
    {
      "constant": false,
      "inputs": [
        {
          "name": "newOwner",
          "type": "address"
        }
      ],
      "name": "transferOwnership",
      "outputs": [],
      "payable": false,
      "stateMutability": "nonpayable",
      "type": "function"
    },
    {
      "constant": true,
      "inputs": [],
      "name": "reserveToken",
      "outputs": [
        {
          "name": "",
          "type": "address"
        }
      ],
      "payable": false,
      "stateMutability": "view",
      "type": "function"
    },
    {
      "constant": false,
      "inputs": [
        {
          "name": "_owner",
          "type": "address"
        }
      ],
      "name": "proxyPayment",
      "outputs": [
        {
          "name": "",
          "type": "bool"
        }
      ],
      "payable": true,
      "stateMutability": "payable",
      "type": "function"
    },
    {
      "anonymous": false,
      "inputs": [
        {
          "indexed": false,
          "name": "collectedAmount",
          "type": "uint256"
        }
      ],
      "name": "Collect_event",
      "type": "event"
    },
    {
      "anonymous": false,
      "inputs": [
        {
          "indexed": false,
          "name": "msgSender",
          "type": "address"
        },
        {
          "indexed": false,
          "name": "reserveTokens",
          "type": "uint256"
        },
        {
          "indexed": false,
          "name": "shareClaim",
          "type": "uint256"
        }
      ],
      "name": "Deposit_event",
      "type": "event"
    },
    {
      "anonymous": false,
      "inputs": [
        {
          "indexed": false,
          "name": "msgSender",
          "type": "address"
        },
        {
          "indexed": false,
          "name": "shareTokens",
          "type": "uint256"
        },
        {
          "indexed": false,
          "name": "reserveClaim",
          "type": "uint256"
        }
      ],
      "name": "Withdraw_event",
      "type": "event"
    },
    {
      "anonymous": false,
      "inputs": [
        {
          "indexed": false,
          "name": "account",
          "type": "address"
        },
        {
          "indexed": false,
          "name": "reserveTokens",
          "type": "uint256"
        }
      ],
      "name": "Transfer_event",
      "type": "event"
    },
    {
      "anonymous": false,
      "inputs": [
        {
          "indexed": false,
          "name": "account",
          "type": "address"
        },
        {
          "indexed": false,
          "name": "shareTokens",
          "type": "uint256"
        }
      ],
      "name": "Issue_event",
      "type": "event"
    },
    {
      "anonymous": false,
      "inputs": [
        {
          "indexed": false,
          "name": "account",
          "type": "address"
        },
        {
          "indexed": false,
          "name": "shareTokens",
          "type": "uint256"
        }
      ],
      "name": "Destroy_event",
      "type": "event"
    },
    {
      "constant": false,
      "inputs": [
        {
          "name": "_reserveToken",
          "type": "address"
        },
        {
          "name": "_shareToken",
          "type": "address"
        },
        {
          "name": "_maxTokenSupply",
          "type": "uint256"
        },
        {
          "name": "_baseShareValue",
          "type": "uint256"
        }
      ],
      "name": "initialize",
      "outputs": [],
      "payable": false,
      "stateMutability": "nonpayable",
      "type": "function"
    },
    {
      "constant": true,
      "inputs": [
        {
          "name": "elapsedSeconds",
          "type": "uint256"
        }
      ],
      "name": "calculateWorkTime",
      "outputs": [
        {
          "name": "",
          "type": "uint256"
        }
      ],
      "payable": false,
      "stateMutability": "pure",
      "type": "function"
    },
    {
      "constant": false,
      "inputs": [],
      "name": "collectFunds",
      "outputs": [
        {
          "name": "collectedFunds",
          "type": "uint256"
        }
      ],
      "payable": false,
      "stateMutability": "nonpayable",
      "type": "function"
    }
  ],
  "bytecode": "0x6080604052336000806101000a81548173ffffffffffffffffffffffffffffffffffffffff021916908373ffffffffffffffffffffffffffffffffffffffff160217905550611560806100536000396000f3fe60806040526004361061011f5760003560e01c80639bc40c4c116100a0578063da682aeb11610064578063da682aeb1461057b578063eb990c591461060e578063f2fde38b14610693578063f4325d67146106e4578063f48c30541461073b5761011f565b80639bc40c4c14610438578063b163ecd214610463578063b6b55f25146104b2578063c65ad54114610501578063cb29b1c51461052c5761011f565b80635b980628116100e75780635b980628146103055780636c9fa59e14610330578063761537ad146103875780638da5cb5b146103b257806395a1e303146104095761011f565b80632e1a7d4d14610124578063327ca4a8146101735780634a393149146101c25780634be78fab1461025557806350f7c204146102da575b600080fd5b34801561013057600080fd5b5061015d6004803603602081101561014757600080fd5b8101908080359060200190929190505050610797565b6040518082815260200191505060405180910390f35b34801561017f57600080fd5b506101ac6004803603602081101561019657600080fd5b8101908080359060200190929190505050610832565b6040518082815260200191505060405180910390f35b3480156101ce57600080fd5b5061023b600480360360608110156101e557600080fd5b81019080803573ffffffffffffffffffffffffffffffffffffffff169060200190929190803573ffffffffffffffffffffffffffffffffffffffff16906020019092919080359060200190929190505050610851565b604051808215151515815260200191505060405180910390f35b34801561026157600080fd5b506102d86004803603608081101561027857600080fd5b81019080803573ffffffffffffffffffffffffffffffffffffffff169060200190929190803573ffffffffffffffffffffffffffffffffffffffff169060200190929190803590602001909291908035906020019092919050505061085e565b005b3480156102e657600080fd5b506102ef61090a565b6040518082815260200191505060405180910390f35b34801561031157600080fd5b5061031a610910565b6040518082815260200191505060405180910390f35b34801561033c57600080fd5b50610345610b04565b604051808273ffffffffffffffffffffffffffffffffffffffff1673ffffffffffffffffffffffffffffffffffffffff16815260200191505060405180910390f35b34801561039357600080fd5b5061039c610b2a565b6040518082815260200191505060405180910390f35b3480156103be57600080fd5b506103c7610b30565b604051808273ffffffffffffffffffffffffffffffffffffffff1673ffffffffffffffffffffffffffffffffffffffff16815260200191505060405180910390f35b34801561041557600080fd5b5061041e610b55565b604051808215151515815260200191505060405180910390f35b34801561044457600080fd5b5061044d610b68565b6040518082815260200191505060405180910390f35b34801561046f57600080fd5b5061049c6004803603602081101561048657600080fd5b8101908080359060200190929190505050610b6e565b6040518082815260200191505060405180910390f35b3480156104be57600080fd5b506104eb600480360360208110156104d557600080fd5b8101908080359060200190929190505050610cfe565b6040518082815260200191505060405180910390f35b34801561050d57600080fd5b50610516610d05565b6040518082815260200191505060405180910390f35b34801561053857600080fd5b506105656004803603602081101561054f57600080fd5b8101908080359060200190929190505050610d0b565b6040518082815260200191505060405180910390f35b34801561058757600080fd5b506105f46004803603606081101561059e57600080fd5b81019080803573ffffffffffffffffffffffffffffffffffffffff169060200190929190803573ffffffffffffffffffffffffffffffffffffffff16906020019092919080359060200190929190505050610d2c565b604051808215151515815260200191505060405180910390f35b34801561061a57600080fd5b506106916004803603608081101561063157600080fd5b81019080803573ffffffffffffffffffffffffffffffffffffffff169060200190929190803573ffffffffffffffffffffffffffffffffffffffff1690602001909291908035906020019092919080359060200190929190505050610d39565b005b34801561069f57600080fd5b506106e2600480360360208110156106b657600080fd5b81019080803573ffffffffffffffffffffffffffffffffffffffff169060200190929190505050610d5c565b005b3480156106f057600080fd5b506106f9610e61565b604051808273ffffffffffffffffffffffffffffffffffffffff1673ffffffffffffffffffffffffffffffffffffffff16815260200191505060405180910390f35b61077d6004803603602081101561075157600080fd5b81019080803573ffffffffffffffffffffffffffffffffffffffff169060200190929190505050610e87565b604051808215151515815260200191505060405180910390f35b60006107a282610b6e565b90506107ae3383610e91565b506107b9338261106e565b507ffc66b0b1bed0c04059e1367b6de8a81a90429a81bc9ba512980aad725fb5632c338383604051808473ffffffffffffffffffffffffffffffffffffffff1673ffffffffffffffffffffffffffffffffffffffff168152602001838152602001828152602001935050505060405180910390a1919050565b6000600a54670de0b6b3a764000083028161084957fe5b049050919050565b6000600190509392505050565b60006001541461086d57600080fd5b83600860006101000a81548173ffffffffffffffffffffffffffffffffffffffff021916908373ffffffffffffffffffffffffffffffffffffffff16021790555082600960006101000a81548173ffffffffffffffffffffffffffffffffffffffff021916908373ffffffffffffffffffffffffffffffffffffffff1602179055508160048190555080600a819055504360018190555050505050565b60045481565b60008060009054906101000a900473ffffffffffffffffffffffffffffffffffffffff1673ffffffffffffffffffffffffffffffffffffffff163373ffffffffffffffffffffffffffffffffffffffff16146109d4576040517f08c379a00000000000000000000000000000000000000000000000000000000081526004018080602001828103825260178152602001807f6d73672073656e646572206973206e6f74206f776e657200000000000000000081525060200191505060405180910390fd5b6000600b544203905060006109e882610d0b565b9050600454600960009054906101000a900473ffffffffffffffffffffffffffffffffffffffff1673ffffffffffffffffffffffffffffffffffffffff166318160ddd6040518163ffffffff1660e01b815260040160206040518083038186803b158015610a5557600080fd5b505afa158015610a69573d6000803e3d6000fd5b505050506040513d6020811015610a7f57600080fd5b8101908080519060200190929190505050820281610a9957fe5b049250610ac76000809054906101000a900473ffffffffffffffffffffffffffffffffffffffff168461123b565b507fa21cd14946039cdfc580e41550837d39a3d20e9736124610d1814f0ca157f86e836040518082815260200191505060405180910390a1505090565b600960009054906101000a900473ffffffffffffffffffffffffffffffffffffffff1681565b600a5481565b6000809054906101000a900473ffffffffffffffffffffffffffffffffffffffff1681565b600660009054906101000a900460ff1681565b60015481565b6000600960009054906101000a900473ffffffffffffffffffffffffffffffffffffffff1673ffffffffffffffffffffffffffffffffffffffff166318160ddd6040518163ffffffff1660e01b815260040160206040518083038186803b158015610bd857600080fd5b505afa158015610bec573d6000803e3d6000fd5b505050506040513d6020811015610c0257600080fd5b810190808051906020019092919050505082600860009054906101000a900473ffffffffffffffffffffffffffffffffffffffff1673ffffffffffffffffffffffffffffffffffffffff166370a08231306040518263ffffffff1660e01b8152600401808273ffffffffffffffffffffffffffffffffffffffff1673ffffffffffffffffffffffffffffffffffffffff16815260200191505060206040518083038186803b158015610cb357600080fd5b505afa158015610cc7573d6000803e3d6000fd5b505050506040513d6020811015610cdd57600080fd5b81019080805190602001909291905050500281610cf657fe5b049050919050565b6000919050565b600b5481565b600060a86028670de0b6b3a764000084020281610d2457fe5b049050919050565b6000600190509392505050565b600060015414610d4857600080fd5b42600b819055504360018190555050505050565b6000809054906101000a900473ffffffffffffffffffffffffffffffffffffffff1673ffffffffffffffffffffffffffffffffffffffff163373ffffffffffffffffffffffffffffffffffffffff1614610e1e576040517f08c379a00000000000000000000000000000000000000000000000000000000081526004018080602001828103825260178152602001807f6d73672073656e646572206973206e6f74206f776e657200000000000000000081525060200191505060405180910390fd5b806000806101000a81548173ffffffffffffffffffffffffffffffffffffffff021916908373ffffffffffffffffffffffffffffffffffffffff16021790555050565b600860009054906101000a900473ffffffffffffffffffffffffffffffffffffffff1681565b6000809050919050565b6000600960009054906101000a900473ffffffffffffffffffffffffffffffffffffffff1673ffffffffffffffffffffffffffffffffffffffff1663d3ce77fe84846040518363ffffffff1660e01b8152600401808373ffffffffffffffffffffffffffffffffffffffff1673ffffffffffffffffffffffffffffffffffffffff16815260200182815260200192505050602060405180830381600087803b158015610f3c57600080fd5b505af1158015610f50573d6000803e3d6000fd5b505050506040513d6020811015610f6657600080fd5b8101908080519060200190929190505050610fe9576040517f08c379a00000000000000000000000000000000000000000000000000000000081526004018080602001828103825260188152602001807f6661696c656420746f2064657374726f7920746f6b656e73000000000000000081525060200191505060405180910390fd5b816004600082825403925050819055507fdca8ac541f3122219a8ce761979abda51a4c19d9253a3d080922cab77554c93f8383604051808373ffffffffffffffffffffffffffffffffffffffff1673ffffffffffffffffffffffffffffffffffffffff1681526020018281526020019250505060405180910390a16001905092915050565b6000600860009054906101000a900473ffffffffffffffffffffffffffffffffffffffff1673ffffffffffffffffffffffffffffffffffffffff1663a9059cbb84846040518363ffffffff1660e01b8152600401808373ffffffffffffffffffffffffffffffffffffffff1673ffffffffffffffffffffffffffffffffffffffff16815260200182815260200192505050602060405180830381600087803b15801561111957600080fd5b505af115801561112d573d6000803e3d6000fd5b505050506040513d602081101561114357600080fd5b81019080805190602001909291905050506111c6576040517f08c379a00000000000000000000000000000000000000000000000000000000081526004018080602001828103825260128152602001807f6661696c656420746f207472616e73666572000000000000000000000000000081525060200191505060405180910390fd5b7f26b19003e2e652d09d099c0553e2c2f11684c2f05132fcd563734efb905d50da8383604051808373ffffffffffffffffffffffffffffffffffffffff1673ffffffffffffffffffffffffffffffffffffffff1681526020018281526020019250505060405180910390a16001905092915050565b600081600960009054906101000a900473ffffffffffffffffffffffffffffffffffffffff1673ffffffffffffffffffffffffffffffffffffffff166318160ddd6040518163ffffffff1660e01b815260040160206040518083038186803b1580156112a657600080fd5b505afa1580156112ba573d6000803e3d6000fd5b505050506040513d60208110156112d057600080fd5b8101908080519060200190929190505050016004541015611359576040517f08c379a00000000000000000000000000000000000000000000000000000000081526004018080602001828103825260148152602001807f696e76616c696420736861726520616d6f756e7400000000000000000000000081525060200191505060405180910390fd5b600960009054906101000a900473ffffffffffffffffffffffffffffffffffffffff1673ffffffffffffffffffffffffffffffffffffffff1663827f32c084846040518363ffffffff1660e01b8152600401808373ffffffffffffffffffffffffffffffffffffffff1673ffffffffffffffffffffffffffffffffffffffff16815260200182815260200192505050602060405180830381600087803b15801561140257600080fd5b505af1158015611416573d6000803e3d6000fd5b505050506040513d602081101561142c57600080fd5b81019080805190602001909291905050506114af576040517f08c379a00000000000000000000000000000000000000000000000000000000081526004018080602001828103825260198152602001807f6661696c656420746f2067656e657261746520746f6b656e730000000000000081525060200191505060405180910390fd5b816004600082825401925050819055507ffb82d8e745091d2d2020311ee7db0d74371569f79ab4247f0b268dfef2e9a69f8383604051808373ffffffffffffffffffffffffffffffffffffffff1673ffffffffffffffffffffffffffffffffffffffff1681526020018281526020019250505060405180910390a1600190509291505056fea165627a7a723058205443d5c386912bd79bd6f94d5e7bb51e1cce91930ce4748b0a60fda314155c560029",
  "source": "pragma solidity ^0.5.0;\n\nimport \"./external/CloneFactory.sol\";\nimport \"./MoneyPool.sol\";\nimport \"./Interfaces.sol\";\n\ncontract MeDao is IFundraiser, MoneyPool {\n\n    uint public collectedTimestamp; // The timestamp when a paycheck was last collected\n\n    function initialize (\n        ERC20Token _reserveToken,\n        MiniMeToken _shareToken,\n        uint _maxTokenSupply,\n        uint _baseShareValue\n    ) public runOnce {\n        collectedTimestamp = now;\n        _reserveToken;\n        _shareToken;\n        _maxTokenSupply;\n        _baseShareValue;\n        /*\n        setupMoneyPool (\n            _reserveToken,\n            _shareToken,\n            _maxTokenSupply,\n            _baseShareValue\n        );\n        */\n    }\n\n    function calculateWorkTime (uint elapsedSeconds) public pure returns (uint) {\n        return elapsedSeconds * 1 ether * 40 / 168;\n    }\n\n    function collectFunds () public onlyOwner returns (uint collectedFunds){\n        uint elapsedSeconds = now - collectedTimestamp;\n        uint workTime = calculateWorkTime(elapsedSeconds);\n        collectedFunds = workTime * shareToken.totalSupply() / maxTokenSupply;\n        issue(owner, collectedFunds);\n        emit Collect_event(collectedFunds);\n    }\n\n}\n\ncontract MeDaoFactory is CloneFactory {\n\n    MeDao public blueprint;\n    MiniMeTokenFactory factory;\n\n    mapping (address => bool) public created;\n\n    function create (\n        ERC20Token reserveToken,\n        string memory name,\n        uint maxTokenSupply,\n        uint baseShareValue\n    ) public returns (MeDao medao) {\n        MiniMeToken shareToken = factory.createCloneToken(\n            address(0x0),\n            0,\n            name,\n            18,\n            'seconds',\n            true\n        );\n\n        medao = MeDao(createClone(address(blueprint)));\n        medao.initialize(\n            reserveToken,\n            shareToken,\n            maxTokenSupply,\n            baseShareValue\n        );\n\n        created[address(medao)] = true;\n    }\n\n}\n",
  "sourcePath": "/home/joe/Documents/github/chicobitcoinjoe/medao/contracts/MeDao.sol",
  "compiler": {
    "name": "solc",
    "version": "0.5.8+commit.23d335f2.Emscripten.clang"
  },
  "schemaVersion": "3.0.11",
  "updatedAt": "2019-08-09T00:35:49.983Z",
  "devdoc": {
    "methods": {}
  },
  "userdoc": {
    "methods": {}
  }
}