{
  "contractName": "MeDao",
  "abi": [
    {
      "constant": true,
      "inputs": [],
      "name": "hash",
      "outputs": [
        {
          "name": "",
          "type": "string"
        }
      ],
      "payable": false,
      "stateMutability": "view",
      "type": "function"
    },
    {
      "constant": true,
      "inputs": [
        {
          "name": "",
          "type": "uint256"
        }
      ],
      "name": "clones",
      "outputs": [
        {
          "name": "",
          "type": "address"
        }
      ],
      "payable": false,
      "stateMutability": "view",
      "type": "function"
    },
    {
      "constant": true,
      "inputs": [],
      "name": "Dai",
      "outputs": [
        {
          "name": "",
          "type": "address"
        }
      ],
      "payable": false,
      "stateMutability": "view",
      "type": "function"
    },
    {
      "constant": true,
      "inputs": [],
      "name": "lastPayTimestamp",
      "outputs": [
        {
          "name": "",
          "type": "uint256"
        }
      ],
      "payable": false,
      "stateMutability": "view",
      "type": "function"
    },
    {
      "constant": true,
      "inputs": [],
      "name": "identity",
      "outputs": [
        {
          "name": "",
          "type": "address"
        }
      ],
      "payable": false,
      "stateMutability": "view",
      "type": "function"
    },
    {
      "constant": true,
      "inputs": [],
      "name": "burnedTimeSupply",
      "outputs": [
        {
          "name": "",
          "type": "uint256"
        }
      ],
      "payable": false,
      "stateMutability": "view",
      "type": "function"
    },
    {
      "constant": true,
      "inputs": [],
      "name": "birthTimestamp",
      "outputs": [
        {
          "name": "",
          "type": "int256"
        }
      ],
      "payable": false,
      "stateMutability": "view",
      "type": "function"
    },
    {
      "constant": true,
      "inputs": [],
      "name": "maxTimeSupply",
      "outputs": [
        {
          "name": "",
          "type": "uint256"
        }
      ],
      "payable": false,
      "stateMutability": "view",
      "type": "function"
    },
    {
      "constant": true,
      "inputs": [],
      "name": "owner",
      "outputs": [
        {
          "name": "",
          "type": "address"
        }
      ],
      "payable": false,
      "stateMutability": "view",
      "type": "function"
    },
    {
      "constant": true,
      "inputs": [],
      "name": "blockInitialized",
      "outputs": [
        {
          "name": "",
          "type": "uint256"
        }
      ],
      "payable": false,
      "stateMutability": "view",
      "type": "function"
    },
    {
      "constant": true,
      "inputs": [],
      "name": "factory",
      "outputs": [
        {
          "name": "",
          "type": "address"
        }
      ],
      "payable": false,
      "stateMutability": "view",
      "type": "function"
    },
    {
      "constant": false,
      "inputs": [
        {
          "name": "newOwner",
          "type": "address"
        }
      ],
      "name": "transferOwnership",
      "outputs": [],
      "payable": false,
      "stateMutability": "nonpayable",
      "type": "function"
    },
    {
      "constant": true,
      "inputs": [],
      "name": "Time",
      "outputs": [
        {
          "name": "",
          "type": "address"
        }
      ],
      "payable": false,
      "stateMutability": "view",
      "type": "function"
    },
    {
      "inputs": [],
      "payable": false,
      "stateMutability": "nonpayable",
      "type": "constructor"
    },
    {
      "anonymous": false,
      "inputs": [
        {
          "indexed": false,
          "name": "timeAmount",
          "type": "uint256"
        },
        {
          "indexed": false,
          "name": "daiAmount",
          "type": "uint256"
        }
      ],
      "name": "Pay_event",
      "type": "event"
    },
    {
      "anonymous": false,
      "inputs": [
        {
          "indexed": false,
          "name": "token",
          "type": "address"
        }
      ],
      "name": "Clone_event",
      "type": "event"
    },
    {
      "anonymous": false,
      "inputs": [
        {
          "indexed": false,
          "name": "msgSender",
          "type": "address"
        },
        {
          "indexed": false,
          "name": "daiAmount",
          "type": "uint256"
        },
        {
          "indexed": false,
          "name": "timeAmount",
          "type": "uint256"
        }
      ],
      "name": "ConvertDai_event",
      "type": "event"
    },
    {
      "anonymous": false,
      "inputs": [
        {
          "indexed": false,
          "name": "msgSender",
          "type": "address"
        },
        {
          "indexed": false,
          "name": "timeAmount",
          "type": "uint256"
        },
        {
          "indexed": false,
          "name": "daiAmount",
          "type": "uint256"
        }
      ],
      "name": "ConvertTime_event",
      "type": "event"
    },
    {
      "anonymous": false,
      "inputs": [
        {
          "indexed": false,
          "name": "msgSender",
          "type": "address"
        },
        {
          "indexed": false,
          "name": "timeAmount",
          "type": "uint256"
        }
      ],
      "name": "Burn_event",
      "type": "event"
    },
    {
      "anonymous": false,
      "inputs": [
        {
          "indexed": false,
          "name": "newHash",
          "type": "string"
        }
      ],
      "name": "NewHash_event",
      "type": "event"
    },
    {
      "anonymous": false,
      "inputs": [
        {
          "indexed": false,
          "name": "newIdentity",
          "type": "address"
        }
      ],
      "name": "NewIdentity_event",
      "type": "event"
    },
    {
      "constant": false,
      "inputs": [
        {
          "name": "_owner",
          "type": "address"
        },
        {
          "name": "_Time",
          "type": "address"
        },
        {
          "name": "_Dai",
          "type": "address"
        },
        {
          "name": "_birthTimestamp",
          "type": "int256"
        },
        {
          "name": "_initialTimeBalance",
          "type": "uint256"
        }
      ],
      "name": "initialize",
      "outputs": [],
      "payable": false,
      "stateMutability": "nonpayable",
      "type": "function"
    },
    {
      "constant": true,
      "inputs": [],
      "name": "getClones",
      "outputs": [
        {
          "name": "",
          "type": "address[]"
        }
      ],
      "payable": false,
      "stateMutability": "view",
      "type": "function"
    },
    {
      "constant": true,
      "inputs": [],
      "name": "getTotalClones",
      "outputs": [
        {
          "name": "",
          "type": "uint256"
        }
      ],
      "payable": false,
      "stateMutability": "view",
      "type": "function"
    },
    {
      "constant": true,
      "inputs": [
        {
          "name": "daiAmount",
          "type": "uint256"
        }
      ],
      "name": "calculateTimeClaim",
      "outputs": [
        {
          "name": "",
          "type": "uint256"
        }
      ],
      "payable": false,
      "stateMutability": "view",
      "type": "function"
    },
    {
      "constant": true,
      "inputs": [
        {
          "name": "timeAmount",
          "type": "uint256"
        }
      ],
      "name": "calculateDaiClaim",
      "outputs": [
        {
          "name": "",
          "type": "uint256"
        }
      ],
      "payable": false,
      "stateMutability": "view",
      "type": "function"
    },
    {
      "constant": true,
      "inputs": [
        {
          "name": "elapsedSeconds",
          "type": "uint256"
        }
      ],
      "name": "calculateWorkTime",
      "outputs": [
        {
          "name": "",
          "type": "uint256"
        }
      ],
      "payable": false,
      "stateMutability": "pure",
      "type": "function"
    },
    {
      "constant": false,
      "inputs": [],
      "name": "collectPaycheck",
      "outputs": [],
      "payable": false,
      "stateMutability": "nonpayable",
      "type": "function"
    },
    {
      "constant": false,
      "inputs": [
        {
          "name": "daiAmount",
          "type": "uint256"
        }
      ],
      "name": "convertDai",
      "outputs": [],
      "payable": false,
      "stateMutability": "nonpayable",
      "type": "function"
    },
    {
      "constant": false,
      "inputs": [
        {
          "name": "timeAmount",
          "type": "uint256"
        }
      ],
      "name": "convertTime",
      "outputs": [],
      "payable": false,
      "stateMutability": "nonpayable",
      "type": "function"
    },
    {
      "constant": false,
      "inputs": [
        {
          "name": "timeAmount",
          "type": "uint256"
        }
      ],
      "name": "burn",
      "outputs": [],
      "payable": false,
      "stateMutability": "nonpayable",
      "type": "function"
    },
    {
      "constant": false,
      "inputs": [
        {
          "name": "newHash",
          "type": "string"
        }
      ],
      "name": "setHash",
      "outputs": [],
      "payable": false,
      "stateMutability": "nonpayable",
      "type": "function"
    },
    {
      "constant": false,
      "inputs": [
        {
          "name": "newIdentity",
          "type": "address"
        }
      ],
      "name": "setIdentity",
      "outputs": [],
      "payable": false,
      "stateMutability": "nonpayable",
      "type": "function"
    },
    {
      "constant": false,
      "inputs": [
        {
          "name": "cloneableToken",
          "type": "address"
        },
        {
          "name": "tokenName",
          "type": "string"
        },
        {
          "name": "tokenSymbol",
          "type": "string"
        },
        {
          "name": "snapshotBlock",
          "type": "uint256"
        }
      ],
      "name": "createCloneToken",
      "outputs": [],
      "payable": false,
      "stateMutability": "nonpayable",
      "type": "function"
    },
    {
      "constant": false,
      "inputs": [
        {
          "name": "_owner",
          "type": "address"
        }
      ],
      "name": "proxyPayment",
      "outputs": [
        {
          "name": "",
          "type": "bool"
        }
      ],
      "payable": true,
      "stateMutability": "payable",
      "type": "function"
    },
    {
      "constant": false,
      "inputs": [
        {
          "name": "_from",
          "type": "address"
        },
        {
          "name": "_to",
          "type": "address"
        },
        {
          "name": "_amount",
          "type": "uint256"
        }
      ],
      "name": "onTransfer",
      "outputs": [
        {
          "name": "",
          "type": "bool"
        }
      ],
      "payable": false,
      "stateMutability": "nonpayable",
      "type": "function"
    },
    {
      "constant": false,
      "inputs": [
        {
          "name": "_owner",
          "type": "address"
        },
        {
          "name": "_spender",
          "type": "address"
        },
        {
          "name": "_amount",
          "type": "uint256"
        }
      ],
      "name": "onApprove",
      "outputs": [
        {
          "name": "",
          "type": "bool"
        }
      ],
      "payable": false,
      "stateMutability": "nonpayable",
      "type": "function"
    }
  ],
  "bytecode": "0x608060405234801561001057600080fd5b50336000806101000a81548173ffffffffffffffffffffffffffffffffffffffff021916908373ffffffffffffffffffffffffffffffffffffffff16021790555043600281905550612b86806100676000396000f3fe6080604052600436106101c25760003560e01c80637db2d746116100f7578063cb29b1c511610095578063f48c305411610064578063f48c305414610a1a578063f8419ed014610a76578063f8e157ea14610bff578063fe3636f014610c56576101c2565b8063cb29b1c5146108d0578063da682aeb1461091f578063e2e7afa3146109b2578063f2fde38b146109c9576101c2565b8063918e2de1116100d1578063918e2de11461075a5780639bc40c4c146107a9578063c45a0155146107d4578063c502f1621461082b576101c2565b80637db2d7461461069d57806388500bb6146106c85780638da5cb5b14610703576101c2565b80632c159a1a116101645780634a3931491161013e5780634a393149146105635780635d5bf178146105f6578063661c0c2514610647578063718bf49c14610672576101c2565b80632c159a1a146104a65780634253cba6146104fd57806342966c6814610528576101c2565b80631088e619116101a05780631088e619146103215780631ed83fd41461035c57806320f517071461042457806326f2d67d1461047b576101c2565b806309bd5a60146101c75780630b04a16e146102575780630e039916146102a6575b600080fd5b3480156101d357600080fd5b506101dc610cc2565b6040518080602001828103825283818151815260200191508051906020019080838360005b8381101561021c578082015181840152602081019050610201565b50505050905090810190601f1680156102495780820380516001836020036101000a031916815260200191505b509250505060405180910390f35b34801561026357600080fd5b506102906004803603602081101561027a57600080fd5b8101908080359060200190929190505050610d60565b6040518082815260200191505060405180910390f35b3480156102b257600080fd5b506102df600480360360208110156102c957600080fd5b8101908080359060200190929190505050610ef0565b604051808273ffffffffffffffffffffffffffffffffffffffff1673ffffffffffffffffffffffffffffffffffffffff16815260200191505060405180910390f35b34801561032d57600080fd5b5061035a6004803603602081101561034457600080fd5b8101908080359060200190929190505050610f2c565b005b34801561036857600080fd5b506104226004803603602081101561037f57600080fd5b810190808035906020019064010000000081111561039c57600080fd5b8201836020820111156103ae57600080fd5b803590602001918460018302840111640100000000831117156103d057600080fd5b91908080601f016020809104026020016040519081016040528093929190818152602001838380828437600081840152601f19601f8201169050808301925050505050505091929192905050506113b2565b005b34801561043057600080fd5b5061043961152a565b604051808273ffffffffffffffffffffffffffffffffffffffff1673ffffffffffffffffffffffffffffffffffffffff16815260200191505060405180910390f35b34801561048757600080fd5b50610490611550565b6040518082815260200191505060405180910390f35b3480156104b257600080fd5b506104bb611556565b604051808273ffffffffffffffffffffffffffffffffffffffff1673ffffffffffffffffffffffffffffffffffffffff16815260200191505060405180910390f35b34801561050957600080fd5b5061051261157c565b6040518082815260200191505060405180910390f35b34801561053457600080fd5b506105616004803603602081101561054b57600080fd5b8101908080359060200190929190505050611589565b005b34801561056f57600080fd5b506105dc6004803603606081101561058657600080fd5b81019080803573ffffffffffffffffffffffffffffffffffffffff169060200190929190803573ffffffffffffffffffffffffffffffffffffffff1690602001909291908035906020019092919050505061176d565b604051808215151515815260200191505060405180910390f35b34801561060257600080fd5b506106456004803603602081101561061957600080fd5b81019080803573ffffffffffffffffffffffffffffffffffffffff1690602001909291905050506117ef565b005b34801561065357600080fd5b5061065c611958565b6040518082815260200191505060405180910390f35b34801561067e57600080fd5b5061068761195e565b6040518082815260200191505060405180910390f35b3480156106a957600080fd5b506106b2611964565b6040518082815260200191505060405180910390f35b3480156106d457600080fd5b50610701600480360360208110156106eb57600080fd5b810190808035906020019092919050505061196a565b005b34801561070f57600080fd5b50610718611c9a565b604051808273ffffffffffffffffffffffffffffffffffffffff1673ffffffffffffffffffffffffffffffffffffffff16815260200191505060405180910390f35b34801561076657600080fd5b506107936004803603602081101561077d57600080fd5b8101908080359060200190929190505050611cbf565b6040518082815260200191505060405180910390f35b3480156107b557600080fd5b506107be611e4f565b6040518082815260200191505060405180910390f35b3480156107e057600080fd5b506107e9611e55565b604051808273ffffffffffffffffffffffffffffffffffffffff1673ffffffffffffffffffffffffffffffffffffffff16815260200191505060405180910390f35b34801561083757600080fd5b506108ce600480360360a081101561084e57600080fd5b81019080803573ffffffffffffffffffffffffffffffffffffffff169060200190929190803573ffffffffffffffffffffffffffffffffffffffff169060200190929190803573ffffffffffffffffffffffffffffffffffffffff1690602001909291908035906020019092919080359060200190929190505050611e7b565b005b3480156108dc57600080fd5b50610909600480360360208110156108f357600080fd5b8101908080359060200190929190505050612258565b6040518082815260200191505060405180910390f35b34801561092b57600080fd5b506109986004803603606081101561094257600080fd5b81019080803573ffffffffffffffffffffffffffffffffffffffff169060200190929190803573ffffffffffffffffffffffffffffffffffffffff16906020019092919080359060200190929190505050612279565b604051808215151515815260200191505060405180910390f35b3480156109be57600080fd5b506109c7612286565b005b3480156109d557600080fd5b50610a18600480360360208110156109ec57600080fd5b81019080803573ffffffffffffffffffffffffffffffffffffffff1690602001909291905050506125db565b005b610a5c60048036036020811015610a3057600080fd5b81019080803573ffffffffffffffffffffffffffffffffffffffff1690602001909291905050506126e0565b604051808215151515815260200191505060405180910390f35b348015610a8257600080fd5b50610bfd60048036036080811015610a9957600080fd5b81019080803573ffffffffffffffffffffffffffffffffffffffff16906020019092919080359060200190640100000000811115610ad657600080fd5b820183602082011115610ae857600080fd5b80359060200191846001830284011164010000000083111715610b0a57600080fd5b91908080601f016020809104026020016040519081016040528093929190818152602001838380828437600081840152601f19601f82011690508083019250505050505050919291929080359060200190640100000000811115610b6d57600080fd5b820183602082011115610b7f57600080fd5b80359060200191846001830284011164010000000083111715610ba157600080fd5b91908080601f016020809104026020016040519081016040528093929190818152602001838380828437600081840152601f19601f820116905080830192505050505050509192919290803590602001909291905050506126ea565b005b348015610c0b57600080fd5b50610c14612a01565b604051808273ffffffffffffffffffffffffffffffffffffffff1673ffffffffffffffffffffffffffffffffffffffff16815260200191505060405180910390f35b348015610c6257600080fd5b50610c6b612a27565b6040518080602001828103825283818151815260200191508051906020019060200280838360005b83811015610cae578082015181840152602081019050610c93565b505050509050019250505060405180910390f35b600b8054600181600116156101000203166002900480601f016020809104026020016040519081016040528092919081815260200182805460018160011615610100020316600290048015610d585780601f10610d2d57610100808354040283529160200191610d58565b820191906000526020600020905b815481529060010190602001808311610d3b57829003601f168201915b505050505081565b6000600360009054906101000a900473ffffffffffffffffffffffffffffffffffffffff1673ffffffffffffffffffffffffffffffffffffffff166370a08231306040518263ffffffff1660e01b8152600401808273ffffffffffffffffffffffffffffffffffffffff1673ffffffffffffffffffffffffffffffffffffffff16815260200191505060206040518083038186803b158015610e0157600080fd5b505afa158015610e15573d6000803e3d6000fd5b505050506040513d6020811015610e2b57600080fd5b810190808051906020019092919050505082600460009054906101000a900473ffffffffffffffffffffffffffffffffffffffff1673ffffffffffffffffffffffffffffffffffffffff166318160ddd6040518163ffffffff1660e01b815260040160206040518083038186803b158015610ea557600080fd5b505afa158015610eb9573d6000803e3d6000fd5b505050506040513d6020811015610ecf57600080fd5b81019080805190602001909291905050500281610ee857fe5b049050919050565b60088181548110610efd57fe5b906000526020600020016000915054906101000a900473ffffffffffffffffffffffffffffffffffffffff1681565b6000600460009054906101000a900473ffffffffffffffffffffffffffffffffffffffff1673ffffffffffffffffffffffffffffffffffffffff166318160ddd6040518163ffffffff1660e01b815260040160206040518083038186803b158015610f9657600080fd5b505afa158015610faa573d6000803e3d6000fd5b505050506040513d6020811015610fc057600080fd5b81019080805190602001909291905050506005540390506000610fe283610d60565b90508082101561105a576040517f08c379a00000000000000000000000000000000000000000000000000000000081526004018080602001828103825260168152602001807f696e76616c6964207265736572766520616d6f756e740000000000000000000081525060200191505060405180910390fd5b600360009054906101000a900473ffffffffffffffffffffffffffffffffffffffff1673ffffffffffffffffffffffffffffffffffffffff166323b872dd3330866040518463ffffffff1660e01b8152600401808473ffffffffffffffffffffffffffffffffffffffff1673ffffffffffffffffffffffffffffffffffffffff1681526020018373ffffffffffffffffffffffffffffffffffffffff1673ffffffffffffffffffffffffffffffffffffffff1681526020018281526020019350505050602060405180830381600087803b15801561113757600080fd5b505af115801561114b573d6000803e3d6000fd5b505050506040513d602081101561116157600080fd5b81019080805190602001909291905050506111e4576040517f08c379a00000000000000000000000000000000000000000000000000000000081526004018080602001828103825260128152602001807f6661696c656420746f207472616e73666572000000000000000000000000000081525060200191505060405180910390fd5b600460009054906101000a900473ffffffffffffffffffffffffffffffffffffffff1673ffffffffffffffffffffffffffffffffffffffff1663827f32c033836040518363ffffffff1660e01b8152600401808373ffffffffffffffffffffffffffffffffffffffff1673ffffffffffffffffffffffffffffffffffffffff16815260200182815260200192505050602060405180830381600087803b15801561128d57600080fd5b505af11580156112a1573d6000803e3d6000fd5b505050506040513d60208110156112b757600080fd5b810190808051906020019092919050505061133a576040517f08c379a00000000000000000000000000000000000000000000000000000000081526004018080602001828103825260198152602001807f6661696c656420746f2067656e657261746520746f6b656e730000000000000081525060200191505060405180910390fd5b7f5ec68ddc6aa3847e1263b730b3ba08d3948300066a5c6e1244390d1b3c49e03f338483604051808473ffffffffffffffffffffffffffffffffffffffff1673ffffffffffffffffffffffffffffffffffffffff168152602001838152602001828152602001935050505060405180910390a1505050565b6000809054906101000a900473ffffffffffffffffffffffffffffffffffffffff1673ffffffffffffffffffffffffffffffffffffffff163373ffffffffffffffffffffffffffffffffffffffff1614611474576040517f08c379a00000000000000000000000000000000000000000000000000000000081526004018080602001828103825260178152602001807f6d73672073656e646572206973206e6f74206f776e657200000000000000000081525060200191505060405180910390fd5b80600b908051906020019061148a929190612ab5565b507f24d202c58a9b65cd3e7ca3b0617c3ca86678860163d898db9d5da4435b3acab7816040518080602001828103825283818151815260200191508051906020019080838360005b838110156114ed5780820151818401526020810190506114d2565b50505050905090810190601f16801561151a5780820380516001836020036101000a031916815260200191505b509250505060405180910390a150565b600360009054906101000a900473ffffffffffffffffffffffffffffffffffffffff1681565b600a5481565b600760009054906101000a900473ffffffffffffffffffffffffffffffffffffffff1681565b6000600880549050905090565b600460009054906101000a900473ffffffffffffffffffffffffffffffffffffffff1673ffffffffffffffffffffffffffffffffffffffff1663d3ce77fe33836040518363ffffffff1660e01b8152600401808373ffffffffffffffffffffffffffffffffffffffff1673ffffffffffffffffffffffffffffffffffffffff16815260200182815260200192505050602060405180830381600087803b15801561163257600080fd5b505af1158015611646573d6000803e3d6000fd5b505050506040513d602081101561165c57600080fd5b81019080805190602001909291905050506116df576040517f08c379a00000000000000000000000000000000000000000000000000000000081526004018080602001828103825260158152602001807f6661696c656420746f206275726e20746f6b656e73000000000000000000000081525060200191505060405180910390fd5b80600560008282540392505081905550806006600082825401925050819055507fc1fa857748d1f74a939a783f0c9da4b72454f85826975cafa980d493c8f410793382604051808373ffffffffffffffffffffffffffffffffffffffff1673ffffffffffffffffffffffffffffffffffffffff1681526020018281526020019250505060405180910390a150565b60003073ffffffffffffffffffffffffffffffffffffffff168373ffffffffffffffffffffffffffffffffffffffff1614806117d55750600073ffffffffffffffffffffffffffffffffffffffff168373ffffffffffffffffffffffffffffffffffffffff16145b156117e357600090506117e8565b600190505b9392505050565b6000809054906101000a900473ffffffffffffffffffffffffffffffffffffffff1673ffffffffffffffffffffffffffffffffffffffff163373ffffffffffffffffffffffffffffffffffffffff16146118b1576040517f08c379a00000000000000000000000000000000000000000000000000000000081526004018080602001828103825260178152602001807f6d73672073656e646572206973206e6f74206f776e657200000000000000000081525060200191505060405180910390fd5b80600760006101000a81548173ffffffffffffffffffffffffffffffffffffffff021916908373ffffffffffffffffffffffffffffffffffffffff1602179055507f408130eee513afc67d907eb4d5a7e2d21771fa2bdefddc1f71746cab4dd19d9d81604051808273ffffffffffffffffffffffffffffffffffffffff1673ffffffffffffffffffffffffffffffffffffffff16815260200191505060405180910390a150565b60065481565b60095481565b60055481565b600061197582611cbf565b9050600460009054906101000a900473ffffffffffffffffffffffffffffffffffffffff1673ffffffffffffffffffffffffffffffffffffffff1663d3ce77fe33846040518363ffffffff1660e01b8152600401808373ffffffffffffffffffffffffffffffffffffffff1673ffffffffffffffffffffffffffffffffffffffff16815260200182815260200192505050602060405180830381600087803b158015611a2057600080fd5b505af1158015611a34573d6000803e3d6000fd5b505050506040513d6020811015611a4a57600080fd5b8101908080519060200190929190505050611acd576040517f08c379a00000000000000000000000000000000000000000000000000000000081526004018080602001828103825260188152602001807f6661696c656420746f2064657374726f7920746f6b656e73000000000000000081525060200191505060405180910390fd5b600360009054906101000a900473ffffffffffffffffffffffffffffffffffffffff1673ffffffffffffffffffffffffffffffffffffffff1663a9059cbb33836040518363ffffffff1660e01b8152600401808373ffffffffffffffffffffffffffffffffffffffff1673ffffffffffffffffffffffffffffffffffffffff16815260200182815260200192505050602060405180830381600087803b158015611b7657600080fd5b505af1158015611b8a573d6000803e3d6000fd5b505050506040513d6020811015611ba057600080fd5b8101908080519060200190929190505050611c23576040517f08c379a00000000000000000000000000000000000000000000000000000000081526004018080602001828103825260128152602001807f6661696c656420746f207472616e73666572000000000000000000000000000081525060200191505060405180910390fd5b7f62220da60faf5ba9c124c92fe9c5a5445ea30cbeba11232a663be04be43dd88a338383604051808473ffffffffffffffffffffffffffffffffffffffff1673ffffffffffffffffffffffffffffffffffffffff168152602001838152602001828152602001935050505060405180910390a15050565b6000809054906101000a900473ffffffffffffffffffffffffffffffffffffffff1681565b6000600460009054906101000a900473ffffffffffffffffffffffffffffffffffffffff1673ffffffffffffffffffffffffffffffffffffffff166318160ddd6040518163ffffffff1660e01b815260040160206040518083038186803b158015611d2957600080fd5b505afa158015611d3d573d6000803e3d6000fd5b505050506040513d6020811015611d5357600080fd5b810190808051906020019092919050505082600360009054906101000a900473ffffffffffffffffffffffffffffffffffffffff1673ffffffffffffffffffffffffffffffffffffffff166370a08231306040518263ffffffff1660e01b8152600401808273ffffffffffffffffffffffffffffffffffffffff1673ffffffffffffffffffffffffffffffffffffffff16815260200191505060206040518083038186803b158015611e0457600080fd5b505afa158015611e18573d6000803e3d6000fd5b505050506040513d6020811015611e2e57600080fd5b81019080805190602001909291905050500281611e4757fe5b049050919050565b60025481565b600160009054906101000a900473ffffffffffffffffffffffffffffffffffffffff1681565b600060025414611ef3576040517f08c379a000000000000000000000000000000000000000000000000000000000815260040180806020018281038252601c8152602001807f636f6e747261637420616c726561647920696e697469616c697a65640000000081525060200191505060405180910390fd5b428212611f68576040517f08c379a00000000000000000000000000000000000000000000000000000000081526004018080602001828103825260178152602001807f696e76616c69642062697274682074696d657374616d7000000000000000000081525060200191505060405180910390fd5b4360028190555033600160006101000a81548173ffffffffffffffffffffffffffffffffffffffff021916908373ffffffffffffffffffffffffffffffffffffffff160217905550846000806101000a81548173ffffffffffffffffffffffffffffffffffffffff021916908373ffffffffffffffffffffffffffffffffffffffff16021790555084600760006101000a81548173ffffffffffffffffffffffffffffffffffffffff021916908373ffffffffffffffffffffffffffffffffffffffff16021790555083600460006101000a81548173ffffffffffffffffffffffffffffffffffffffff021916908373ffffffffffffffffffffffffffffffffffffffff16021790555082600360006101000a81548173ffffffffffffffffffffffffffffffffffffffff021916908373ffffffffffffffffffffffffffffffffffffffff160217905550816009819055506000600954420390506120cc81612258565b60058190555042600a81905550600460009054906101000a900473ffffffffffffffffffffffffffffffffffffffff1673ffffffffffffffffffffffffffffffffffffffff1663827f32c06000809054906101000a900473ffffffffffffffffffffffffffffffffffffffff16846040518363ffffffff1660e01b8152600401808373ffffffffffffffffffffffffffffffffffffffff1673ffffffffffffffffffffffffffffffffffffffff16815260200182815260200192505050602060405180830381600087803b1580156121a357600080fd5b505af11580156121b7573d6000803e3d6000fd5b505050506040513d60208110156121cd57600080fd5b8101908080519060200190929190505050612250576040517f08c379a00000000000000000000000000000000000000000000000000000000081526004018080602001828103825260198152602001807f6661696c656420746f2067656e657261746520746f6b656e730000000000000081525060200191505060405180910390fd5b505050505050565b600060a86028670de0b6b3a76400008402028161227157fe5b049050919050565b6000600190509392505050565b6000809054906101000a900473ffffffffffffffffffffffffffffffffffffffff1673ffffffffffffffffffffffffffffffffffffffff163373ffffffffffffffffffffffffffffffffffffffff1614612348576040517f08c379a00000000000000000000000000000000000000000000000000000000081526004018080602001828103825260178152602001807f6d73672073656e646572206973206e6f74206f776e657200000000000000000081525060200191505060405180910390fd5b6000600a5442039050600061235c82612258565b90506000600554600460009054906101000a900473ffffffffffffffffffffffffffffffffffffffff1673ffffffffffffffffffffffffffffffffffffffff166318160ddd6040518163ffffffff1660e01b815260040160206040518083038186803b1580156123cb57600080fd5b505afa1580156123df573d6000803e3d6000fd5b505050506040513d60208110156123f557600080fd5b810190808051906020019092919050505083028161240f57fe5b049050600061241d82611cbf565b9050600360009054906101000a900473ffffffffffffffffffffffffffffffffffffffff1673ffffffffffffffffffffffffffffffffffffffff1663a9059cbb6000809054906101000a900473ffffffffffffffffffffffffffffffffffffffff16836040518363ffffffff1660e01b8152600401808373ffffffffffffffffffffffffffffffffffffffff1673ffffffffffffffffffffffffffffffffffffffff16815260200182815260200192505050602060405180830381600087803b1580156124e957600080fd5b505af11580156124fd573d6000803e3d6000fd5b505050506040513d602081101561251357600080fd5b8101908080519060200190929190505050612596576040517f08c379a00000000000000000000000000000000000000000000000000000000081526004018080602001828103825260128152602001807f6661696c656420746f207472616e73666572000000000000000000000000000081525060200191505060405180910390fd5b7fda62416fb309d8ec4a95a579d149a4fac9821f7296d7d05c77fb6a8e96c069e98282604051808381526020018281526020019250505060405180910390a150505050565b6000809054906101000a900473ffffffffffffffffffffffffffffffffffffffff1673ffffffffffffffffffffffffffffffffffffffff163373ffffffffffffffffffffffffffffffffffffffff161461269d576040517f08c379a00000000000000000000000000000000000000000000000000000000081526004018080602001828103825260178152602001807f6d73672073656e646572206973206e6f74206f776e657200000000000000000081525060200191505060405180910390fd5b806000806101000a81548173ffffffffffffffffffffffffffffffffffffffff021916908373ffffffffffffffffffffffffffffffffffffffff16021790555050565b6000809050919050565b6000809054906101000a900473ffffffffffffffffffffffffffffffffffffffff1673ffffffffffffffffffffffffffffffffffffffff163373ffffffffffffffffffffffffffffffffffffffff16146127ac576040517f08c379a00000000000000000000000000000000000000000000000000000000081526004018080602001828103825260178152602001807f6d73672073656e646572206973206e6f74206f776e657200000000000000000081525060200191505060405180910390fd5b60008473ffffffffffffffffffffffffffffffffffffffff16636638c087856012868660016040518663ffffffff1660e01b815260040180806020018660ff1681526020018060200185815260200184151515158152602001838103835288818151815260200191508051906020019080838360005b8381101561283d578082015181840152602081019050612822565b50505050905090810190601f16801561286a5780820380516001836020036101000a031916815260200191505b50838103825286818151815260200191508051906020019080838360005b838110156128a3578082015181840152602081019050612888565b50505050905090810190601f1680156128d05780820380516001836020036101000a031916815260200191505b50975050505050505050602060405180830381600087803b1580156128f457600080fd5b505af1158015612908573d6000803e3d6000fd5b505050506040513d602081101561291e57600080fd5b8101908080519060200190929190505050905060088190806001815401808255809150509060018203906000526020600020016000909192909190916101000a81548173ffffffffffffffffffffffffffffffffffffffff021916908373ffffffffffffffffffffffffffffffffffffffff160217905550507fe931f3c3a4cdad0205732fe3b173cb0a468091c05c08e5f1b816e38ef03ebad081604051808273ffffffffffffffffffffffffffffffffffffffff1673ffffffffffffffffffffffffffffffffffffffff16815260200191505060405180910390a15050505050565b600460009054906101000a900473ffffffffffffffffffffffffffffffffffffffff1681565b60606008805480602002602001604051908101604052809291908181526020018280548015612aab57602002820191906000526020600020905b8160009054906101000a900473ffffffffffffffffffffffffffffffffffffffff1673ffffffffffffffffffffffffffffffffffffffff1681526020019060010190808311612a61575b5050505050905090565b828054600181600116156101000203166002900490600052602060002090601f016020900481019282601f10612af657805160ff1916838001178555612b24565b82800160010185558215612b24579182015b82811115612b23578251825591602001919060010190612b08565b5b509050612b319190612b35565b5090565b612b5791905b80821115612b53576000816000905550600101612b3b565b5090565b9056fea165627a7a7230582071d6246ae03f0e5ecf798ee9bd4132387ad592c2e3fd42c7752a3f3af7aa51800029",
  "source": "pragma solidity ^0.5.0;\n\nimport \"./external/MiniMeToken.sol\";\nimport \"./external/ERC20.sol\";\nimport \"./external/Owned.sol\";\n\n/**\n    The goal of this contract is to allow investing directly in the value of a person.\n    1. Investors convert a reserve token into time tokens up to a maximum based on age\n    2. The reserve token (dai) provides a price floor on the value of the person's time\n    3. The owner can generate a set amount of tokens over time as compensation for work done\n    4. At any point, a person can convert their time tokens back into what remains of their\n        share of the reseerve tokens.\n**/\ncontract MeDao is Owned, TokenController {\n\n    address public factory;         // The factory that deployed this contract\n    uint public blockInitialized;   // The block this contract was initialized\n\n    ERC20 public Dai;               // A reserve currency to hold the value of a person\n    MiniMeToken public Time;        // A cloneable token that represents the value of a person\n    uint public maxTimeSupply;      // The maximum amount of time that can be created\n    uint public burnedTimeSupply;   // The total amount of time burned by this contract\n\n    address public identity;        // The account associated with this medao\n    address[] public clones;        // A list of clones created by the owner\n    int public birthTimestamp;      // The Unix timestamp of the birth date of\n    uint public lastPayTimestamp;   // The last time the owner collected a paycheck\n\n    string public hash;             // The hash of any relevant data about this medao\n\n    constructor () public {\n        // ensures the blueprint provided to the factory cannot be initialized\n        blockInitialized = block.number;\n    }\n\n    function initialize (\n        address _owner,\n        MiniMeToken _Time,\n        ERC20 _Dai,\n        int _birthTimestamp,\n        uint _initialTimeBalance\n    ) public {\n        require(blockInitialized == 0, 'contract already initialized');\n        require(_birthTimestamp < int(now), 'invalid birth timestamp');\n\n        blockInitialized = block.number;\n        factory = msg.sender;\n\n        owner = _owner;\n        identity = _owner;\n        Time = _Time;\n        Dai = _Dai;\n        birthTimestamp = _birthTimestamp;\n\n        uint elapsedSeconds = uint(int(now) - birthTimestamp);\n        maxTimeSupply = calculateWorkTime(elapsedSeconds);\n        lastPayTimestamp = now;\n\n        require(Time.generateTokens(owner, _initialTimeBalance), \"failed to generate tokens\");\n    }\n\n    function getClones () public view returns (address[] memory) {\n        return clones;\n    }\n\n    function getTotalClones () public view returns (uint) {\n        return clones.length;\n    }\n\n    function calculateTimeClaim (uint daiAmount) public view returns (uint) {\n        return Time.totalSupply() * daiAmount / Dai.balanceOf(address(this));\n    }\n\n    function calculateDaiClaim (uint timeAmount) public view returns (uint) {\n        return Dai.balanceOf(address(this)) * timeAmount / Time.totalSupply();\n    }\n\n    function calculateWorkTime (uint elapsedSeconds) public pure returns (uint) {\n        return elapsedSeconds * 1 ether * 40 / 168;\n    }\n\n    function collectPaycheck () public onlyOwner {\n        uint elapsedSeconds = now - lastPayTimestamp;\n        uint workTime = calculateWorkTime(elapsedSeconds);\n        uint fundedTime = workTime * Time.totalSupply() / maxTimeSupply;\n        uint daiClaim = calculateDaiClaim(fundedTime);\n        require(Dai.transfer(owner, daiClaim), 'failed to transfer');\n        emit Pay_event(fundedTime, daiClaim);\n    }\n\n    function convertDai (uint daiAmount) public {\n        uint availableSeconds = maxTimeSupply - Time.totalSupply();\n        uint claimedTime = calculateTimeClaim(daiAmount);\n        require(availableSeconds >= claimedTime, \"invalid reserve amount\");\n        require(Dai.transferFrom(msg.sender, address(this), daiAmount), \"failed to transfer\");\n        require(Time.generateTokens(msg.sender, claimedTime), \"failed to generate tokens\");\n        emit ConvertDai_event(msg.sender, daiAmount, claimedTime);\n    }\n\n    function convertTime (uint timeAmount) public {\n        uint daiClaim = calculateDaiClaim(timeAmount);\n        require(Time.destroyTokens(msg.sender, timeAmount), \"failed to destroy tokens\");\n        require(Dai.transfer(msg.sender, daiClaim), \"failed to transfer\");\n        emit ConvertTime_event(msg.sender, timeAmount, daiClaim);\n    }\n\n    function burn (uint timeAmount) public {\n        require(Time.destroyTokens(msg.sender, timeAmount), \"failed to burn tokens\");\n        maxTimeSupply -= timeAmount;\n        burnedTimeSupply += timeAmount;\n        emit Burn_event(msg.sender, timeAmount);\n    }\n\n    function setHash (string memory newHash) public onlyOwner {\n        hash = newHash;\n        emit NewHash_event(newHash);\n    }\n\n    function setIdentity (address newIdentity) public onlyOwner {\n        identity = newIdentity;\n        emit NewIdentity_event(newIdentity);\n    }\n\n    function createCloneToken (\n        MiniMeToken cloneableToken,\n        string memory tokenName,\n        string memory tokenSymbol,\n        uint snapshotBlock\n    ) public onlyOwner {\n        address token = cloneableToken.createCloneToken(\n            tokenName,\n            18,\n            tokenSymbol,\n            snapshotBlock,\n            true\n        );\n\n        clones.push(token);\n        emit Clone_event(token);\n    }\n\n    event Pay_event (uint timeAmount, uint daiAmount);\n    event Clone_event (address token);\n    event ConvertDai_event (address msgSender, uint daiAmount, uint timeAmount);\n    event ConvertTime_event (address msgSender, uint timeAmount, uint daiAmount);\n    event Burn_event (address msgSender, uint timeAmount);\n    event NewHash_event (string newHash);\n    event NewIdentity_event (address newIdentity);\n\n/// Token Controller Functions\n\n    function proxyPayment (address _owner) public payable returns(bool) {\n        _owner;\n        return false;\n    }\n\n    function onTransfer (address _from, address _to, uint _amount) public returns(bool) {\n        _from; _amount;\n        if(_to == address(this) || _to == address(0x0))\n            return false;\n\n        return true;\n    }\n\n    function onApprove (address _owner, address _spender, uint _amount) public returns(bool) {\n        _owner; _spender; _amount;\n        return true;\n    }\n\n}\n",
  "sourcePath": "/home/joe/Documents/github/chicobitcoinjoe/medao/contracts/MeDao.sol",
  "compiler": {
    "name": "solc",
    "version": "0.5.8+commit.23d335f2.Emscripten.clang"
  },
  "schemaVersion": "3.0.11",
  "updatedAt": "2019-08-03T04:37:49.316Z",
  "devdoc": {
    "methods": {}
  },
  "userdoc": {
    "methods": {
      "proxyPayment(address)": {
        "notice": "Token Controller Functions"
      }
    },
    "notice": "The goal of this contract is to allow investing directly in the value of a person. 1. Investors convert a reserve token into time tokens up to a maximum based on age 2. The reserve token (dai) provides a price floor on the value of the person's time 3. The owner can generate a set amount of tokens over time as compensation for work done 4. At any point, a person can convert their time tokens back into what remains of their share of the reseerve tokens.*"
  }
}