{
  "contractName": "MeDao",
  "abi": [
    {
      "constant": true,
      "inputs": [],
      "name": "hash",
      "outputs": [
        {
          "name": "",
          "type": "string"
        }
      ],
      "payable": false,
      "stateMutability": "view",
      "type": "function"
    },
    {
      "constant": true,
      "inputs": [],
      "name": "lastPayTimestamp",
      "outputs": [
        {
          "name": "",
          "type": "uint256"
        }
      ],
      "payable": false,
      "stateMutability": "view",
      "type": "function"
    },
    {
      "constant": true,
      "inputs": [],
      "name": "identity",
      "outputs": [
        {
          "name": "",
          "type": "address"
        }
      ],
      "payable": false,
      "stateMutability": "view",
      "type": "function"
    },
    {
      "constant": true,
      "inputs": [],
      "name": "maxTokenSupply",
      "outputs": [
        {
          "name": "",
          "type": "uint256"
        }
      ],
      "payable": false,
      "stateMutability": "view",
      "type": "function"
    },
    {
      "constant": true,
      "inputs": [],
      "name": "birthTimestamp",
      "outputs": [
        {
          "name": "",
          "type": "int256"
        }
      ],
      "payable": false,
      "stateMutability": "view",
      "type": "function"
    },
    {
      "constant": true,
      "inputs": [],
      "name": "owner",
      "outputs": [
        {
          "name": "",
          "type": "address"
        }
      ],
      "payable": false,
      "stateMutability": "view",
      "type": "function"
    },
    {
      "constant": true,
      "inputs": [],
      "name": "blockInitialized",
      "outputs": [
        {
          "name": "",
          "type": "uint256"
        }
      ],
      "payable": false,
      "stateMutability": "view",
      "type": "function"
    },
    {
      "constant": true,
      "inputs": [],
      "name": "factory",
      "outputs": [
        {
          "name": "",
          "type": "address"
        }
      ],
      "payable": false,
      "stateMutability": "view",
      "type": "function"
    },
    {
      "constant": true,
      "inputs": [],
      "name": "timeToken",
      "outputs": [
        {
          "name": "",
          "type": "address"
        }
      ],
      "payable": false,
      "stateMutability": "view",
      "type": "function"
    },
    {
      "constant": false,
      "inputs": [
        {
          "name": "newOwner",
          "type": "address"
        }
      ],
      "name": "transferOwnership",
      "outputs": [],
      "payable": false,
      "stateMutability": "nonpayable",
      "type": "function"
    },
    {
      "constant": true,
      "inputs": [],
      "name": "reserveToken",
      "outputs": [
        {
          "name": "",
          "type": "address"
        }
      ],
      "payable": false,
      "stateMutability": "view",
      "type": "function"
    },
    {
      "inputs": [],
      "payable": false,
      "stateMutability": "nonpayable",
      "type": "constructor"
    },
    {
      "anonymous": false,
      "inputs": [
        {
          "indexed": false,
          "name": "tokenAmount",
          "type": "uint256"
        }
      ],
      "name": "Pay_event",
      "type": "event"
    },
    {
      "anonymous": false,
      "inputs": [
        {
          "indexed": false,
          "name": "msgSender",
          "type": "address"
        },
        {
          "indexed": false,
          "name": "reserveAmount",
          "type": "uint256"
        },
        {
          "indexed": false,
          "name": "tokenAmount",
          "type": "uint256"
        }
      ],
      "name": "Deposit_event",
      "type": "event"
    },
    {
      "anonymous": false,
      "inputs": [
        {
          "indexed": false,
          "name": "msgSender",
          "type": "address"
        },
        {
          "indexed": false,
          "name": "tokenAmount",
          "type": "uint256"
        },
        {
          "indexed": false,
          "name": "reserveAmount",
          "type": "uint256"
        }
      ],
      "name": "Withdraw_event",
      "type": "event"
    },
    {
      "anonymous": false,
      "inputs": [
        {
          "indexed": false,
          "name": "msgSender",
          "type": "address"
        },
        {
          "indexed": false,
          "name": "tokenAmount",
          "type": "uint256"
        }
      ],
      "name": "Burn_event",
      "type": "event"
    },
    {
      "anonymous": false,
      "inputs": [
        {
          "indexed": false,
          "name": "newHash",
          "type": "string"
        }
      ],
      "name": "NewHash_event",
      "type": "event"
    },
    {
      "anonymous": false,
      "inputs": [
        {
          "indexed": false,
          "name": "newIdentity",
          "type": "address"
        }
      ],
      "name": "NewIdentity_event",
      "type": "event"
    },
    {
      "constant": false,
      "inputs": [
        {
          "name": "_owner",
          "type": "address"
        },
        {
          "name": "_timeToken",
          "type": "address"
        },
        {
          "name": "_reserveToken",
          "type": "address"
        },
        {
          "name": "_birthTimestamp",
          "type": "int256"
        },
        {
          "name": "_tokenClaim",
          "type": "uint256"
        }
      ],
      "name": "initialize",
      "outputs": [],
      "payable": false,
      "stateMutability": "nonpayable",
      "type": "function"
    },
    {
      "constant": true,
      "inputs": [
        {
          "name": "reserveAmount",
          "type": "uint256"
        }
      ],
      "name": "calculateTokenClaim",
      "outputs": [
        {
          "name": "",
          "type": "uint256"
        }
      ],
      "payable": false,
      "stateMutability": "view",
      "type": "function"
    },
    {
      "constant": true,
      "inputs": [
        {
          "name": "tokenAmount",
          "type": "uint256"
        }
      ],
      "name": "calculateReserveClaim",
      "outputs": [
        {
          "name": "",
          "type": "uint256"
        }
      ],
      "payable": false,
      "stateMutability": "view",
      "type": "function"
    },
    {
      "constant": true,
      "inputs": [
        {
          "name": "elapsedSeconds",
          "type": "uint256"
        }
      ],
      "name": "calculateWorkTime",
      "outputs": [
        {
          "name": "",
          "type": "uint256"
        }
      ],
      "payable": false,
      "stateMutability": "pure",
      "type": "function"
    },
    {
      "constant": false,
      "inputs": [],
      "name": "pay",
      "outputs": [],
      "payable": false,
      "stateMutability": "nonpayable",
      "type": "function"
    },
    {
      "constant": false,
      "inputs": [
        {
          "name": "reserveAmount",
          "type": "uint256"
        }
      ],
      "name": "deposit",
      "outputs": [],
      "payable": false,
      "stateMutability": "nonpayable",
      "type": "function"
    },
    {
      "constant": false,
      "inputs": [
        {
          "name": "tokenAmount",
          "type": "uint256"
        }
      ],
      "name": "withdraw",
      "outputs": [],
      "payable": false,
      "stateMutability": "nonpayable",
      "type": "function"
    },
    {
      "constant": false,
      "inputs": [
        {
          "name": "tokenAmount",
          "type": "uint256"
        }
      ],
      "name": "burn",
      "outputs": [],
      "payable": false,
      "stateMutability": "nonpayable",
      "type": "function"
    },
    {
      "constant": false,
      "inputs": [
        {
          "name": "newHash",
          "type": "string"
        }
      ],
      "name": "setHash",
      "outputs": [],
      "payable": false,
      "stateMutability": "nonpayable",
      "type": "function"
    },
    {
      "constant": false,
      "inputs": [
        {
          "name": "newIdentity",
          "type": "address"
        }
      ],
      "name": "setIdentity",
      "outputs": [],
      "payable": false,
      "stateMutability": "nonpayable",
      "type": "function"
    },
    {
      "constant": false,
      "inputs": [
        {
          "name": "_owner",
          "type": "address"
        }
      ],
      "name": "proxyPayment",
      "outputs": [
        {
          "name": "",
          "type": "bool"
        }
      ],
      "payable": true,
      "stateMutability": "payable",
      "type": "function"
    },
    {
      "constant": false,
      "inputs": [
        {
          "name": "_from",
          "type": "address"
        },
        {
          "name": "_to",
          "type": "address"
        },
        {
          "name": "_amount",
          "type": "uint256"
        }
      ],
      "name": "onTransfer",
      "outputs": [
        {
          "name": "",
          "type": "bool"
        }
      ],
      "payable": false,
      "stateMutability": "nonpayable",
      "type": "function"
    },
    {
      "constant": false,
      "inputs": [
        {
          "name": "_owner",
          "type": "address"
        },
        {
          "name": "_spender",
          "type": "address"
        },
        {
          "name": "_amount",
          "type": "uint256"
        }
      ],
      "name": "onApprove",
      "outputs": [
        {
          "name": "",
          "type": "bool"
        }
      ],
      "payable": false,
      "stateMutability": "nonpayable",
      "type": "function"
    }
  ],
  "bytecode": "0x608060405234801561001057600080fd5b50336000806101000a81548173ffffffffffffffffffffffffffffffffffffffff021916908373ffffffffffffffffffffffffffffffffffffffff16021790555043600281905550612436806100676000396000f3fe60806040526004361061014b5760003560e01c80639bc40c4c116100b6578063da682aeb1161006f578063da682aeb14610748578063dbadaa5c146107db578063e27af3b91461082a578063f2fde38b14610881578063f4325d67146108d2578063f48c3054146109295761014b565b80639bc40c4c14610548578063b163ecd214610573578063b6b55f25146105c2578063c45a0155146105fd578063c502f16214610654578063cb29b1c5146106f95761014b565b806342966c681161010857806342966c681461037c5780634a393149146103b757806350f7c2041461044a5780635d5bf17814610475578063718bf49c146104c65780638da5cb5b146104f15761014b565b806309bd5a60146101505780631b9265b8146101e05780631ed83fd4146101f757806326f2d67d146102bf5780632c159a1a146102ea5780632e1a7d4d14610341575b600080fd5b34801561015c57600080fd5b50610165610985565b6040518080602001828103825283818151815260200191508051906020019080838360005b838110156101a557808201518184015260208101905061018a565b50505050905090810190601f1680156101d25780820380516001836020036101000a031916815260200191505b509250505060405180910390f35b3480156101ec57600080fd5b506101f5610a23565b005b34801561020357600080fd5b506102bd6004803603602081101561021a57600080fd5b810190808035906020019064010000000081111561023757600080fd5b82018360208201111561024957600080fd5b8035906020019184600183028401116401000000008311171561026b57600080fd5b91908080601f016020809104026020016040519081016040528093929190818152602001838380828437600081840152601f19601f820116905080830192505050505050509192919290505050610d79565b005b3480156102cb57600080fd5b506102d4610ef1565b6040518082815260200191505060405180910390f35b3480156102f657600080fd5b506102ff610ef7565b604051808273ffffffffffffffffffffffffffffffffffffffff1673ffffffffffffffffffffffffffffffffffffffff16815260200191505060405180910390f35b34801561034d57600080fd5b5061037a6004803603602081101561036457600080fd5b8101908080359060200190929190505050610f1d565b005b34801561038857600080fd5b506103b56004803603602081101561039f57600080fd5b810190808035906020019092919050505061124d565b005b3480156103c357600080fd5b50610430600480360360608110156103da57600080fd5b81019080803573ffffffffffffffffffffffffffffffffffffffff169060200190929190803573ffffffffffffffffffffffffffffffffffffffff16906020019092919080359060200190929190505050611411565b604051808215151515815260200191505060405180910390f35b34801561045657600080fd5b5061045f611493565b6040518082815260200191505060405180910390f35b34801561048157600080fd5b506104c46004803603602081101561049857600080fd5b81019080803573ffffffffffffffffffffffffffffffffffffffff169060200190929190505050611499565b005b3480156104d257600080fd5b506104db611602565b6040518082815260200191505060405180910390f35b3480156104fd57600080fd5b50610506611608565b604051808273ffffffffffffffffffffffffffffffffffffffff1673ffffffffffffffffffffffffffffffffffffffff16815260200191505060405180910390f35b34801561055457600080fd5b5061055d61162d565b6040518082815260200191505060405180910390f35b34801561057f57600080fd5b506105ac6004803603602081101561059657600080fd5b8101908080359060200190929190505050611633565b6040518082815260200191505060405180910390f35b3480156105ce57600080fd5b506105fb600480360360208110156105e557600080fd5b81019080803590602001909291905050506117c3565b005b34801561060957600080fd5b50610612611c49565b604051808273ffffffffffffffffffffffffffffffffffffffff1673ffffffffffffffffffffffffffffffffffffffff16815260200191505060405180910390f35b34801561066057600080fd5b506106f7600480360360a081101561067757600080fd5b81019080803573ffffffffffffffffffffffffffffffffffffffff169060200190929190803573ffffffffffffffffffffffffffffffffffffffff169060200190929190803573ffffffffffffffffffffffffffffffffffffffff1690602001909291908035906020019092919080359060200190929190505050611c6f565b005b34801561070557600080fd5b506107326004803603602081101561071c57600080fd5b810190808035906020019092919050505061204c565b6040518082815260200191505060405180910390f35b34801561075457600080fd5b506107c16004803603606081101561076b57600080fd5b81019080803573ffffffffffffffffffffffffffffffffffffffff169060200190929190803573ffffffffffffffffffffffffffffffffffffffff1690602001909291908035906020019092919050505061206d565b604051808215151515815260200191505060405180910390f35b3480156107e757600080fd5b50610814600480360360208110156107fe57600080fd5b810190808035906020019092919050505061207a565b6040518082815260200191505060405180910390f35b34801561083657600080fd5b5061083f61220a565b604051808273ffffffffffffffffffffffffffffffffffffffff1673ffffffffffffffffffffffffffffffffffffffff16815260200191505060405180910390f35b34801561088d57600080fd5b506108d0600480360360208110156108a457600080fd5b81019080803573ffffffffffffffffffffffffffffffffffffffff169060200190929190505050612230565b005b3480156108de57600080fd5b506108e7612335565b604051808273ffffffffffffffffffffffffffffffffffffffff1673ffffffffffffffffffffffffffffffffffffffff16815260200191505060405180910390f35b61096b6004803603602081101561093f57600080fd5b81019080803573ffffffffffffffffffffffffffffffffffffffff16906020019092919050505061235b565b604051808215151515815260200191505060405180910390f35b60098054600181600116156101000203166002900480601f016020809104026020016040519081016040528092919081815260200182805460018160011615610100020316600290048015610a1b5780601f106109f057610100808354040283529160200191610a1b565b820191906000526020600020905b8154815290600101906020018083116109fe57829003601f168201915b505050505081565b6000809054906101000a900473ffffffffffffffffffffffffffffffffffffffff1673ffffffffffffffffffffffffffffffffffffffff163373ffffffffffffffffffffffffffffffffffffffff1614610ae5576040517f08c379a00000000000000000000000000000000000000000000000000000000081526004018080602001828103825260178152602001807f6d73672073656e646572206973206e6f74206f776e657200000000000000000081525060200191505060405180910390fd5b6000600754420390506000610af98261204c565b90506000600654600360009054906101000a900473ffffffffffffffffffffffffffffffffffffffff1673ffffffffffffffffffffffffffffffffffffffff166318160ddd6040518163ffffffff1660e01b815260040160206040518083038186803b158015610b6857600080fd5b505afa158015610b7c573d6000803e3d6000fd5b505050506040513d6020811015610b9257600080fd5b8101908080519060200190929190505050830281610bac57fe5b0490508160066000828254019250508190555042600781905550600360009054906101000a900473ffffffffffffffffffffffffffffffffffffffff1673ffffffffffffffffffffffffffffffffffffffff1663827f32c06000809054906101000a900473ffffffffffffffffffffffffffffffffffffffff16836040518363ffffffff1660e01b8152600401808373ffffffffffffffffffffffffffffffffffffffff1673ffffffffffffffffffffffffffffffffffffffff16815260200182815260200192505050602060405180830381600087803b158015610c9057600080fd5b505af1158015610ca4573d6000803e3d6000fd5b505050506040513d6020811015610cba57600080fd5b8101908080519060200190929190505050610d3d576040517f08c379a00000000000000000000000000000000000000000000000000000000081526004018080602001828103825260198152602001807f6661696c656420746f2067656e657261746520746f6b656e730000000000000081525060200191505060405180910390fd5b7f7da7dfe20590cbafe5c54c5d3549ea4da4244587ec0474d5b7a0a5f3f3ee158e816040518082815260200191505060405180910390a1505050565b6000809054906101000a900473ffffffffffffffffffffffffffffffffffffffff1673ffffffffffffffffffffffffffffffffffffffff163373ffffffffffffffffffffffffffffffffffffffff1614610e3b576040517f08c379a00000000000000000000000000000000000000000000000000000000081526004018080602001828103825260178152602001807f6d73672073656e646572206973206e6f74206f776e657200000000000000000081525060200191505060405180910390fd5b8060099080519060200190610e51929190612365565b507f24d202c58a9b65cd3e7ca3b0617c3ca86678860163d898db9d5da4435b3acab7816040518080602001828103825283818151815260200191508051906020019080838360005b83811015610eb4578082015181840152602081019050610e99565b50505050905090810190601f168015610ee15780820380516001836020036101000a031916815260200191505b509250505060405180910390a150565b60075481565b600860009054906101000a900473ffffffffffffffffffffffffffffffffffffffff1681565b6000610f2882611633565b9050600360009054906101000a900473ffffffffffffffffffffffffffffffffffffffff1673ffffffffffffffffffffffffffffffffffffffff1663d3ce77fe33846040518363ffffffff1660e01b8152600401808373ffffffffffffffffffffffffffffffffffffffff1673ffffffffffffffffffffffffffffffffffffffff16815260200182815260200192505050602060405180830381600087803b158015610fd357600080fd5b505af1158015610fe7573d6000803e3d6000fd5b505050506040513d6020811015610ffd57600080fd5b8101908080519060200190929190505050611080576040517f08c379a00000000000000000000000000000000000000000000000000000000081526004018080602001828103825260188152602001807f6661696c656420746f2064657374726f7920746f6b656e73000000000000000081525060200191505060405180910390fd5b600460009054906101000a900473ffffffffffffffffffffffffffffffffffffffff1673ffffffffffffffffffffffffffffffffffffffff1663a9059cbb33836040518363ffffffff1660e01b8152600401808373ffffffffffffffffffffffffffffffffffffffff1673ffffffffffffffffffffffffffffffffffffffff16815260200182815260200192505050602060405180830381600087803b15801561112957600080fd5b505af115801561113d573d6000803e3d6000fd5b505050506040513d602081101561115357600080fd5b81019080805190602001909291905050506111d6576040517f08c379a00000000000000000000000000000000000000000000000000000000081526004018080602001828103825260128152602001807f6661696c656420746f207472616e73666572000000000000000000000000000081525060200191505060405180910390fd5b7ffc66b0b1bed0c04059e1367b6de8a81a90429a81bc9ba512980aad725fb5632c338383604051808473ffffffffffffffffffffffffffffffffffffffff1673ffffffffffffffffffffffffffffffffffffffff168152602001838152602001828152602001935050505060405180910390a15050565b600360009054906101000a900473ffffffffffffffffffffffffffffffffffffffff1673ffffffffffffffffffffffffffffffffffffffff1663d3ce77fe33836040518363ffffffff1660e01b8152600401808373ffffffffffffffffffffffffffffffffffffffff1673ffffffffffffffffffffffffffffffffffffffff16815260200182815260200192505050602060405180830381600087803b1580156112f657600080fd5b505af115801561130a573d6000803e3d6000fd5b505050506040513d602081101561132057600080fd5b81019080805190602001909291905050506113a3576040517f08c379a00000000000000000000000000000000000000000000000000000000081526004018080602001828103825260158152602001807f6661696c656420746f206275726e20746f6b656e73000000000000000000000081525060200191505060405180910390fd5b7fc1fa857748d1f74a939a783f0c9da4b72454f85826975cafa980d493c8f410793382604051808373ffffffffffffffffffffffffffffffffffffffff1673ffffffffffffffffffffffffffffffffffffffff1681526020018281526020019250505060405180910390a150565b60003073ffffffffffffffffffffffffffffffffffffffff168373ffffffffffffffffffffffffffffffffffffffff1614806114795750600073ffffffffffffffffffffffffffffffffffffffff168373ffffffffffffffffffffffffffffffffffffffff16145b15611487576000905061148c565b600190505b9392505050565b60065481565b6000809054906101000a900473ffffffffffffffffffffffffffffffffffffffff1673ffffffffffffffffffffffffffffffffffffffff163373ffffffffffffffffffffffffffffffffffffffff161461155b576040517f08c379a00000000000000000000000000000000000000000000000000000000081526004018080602001828103825260178152602001807f6d73672073656e646572206973206e6f74206f776e657200000000000000000081525060200191505060405180910390fd5b80600860006101000a81548173ffffffffffffffffffffffffffffffffffffffff021916908373ffffffffffffffffffffffffffffffffffffffff1602179055507f408130eee513afc67d907eb4d5a7e2d21771fa2bdefddc1f71746cab4dd19d9d81604051808273ffffffffffffffffffffffffffffffffffffffff1673ffffffffffffffffffffffffffffffffffffffff16815260200191505060405180910390a150565b60055481565b6000809054906101000a900473ffffffffffffffffffffffffffffffffffffffff1681565b60025481565b6000600360009054906101000a900473ffffffffffffffffffffffffffffffffffffffff1673ffffffffffffffffffffffffffffffffffffffff166318160ddd6040518163ffffffff1660e01b815260040160206040518083038186803b15801561169d57600080fd5b505afa1580156116b1573d6000803e3d6000fd5b505050506040513d60208110156116c757600080fd5b810190808051906020019092919050505082600460009054906101000a900473ffffffffffffffffffffffffffffffffffffffff1673ffffffffffffffffffffffffffffffffffffffff166370a08231306040518263ffffffff1660e01b8152600401808273ffffffffffffffffffffffffffffffffffffffff1673ffffffffffffffffffffffffffffffffffffffff16815260200191505060206040518083038186803b15801561177857600080fd5b505afa15801561178c573d6000803e3d6000fd5b505050506040513d60208110156117a257600080fd5b810190808051906020019092919050505002816117bb57fe5b049050919050565b6000600360009054906101000a900473ffffffffffffffffffffffffffffffffffffffff1673ffffffffffffffffffffffffffffffffffffffff166318160ddd6040518163ffffffff1660e01b815260040160206040518083038186803b15801561182d57600080fd5b505afa158015611841573d6000803e3d6000fd5b505050506040513d602081101561185757600080fd5b810190808051906020019092919050505060065403905060006118798361207a565b9050808210156118f1576040517f08c379a00000000000000000000000000000000000000000000000000000000081526004018080602001828103825260168152602001807f696e76616c6964207265736572766520616d6f756e740000000000000000000081525060200191505060405180910390fd5b600460009054906101000a900473ffffffffffffffffffffffffffffffffffffffff1673ffffffffffffffffffffffffffffffffffffffff166323b872dd3330866040518463ffffffff1660e01b8152600401808473ffffffffffffffffffffffffffffffffffffffff1673ffffffffffffffffffffffffffffffffffffffff1681526020018373ffffffffffffffffffffffffffffffffffffffff1673ffffffffffffffffffffffffffffffffffffffff1681526020018281526020019350505050602060405180830381600087803b1580156119ce57600080fd5b505af11580156119e2573d6000803e3d6000fd5b505050506040513d60208110156119f857600080fd5b8101908080519060200190929190505050611a7b576040517f08c379a00000000000000000000000000000000000000000000000000000000081526004018080602001828103825260128152602001807f6661696c656420746f207472616e73666572000000000000000000000000000081525060200191505060405180910390fd5b600360009054906101000a900473ffffffffffffffffffffffffffffffffffffffff1673ffffffffffffffffffffffffffffffffffffffff1663827f32c033836040518363ffffffff1660e01b8152600401808373ffffffffffffffffffffffffffffffffffffffff1673ffffffffffffffffffffffffffffffffffffffff16815260200182815260200192505050602060405180830381600087803b158015611b2457600080fd5b505af1158015611b38573d6000803e3d6000fd5b505050506040513d6020811015611b4e57600080fd5b8101908080519060200190929190505050611bd1576040517f08c379a00000000000000000000000000000000000000000000000000000000081526004018080602001828103825260198152602001807f6661696c656420746f2067656e657261746520746f6b656e730000000000000081525060200191505060405180910390fd5b7f48ac3b6d8a059a533cd86121b6616d2b78cc16910bc22eafff12e1f166591a22338483604051808473ffffffffffffffffffffffffffffffffffffffff1673ffffffffffffffffffffffffffffffffffffffff168152602001838152602001828152602001935050505060405180910390a1505050565b600160009054906101000a900473ffffffffffffffffffffffffffffffffffffffff1681565b600060025414611ce7576040517f08c379a000000000000000000000000000000000000000000000000000000000815260040180806020018281038252601c8152602001807f636f6e747261637420616c726561647920696e697469616c697a65640000000081525060200191505060405180910390fd5b428212611d5c576040517f08c379a00000000000000000000000000000000000000000000000000000000081526004018080602001828103825260178152602001807f696e76616c69642062697274682074696d657374616d7000000000000000000081525060200191505060405180910390fd5b4360028190555033600160006101000a81548173ffffffffffffffffffffffffffffffffffffffff021916908373ffffffffffffffffffffffffffffffffffffffff160217905550846000806101000a81548173ffffffffffffffffffffffffffffffffffffffff021916908373ffffffffffffffffffffffffffffffffffffffff16021790555084600860006101000a81548173ffffffffffffffffffffffffffffffffffffffff021916908373ffffffffffffffffffffffffffffffffffffffff16021790555083600360006101000a81548173ffffffffffffffffffffffffffffffffffffffff021916908373ffffffffffffffffffffffffffffffffffffffff16021790555082600460006101000a81548173ffffffffffffffffffffffffffffffffffffffff021916908373ffffffffffffffffffffffffffffffffffffffff16021790555081600581905550600060055442039050611ec08161204c565b60068190555042600781905550600360009054906101000a900473ffffffffffffffffffffffffffffffffffffffff1673ffffffffffffffffffffffffffffffffffffffff1663827f32c06000809054906101000a900473ffffffffffffffffffffffffffffffffffffffff16846040518363ffffffff1660e01b8152600401808373ffffffffffffffffffffffffffffffffffffffff1673ffffffffffffffffffffffffffffffffffffffff16815260200182815260200192505050602060405180830381600087803b158015611f9757600080fd5b505af1158015611fab573d6000803e3d6000fd5b505050506040513d6020811015611fc157600080fd5b8101908080519060200190929190505050612044576040517f08c379a00000000000000000000000000000000000000000000000000000000081526004018080602001828103825260198152602001807f6661696c656420746f2067656e657261746520746f6b656e730000000000000081525060200191505060405180910390fd5b505050505050565b600060a86028670de0b6b3a76400008402028161206557fe5b049050919050565b6000600190509392505050565b6000600460009054906101000a900473ffffffffffffffffffffffffffffffffffffffff1673ffffffffffffffffffffffffffffffffffffffff166370a08231306040518263ffffffff1660e01b8152600401808273ffffffffffffffffffffffffffffffffffffffff1673ffffffffffffffffffffffffffffffffffffffff16815260200191505060206040518083038186803b15801561211b57600080fd5b505afa15801561212f573d6000803e3d6000fd5b505050506040513d602081101561214557600080fd5b810190808051906020019092919050505082600360009054906101000a900473ffffffffffffffffffffffffffffffffffffffff1673ffffffffffffffffffffffffffffffffffffffff166318160ddd6040518163ffffffff1660e01b815260040160206040518083038186803b1580156121bf57600080fd5b505afa1580156121d3573d6000803e3d6000fd5b505050506040513d60208110156121e957600080fd5b8101908080519060200190929190505050028161220257fe5b049050919050565b600360009054906101000a900473ffffffffffffffffffffffffffffffffffffffff1681565b6000809054906101000a900473ffffffffffffffffffffffffffffffffffffffff1673ffffffffffffffffffffffffffffffffffffffff163373ffffffffffffffffffffffffffffffffffffffff16146122f2576040517f08c379a00000000000000000000000000000000000000000000000000000000081526004018080602001828103825260178152602001807f6d73672073656e646572206973206e6f74206f776e657200000000000000000081525060200191505060405180910390fd5b806000806101000a81548173ffffffffffffffffffffffffffffffffffffffff021916908373ffffffffffffffffffffffffffffffffffffffff16021790555050565b600460009054906101000a900473ffffffffffffffffffffffffffffffffffffffff1681565b6000809050919050565b828054600181600116156101000203166002900490600052602060002090601f016020900481019282601f106123a657805160ff19168380011785556123d4565b828001600101855582156123d4579182015b828111156123d35782518255916020019190600101906123b8565b5b5090506123e191906123e5565b5090565b61240791905b808211156124035760008160009055506001016123eb565b5090565b9056fea165627a7a72305820ffdd638494d558f7d72667d4b849c0bec7061a071bc4fc295dbfc700ad89643a0029",
  "source": "pragma solidity ^0.5.0;\n\nimport \"./external/MiniMeToken.sol\";\nimport \"./external/ERC20.sol\";\nimport \"./external/Owned.sol\";\n\ncontract MeDao is Owned, TokenController {\n\n    address public factory;\n    uint public blockInitialized;\n\n    MiniMeToken public timeToken;\n    ERC20 public reserveToken;\n    int public birthTimestamp;\n    uint public maxTokenSupply;\n    uint public lastPayTimestamp;\n\n    address public identity;\n    string public hash;\n\n    constructor () public {\n        blockInitialized = block.number;\n    }\n\n    function initialize (\n        address _owner,\n        MiniMeToken _timeToken,\n        ERC20 _reserveToken,\n        int _birthTimestamp,\n        uint _tokenClaim\n    ) public {\n        require(blockInitialized == 0, 'contract already initialized');\n        require(_birthTimestamp < int(now), 'invalid birth timestamp');\n\n        blockInitialized = block.number;\n        factory = msg.sender;\n\n        owner = _owner;\n        identity = _owner;\n        timeToken = _timeToken;\n        reserveToken = _reserveToken;\n        birthTimestamp = _birthTimestamp;\n\n        uint elapsedSeconds = uint(int(now) - birthTimestamp);\n        maxTokenSupply = calculateWorkTime(elapsedSeconds);\n        lastPayTimestamp = now;\n\n        require(timeToken.generateTokens(owner, _tokenClaim), \"failed to generate tokens\");\n    }\n\n    function calculateTokenClaim (uint reserveAmount) public view returns (uint) {\n        return timeToken.totalSupply() * reserveAmount / reserveToken.balanceOf(address(this));\n    }\n\n    function calculateReserveClaim (uint tokenAmount) public view returns (uint) {\n        return reserveToken.balanceOf(address(this)) * tokenAmount / timeToken.totalSupply();\n    }\n\n    function calculateWorkTime (uint elapsedSeconds) public pure returns (uint) {\n        return (elapsedSeconds * 1 ether) * 40 / 168;\n    }\n\n    function pay () public onlyOwner {\n        uint elapsedSeconds = now - lastPayTimestamp;\n        uint workTime = calculateWorkTime(elapsedSeconds);\n        uint fundedTime = workTime * timeToken.totalSupply() / maxTokenSupply;\n        maxTokenSupply += workTime;\n        lastPayTimestamp = now;\n        require(timeToken.generateTokens(owner, fundedTime), \"failed to generate tokens\");\n        emit Pay_event(fundedTime);\n    }\n\n    function deposit (uint reserveAmount) public {\n        uint availableSeconds = maxTokenSupply - timeToken.totalSupply();\n        uint claimedTokens = calculateTokenClaim(reserveAmount);\n        require(availableSeconds >= claimedTokens, \"invalid reserve amount\");\n        require(reserveToken.transferFrom(msg.sender, address(this), reserveAmount), \"failed to transfer\");\n        require(timeToken.generateTokens(msg.sender, claimedTokens), \"failed to generate tokens\");\n        emit Deposit_event(msg.sender, reserveAmount, claimedTokens);\n    }\n\n    function withdraw (uint tokenAmount) public {\n        uint reserveClaim = calculateReserveClaim(tokenAmount);\n        require(timeToken.destroyTokens(msg.sender, tokenAmount), \"failed to destroy tokens\");\n        require(reserveToken.transfer(msg.sender, reserveClaim), \"failed to transfer\");\n        emit Withdraw_event(msg.sender, tokenAmount, reserveClaim);\n    }\n\n    function burn (uint tokenAmount) public {\n        require(timeToken.destroyTokens(msg.sender, tokenAmount), \"failed to burn tokens\");\n        emit Burn_event(msg.sender, tokenAmount);\n    }\n\n    function setHash (string memory newHash) public onlyOwner {\n        hash = newHash;\n        emit NewHash_event(newHash);\n    }\n\n    function setIdentity (address newIdentity) public onlyOwner {\n        identity = newIdentity;\n        emit NewIdentity_event(newIdentity);\n    }\n\n    event Pay_event (uint tokenAmount);\n    event Deposit_event (address msgSender, uint reserveAmount, uint tokenAmount);\n    event Withdraw_event (address msgSender, uint tokenAmount, uint reserveAmount);\n    event Burn_event (address msgSender, uint tokenAmount);\n    event NewHash_event (string newHash);\n    event NewIdentity_event (address newIdentity);\n\n/// Token Controller Functions\n\n    function proxyPayment (address _owner) public payable returns(bool) {\n        _owner;\n        return false;\n    }\n\n    function onTransfer (address _from, address _to, uint _amount) public returns(bool) {\n        _from; _amount;\n        if(_to == address(this) || _to == address(0x0))\n            return false;\n\n        return true;\n    }\n\n    function onApprove (address _owner, address _spender, uint _amount) public returns(bool) {\n        _owner; _spender; _amount;\n        return true;\n    }\n\n}\n",
  "sourcePath": "/home/joe/Documents/github/chicobitcoinjoe/MeDao/contracts/MeDao.sol",
  "compiler": {
    "name": "solc",
    "version": "0.5.8+commit.23d335f2.Emscripten.clang"
  },
  "schemaVersion": "3.0.11",
  "updatedAt": "2019-07-08T21:52:44.861Z",
  "devdoc": {
    "methods": {}
  },
  "userdoc": {
    "methods": {
      "proxyPayment(address)": {
        "notice": "Token Controller Functions"
      }
    }
  }
}