{
  "contractName": "MeDao",
  "abi": [
    {
      "constant": true,
      "inputs": [],
      "name": "hash",
      "outputs": [
        {
          "name": "",
          "type": "string"
        }
      ],
      "payable": false,
      "stateMutability": "view",
      "type": "function"
    },
    {
      "constant": true,
      "inputs": [
        {
          "name": "",
          "type": "uint256"
        }
      ],
      "name": "clones",
      "outputs": [
        {
          "name": "",
          "type": "address"
        }
      ],
      "payable": false,
      "stateMutability": "view",
      "type": "function"
    },
    {
      "constant": true,
      "inputs": [],
      "name": "Dai",
      "outputs": [
        {
          "name": "",
          "type": "address"
        }
      ],
      "payable": false,
      "stateMutability": "view",
      "type": "function"
    },
    {
      "constant": true,
      "inputs": [],
      "name": "lastPayTimestamp",
      "outputs": [
        {
          "name": "",
          "type": "uint256"
        }
      ],
      "payable": false,
      "stateMutability": "view",
      "type": "function"
    },
    {
      "constant": true,
      "inputs": [],
      "name": "identity",
      "outputs": [
        {
          "name": "",
          "type": "address"
        }
      ],
      "payable": false,
      "stateMutability": "view",
      "type": "function"
    },
    {
      "constant": true,
      "inputs": [],
      "name": "maxTokenSupply",
      "outputs": [
        {
          "name": "",
          "type": "uint256"
        }
      ],
      "payable": false,
      "stateMutability": "view",
      "type": "function"
    },
    {
      "constant": true,
      "inputs": [],
      "name": "birthTimestamp",
      "outputs": [
        {
          "name": "",
          "type": "int256"
        }
      ],
      "payable": false,
      "stateMutability": "view",
      "type": "function"
    },
    {
      "constant": true,
      "inputs": [],
      "name": "owner",
      "outputs": [
        {
          "name": "",
          "type": "address"
        }
      ],
      "payable": false,
      "stateMutability": "view",
      "type": "function"
    },
    {
      "constant": true,
      "inputs": [],
      "name": "blockInitialized",
      "outputs": [
        {
          "name": "",
          "type": "uint256"
        }
      ],
      "payable": false,
      "stateMutability": "view",
      "type": "function"
    },
    {
      "constant": true,
      "inputs": [],
      "name": "factory",
      "outputs": [
        {
          "name": "",
          "type": "address"
        }
      ],
      "payable": false,
      "stateMutability": "view",
      "type": "function"
    },
    {
      "constant": false,
      "inputs": [
        {
          "name": "newOwner",
          "type": "address"
        }
      ],
      "name": "transferOwnership",
      "outputs": [],
      "payable": false,
      "stateMutability": "nonpayable",
      "type": "function"
    },
    {
      "constant": true,
      "inputs": [],
      "name": "Time",
      "outputs": [
        {
          "name": "",
          "type": "address"
        }
      ],
      "payable": false,
      "stateMutability": "view",
      "type": "function"
    },
    {
      "inputs": [],
      "payable": false,
      "stateMutability": "nonpayable",
      "type": "constructor"
    },
    {
      "anonymous": false,
      "inputs": [
        {
          "indexed": false,
          "name": "tokenAmount",
          "type": "uint256"
        }
      ],
      "name": "Pay_event",
      "type": "event"
    },
    {
      "anonymous": false,
      "inputs": [
        {
          "indexed": false,
          "name": "token",
          "type": "address"
        }
      ],
      "name": "Clone_event",
      "type": "event"
    },
    {
      "anonymous": false,
      "inputs": [
        {
          "indexed": false,
          "name": "msgSender",
          "type": "address"
        },
        {
          "indexed": false,
          "name": "reserveAmount",
          "type": "uint256"
        },
        {
          "indexed": false,
          "name": "tokenAmount",
          "type": "uint256"
        }
      ],
      "name": "ConvertDai_event",
      "type": "event"
    },
    {
      "anonymous": false,
      "inputs": [
        {
          "indexed": false,
          "name": "msgSender",
          "type": "address"
        },
        {
          "indexed": false,
          "name": "tokenAmount",
          "type": "uint256"
        },
        {
          "indexed": false,
          "name": "reserveAmount",
          "type": "uint256"
        }
      ],
      "name": "ConvertTime_event",
      "type": "event"
    },
    {
      "anonymous": false,
      "inputs": [
        {
          "indexed": false,
          "name": "msgSender",
          "type": "address"
        },
        {
          "indexed": false,
          "name": "tokenAmount",
          "type": "uint256"
        }
      ],
      "name": "Burn_event",
      "type": "event"
    },
    {
      "anonymous": false,
      "inputs": [
        {
          "indexed": false,
          "name": "newHash",
          "type": "string"
        }
      ],
      "name": "NewHash_event",
      "type": "event"
    },
    {
      "anonymous": false,
      "inputs": [
        {
          "indexed": false,
          "name": "newIdentity",
          "type": "address"
        }
      ],
      "name": "NewIdentity_event",
      "type": "event"
    },
    {
      "constant": false,
      "inputs": [
        {
          "name": "_owner",
          "type": "address"
        },
        {
          "name": "_Time",
          "type": "address"
        },
        {
          "name": "_Dai",
          "type": "address"
        },
        {
          "name": "_birthTimestamp",
          "type": "int256"
        },
        {
          "name": "_initialTokenBalance",
          "type": "uint256"
        }
      ],
      "name": "initialize",
      "outputs": [],
      "payable": false,
      "stateMutability": "nonpayable",
      "type": "function"
    },
    {
      "constant": true,
      "inputs": [],
      "name": "getClones",
      "outputs": [
        {
          "name": "",
          "type": "address[]"
        }
      ],
      "payable": false,
      "stateMutability": "view",
      "type": "function"
    },
    {
      "constant": true,
      "inputs": [],
      "name": "getTotalClones",
      "outputs": [
        {
          "name": "",
          "type": "uint256"
        }
      ],
      "payable": false,
      "stateMutability": "view",
      "type": "function"
    },
    {
      "constant": true,
      "inputs": [
        {
          "name": "daiAmount",
          "type": "uint256"
        }
      ],
      "name": "calculateTimeClaim",
      "outputs": [
        {
          "name": "",
          "type": "uint256"
        }
      ],
      "payable": false,
      "stateMutability": "view",
      "type": "function"
    },
    {
      "constant": true,
      "inputs": [
        {
          "name": "secondsInWei",
          "type": "uint256"
        }
      ],
      "name": "calculateDaiClaim",
      "outputs": [
        {
          "name": "",
          "type": "uint256"
        }
      ],
      "payable": false,
      "stateMutability": "view",
      "type": "function"
    },
    {
      "constant": true,
      "inputs": [
        {
          "name": "elapsedSeconds",
          "type": "uint256"
        }
      ],
      "name": "calculateWorkTime",
      "outputs": [
        {
          "name": "",
          "type": "uint256"
        }
      ],
      "payable": false,
      "stateMutability": "pure",
      "type": "function"
    },
    {
      "constant": false,
      "inputs": [],
      "name": "collectPaycheck",
      "outputs": [],
      "payable": false,
      "stateMutability": "nonpayable",
      "type": "function"
    },
    {
      "constant": false,
      "inputs": [
        {
          "name": "daiAmount",
          "type": "uint256"
        }
      ],
      "name": "convertDai",
      "outputs": [],
      "payable": false,
      "stateMutability": "nonpayable",
      "type": "function"
    },
    {
      "constant": false,
      "inputs": [
        {
          "name": "secondsInWei",
          "type": "uint256"
        }
      ],
      "name": "convertTime",
      "outputs": [],
      "payable": false,
      "stateMutability": "nonpayable",
      "type": "function"
    },
    {
      "constant": false,
      "inputs": [
        {
          "name": "tokenAmount",
          "type": "uint256"
        }
      ],
      "name": "burn",
      "outputs": [],
      "payable": false,
      "stateMutability": "nonpayable",
      "type": "function"
    },
    {
      "constant": false,
      "inputs": [
        {
          "name": "newHash",
          "type": "string"
        }
      ],
      "name": "setHash",
      "outputs": [],
      "payable": false,
      "stateMutability": "nonpayable",
      "type": "function"
    },
    {
      "constant": false,
      "inputs": [
        {
          "name": "newIdentity",
          "type": "address"
        }
      ],
      "name": "setIdentity",
      "outputs": [],
      "payable": false,
      "stateMutability": "nonpayable",
      "type": "function"
    },
    {
      "constant": false,
      "inputs": [
        {
          "name": "cloneableToken",
          "type": "address"
        },
        {
          "name": "tokenName",
          "type": "string"
        },
        {
          "name": "tokenSymbol",
          "type": "string"
        },
        {
          "name": "snapshotBlock",
          "type": "uint256"
        }
      ],
      "name": "createCloneToken",
      "outputs": [],
      "payable": false,
      "stateMutability": "nonpayable",
      "type": "function"
    },
    {
      "constant": false,
      "inputs": [
        {
          "name": "_owner",
          "type": "address"
        }
      ],
      "name": "proxyPayment",
      "outputs": [
        {
          "name": "",
          "type": "bool"
        }
      ],
      "payable": true,
      "stateMutability": "payable",
      "type": "function"
    },
    {
      "constant": false,
      "inputs": [
        {
          "name": "_from",
          "type": "address"
        },
        {
          "name": "_to",
          "type": "address"
        },
        {
          "name": "_amount",
          "type": "uint256"
        }
      ],
      "name": "onTransfer",
      "outputs": [
        {
          "name": "",
          "type": "bool"
        }
      ],
      "payable": false,
      "stateMutability": "nonpayable",
      "type": "function"
    },
    {
      "constant": false,
      "inputs": [
        {
          "name": "_owner",
          "type": "address"
        },
        {
          "name": "_spender",
          "type": "address"
        },
        {
          "name": "_amount",
          "type": "uint256"
        }
      ],
      "name": "onApprove",
      "outputs": [
        {
          "name": "",
          "type": "bool"
        }
      ],
      "payable": false,
      "stateMutability": "nonpayable",
      "type": "function"
    }
  ],
  "bytecode": "0x608060405234801561001057600080fd5b50336000806101000a81548173ffffffffffffffffffffffffffffffffffffffff021916908373ffffffffffffffffffffffffffffffffffffffff16021790555043600281905550612b2b806100676000396000f3fe6080604052600436106101b75760003560e01c806388500bb6116100ec578063da682aeb1161008a578063f48c305411610064578063f48c3054146109e4578063f8419ed014610a40578063f8e157ea14610bc9578063fe3636f014610c20576101b7565b8063da682aeb146108e9578063e2e7afa31461097c578063f2fde38b14610993576101b7565b80639bc40c4c116100c65780639bc40c4c14610773578063c45a01551461079e578063c502f162146107f5578063cb29b1c51461089a576101b7565b806388500bb6146106925780638da5cb5b146106cd578063918e2de114610724576101b7565b80632c159a1a116101595780634a393149116101335780634a3931491461055857806350f7c204146105eb5780635d5bf17814610616578063718bf49c14610667576101b7565b80632c159a1a1461049b5780634253cba6146104f257806342966c681461051d576101b7565b80631088e619116101955780631088e619146103165780631ed83fd41461035157806320f517071461041957806326f2d67d14610470576101b7565b806309bd5a60146101bc5780630b04a16e1461024c5780630e0399161461029b575b600080fd5b3480156101c857600080fd5b506101d1610c8c565b6040518080602001828103825283818151815260200191508051906020019080838360005b838110156102115780820151818401526020810190506101f6565b50505050905090810190601f16801561023e5780820380516001836020036101000a031916815260200191505b509250505060405180910390f35b34801561025857600080fd5b506102856004803603602081101561026f57600080fd5b8101908080359060200190929190505050610d2a565b6040518082815260200191505060405180910390f35b3480156102a757600080fd5b506102d4600480360360208110156102be57600080fd5b8101908080359060200190929190505050610eba565b604051808273ffffffffffffffffffffffffffffffffffffffff1673ffffffffffffffffffffffffffffffffffffffff16815260200191505060405180910390f35b34801561032257600080fd5b5061034f6004803603602081101561033957600080fd5b8101908080359060200190929190505050610ef6565b005b34801561035d57600080fd5b506104176004803603602081101561037457600080fd5b810190808035906020019064010000000081111561039157600080fd5b8201836020820111156103a357600080fd5b803590602001918460018302840111640100000000831117156103c557600080fd5b91908080601f016020809104026020016040519081016040528093929190818152602001838380828437600081840152601f19601f82011690508083019250505050505050919291929050505061137c565b005b34801561042557600080fd5b5061042e6114f4565b604051808273ffffffffffffffffffffffffffffffffffffffff1673ffffffffffffffffffffffffffffffffffffffff16815260200191505060405180910390f35b34801561047c57600080fd5b5061048561151a565b6040518082815260200191505060405180910390f35b3480156104a757600080fd5b506104b0611520565b604051808273ffffffffffffffffffffffffffffffffffffffff1673ffffffffffffffffffffffffffffffffffffffff16815260200191505060405180910390f35b3480156104fe57600080fd5b50610507611546565b6040518082815260200191505060405180910390f35b34801561052957600080fd5b506105566004803603602081101561054057600080fd5b8101908080359060200190929190505050611553565b005b34801561056457600080fd5b506105d16004803603606081101561057b57600080fd5b81019080803573ffffffffffffffffffffffffffffffffffffffff169060200190929190803573ffffffffffffffffffffffffffffffffffffffff16906020019092919080359060200190929190505050611717565b604051808215151515815260200191505060405180910390f35b3480156105f757600080fd5b50610600611799565b6040518082815260200191505060405180910390f35b34801561062257600080fd5b506106656004803603602081101561063957600080fd5b81019080803573ffffffffffffffffffffffffffffffffffffffff16906020019092919050505061179f565b005b34801561067357600080fd5b5061067c611908565b6040518082815260200191505060405180910390f35b34801561069e57600080fd5b506106cb600480360360208110156106b557600080fd5b810190808035906020019092919050505061190e565b005b3480156106d957600080fd5b506106e2611c3e565b604051808273ffffffffffffffffffffffffffffffffffffffff1673ffffffffffffffffffffffffffffffffffffffff16815260200191505060405180910390f35b34801561073057600080fd5b5061075d6004803603602081101561074757600080fd5b8101908080359060200190929190505050611c63565b6040518082815260200191505060405180910390f35b34801561077f57600080fd5b50610788611df3565b6040518082815260200191505060405180910390f35b3480156107aa57600080fd5b506107b3611df9565b604051808273ffffffffffffffffffffffffffffffffffffffff1673ffffffffffffffffffffffffffffffffffffffff16815260200191505060405180910390f35b34801561080157600080fd5b50610898600480360360a081101561081857600080fd5b81019080803573ffffffffffffffffffffffffffffffffffffffff169060200190929190803573ffffffffffffffffffffffffffffffffffffffff169060200190929190803573ffffffffffffffffffffffffffffffffffffffff1690602001909291908035906020019092919080359060200190929190505050611e1f565b005b3480156108a657600080fd5b506108d3600480360360208110156108bd57600080fd5b81019080803590602001909291905050506121fc565b6040518082815260200191505060405180910390f35b3480156108f557600080fd5b506109626004803603606081101561090c57600080fd5b81019080803573ffffffffffffffffffffffffffffffffffffffff169060200190929190803573ffffffffffffffffffffffffffffffffffffffff1690602001909291908035906020019092919050505061221d565b604051808215151515815260200191505060405180910390f35b34801561098857600080fd5b5061099161222a565b005b34801561099f57600080fd5b506109e2600480360360208110156109b657600080fd5b81019080803573ffffffffffffffffffffffffffffffffffffffff169060200190929190505050612580565b005b610a26600480360360208110156109fa57600080fd5b81019080803573ffffffffffffffffffffffffffffffffffffffff169060200190929190505050612685565b604051808215151515815260200191505060405180910390f35b348015610a4c57600080fd5b50610bc760048036036080811015610a6357600080fd5b81019080803573ffffffffffffffffffffffffffffffffffffffff16906020019092919080359060200190640100000000811115610aa057600080fd5b820183602082011115610ab257600080fd5b80359060200191846001830284011164010000000083111715610ad457600080fd5b91908080601f016020809104026020016040519081016040528093929190818152602001838380828437600081840152601f19601f82011690508083019250505050505050919291929080359060200190640100000000811115610b3757600080fd5b820183602082011115610b4957600080fd5b80359060200191846001830284011164010000000083111715610b6b57600080fd5b91908080601f016020809104026020016040519081016040528093929190818152602001838380828437600081840152601f19601f8201169050808301925050505050505091929192908035906020019092919050505061268f565b005b348015610bd557600080fd5b50610bde6129a6565b604051808273ffffffffffffffffffffffffffffffffffffffff1673ffffffffffffffffffffffffffffffffffffffff16815260200191505060405180910390f35b348015610c2c57600080fd5b50610c356129cc565b6040518080602001828103825283818151815260200191508051906020019060200280838360005b83811015610c78578082015181840152602081019050610c5d565b505050509050019250505060405180910390f35b600a8054600181600116156101000203166002900480601f016020809104026020016040519081016040528092919081815260200182805460018160011615610100020316600290048015610d225780601f10610cf757610100808354040283529160200191610d22565b820191906000526020600020905b815481529060010190602001808311610d0557829003601f168201915b505050505081565b6000600360009054906101000a900473ffffffffffffffffffffffffffffffffffffffff1673ffffffffffffffffffffffffffffffffffffffff166370a08231306040518263ffffffff1660e01b8152600401808273ffffffffffffffffffffffffffffffffffffffff1673ffffffffffffffffffffffffffffffffffffffff16815260200191505060206040518083038186803b158015610dcb57600080fd5b505afa158015610ddf573d6000803e3d6000fd5b505050506040513d6020811015610df557600080fd5b810190808051906020019092919050505082600460009054906101000a900473ffffffffffffffffffffffffffffffffffffffff1673ffffffffffffffffffffffffffffffffffffffff166318160ddd6040518163ffffffff1660e01b815260040160206040518083038186803b158015610e6f57600080fd5b505afa158015610e83573d6000803e3d6000fd5b505050506040513d6020811015610e9957600080fd5b81019080805190602001909291905050500281610eb257fe5b049050919050565b60078181548110610ec757fe5b906000526020600020016000915054906101000a900473ffffffffffffffffffffffffffffffffffffffff1681565b6000600460009054906101000a900473ffffffffffffffffffffffffffffffffffffffff1673ffffffffffffffffffffffffffffffffffffffff166318160ddd6040518163ffffffff1660e01b815260040160206040518083038186803b158015610f6057600080fd5b505afa158015610f74573d6000803e3d6000fd5b505050506040513d6020811015610f8a57600080fd5b81019080805190602001909291905050506005540390506000610fac83610d2a565b905080821015611024576040517f08c379a00000000000000000000000000000000000000000000000000000000081526004018080602001828103825260168152602001807f696e76616c6964207265736572766520616d6f756e740000000000000000000081525060200191505060405180910390fd5b600360009054906101000a900473ffffffffffffffffffffffffffffffffffffffff1673ffffffffffffffffffffffffffffffffffffffff166323b872dd3330866040518463ffffffff1660e01b8152600401808473ffffffffffffffffffffffffffffffffffffffff1673ffffffffffffffffffffffffffffffffffffffff1681526020018373ffffffffffffffffffffffffffffffffffffffff1673ffffffffffffffffffffffffffffffffffffffff1681526020018281526020019350505050602060405180830381600087803b15801561110157600080fd5b505af1158015611115573d6000803e3d6000fd5b505050506040513d602081101561112b57600080fd5b81019080805190602001909291905050506111ae576040517f08c379a00000000000000000000000000000000000000000000000000000000081526004018080602001828103825260128152602001807f6661696c656420746f207472616e73666572000000000000000000000000000081525060200191505060405180910390fd5b600460009054906101000a900473ffffffffffffffffffffffffffffffffffffffff1673ffffffffffffffffffffffffffffffffffffffff1663827f32c033836040518363ffffffff1660e01b8152600401808373ffffffffffffffffffffffffffffffffffffffff1673ffffffffffffffffffffffffffffffffffffffff16815260200182815260200192505050602060405180830381600087803b15801561125757600080fd5b505af115801561126b573d6000803e3d6000fd5b505050506040513d602081101561128157600080fd5b8101908080519060200190929190505050611304576040517f08c379a00000000000000000000000000000000000000000000000000000000081526004018080602001828103825260198152602001807f6661696c656420746f2067656e657261746520746f6b656e730000000000000081525060200191505060405180910390fd5b7f5ec68ddc6aa3847e1263b730b3ba08d3948300066a5c6e1244390d1b3c49e03f338483604051808473ffffffffffffffffffffffffffffffffffffffff1673ffffffffffffffffffffffffffffffffffffffff168152602001838152602001828152602001935050505060405180910390a1505050565b6000809054906101000a900473ffffffffffffffffffffffffffffffffffffffff1673ffffffffffffffffffffffffffffffffffffffff163373ffffffffffffffffffffffffffffffffffffffff161461143e576040517f08c379a00000000000000000000000000000000000000000000000000000000081526004018080602001828103825260178152602001807f6d73672073656e646572206973206e6f74206f776e657200000000000000000081525060200191505060405180910390fd5b80600a9080519060200190611454929190612a5a565b507f24d202c58a9b65cd3e7ca3b0617c3ca86678860163d898db9d5da4435b3acab7816040518080602001828103825283818151815260200191508051906020019080838360005b838110156114b757808201518184015260208101905061149c565b50505050905090810190601f1680156114e45780820380516001836020036101000a031916815260200191505b509250505060405180910390a150565b600360009054906101000a900473ffffffffffffffffffffffffffffffffffffffff1681565b60095481565b600660009054906101000a900473ffffffffffffffffffffffffffffffffffffffff1681565b6000600780549050905090565b600460009054906101000a900473ffffffffffffffffffffffffffffffffffffffff1673ffffffffffffffffffffffffffffffffffffffff1663d3ce77fe33836040518363ffffffff1660e01b8152600401808373ffffffffffffffffffffffffffffffffffffffff1673ffffffffffffffffffffffffffffffffffffffff16815260200182815260200192505050602060405180830381600087803b1580156115fc57600080fd5b505af1158015611610573d6000803e3d6000fd5b505050506040513d602081101561162657600080fd5b81019080805190602001909291905050506116a9576040517f08c379a00000000000000000000000000000000000000000000000000000000081526004018080602001828103825260158152602001807f6661696c656420746f206275726e20746f6b656e73000000000000000000000081525060200191505060405180910390fd5b7fc1fa857748d1f74a939a783f0c9da4b72454f85826975cafa980d493c8f410793382604051808373ffffffffffffffffffffffffffffffffffffffff1673ffffffffffffffffffffffffffffffffffffffff1681526020018281526020019250505060405180910390a150565b60003073ffffffffffffffffffffffffffffffffffffffff168373ffffffffffffffffffffffffffffffffffffffff16148061177f5750600073ffffffffffffffffffffffffffffffffffffffff168373ffffffffffffffffffffffffffffffffffffffff16145b1561178d5760009050611792565b600190505b9392505050565b60055481565b6000809054906101000a900473ffffffffffffffffffffffffffffffffffffffff1673ffffffffffffffffffffffffffffffffffffffff163373ffffffffffffffffffffffffffffffffffffffff1614611861576040517f08c379a00000000000000000000000000000000000000000000000000000000081526004018080602001828103825260178152602001807f6d73672073656e646572206973206e6f74206f776e657200000000000000000081525060200191505060405180910390fd5b80600660006101000a81548173ffffffffffffffffffffffffffffffffffffffff021916908373ffffffffffffffffffffffffffffffffffffffff1602179055507f408130eee513afc67d907eb4d5a7e2d21771fa2bdefddc1f71746cab4dd19d9d81604051808273ffffffffffffffffffffffffffffffffffffffff1673ffffffffffffffffffffffffffffffffffffffff16815260200191505060405180910390a150565b60085481565b600061191982611c63565b9050600460009054906101000a900473ffffffffffffffffffffffffffffffffffffffff1673ffffffffffffffffffffffffffffffffffffffff1663d3ce77fe33846040518363ffffffff1660e01b8152600401808373ffffffffffffffffffffffffffffffffffffffff1673ffffffffffffffffffffffffffffffffffffffff16815260200182815260200192505050602060405180830381600087803b1580156119c457600080fd5b505af11580156119d8573d6000803e3d6000fd5b505050506040513d60208110156119ee57600080fd5b8101908080519060200190929190505050611a71576040517f08c379a00000000000000000000000000000000000000000000000000000000081526004018080602001828103825260188152602001807f6661696c656420746f2064657374726f7920746f6b656e73000000000000000081525060200191505060405180910390fd5b600360009054906101000a900473ffffffffffffffffffffffffffffffffffffffff1673ffffffffffffffffffffffffffffffffffffffff1663a9059cbb33836040518363ffffffff1660e01b8152600401808373ffffffffffffffffffffffffffffffffffffffff1673ffffffffffffffffffffffffffffffffffffffff16815260200182815260200192505050602060405180830381600087803b158015611b1a57600080fd5b505af1158015611b2e573d6000803e3d6000fd5b505050506040513d6020811015611b4457600080fd5b8101908080519060200190929190505050611bc7576040517f08c379a00000000000000000000000000000000000000000000000000000000081526004018080602001828103825260128152602001807f6661696c656420746f207472616e73666572000000000000000000000000000081525060200191505060405180910390fd5b7f62220da60faf5ba9c124c92fe9c5a5445ea30cbeba11232a663be04be43dd88a338383604051808473ffffffffffffffffffffffffffffffffffffffff1673ffffffffffffffffffffffffffffffffffffffff168152602001838152602001828152602001935050505060405180910390a15050565b6000809054906101000a900473ffffffffffffffffffffffffffffffffffffffff1681565b6000600460009054906101000a900473ffffffffffffffffffffffffffffffffffffffff1673ffffffffffffffffffffffffffffffffffffffff166318160ddd6040518163ffffffff1660e01b815260040160206040518083038186803b158015611ccd57600080fd5b505afa158015611ce1573d6000803e3d6000fd5b505050506040513d6020811015611cf757600080fd5b810190808051906020019092919050505082600360009054906101000a900473ffffffffffffffffffffffffffffffffffffffff1673ffffffffffffffffffffffffffffffffffffffff166370a08231306040518263ffffffff1660e01b8152600401808273ffffffffffffffffffffffffffffffffffffffff1673ffffffffffffffffffffffffffffffffffffffff16815260200191505060206040518083038186803b158015611da857600080fd5b505afa158015611dbc573d6000803e3d6000fd5b505050506040513d6020811015611dd257600080fd5b81019080805190602001909291905050500281611deb57fe5b049050919050565b60025481565b600160009054906101000a900473ffffffffffffffffffffffffffffffffffffffff1681565b600060025414611e97576040517f08c379a000000000000000000000000000000000000000000000000000000000815260040180806020018281038252601c8152602001807f636f6e747261637420616c726561647920696e697469616c697a65640000000081525060200191505060405180910390fd5b428212611f0c576040517f08c379a00000000000000000000000000000000000000000000000000000000081526004018080602001828103825260178152602001807f696e76616c69642062697274682074696d657374616d7000000000000000000081525060200191505060405180910390fd5b4360028190555033600160006101000a81548173ffffffffffffffffffffffffffffffffffffffff021916908373ffffffffffffffffffffffffffffffffffffffff160217905550846000806101000a81548173ffffffffffffffffffffffffffffffffffffffff021916908373ffffffffffffffffffffffffffffffffffffffff16021790555084600660006101000a81548173ffffffffffffffffffffffffffffffffffffffff021916908373ffffffffffffffffffffffffffffffffffffffff16021790555083600460006101000a81548173ffffffffffffffffffffffffffffffffffffffff021916908373ffffffffffffffffffffffffffffffffffffffff16021790555082600360006101000a81548173ffffffffffffffffffffffffffffffffffffffff021916908373ffffffffffffffffffffffffffffffffffffffff16021790555081600881905550600060085442039050612070816121fc565b60058190555042600981905550600460009054906101000a900473ffffffffffffffffffffffffffffffffffffffff1673ffffffffffffffffffffffffffffffffffffffff1663827f32c06000809054906101000a900473ffffffffffffffffffffffffffffffffffffffff16846040518363ffffffff1660e01b8152600401808373ffffffffffffffffffffffffffffffffffffffff1673ffffffffffffffffffffffffffffffffffffffff16815260200182815260200192505050602060405180830381600087803b15801561214757600080fd5b505af115801561215b573d6000803e3d6000fd5b505050506040513d602081101561217157600080fd5b81019080805190602001909291905050506121f4576040517f08c379a00000000000000000000000000000000000000000000000000000000081526004018080602001828103825260198152602001807f6661696c656420746f2067656e657261746520746f6b656e730000000000000081525060200191505060405180910390fd5b505050505050565b600060a86028670de0b6b3a76400008402028161221557fe5b049050919050565b6000600190509392505050565b6000809054906101000a900473ffffffffffffffffffffffffffffffffffffffff1673ffffffffffffffffffffffffffffffffffffffff163373ffffffffffffffffffffffffffffffffffffffff16146122ec576040517f08c379a00000000000000000000000000000000000000000000000000000000081526004018080602001828103825260178152602001807f6d73672073656e646572206973206e6f74206f776e657200000000000000000081525060200191505060405180910390fd5b6000600954420390506000612300826121fc565b90506000600554600460009054906101000a900473ffffffffffffffffffffffffffffffffffffffff1673ffffffffffffffffffffffffffffffffffffffff166318160ddd6040518163ffffffff1660e01b815260040160206040518083038186803b15801561236f57600080fd5b505afa158015612383573d6000803e3d6000fd5b505050506040513d602081101561239957600080fd5b81019080805190602001909291905050508302816123b357fe5b0490508160056000828254019250508190555042600981905550600460009054906101000a900473ffffffffffffffffffffffffffffffffffffffff1673ffffffffffffffffffffffffffffffffffffffff1663827f32c06000809054906101000a900473ffffffffffffffffffffffffffffffffffffffff16836040518363ffffffff1660e01b8152600401808373ffffffffffffffffffffffffffffffffffffffff1673ffffffffffffffffffffffffffffffffffffffff16815260200182815260200192505050602060405180830381600087803b15801561249757600080fd5b505af11580156124ab573d6000803e3d6000fd5b505050506040513d60208110156124c157600080fd5b8101908080519060200190929190505050612544576040517f08c379a00000000000000000000000000000000000000000000000000000000081526004018080602001828103825260198152602001807f6661696c656420746f2067656e657261746520746f6b656e730000000000000081525060200191505060405180910390fd5b7f7da7dfe20590cbafe5c54c5d3549ea4da4244587ec0474d5b7a0a5f3f3ee158e816040518082815260200191505060405180910390a1505050565b6000809054906101000a900473ffffffffffffffffffffffffffffffffffffffff1673ffffffffffffffffffffffffffffffffffffffff163373ffffffffffffffffffffffffffffffffffffffff1614612642576040517f08c379a00000000000000000000000000000000000000000000000000000000081526004018080602001828103825260178152602001807f6d73672073656e646572206973206e6f74206f776e657200000000000000000081525060200191505060405180910390fd5b806000806101000a81548173ffffffffffffffffffffffffffffffffffffffff021916908373ffffffffffffffffffffffffffffffffffffffff16021790555050565b6000809050919050565b6000809054906101000a900473ffffffffffffffffffffffffffffffffffffffff1673ffffffffffffffffffffffffffffffffffffffff163373ffffffffffffffffffffffffffffffffffffffff1614612751576040517f08c379a00000000000000000000000000000000000000000000000000000000081526004018080602001828103825260178152602001807f6d73672073656e646572206973206e6f74206f776e657200000000000000000081525060200191505060405180910390fd5b60008473ffffffffffffffffffffffffffffffffffffffff16636638c087856012868660016040518663ffffffff1660e01b815260040180806020018660ff1681526020018060200185815260200184151515158152602001838103835288818151815260200191508051906020019080838360005b838110156127e25780820151818401526020810190506127c7565b50505050905090810190601f16801561280f5780820380516001836020036101000a031916815260200191505b50838103825286818151815260200191508051906020019080838360005b8381101561284857808201518184015260208101905061282d565b50505050905090810190601f1680156128755780820380516001836020036101000a031916815260200191505b50975050505050505050602060405180830381600087803b15801561289957600080fd5b505af11580156128ad573d6000803e3d6000fd5b505050506040513d60208110156128c357600080fd5b8101908080519060200190929190505050905060078190806001815401808255809150509060018203906000526020600020016000909192909190916101000a81548173ffffffffffffffffffffffffffffffffffffffff021916908373ffffffffffffffffffffffffffffffffffffffff160217905550507fe931f3c3a4cdad0205732fe3b173cb0a468091c05c08e5f1b816e38ef03ebad081604051808273ffffffffffffffffffffffffffffffffffffffff1673ffffffffffffffffffffffffffffffffffffffff16815260200191505060405180910390a15050505050565b600460009054906101000a900473ffffffffffffffffffffffffffffffffffffffff1681565b60606007805480602002602001604051908101604052809291908181526020018280548015612a5057602002820191906000526020600020905b8160009054906101000a900473ffffffffffffffffffffffffffffffffffffffff1673ffffffffffffffffffffffffffffffffffffffff1681526020019060010190808311612a06575b5050505050905090565b828054600181600116156101000203166002900490600052602060002090601f016020900481019282601f10612a9b57805160ff1916838001178555612ac9565b82800160010185558215612ac9579182015b82811115612ac8578251825591602001919060010190612aad565b5b509050612ad69190612ada565b5090565b612afc91905b80821115612af8576000816000905550600101612ae0565b5090565b9056fea165627a7a72305820ebf4e1c5e841ae0290c46961ca6ec77e54844a4af8524b0fef5b8353516d894e0029",
  "source": "pragma solidity ^0.5.0;\n\nimport \"./external/MiniMeToken.sol\";\nimport \"./external/ERC20.sol\";\nimport \"./external/Owned.sol\";\n\n/**\n    The goal of this contract is to allow investing directly in the value of a person.\n    1. Investors convert a reserve token into time tokens up to a maximum based on age\n    2. The reserve token (dai) provides a price floor on the value of the person's time\n    3. The owner can generate a set amount of tokens over time as compensation for work done\n    4. At any point, a person can convert their time tokens back into what remains of their\n        share of the reseerve tokens.\n**/\ncontract MeDao is Owned, TokenController {\n\n    address public factory;         // The factory that deployed this contract\n    uint public blockInitialized;   // The block this contract was initialized\n\n    ERC20 public Dai;               // A reserve currency to hold the value of a person\n    MiniMeToken public Time;        // A cloneable token that represents the value of a person\n    uint public maxTokenSupply;     // The maximum amount of tokens that can be minted\n\n    address public identity;        // The account associated with this medao\n    address[] public clones;        // A list of clones created by the owner\n    int public birthTimestamp;      // The Unix timestamp of the birth date of\n    uint public lastPayTimestamp;   // The last time the owner collected a paycheck\n\n    string public hash;             // The hash of any relevant data about this medao\n\n    constructor () public {\n        // ensures the blueprint provided to the factory cannot be initialized\n        blockInitialized = block.number;\n    }\n\n    function initialize (\n        address _owner,\n        MiniMeToken _Time,\n        ERC20 _Dai,\n        int _birthTimestamp,\n        uint _initialTokenBalance\n    ) public {\n        require(blockInitialized == 0, 'contract already initialized');\n        require(_birthTimestamp < int(now), 'invalid birth timestamp');\n\n        blockInitialized = block.number;\n        factory = msg.sender;\n\n        owner = _owner;\n        identity = _owner;\n        Time = _Time;\n        Dai = _Dai;\n        birthTimestamp = _birthTimestamp;\n\n        uint elapsedSeconds = uint(int(now) - birthTimestamp);\n        maxTokenSupply = calculateWorkTime(elapsedSeconds);\n        lastPayTimestamp = now;\n\n        require(Time.generateTokens(owner, _initialTokenBalance), \"failed to generate tokens\");\n    }\n\n    function getClones () public view returns (address[] memory) {\n        return clones;\n    }\n\n    function getTotalClones () public view returns (uint) {\n        return clones.length;\n    }\n\n    function calculateTimeClaim (uint daiAmount) public view returns (uint) {\n        return Time.totalSupply() * daiAmount / Dai.balanceOf(address(this));\n    }\n\n    function calculateDaiClaim (uint secondsInWei) public view returns (uint) {\n        return Dai.balanceOf(address(this)) * secondsInWei / Time.totalSupply();\n    }\n\n    function calculateWorkTime (uint elapsedSeconds) public pure returns (uint) {\n        return (elapsedSeconds * 1 ether) * 40 / 168;\n    }\n\n    function collectPaycheck () public onlyOwner {\n        uint elapsedSeconds = now - lastPayTimestamp;\n        uint workTime = calculateWorkTime(elapsedSeconds);\n        uint fundedTime = workTime * Time.totalSupply() / maxTokenSupply;\n        maxTokenSupply += workTime;\n        lastPayTimestamp = now;\n        require(Time.generateTokens(owner, fundedTime), \"failed to generate tokens\");\n        emit Pay_event(fundedTime);\n    }\n\n    function convertDai (uint daiAmount) public {\n        uint availableSeconds = maxTokenSupply - Time.totalSupply();\n        uint claimedTime = calculateTimeClaim(daiAmount);\n        require(availableSeconds >= claimedTime, \"invalid reserve amount\");\n        require(Dai.transferFrom(msg.sender, address(this), daiAmount), \"failed to transfer\");\n        require(Time.generateTokens(msg.sender, claimedTime), \"failed to generate tokens\");\n        emit ConvertDai_event(msg.sender, daiAmount, claimedTime);\n    }\n\n    function convertTime (uint secondsInWei) public {\n        uint daiClaim = calculateDaiClaim(secondsInWei);\n        require(Time.destroyTokens(msg.sender, secondsInWei), \"failed to destroy tokens\");\n        require(Dai.transfer(msg.sender, daiClaim), \"failed to transfer\");\n        emit ConvertTime_event(msg.sender, secondsInWei, daiClaim);\n    }\n\n    function burn (uint tokenAmount) public {\n        require(Time.destroyTokens(msg.sender, tokenAmount), \"failed to burn tokens\");\n        emit Burn_event(msg.sender, tokenAmount);\n    }\n\n    function setHash (string memory newHash) public onlyOwner {\n        hash = newHash;\n        emit NewHash_event(newHash);\n    }\n\n    function setIdentity (address newIdentity) public onlyOwner {\n        identity = newIdentity;\n        emit NewIdentity_event(newIdentity);\n    }\n\n    function createCloneToken (\n        MiniMeToken cloneableToken,\n        string memory tokenName,\n        string memory tokenSymbol,\n        uint snapshotBlock\n    ) public onlyOwner {\n        address payable token = address(uint160(cloneableToken.createCloneToken(\n            tokenName,\n            18,\n            tokenSymbol,\n            snapshotBlock,\n            true\n        )));\n\n        clones.push(token);\n        emit Clone_event(token);\n    }\n\n    event Pay_event (uint tokenAmount);\n    event Clone_event (address token);\n    event ConvertDai_event (address msgSender, uint reserveAmount, uint tokenAmount);\n    event ConvertTime_event (address msgSender, uint tokenAmount, uint reserveAmount);\n    event Burn_event (address msgSender, uint tokenAmount);\n    event NewHash_event (string newHash);\n    event NewIdentity_event (address newIdentity);\n\n/// Token Controller Functions\n\n    function proxyPayment (address _owner) public payable returns(bool) {\n        _owner;\n        return false;\n    }\n\n    function onTransfer (address _from, address _to, uint _amount) public returns(bool) {\n        _from; _amount;\n        if(_to == address(this) || _to == address(0x0))\n            return false;\n\n        return true;\n    }\n\n    function onApprove (address _owner, address _spender, uint _amount) public returns(bool) {\n        _owner; _spender; _amount;\n        return true;\n    }\n\n}\n",
  "sourcePath": "/home/joe/Documents/github/chicobitcoinjoe/MeDao/contracts/MeDao.sol",
  "compiler": {
    "name": "solc",
    "version": "0.5.8+commit.23d335f2.Emscripten.clang"
  },
  "schemaVersion": "3.0.11",
  "updatedAt": "2019-07-31T01:57:08.668Z",
  "devdoc": {
    "methods": {}
  },
  "userdoc": {
    "methods": {
      "proxyPayment(address)": {
        "notice": "Token Controller Functions"
      }
    },
    "notice": "The goal of this contract is to allow investing directly in the value of a person. 1. Investors convert a reserve token into time tokens up to a maximum based on age 2. The reserve token (dai) provides a price floor on the value of the person's time 3. The owner can generate a set amount of tokens over time as compensation for work done 4. At any point, a person can convert their time tokens back into what remains of their share of the reseerve tokens.*"
  }
}