{
  "contractName": "MeDaoFactory",
  "abi": [
    {
      "constant": true,
      "inputs": [],
      "name": "blueprint",
      "outputs": [
        {
          "name": "",
          "type": "address"
        }
      ],
      "payable": false,
      "stateMutability": "view",
      "type": "function"
    },
    {
      "constant": true,
      "inputs": [
        {
          "name": "",
          "type": "address"
        }
      ],
      "name": "created",
      "outputs": [
        {
          "name": "",
          "type": "bool"
        }
      ],
      "payable": false,
      "stateMutability": "view",
      "type": "function"
    },
    {
      "inputs": [
        {
          "name": "_blueprint",
          "type": "address"
        },
        {
          "name": "_factory",
          "type": "address"
        }
      ],
      "payable": false,
      "stateMutability": "nonpayable",
      "type": "constructor"
    },
    {
      "anonymous": false,
      "inputs": [
        {
          "indexed": false,
          "name": "medao",
          "type": "address"
        },
        {
          "indexed": false,
          "name": "owner",
          "type": "address"
        },
        {
          "indexed": false,
          "name": "timeToken",
          "type": "address"
        },
        {
          "indexed": false,
          "name": "reserveToken",
          "type": "address"
        },
        {
          "indexed": false,
          "name": "birthTimestamp",
          "type": "int256"
        }
      ],
      "name": "Create_event",
      "type": "event"
    },
    {
      "constant": false,
      "inputs": [
        {
          "name": "owner",
          "type": "address"
        },
        {
          "name": "reserveToken",
          "type": "address"
        },
        {
          "name": "name",
          "type": "string"
        },
        {
          "name": "birthTimestamp",
          "type": "int256"
        },
        {
          "name": "tokenClaim",
          "type": "uint256"
        },
        {
          "name": "initialReserve",
          "type": "uint256"
        }
      ],
      "name": "create",
      "outputs": [
        {
          "name": "medao",
          "type": "address"
        }
      ],
      "payable": false,
      "stateMutability": "nonpayable",
      "type": "function"
    }
  ],
  "bytecode": "0x608060405234801561001057600080fd5b506040516040806109e28339810180604052604081101561003057600080fd5b810190808051906020019092919080519060200190929190505050816000806101000a81548173ffffffffffffffffffffffffffffffffffffffff021916908373ffffffffffffffffffffffffffffffffffffffff16021790555080600160006101000a81548173ffffffffffffffffffffffffffffffffffffffff021916908373ffffffffffffffffffffffffffffffffffffffff1602179055505050610905806100dd6000396000f3fe608060405234801561001057600080fd5b50600436106100415760003560e01c8063c05efa1514610046578063d2d0d52514610090578063d42efd83146101e9575b600080fd5b61004e610245565b604051808273ffffffffffffffffffffffffffffffffffffffff1673ffffffffffffffffffffffffffffffffffffffff16815260200191505060405180910390f35b6101a7600480360360c08110156100a657600080fd5b81019080803573ffffffffffffffffffffffffffffffffffffffff169060200190929190803573ffffffffffffffffffffffffffffffffffffffff1690602001909291908035906020019064010000000081111561010357600080fd5b82018360208201111561011557600080fd5b8035906020019184600183028401116401000000008311171561013757600080fd5b91908080601f016020809104026020016040519081016040528093929190818152602001838380828437600081840152601f19601f82011690508083019250505050505050919291929080359060200190929190803590602001909291908035906020019092919050505061026a565b604051808273ffffffffffffffffffffffffffffffffffffffff1673ffffffffffffffffffffffffffffffffffffffff16815260200191505060405180910390f35b61022b600480360360208110156101ff57600080fd5b81019080803573ffffffffffffffffffffffffffffffffffffffff16906020019092919050505061084f565b604051808215151515815260200191505060405180910390f35b6000809054906101000a900473ffffffffffffffffffffffffffffffffffffffff1681565b60006102966000809054906101000a900473ffffffffffffffffffffffffffffffffffffffff1661086f565b90506000600160009054906101000a900473ffffffffffffffffffffffffffffffffffffffff1673ffffffffffffffffffffffffffffffffffffffff16635b7b72c160008089601260016040518663ffffffff1660e01b8152600401808673ffffffffffffffffffffffffffffffffffffffff1673ffffffffffffffffffffffffffffffffffffffff168152602001858152602001806020018460ff1681526020018060200184151515158152602001838103835286818151815260200191508051906020019080838360005b8381101561037e578082015181840152602081019050610363565b50505050905090810190601f1680156103ab5780820380516001836020036101000a031916815260200191505b50838103825260078152602001807f7365636f6e647300000000000000000000000000000000000000000000000000815250602001975050505050505050602060405180830381600087803b15801561040357600080fd5b505af1158015610417573d6000803e3d6000fd5b505050506040513d602081101561042d57600080fd5b810190808051906020019092919050505090508073ffffffffffffffffffffffffffffffffffffffff16633cebb823836040518263ffffffff1660e01b8152600401808273ffffffffffffffffffffffffffffffffffffffff1673ffffffffffffffffffffffffffffffffffffffff168152602001915050600060405180830381600087803b1580156104bf57600080fd5b505af11580156104d3573d6000803e3d6000fd5b505050508673ffffffffffffffffffffffffffffffffffffffff166323b872dd3384866040518463ffffffff1660e01b8152600401808473ffffffffffffffffffffffffffffffffffffffff1673ffffffffffffffffffffffffffffffffffffffff1681526020018373ffffffffffffffffffffffffffffffffffffffff1673ffffffffffffffffffffffffffffffffffffffff1681526020018281526020019350505050602060405180830381600087803b15801561059257600080fd5b505af11580156105a6573d6000803e3d6000fd5b505050506040513d60208110156105bc57600080fd5b81019080805190602001909291905050506105d657600080fd5b8173ffffffffffffffffffffffffffffffffffffffff1663c502f16289838a89896040518663ffffffff1660e01b8152600401808673ffffffffffffffffffffffffffffffffffffffff1673ffffffffffffffffffffffffffffffffffffffff1681526020018573ffffffffffffffffffffffffffffffffffffffff1673ffffffffffffffffffffffffffffffffffffffff1681526020018473ffffffffffffffffffffffffffffffffffffffff1673ffffffffffffffffffffffffffffffffffffffff16815260200183815260200182815260200195505050505050600060405180830381600087803b1580156106cd57600080fd5b505af11580156106e1573d6000803e3d6000fd5b505050506001600260008473ffffffffffffffffffffffffffffffffffffffff1673ffffffffffffffffffffffffffffffffffffffff16815260200190815260200160002060006101000a81548160ff0219169083151502179055507f0c424adf2e2a364a26596fcd24224be43fbc40a69daa558717a74a606efba7658289838a89604051808673ffffffffffffffffffffffffffffffffffffffff1673ffffffffffffffffffffffffffffffffffffffff1681526020018573ffffffffffffffffffffffffffffffffffffffff1673ffffffffffffffffffffffffffffffffffffffff1681526020018473ffffffffffffffffffffffffffffffffffffffff1673ffffffffffffffffffffffffffffffffffffffff1681526020018373ffffffffffffffffffffffffffffffffffffffff1673ffffffffffffffffffffffffffffffffffffffff1681526020018281526020019550505050505060405180910390a1509695505050505050565b60026020528060005260406000206000915054906101000a900460ff1681565b6000808260601b90506040517f3d602d80600a3d3981f3363d3d373d3d3d363d7300000000000000000000000081528160148201527f5af43d82803e903d91602b57fd5bf3000000000000000000000000000000000060288201526037816000f09250505091905056fea165627a7a723058207b46f1e1d84e5b1a01296d55fd80f1a1f8669055b096e7b0db2f29fcd8e0d2930029",
  "source": "pragma solidity ^0.5.0;\n\nimport \"./external/CloneFactory.sol\";\nimport \"./MeDao.sol\";\n\ncontract MeDaoFactory is CloneFactory {\n\n    address public blueprint;\n    MiniMeTokenFactory factory;\n    mapping (address => bool) public created;\n\n    constructor (\n        address _blueprint,\n        MiniMeTokenFactory _factory\n    ) public {\n        blueprint = _blueprint;\n        factory = _factory;\n    }\n\n    function create (\n        address owner,\n        ERC20 reserveToken,\n        string memory name,\n        int birthTimestamp,\n        uint tokenClaim,\n        uint initialReserve\n    ) public returns (address medao) {\n        medao = createClone(blueprint);\n\n        MiniMeToken timeToken = factory.createCloneToken(\n            address(0x0),\n            0,\n            name,\n            18,\n            'seconds',\n            true\n        );\n\n        timeToken.changeController(medao);\n        require(reserveToken.transferFrom(msg.sender, medao, initialReserve));\n        MeDao(medao).initialize(owner, timeToken, reserveToken, birthTimestamp, tokenClaim);\n        created[medao] = true;\n        emit Create_event(medao, owner, timeToken, reserveToken, birthTimestamp);\n    }\n\n    event Create_event (address medao, address owner, MiniMeToken timeToken, ERC20 reserveToken, int birthTimestamp);\n}\n",
  "sourcePath": "/home/joe/Documents/github/chicobitcoinjoe/MeDao/contracts/MeDaoFactory.sol",
  "compiler": {
    "name": "solc",
    "version": "0.5.8+commit.23d335f2.Emscripten.clang"
  },
  "schemaVersion": "3.0.11",
  "updatedAt": "2019-06-13T21:49:00.688Z",
  "devdoc": {
    "methods": {}
  },
  "userdoc": {
    "methods": {}
  }
}