{
  "contractName": "MeDao",
  "abi": [
    {
      "constant": false,
      "inputs": [
        {
          "name": "_reserveToken",
          "type": "address"
        },
        {
          "name": "_shareToken",
          "type": "address"
        },
        {
          "name": "_maxTokenSupply",
          "type": "uint256"
        },
        {
          "name": "_baseShareValue",
          "type": "uint256"
        },
        {
          "name": "_useBaseValue",
          "type": "bool"
        }
      ],
      "name": "setupMoneyPool",
      "outputs": [],
      "payable": false,
      "stateMutability": "nonpayable",
      "type": "function"
    },
    {
      "constant": false,
      "inputs": [
        {
          "name": "shareAmount",
          "type": "uint256"
        }
      ],
      "name": "withdraw",
      "outputs": [
        {
          "name": "reserveClaim",
          "type": "uint256"
        }
      ],
      "payable": false,
      "stateMutability": "nonpayable",
      "type": "function"
    },
    {
      "constant": true,
      "inputs": [
        {
          "name": "reserveAmount",
          "type": "uint256"
        }
      ],
      "name": "calculateShareClaim",
      "outputs": [
        {
          "name": "",
          "type": "uint256"
        }
      ],
      "payable": false,
      "stateMutability": "view",
      "type": "function"
    },
    {
      "constant": false,
      "inputs": [
        {
          "name": "_from",
          "type": "address"
        },
        {
          "name": "_to",
          "type": "address"
        },
        {
          "name": "_amount",
          "type": "uint256"
        }
      ],
      "name": "onTransfer",
      "outputs": [
        {
          "name": "",
          "type": "bool"
        }
      ],
      "payable": false,
      "stateMutability": "nonpayable",
      "type": "function"
    },
    {
      "constant": true,
      "inputs": [],
      "name": "maxTokenSupply",
      "outputs": [
        {
          "name": "",
          "type": "uint256"
        }
      ],
      "payable": false,
      "stateMutability": "view",
      "type": "function"
    },
    {
      "constant": true,
      "inputs": [],
      "name": "shareToken",
      "outputs": [
        {
          "name": "",
          "type": "address"
        }
      ],
      "payable": false,
      "stateMutability": "view",
      "type": "function"
    },
    {
      "constant": true,
      "inputs": [],
      "name": "baseShareValue",
      "outputs": [
        {
          "name": "",
          "type": "uint256"
        }
      ],
      "payable": false,
      "stateMutability": "view",
      "type": "function"
    },
    {
      "constant": true,
      "inputs": [],
      "name": "owner",
      "outputs": [
        {
          "name": "",
          "type": "address"
        }
      ],
      "payable": false,
      "stateMutability": "view",
      "type": "function"
    },
    {
      "constant": true,
      "inputs": [],
      "name": "useBaseValue",
      "outputs": [
        {
          "name": "",
          "type": "bool"
        }
      ],
      "payable": false,
      "stateMutability": "view",
      "type": "function"
    },
    {
      "constant": true,
      "inputs": [],
      "name": "blockInitialized",
      "outputs": [
        {
          "name": "",
          "type": "uint256"
        }
      ],
      "payable": false,
      "stateMutability": "view",
      "type": "function"
    },
    {
      "constant": true,
      "inputs": [
        {
          "name": "shareAmount",
          "type": "uint256"
        }
      ],
      "name": "calculateReserveClaim",
      "outputs": [
        {
          "name": "",
          "type": "uint256"
        }
      ],
      "payable": false,
      "stateMutability": "view",
      "type": "function"
    },
    {
      "constant": false,
      "inputs": [
        {
          "name": "reserveAmount",
          "type": "uint256"
        }
      ],
      "name": "deposit",
      "outputs": [
        {
          "name": "shareClaim",
          "type": "uint256"
        }
      ],
      "payable": false,
      "stateMutability": "nonpayable",
      "type": "function"
    },
    {
      "constant": true,
      "inputs": [],
      "name": "collectedTimestamp",
      "outputs": [
        {
          "name": "",
          "type": "uint256"
        }
      ],
      "payable": false,
      "stateMutability": "view",
      "type": "function"
    },
    {
      "constant": false,
      "inputs": [
        {
          "name": "_owner",
          "type": "address"
        },
        {
          "name": "_spender",
          "type": "address"
        },
        {
          "name": "_amount",
          "type": "uint256"
        }
      ],
      "name": "onApprove",
      "outputs": [
        {
          "name": "",
          "type": "bool"
        }
      ],
      "payable": false,
      "stateMutability": "nonpayable",
      "type": "function"
    },
    {
      "constant": false,
      "inputs": [
        {
          "name": "newOwner",
          "type": "address"
        }
      ],
      "name": "transferOwnership",
      "outputs": [],
      "payable": false,
      "stateMutability": "nonpayable",
      "type": "function"
    },
    {
      "constant": true,
      "inputs": [],
      "name": "reserveToken",
      "outputs": [
        {
          "name": "",
          "type": "address"
        }
      ],
      "payable": false,
      "stateMutability": "view",
      "type": "function"
    },
    {
      "constant": false,
      "inputs": [
        {
          "name": "_owner",
          "type": "address"
        }
      ],
      "name": "proxyPayment",
      "outputs": [
        {
          "name": "",
          "type": "bool"
        }
      ],
      "payable": true,
      "stateMutability": "payable",
      "type": "function"
    },
    {
      "anonymous": false,
      "inputs": [
        {
          "indexed": false,
          "name": "collectedAmount",
          "type": "uint256"
        }
      ],
      "name": "Collect_event",
      "type": "event"
    },
    {
      "anonymous": false,
      "inputs": [
        {
          "indexed": false,
          "name": "msgSender",
          "type": "address"
        },
        {
          "indexed": false,
          "name": "reserveAmount",
          "type": "uint256"
        },
        {
          "indexed": false,
          "name": "shareClaim",
          "type": "uint256"
        }
      ],
      "name": "Deposit_event",
      "type": "event"
    },
    {
      "anonymous": false,
      "inputs": [
        {
          "indexed": false,
          "name": "msgSender",
          "type": "address"
        },
        {
          "indexed": false,
          "name": "shareAmount",
          "type": "uint256"
        },
        {
          "indexed": false,
          "name": "reserveClaim",
          "type": "uint256"
        }
      ],
      "name": "Withdraw_event",
      "type": "event"
    },
    {
      "anonymous": false,
      "inputs": [
        {
          "indexed": false,
          "name": "account",
          "type": "address"
        },
        {
          "indexed": false,
          "name": "reserveAmount",
          "type": "uint256"
        }
      ],
      "name": "Transfer_event",
      "type": "event"
    },
    {
      "anonymous": false,
      "inputs": [
        {
          "indexed": false,
          "name": "account",
          "type": "address"
        },
        {
          "indexed": false,
          "name": "shareAmount",
          "type": "uint256"
        }
      ],
      "name": "Issue_event",
      "type": "event"
    },
    {
      "anonymous": false,
      "inputs": [
        {
          "indexed": false,
          "name": "account",
          "type": "address"
        },
        {
          "indexed": false,
          "name": "shareAmount",
          "type": "uint256"
        }
      ],
      "name": "Destroy_event",
      "type": "event"
    },
    {
      "constant": false,
      "inputs": [
        {
          "name": "_reserveToken",
          "type": "address"
        },
        {
          "name": "_shareToken",
          "type": "address"
        },
        {
          "name": "_maxTokenSupply",
          "type": "uint256"
        },
        {
          "name": "_baseShareValue",
          "type": "uint256"
        },
        {
          "name": "_useBaseValue",
          "type": "bool"
        }
      ],
      "name": "initialize",
      "outputs": [],
      "payable": false,
      "stateMutability": "nonpayable",
      "type": "function"
    },
    {
      "constant": true,
      "inputs": [
        {
          "name": "elapsedSeconds",
          "type": "uint256"
        }
      ],
      "name": "calculateWorkTime",
      "outputs": [
        {
          "name": "",
          "type": "uint256"
        }
      ],
      "payable": false,
      "stateMutability": "pure",
      "type": "function"
    },
    {
      "constant": false,
      "inputs": [],
      "name": "collect",
      "outputs": [
        {
          "name": "collectedFunds",
          "type": "uint256"
        }
      ],
      "payable": false,
      "stateMutability": "nonpayable",
      "type": "function"
    }
  ],
  "bytecode": "0x608060405233600160006101000a81548173ffffffffffffffffffffffffffffffffffffffff021916908373ffffffffffffffffffffffffffffffffffffffff160217905550611a0a806100546000396000f3fe60806040526004361061011f5760003560e01c8063b163ecd2116100a0578063e522538111610064578063e5225381146105ef578063eb91ba561461061a578063f2fde38b146106ab578063f4325d67146106fc578063f48c3054146107535761011f565b8063b163ecd214610444578063b6b55f2514610493578063c65ad541146104e2578063cb29b1c51461050d578063da682aeb1461055c5761011f565b80636c9fa59e116100e75780636c9fa59e14610311578063761537ad146103685780638da5cb5b1461039357806395a1e303146103ea5780639bc40c4c146104195761011f565b8063071e899a146101245780632e1a7d4d146101b5578063327ca4a8146102045780634a3931491461025357806350f7c204146102e6575b600080fd5b34801561013057600080fd5b506101b3600480360360a081101561014757600080fd5b81019080803573ffffffffffffffffffffffffffffffffffffffff169060200190929190803573ffffffffffffffffffffffffffffffffffffffff16906020019092919080359060200190929190803590602001909291908035151590602001909291905050506107af565b005b3480156101c157600080fd5b506101ee600480360360208110156101d857600080fd5b8101908080359060200190929190505050610875565b6040518082815260200191505060405180910390f35b34801561021057600080fd5b5061023d6004803603602081101561022757600080fd5b8101908080359060200190929190505050610ba6565b6040518082815260200191505060405180910390f35b34801561025f57600080fd5b506102cc6004803603606081101561027657600080fd5b81019080803573ffffffffffffffffffffffffffffffffffffffff169060200190929190803573ffffffffffffffffffffffffffffffffffffffff16906020019092919080359060200190929190505050610e4d565b604051808215151515815260200191505060405180910390f35b3480156102f257600080fd5b506102fb610e5a565b6040518082815260200191505060405180910390f35b34801561031d57600080fd5b50610326610e60565b604051808273ffffffffffffffffffffffffffffffffffffffff1673ffffffffffffffffffffffffffffffffffffffff16815260200191505060405180910390f35b34801561037457600080fd5b5061037d610e86565b6040518082815260200191505060405180910390f35b34801561039f57600080fd5b506103a8610e8c565b604051808273ffffffffffffffffffffffffffffffffffffffff1673ffffffffffffffffffffffffffffffffffffffff16815260200191505060405180910390f35b3480156103f657600080fd5b506103ff610eb2565b604051808215151515815260200191505060405180910390f35b34801561042557600080fd5b5061042e610ec5565b6040518082815260200191505060405180910390f35b34801561045057600080fd5b5061047d6004803603602081101561046757600080fd5b8101908080359060200190929190505050610ecb565b6040518082815260200191505060405180910390f35b34801561049f57600080fd5b506104cc600480360360208110156104b657600080fd5b810190808035906020019092919050505061105b565b6040518082815260200191505060405180910390f35b3480156104ee57600080fd5b506104f76114e1565b6040518082815260200191505060405180910390f35b34801561051957600080fd5b506105466004803603602081101561053057600080fd5b81019080803590602001909291905050506114e7565b6040518082815260200191505060405180910390f35b34801561056857600080fd5b506105d56004803603606081101561057f57600080fd5b81019080803573ffffffffffffffffffffffffffffffffffffffff169060200190929190803573ffffffffffffffffffffffffffffffffffffffff16906020019092919080359060200190929190505050611508565b604051808215151515815260200191505060405180910390f35b3480156105fb57600080fd5b50610604611515565b6040518082815260200191505060405180910390f35b34801561062657600080fd5b506106a9600480360360a081101561063d57600080fd5b81019080803573ffffffffffffffffffffffffffffffffffffffff169060200190929190803573ffffffffffffffffffffffffffffffffffffffff169060200190929190803590602001909291908035906020019092919080351515906020019092919050505061170a565b005b3480156106b757600080fd5b506106fa600480360360208110156106ce57600080fd5b81019080803573ffffffffffffffffffffffffffffffffffffffff16906020019092919050505061173b565b005b34801561070857600080fd5b50610711611842565b604051808273ffffffffffffffffffffffffffffffffffffffff1673ffffffffffffffffffffffffffffffffffffffff16815260200191505060405180910390f35b6107956004803603602081101561076957600080fd5b81019080803573ffffffffffffffffffffffffffffffffffffffff169060200190929190505050611868565b604051808215151515815260200191505060405180910390f35b60008054146107bd57600080fd5b84600260006101000a81548173ffffffffffffffffffffffffffffffffffffffff021916908373ffffffffffffffffffffffffffffffffffffffff16021790555083600360006101000a81548173ffffffffffffffffffffffffffffffffffffffff021916908373ffffffffffffffffffffffffffffffffffffffff160217905550826004819055508160058190555080600660006101000a81548160ff021916908315150217905550436000819055505050505050565b600061088082610ecb565b9050600360009054906101000a900473ffffffffffffffffffffffffffffffffffffffff1673ffffffffffffffffffffffffffffffffffffffff1663d3ce77fe33846040518363ffffffff1660e01b8152600401808373ffffffffffffffffffffffffffffffffffffffff1673ffffffffffffffffffffffffffffffffffffffff16815260200182815260200192505050602060405180830381600087803b15801561092b57600080fd5b505af115801561093f573d6000803e3d6000fd5b505050506040513d602081101561095557600080fd5b81019080805190602001909291905050506109d8576040517f08c379a00000000000000000000000000000000000000000000000000000000081526004018080602001828103825260188152602001807f6661696c656420746f2064657374726f7920746f6b656e73000000000000000081525060200191505060405180910390fd5b600260009054906101000a900473ffffffffffffffffffffffffffffffffffffffff1673ffffffffffffffffffffffffffffffffffffffff1663a9059cbb33836040518363ffffffff1660e01b8152600401808373ffffffffffffffffffffffffffffffffffffffff1673ffffffffffffffffffffffffffffffffffffffff16815260200182815260200192505050602060405180830381600087803b158015610a8157600080fd5b505af1158015610a95573d6000803e3d6000fd5b505050506040513d6020811015610aab57600080fd5b8101908080519060200190929190505050610b2e576040517f08c379a00000000000000000000000000000000000000000000000000000000081526004018080602001828103825260128152602001807f6661696c656420746f207472616e73666572000000000000000000000000000081525060200191505060405180910390fd5b7ffc66b0b1bed0c04059e1367b6de8a81a90429a81bc9ba512980aad725fb5632c338383604051808473ffffffffffffffffffffffffffffffffffffffff1673ffffffffffffffffffffffffffffffffffffffff168152602001838152602001828152602001935050505060405180910390a1919050565b6000600660009054906101000a900460ff1680610c9c57506000600260009054906101000a900473ffffffffffffffffffffffffffffffffffffffff1673ffffffffffffffffffffffffffffffffffffffff166370a08231306040518263ffffffff1660e01b8152600401808273ffffffffffffffffffffffffffffffffffffffff1673ffffffffffffffffffffffffffffffffffffffff16815260200191505060206040518083038186803b158015610c5f57600080fd5b505afa158015610c73573d6000803e3d6000fd5b505050506040513d6020811015610c8957600080fd5b8101908080519060200190929190505050145b15610cbe57600554670de0b6b3a7640000830281610cb657fe5b049050610e48565b600260009054906101000a900473ffffffffffffffffffffffffffffffffffffffff1673ffffffffffffffffffffffffffffffffffffffff166370a08231306040518263ffffffff1660e01b8152600401808273ffffffffffffffffffffffffffffffffffffffff1673ffffffffffffffffffffffffffffffffffffffff16815260200191505060206040518083038186803b158015610d5d57600080fd5b505afa158015610d71573d6000803e3d6000fd5b505050506040513d6020811015610d8757600080fd5b810190808051906020019092919050505082600360009054906101000a900473ffffffffffffffffffffffffffffffffffffffff1673ffffffffffffffffffffffffffffffffffffffff166318160ddd6040518163ffffffff1660e01b815260040160206040518083038186803b158015610e0157600080fd5b505afa158015610e15573d6000803e3d6000fd5b505050506040513d6020811015610e2b57600080fd5b81019080805190602001909291905050500281610e4457fe5b0490505b919050565b6000600190509392505050565b60045481565b600360009054906101000a900473ffffffffffffffffffffffffffffffffffffffff1681565b60055481565b600160009054906101000a900473ffffffffffffffffffffffffffffffffffffffff1681565b600660009054906101000a900460ff1681565b60005481565b6000600360009054906101000a900473ffffffffffffffffffffffffffffffffffffffff1673ffffffffffffffffffffffffffffffffffffffff166318160ddd6040518163ffffffff1660e01b815260040160206040518083038186803b158015610f3557600080fd5b505afa158015610f49573d6000803e3d6000fd5b505050506040513d6020811015610f5f57600080fd5b810190808051906020019092919050505082600260009054906101000a900473ffffffffffffffffffffffffffffffffffffffff1673ffffffffffffffffffffffffffffffffffffffff166370a08231306040518263ffffffff1660e01b8152600401808273ffffffffffffffffffffffffffffffffffffffff1673ffffffffffffffffffffffffffffffffffffffff16815260200191505060206040518083038186803b15801561101057600080fd5b505afa158015611024573d6000803e3d6000fd5b505050506040513d602081101561103a57600080fd5b8101908080519060200190929190505050028161105357fe5b049050919050565b600080600360009054906101000a900473ffffffffffffffffffffffffffffffffffffffff1673ffffffffffffffffffffffffffffffffffffffff166318160ddd6040518163ffffffff1660e01b815260040160206040518083038186803b1580156110c657600080fd5b505afa1580156110da573d6000803e3d6000fd5b505050506040513d60208110156110f057600080fd5b810190808051906020019092919050505060045403905061111083610ba6565b915081811015611188576040517f08c379a00000000000000000000000000000000000000000000000000000000081526004018080602001828103825260168152602001807f696e76616c6964207265736572766520616d6f756e740000000000000000000081525060200191505060405180910390fd5b600260009054906101000a900473ffffffffffffffffffffffffffffffffffffffff1673ffffffffffffffffffffffffffffffffffffffff166323b872dd3330866040518463ffffffff1660e01b8152600401808473ffffffffffffffffffffffffffffffffffffffff1673ffffffffffffffffffffffffffffffffffffffff1681526020018373ffffffffffffffffffffffffffffffffffffffff1673ffffffffffffffffffffffffffffffffffffffff1681526020018281526020019350505050602060405180830381600087803b15801561126557600080fd5b505af1158015611279573d6000803e3d6000fd5b505050506040513d602081101561128f57600080fd5b8101908080519060200190929190505050611312576040517f08c379a00000000000000000000000000000000000000000000000000000000081526004018080602001828103825260128152602001807f6661696c656420746f207472616e73666572000000000000000000000000000081525060200191505060405180910390fd5b600360009054906101000a900473ffffffffffffffffffffffffffffffffffffffff1673ffffffffffffffffffffffffffffffffffffffff1663827f32c033846040518363ffffffff1660e01b8152600401808373ffffffffffffffffffffffffffffffffffffffff1673ffffffffffffffffffffffffffffffffffffffff16815260200182815260200192505050602060405180830381600087803b1580156113bb57600080fd5b505af11580156113cf573d6000803e3d6000fd5b505050506040513d60208110156113e557600080fd5b8101908080519060200190929190505050611468576040517f08c379a00000000000000000000000000000000000000000000000000000000081526004018080602001828103825260198152602001807f6661696c656420746f2067656e657261746520746f6b656e730000000000000081525060200191505060405180910390fd5b7f48ac3b6d8a059a533cd86121b6616d2b78cc16910bc22eafff12e1f166591a22338484604051808473ffffffffffffffffffffffffffffffffffffffff1673ffffffffffffffffffffffffffffffffffffffff168152602001838152602001828152602001935050505060405180910390a150919050565b60075481565b600060a86028670de0b6b3a76400008402028161150057fe5b049050919050565b6000600190509392505050565b6000600160009054906101000a900473ffffffffffffffffffffffffffffffffffffffff1673ffffffffffffffffffffffffffffffffffffffff163373ffffffffffffffffffffffffffffffffffffffff16146115da576040517f08c379a00000000000000000000000000000000000000000000000000000000081526004018080602001828103825260178152602001807f6d73672073656e646572206973206e6f74206f776e657200000000000000000081525060200191505060405180910390fd5b60006007544203905060006115ee826114e7565b9050600454600360009054906101000a900473ffffffffffffffffffffffffffffffffffffffff1673ffffffffffffffffffffffffffffffffffffffff166318160ddd6040518163ffffffff1660e01b815260040160206040518083038186803b15801561165b57600080fd5b505afa15801561166f573d6000803e3d6000fd5b505050506040513d602081101561168557600080fd5b810190808051906020019092919050505082028161169f57fe5b0492506116ce600160009054906101000a900473ffffffffffffffffffffffffffffffffffffffff1684611872565b7fa21cd14946039cdfc580e41550837d39a3d20e9736124610d1814f0ca157f86e836040518082815260200191505060405180910390a1505090565b600080541461171857600080fd5b4260078190555061172d8585858560006107af565b436000819055505050505050565b600160009054906101000a900473ffffffffffffffffffffffffffffffffffffffff1673ffffffffffffffffffffffffffffffffffffffff163373ffffffffffffffffffffffffffffffffffffffff16146117fe576040517f08c379a00000000000000000000000000000000000000000000000000000000081526004018080602001828103825260178152602001807f6d73672073656e646572206973206e6f74206f776e657200000000000000000081525060200191505060405180910390fd5b80600160006101000a81548173ffffffffffffffffffffffffffffffffffffffff021916908373ffffffffffffffffffffffffffffffffffffffff16021790555050565b600260009054906101000a900473ffffffffffffffffffffffffffffffffffffffff1681565b6000809050919050565b600360009054906101000a900473ffffffffffffffffffffffffffffffffffffffff1673ffffffffffffffffffffffffffffffffffffffff1663827f32c083836040518363ffffffff1660e01b8152600401808373ffffffffffffffffffffffffffffffffffffffff1673ffffffffffffffffffffffffffffffffffffffff16815260200182815260200192505050602060405180830381600087803b15801561191b57600080fd5b505af115801561192f573d6000803e3d6000fd5b505050506040513d602081101561194557600080fd5b810190808051906020019092919050505061195f57600080fd5b806004600082825401925050819055507ffb82d8e745091d2d2020311ee7db0d74371569f79ab4247f0b268dfef2e9a69f8282604051808373ffffffffffffffffffffffffffffffffffffffff1673ffffffffffffffffffffffffffffffffffffffff1681526020018281526020019250505060405180910390a1505056fea165627a7a723058201258a4f4df53cf03fab8ac624d2dd0bb43b487e3788a85d46435e13a8ee3f21b0029",
  "source": "pragma solidity ^0.5.0;\n\nimport \"./external/CloneFactory.sol\";\nimport \"./MoneyPool.sol\";\nimport \"./Interfaces.sol\";\n\ncontract MeDao is MoneyPool {\n\n    uint public collectedTimestamp; // The timestamp when a paycheck was last collected\n\n    function initialize (\n        ERC20Token _reserveToken,\n        MiniMeToken _shareToken,\n        uint _maxTokenSupply,\n        uint _baseShareValue,\n        bool _useBaseValue\n    ) public runOnce {\n        collectedTimestamp = now;\n\n        setupMoneyPool (\n            _reserveToken,\n            _shareToken,\n            _maxTokenSupply,\n            _baseShareValue,\n            false\n        );\n    }\n\n    function calculateWorkTime (uint elapsedSeconds) public pure returns (uint) {\n        return elapsedSeconds * 1 ether * 40 / 168;\n    }\n\n    function collect () public onlyOwner returns (uint collectedFunds){\n        uint elapsedSeconds = now - collectedTimestamp;\n        uint workTime = calculateWorkTime(elapsedSeconds);\n        collectedFunds = workTime * shareToken.totalSupply() / maxTokenSupply;\n        issue(owner, collectedFunds);\n        emit Collect_event(collectedFunds);\n    }\n\n}\n\ncontract MeDaoFactory is CloneFactory {\n\n    MeDao public blueprint;\n    MiniMeTokenFactory factory;\n\n    mapping (address => bool) public created;\n\n    function create (\n        ERC20Token reserveToken,\n        string memory name,\n        uint maxTokenSupply,\n        uint baseShareValue\n    ) public returns (MeDao medao){\n        MiniMeToken shareToken = factory.createCloneToken(\n            address(0x0),\n            0,\n            name,\n            18,\n            'seconds',\n            true\n        );\n\n        medao = MeDao(createClone(address(blueprint)));\n        medao.initialize(\n            reserveToken,\n            shareToken,\n            maxTokenSupply,\n            baseShareValue,\n            false\n        );\n\n        created[address(medao)] = true;\n    }\n\n}\n\n/*\ncontract MeDao is Owned, SimpleTokenController {\n\n    address public factory;         // The factory that deployed this contract\n    uint public blockInitialized;   // The block this contract was initialized\n\n    ERC20Token public reserveToken; // A reserve token to hold the value of a person\n    MiniMeToken public shareToken;  // A cloneable token that represents a share of a person\n    uint public desiredWage;        // How much the owner desires to earn per second worked\n    uint public maxTokenSupply;     // The maximum amount of shares that can be created\n    uint public burnedTokenSupply;  // The maximum amount of shares that can be created\n    uint public collectedTimestamp; // The timestamp when a paycheck was last collected\n\n    constructor () public {\n        blockInitialized = block.number;\n    }\n\n    function initialize (\n        address _owner,\n        ERC20Token _reserveToken,\n        MiniMeToken _shareToken,\n        uint _fundraiserGoal,\n        uint _fundraiserDuration\n    ) public {\n        require(blockInitialized == 0, \"contract already initialized\");\n\n        blockInitialized = block.number;\n\n        owner = _owner;\n        reserveToken = _reserveToken;\n        shareToken = _shareToken;\n        collectedTimestamp = now;\n\n        desiredWage = _fundraiserGoal / _fundraiserDuration;\n        maxTokenSupply = _fundraiserDuration * 1 ether;\n        collectedTimestamp = now;\n    }\n\n    function calculateTimeClaim (uint daiAmount) public view returns (uint) {\n        return shareToken.totalSupply() * daiAmount / reserveToken.balanceOf(address(this));\n    }\n\n    function calculateDaiClaim (uint timeAmount) public view returns (uint) {\n        return reserveToken.balanceOf(address(this)) * timeAmount / shareToken.totalSupply();\n    }\n\n    function calculateWorkTime (uint elapsedSeconds) public pure returns (uint) {\n        return elapsedSeconds * 1 ether * 40 / 168;\n    }\n\n    function collectFunds () public onlyOwner returns (uint collectedFunds){\n        uint elapsedSeconds = now - collectedTimestamp;\n        uint workTime = calculateWorkTime(elapsedSeconds);\n        uint fundedTime = workTime * shareToken.totalSupply() / maxTokenSupply;\n        collectedFunds = calculateDaiClaim(fundedTime);\n        require(reserveToken.transfer(owner, collectedFunds), 'failed to transfer');\n        collectedTimestamp = now;\n        emit Pay_event(fundedTime, collectedFunds);\n    }\n\n    function deposit (uint daiAmount) public {\n        uint availableSeconds = maxTokenSupply - shareToken.totalSupply();\n        uint claimedTime = calculateTimeClaim(daiAmount);\n        require(availableSeconds >= claimedTime, \"invalid reserve amount\");\n        require(reserveToken.transferFrom(msg.sender, address(this), daiAmount), \"failed to transfer\");\n        require(shareToken.generateTokens(msg.sender, claimedTime), \"failed to generate tokens\");\n        emit ConvertDai_event(msg.sender, daiAmount, claimedTime);\n    }\n\n    function withdraw (uint timeAmount) public {\n        uint daiClaim = calculateDaiClaim(timeAmount);\n        require(shareToken.destroyTokens(msg.sender, timeAmount), \"failed to destroy tokens\");\n        require(reserveToken.transfer(msg.sender, daiClaim), \"failed to transfer\");\n        emit ConvertTime_event(msg.sender, timeAmount, daiClaim);\n    }\n\n    function burn (uint timeAmount) public {\n        require(shareToken.destroyTokens(msg.sender, timeAmount), \"failed to burn tokens\");\n        maxTokenSupply -= timeAmount;\n        burnedTokenSupply += timeAmount;\n        emit Burn_event(msg.sender, timeAmount);\n    }\n\n    event Pay_event (uint timeAmount, uint daiAmount);\n    event ConvertDai_event (address msgSender, uint daiAmount, uint timeAmount);\n    event ConvertTime_event (address msgSender, uint timeAmount, uint daiAmount);\n    event Burn_event (address msgSender, uint timeAmount);\n    event NewHash_event (string newHash);\n\n}\n\ncontract MeDaoFactory is CloneFactory {\n\n    address public blueprint;\n    ERC20Token public dai;\n    MiniMeTokenFactory factory;\n\n    mapping (address => bool) public created;\n    mapping (address => MeDao) public registry;\n\n    constructor (\n        address _blueprint,\n        ERC20Token _dai,\n        MiniMeTokenFactory _factory\n    ) public {\n        blueprint = _blueprint;\n        dai = _dai;\n        factory = _factory;\n    }\n\n    function create (\n        string memory name,\n        //int birthTimestamp,\n        uint tokenClaim,\n        uint initialReserve\n    ) public returns (MeDao medao) {\n        require(address(registry[msg.sender]) == address(0x0));\n        require(initialReserve > 0);\n        require(tokenClaim > 0);\n\n        MiniMeToken timeToken = factory.createCloneToken(\n            address(0x0),\n            0,\n            name,\n            18,\n            'seconds',\n            true\n        );\n\n        medao = MeDao(createClone(blueprint));\n        created[address(medao)] = true;\n        timeToken.changeController(address(medao));\n        require(dai.transferFrom(msg.sender, address(medao), initialReserve));\n        //medao.initialize(msg.sender, dai, timeToken, birthTimestamp, tokenClaim);\n\n        registry[msg.sender] = medao;\n        emit Register_event(msg.sender, medao);\n    }\n\n    event Register_event (address indexed owner, MeDao medao);\n}\n*/\n",
  "sourcePath": "/home/joe/Documents/github/chicobitcoinjoe/medao/contracts/MeDao.sol",
  "compiler": {
    "name": "solc",
    "version": "0.5.8+commit.23d335f2.Emscripten.clang"
  },
  "schemaVersion": "3.0.11",
  "updatedAt": "2019-08-06T00:16:25.833Z",
  "devdoc": {
    "methods": {}
  },
  "userdoc": {
    "methods": {}
  }
}