{
  "contractName": "MiniMeTokenFactory",
  "abi": [
    {
      "constant": false,
      "inputs": [
        {
          "name": "_parentToken",
          "type": "address"
        },
        {
          "name": "_snapshotBlock",
          "type": "uint256"
        },
        {
          "name": "_tokenName",
          "type": "string"
        },
        {
          "name": "_decimalUnits",
          "type": "uint8"
        },
        {
          "name": "_tokenSymbol",
          "type": "string"
        },
        {
          "name": "_transfersEnabled",
          "type": "bool"
        }
      ],
      "name": "createCloneToken",
      "outputs": [
        {
          "name": "",
          "type": "address"
        }
      ],
      "payable": false,
      "stateMutability": "nonpayable",
      "type": "function"
    }
  ],
  "bytecode": "0x608060405234801561001057600080fd5b5061313f806100206000396000f3fe608060405234801561001057600080fd5b506004361061002b5760003560e01c80635b7b72c114610030575b600080fd5b6101c3600480360360c081101561004657600080fd5b81019080803573ffffffffffffffffffffffffffffffffffffffff169060200190929190803590602001909291908035906020019064010000000081111561008d57600080fd5b82018360208201111561009f57600080fd5b803590602001918460018302840111640100000000831117156100c157600080fd5b91908080601f016020809104026020016040519081016040528093929190818152602001838380828437600081840152601f19601f820116905080830192505050505050509192919290803560ff1690602001909291908035906020019064010000000081111561013157600080fd5b82018360208201111561014357600080fd5b8035906020019184600183028401116401000000008311171561016557600080fd5b91908080601f016020809104026020016040519081016040528093929190818152602001838380828437600081840152601f19601f820116905080830192505050505050509192919290803515159060200190929190505050610205565b604051808273ffffffffffffffffffffffffffffffffffffffff1673ffffffffffffffffffffffffffffffffffffffff16815260200191505060405180910390f35b6000803088888888888860405161021b9061043f565b808873ffffffffffffffffffffffffffffffffffffffff1673ffffffffffffffffffffffffffffffffffffffff1681526020018773ffffffffffffffffffffffffffffffffffffffff1673ffffffffffffffffffffffffffffffffffffffff168152602001868152602001806020018560ff1660ff1681526020018060200184151515158152602001838103835287818151815260200191508051906020019080838360005b838110156102dc5780820151818401526020810190506102c1565b50505050905090810190601f1680156103095780820380516001836020036101000a031916815260200191505b50838103825285818151815260200191508051906020019080838360005b83811015610342578082015181840152602081019050610327565b50505050905090810190601f16801561036f5780820380516001836020036101000a031916815260200191505b509950505050505050505050604051809103906000f080158015610397573d6000803e3d6000fd5b5090508073ffffffffffffffffffffffffffffffffffffffff16633cebb823336040518263ffffffff1660e01b8152600401808273ffffffffffffffffffffffffffffffffffffffff1673ffffffffffffffffffffffffffffffffffffffff168152602001915050600060405180830381600087803b15801561041957600080fd5b505af115801561042d573d6000803e3d6000fd5b50505050809150509695505050505050565b612cc78061044d8339019056fe60806040526040518060400160405280600781526020017f4d4d545f302e32000000000000000000000000000000000000000000000000008152506004908051906020019062000051929190620002a6565b503480156200005f57600080fd5b5060405162002cc738038062002cc7833981018060405260e08110156200008557600080fd5b810190808051906020019092919080519060200190929190805190602001909291908051640100000000811115620000bc57600080fd5b82810190506020810184811115620000d357600080fd5b8151856001820283011164010000000082111715620000f157600080fd5b50509291906020018051906020019092919080516401000000008111156200011857600080fd5b828101905060208101848111156200012f57600080fd5b81518560018202830111640100000000821117156200014d57600080fd5b505092919060200180519060200190929190505050336000806101000a81548173ffffffffffffffffffffffffffffffffffffffff021916908373ffffffffffffffffffffffffffffffffffffffff16021790555086600b60016101000a81548173ffffffffffffffffffffffffffffffffffffffff021916908373ffffffffffffffffffffffffffffffffffffffff1602179055508360019080519060200190620001fb929190620002a6565b5082600260006101000a81548160ff021916908360ff16021790555081600390805190602001906200022f929190620002a6565b5085600560006101000a81548173ffffffffffffffffffffffffffffffffffffffff021916908373ffffffffffffffffffffffffffffffffffffffff1602179055508460068190555080600b60006101000a81548160ff021916908315150217905550436007819055505050505050505062000355565b828054600181600116156101000203166002900490600052602060002090601f016020900481019282601f10620002e957805160ff19168380011785556200031a565b828001600101855582156200031a579182015b8281111562000319578251825591602001919060010190620002fc565b5b5090506200032991906200032d565b5090565b6200035291905b808211156200034e57600081600090555060010162000334565b5090565b90565b61296280620003656000396000f3fe60806040526004361061014b5760003560e01c8063827f32c0116100b6578063cae9ca511161006f578063cae9ca5114610a6f578063d3ce77fe14610b79578063dd62ed3e14610bec578063e77772fe14610c71578063f41e60c514610cc8578063f77c479114610d055761014b565b8063827f32c01461085057806395d89b41146108c3578063981b24d014610953578063a9059cbb146109a2578063bef97c8714610a15578063c5bcc4f114610a445761014b565b80633cebb823116101085780633cebb823146104825780634ee2cd7e146104d357806354fd4d50146105425780636638c087146105d257806370a082311461079457806380a54001146107f95761014b565b806306fdde0314610265578063095ea7b3146102f5578063176345141461036857806318160ddd1461039357806323b872dd146103be578063313ce56714610451575b6101756000809054906101000a900473ffffffffffffffffffffffffffffffffffffffff16610d5c565b61017e57600080fd5b6000809054906101000a900473ffffffffffffffffffffffffffffffffffffffff1673ffffffffffffffffffffffffffffffffffffffff1663f48c305434336040518363ffffffff1660e01b8152600401808273ffffffffffffffffffffffffffffffffffffffff1673ffffffffffffffffffffffffffffffffffffffff1681526020019150506020604051808303818588803b15801561021e57600080fd5b505af1158015610232573d6000803e3d6000fd5b50505050506040513d602081101561024957600080fd5b810190808051906020019092919050505061026357600080fd5b005b34801561027157600080fd5b5061027a610daf565b6040518080602001828103825283818151815260200191508051906020019080838360005b838110156102ba57808201518184015260208101905061029f565b50505050905090810190601f1680156102e75780820380516001836020036101000a031916815260200191505b509250505060405180910390f35b34801561030157600080fd5b5061034e6004803603604081101561031857600080fd5b81019080803573ffffffffffffffffffffffffffffffffffffffff16906020019092919080359060200190929190505050610e4d565b604051808215151515815260200191505060405180910390f35b34801561037457600080fd5b5061037d61113c565b6040518082815260200191505060405180910390f35b34801561039f57600080fd5b506103a8611142565b6040518082815260200191505060405180910390f35b3480156103ca57600080fd5b50610437600480360360608110156103e157600080fd5b81019080803573ffffffffffffffffffffffffffffffffffffffff169060200190929190803573ffffffffffffffffffffffffffffffffffffffff16906020019092919080359060200190929190505050611152565b604051808215151515815260200191505060405180910390f35b34801561045d57600080fd5b506104666112eb565b604051808260ff1660ff16815260200191505060405180910390f35b34801561048e57600080fd5b506104d1600480360360208110156104a557600080fd5b81019080803573ffffffffffffffffffffffffffffffffffffffff1690602001909291905050506112fe565b005b3480156104df57600080fd5b5061052c600480360360408110156104f657600080fd5b81019080803573ffffffffffffffffffffffffffffffffffffffff1690602001909291908035906020019092919050505061139a565b6040518082815260200191505060405180910390f35b34801561054e57600080fd5b5061055761161a565b6040518080602001828103825283818151815260200191508051906020019080838360005b8381101561059757808201518184015260208101905061057c565b50505050905090810190601f1680156105c45780820380516001836020036101000a031916815260200191505b509250505060405180910390f35b3480156105de57600080fd5b50610752600480360360a08110156105f557600080fd5b810190808035906020019064010000000081111561061257600080fd5b82018360208201111561062457600080fd5b8035906020019184600183028401116401000000008311171561064657600080fd5b91908080601f016020809104026020016040519081016040528093929190818152602001838380828437600081840152601f19601f820116905080830192505050505050509192919290803560ff169060200190929190803590602001906401000000008111156106b657600080fd5b8201836020820111156106c857600080fd5b803590602001918460018302840111640100000000831117156106ea57600080fd5b91908080601f016020809104026020016040519081016040528093929190818152602001838380828437600081840152601f19601f820116905080830192505050505050509192919290803590602001909291908035151590602001909291905050506116b8565b604051808273ffffffffffffffffffffffffffffffffffffffff1673ffffffffffffffffffffffffffffffffffffffff16815260200191505060405180910390f35b3480156107a057600080fd5b506107e3600480360360208110156107b757600080fd5b81019080803573ffffffffffffffffffffffffffffffffffffffff169060200190929190505050611994565b6040518082815260200191505060405180910390f35b34801561080557600080fd5b5061080e6119a7565b604051808273ffffffffffffffffffffffffffffffffffffffff1673ffffffffffffffffffffffffffffffffffffffff16815260200191505060405180910390f35b34801561085c57600080fd5b506108a96004803603604081101561087357600080fd5b81019080803573ffffffffffffffffffffffffffffffffffffffff169060200190929190803590602001909291905050506119cd565b604051808215151515815260200191505060405180910390f35b3480156108cf57600080fd5b506108d8611b28565b6040518080602001828103825283818151815260200191508051906020019080838360005b838110156109185780820151818401526020810190506108fd565b50505050905090810190601f1680156109455780820380516001836020036101000a031916815260200191505b509250505060405180910390f35b34801561095f57600080fd5b5061098c6004803603602081101561097657600080fd5b8101908080359060200190929190505050611bc6565b6040518082815260200191505060405180910390f35b3480156109ae57600080fd5b506109fb600480360360408110156109c557600080fd5b81019080803573ffffffffffffffffffffffffffffffffffffffff16906020019092919080359060200190929190505050611d5a565b604051808215151515815260200191505060405180910390f35b348015610a2157600080fd5b50610a2a611d8a565b604051808215151515815260200191505060405180910390f35b348015610a5057600080fd5b50610a59611d9d565b6040518082815260200191505060405180910390f35b348015610a7b57600080fd5b50610b5f60048036036060811015610a9257600080fd5b81019080803573ffffffffffffffffffffffffffffffffffffffff1690602001909291908035906020019092919080359060200190640100000000811115610ad957600080fd5b820183602082011115610aeb57600080fd5b80359060200191846001830284011164010000000083111715610b0d57600080fd5b91908080601f016020809104026020016040519081016040528093929190818152602001838380828437600081840152601f19601f820116905080830192505050505050509192919290505050611da3565b604051808215151515815260200191505060405180910390f35b348015610b8557600080fd5b50610bd260048036036040811015610b9c57600080fd5b81019080803573ffffffffffffffffffffffffffffffffffffffff16906020019092919080359060200190929190505050611f03565b604051808215151515815260200191505060405180910390f35b348015610bf857600080fd5b50610c5b60048036036040811015610c0f57600080fd5b81019080803573ffffffffffffffffffffffffffffffffffffffff169060200190929190803573ffffffffffffffffffffffffffffffffffffffff16906020019092919050505061205a565b6040518082815260200191505060405180910390f35b348015610c7d57600080fd5b50610c866120e1565b604051808273ffffffffffffffffffffffffffffffffffffffff1673ffffffffffffffffffffffffffffffffffffffff16815260200191505060405180910390f35b348015610cd457600080fd5b50610d0360048036036020811015610ceb57600080fd5b81019080803515159060200190929190505050612107565b005b348015610d1157600080fd5b50610d1a61217d565b604051808273ffffffffffffffffffffffffffffffffffffffff1673ffffffffffffffffffffffffffffffffffffffff16815260200191505060405180910390f35b600080600073ffffffffffffffffffffffffffffffffffffffff168373ffffffffffffffffffffffffffffffffffffffff161415610d9e576000915050610daa565b823b9050600081119150505b919050565b60018054600181600116156101000203166002900480601f016020809104026020016040519081016040528092919081815260200182805460018160011615610100020316600290048015610e455780601f10610e1a57610100808354040283529160200191610e45565b820191906000526020600020905b815481529060010190602001808311610e2857829003601f168201915b505050505081565b6000600b60009054906101000a900460ff16610e6857600080fd5b6000821480610ef357506000600960003373ffffffffffffffffffffffffffffffffffffffff1673ffffffffffffffffffffffffffffffffffffffff16815260200190815260200160002060008573ffffffffffffffffffffffffffffffffffffffff1673ffffffffffffffffffffffffffffffffffffffff16815260200190815260200160002054145b610efc57600080fd5b610f266000809054906101000a900473ffffffffffffffffffffffffffffffffffffffff16610d5c565b1561104c576000809054906101000a900473ffffffffffffffffffffffffffffffffffffffff1673ffffffffffffffffffffffffffffffffffffffff1663da682aeb3385856040518463ffffffff1660e01b8152600401808473ffffffffffffffffffffffffffffffffffffffff1673ffffffffffffffffffffffffffffffffffffffff1681526020018373ffffffffffffffffffffffffffffffffffffffff1673ffffffffffffffffffffffffffffffffffffffff1681526020018281526020019350505050602060405180830381600087803b15801561100757600080fd5b505af115801561101b573d6000803e3d6000fd5b505050506040513d602081101561103157600080fd5b810190808051906020019092919050505061104b57600080fd5b5b81600960003373ffffffffffffffffffffffffffffffffffffffff1673ffffffffffffffffffffffffffffffffffffffff16815260200190815260200160002060008573ffffffffffffffffffffffffffffffffffffffff1673ffffffffffffffffffffffffffffffffffffffff168152602001908152602001600020819055508273ffffffffffffffffffffffffffffffffffffffff163373ffffffffffffffffffffffffffffffffffffffff167f8c5be1e5ebec7d5bd14f71427d1e84f3dd0314c0f7b2291e5b200ac8c7c3b925846040518082815260200191505060405180910390a36001905092915050565b60075481565b600061114d43611bc6565b905090565b60008060009054906101000a900473ffffffffffffffffffffffffffffffffffffffff1673ffffffffffffffffffffffffffffffffffffffff163373ffffffffffffffffffffffffffffffffffffffff16146112d557600b60009054906101000a900460ff166111c157600080fd5b81600960008673ffffffffffffffffffffffffffffffffffffffff1673ffffffffffffffffffffffffffffffffffffffff16815260200190815260200160002060003373ffffffffffffffffffffffffffffffffffffffff1673ffffffffffffffffffffffffffffffffffffffff16815260200190815260200160002054101561124a57600080fd5b81600960008673ffffffffffffffffffffffffffffffffffffffff1673ffffffffffffffffffffffffffffffffffffffff16815260200190815260200160002060003373ffffffffffffffffffffffffffffffffffffffff1673ffffffffffffffffffffffffffffffffffffffff168152602001908152602001600020600082825403925050819055505b6112e08484846121a2565b600190509392505050565b600260009054906101000a900460ff1681565b6000809054906101000a900473ffffffffffffffffffffffffffffffffffffffff1673ffffffffffffffffffffffffffffffffffffffff163373ffffffffffffffffffffffffffffffffffffffff161461135757600080fd5b806000806101000a81548173ffffffffffffffffffffffffffffffffffffffff021916908373ffffffffffffffffffffffffffffffffffffffff16021790555050565b600080600860008573ffffffffffffffffffffffffffffffffffffffff1673ffffffffffffffffffffffffffffffffffffffff168152602001908152602001600020805490501480611471575081600860008573ffffffffffffffffffffffffffffffffffffffff1673ffffffffffffffffffffffffffffffffffffffff16815260200190815260200160002060008154811061143357fe5b9060005260206000200160000160009054906101000a90046fffffffffffffffffffffffffffffffff166fffffffffffffffffffffffffffffffff16115b156115c957600073ffffffffffffffffffffffffffffffffffffffff16600560009054906101000a900473ffffffffffffffffffffffffffffffffffffffff1673ffffffffffffffffffffffffffffffffffffffff16146115c057600560009054906101000a900473ffffffffffffffffffffffffffffffffffffffff1673ffffffffffffffffffffffffffffffffffffffff16634ee2cd7e846115178560065461251e565b6040518363ffffffff1660e01b8152600401808373ffffffffffffffffffffffffffffffffffffffff1673ffffffffffffffffffffffffffffffffffffffff1681526020018281526020019250505060206040518083038186803b15801561157e57600080fd5b505afa158015611592573d6000803e3d6000fd5b505050506040513d60208110156115a857600080fd5b81019080805190602001909291905050509050611614565b60009050611614565b611611600860008573ffffffffffffffffffffffffffffffffffffffff1673ffffffffffffffffffffffffffffffffffffffff16815260200190815260200160002083612537565b90505b92915050565b60048054600181600116156101000203166002900480601f0160208091040260200160405190810160405280929190818152602001828054600181600116156101000203166002900480156116b05780601f10611685576101008083540402835291602001916116b0565b820191906000526020600020905b81548152906001019060200180831161169357829003601f168201915b505050505081565b6000808314156116c6574392505b6000600b60019054906101000a900473ffffffffffffffffffffffffffffffffffffffff1673ffffffffffffffffffffffffffffffffffffffff16635b7b72c130868a8a8a896040518763ffffffff1660e01b8152600401808773ffffffffffffffffffffffffffffffffffffffff1673ffffffffffffffffffffffffffffffffffffffff168152602001868152602001806020018560ff1660ff1681526020018060200184151515158152602001838103835287818151815260200191508051906020019080838360005b838110156117ad578082015181840152602081019050611792565b50505050905090810190601f1680156117da5780820380516001836020036101000a031916815260200191505b50838103825285818151815260200191508051906020019080838360005b838110156118135780820151818401526020810190506117f8565b50505050905090810190601f1680156118405780820380516001836020036101000a031916815260200191505b5098505050505050505050602060405180830381600087803b15801561186557600080fd5b505af1158015611879573d6000803e3d6000fd5b505050506040513d602081101561188f57600080fd5b810190808051906020019092919050505090508073ffffffffffffffffffffffffffffffffffffffff16633cebb823336040518263ffffffff1660e01b8152600401808273ffffffffffffffffffffffffffffffffffffffff1673ffffffffffffffffffffffffffffffffffffffff168152602001915050600060405180830381600087803b15801561192157600080fd5b505af1158015611935573d6000803e3d6000fd5b505050508073ffffffffffffffffffffffffffffffffffffffff167f086c875b377f900b07ce03575813022f05dd10ed7640b5282cf6d3c3fc352ade856040518082815260200191505060405180910390a28091505095945050505050565b60006119a0824361139a565b9050919050565b600560009054906101000a900473ffffffffffffffffffffffffffffffffffffffff1681565b60008060009054906101000a900473ffffffffffffffffffffffffffffffffffffffff1673ffffffffffffffffffffffffffffffffffffffff163373ffffffffffffffffffffffffffffffffffffffff1614611a2857600080fd5b6000611a32611142565b9050808382011015611a4357600080fd5b6000611a4e85611994565b9050808482011015611a5f57600080fd5b611a6c600a858401612736565b611ab6600860008773ffffffffffffffffffffffffffffffffffffffff1673ffffffffffffffffffffffffffffffffffffffff168152602001908152602001600020858301612736565b8473ffffffffffffffffffffffffffffffffffffffff16600073ffffffffffffffffffffffffffffffffffffffff167fddf252ad1be2c89b69c2b068fc378daa952ba7f163c4a11628f55a4df523b3ef866040518082815260200191505060405180910390a360019250505092915050565b60038054600181600116156101000203166002900480601f016020809104026020016040519081016040528092919081815260200182805460018160011615610100020316600290048015611bbe5780601f10611b9357610100808354040283529160200191611bbe565b820191906000526020600020905b815481529060010190602001808311611ba157829003601f168201915b505050505081565b600080600a805490501480611c23575081600a600081548110611be557fe5b9060005260206000200160000160009054906101000a90046fffffffffffffffffffffffffffffffff166fffffffffffffffffffffffffffffffff16115b15611d4757600073ffffffffffffffffffffffffffffffffffffffff16600560009054906101000a900473ffffffffffffffffffffffffffffffffffffffff1673ffffffffffffffffffffffffffffffffffffffff1614611d3e57600560009054906101000a900473ffffffffffffffffffffffffffffffffffffffff1673ffffffffffffffffffffffffffffffffffffffff1663981b24d0611cc88460065461251e565b6040518263ffffffff1660e01b81526004018082815260200191505060206040518083038186803b158015611cfc57600080fd5b505afa158015611d10573d6000803e3d6000fd5b505050506040513d6020811015611d2657600080fd5b81019080805190602001909291905050509050611d55565b60009050611d55565b611d52600a83612537565b90505b919050565b6000600b60009054906101000a900460ff16611d7557600080fd5b611d803384846121a2565b6001905092915050565b600b60009054906101000a900460ff1681565b60065481565b6000611daf8484610e4d565b611db857600080fd5b8373ffffffffffffffffffffffffffffffffffffffff16638f4ffcb1338530866040518563ffffffff1660e01b8152600401808573ffffffffffffffffffffffffffffffffffffffff1673ffffffffffffffffffffffffffffffffffffffff1681526020018481526020018373ffffffffffffffffffffffffffffffffffffffff1673ffffffffffffffffffffffffffffffffffffffff16815260200180602001828103825283818151815260200191508051906020019080838360005b83811015611e91578082015181840152602081019050611e76565b50505050905090810190601f168015611ebe5780820380516001836020036101000a031916815260200191505b5095505050505050600060405180830381600087803b158015611ee057600080fd5b505af1158015611ef4573d6000803e3d6000fd5b50505050600190509392505050565b60008060009054906101000a900473ffffffffffffffffffffffffffffffffffffffff1673ffffffffffffffffffffffffffffffffffffffff163373ffffffffffffffffffffffffffffffffffffffff1614611f5e57600080fd5b6000611f68611142565b905082811015611f7757600080fd5b6000611f8285611994565b905083811015611f9157600080fd5b611f9e600a858403612736565b611fe8600860008773ffffffffffffffffffffffffffffffffffffffff1673ffffffffffffffffffffffffffffffffffffffff168152602001908152602001600020858303612736565b600073ffffffffffffffffffffffffffffffffffffffff168573ffffffffffffffffffffffffffffffffffffffff167fddf252ad1be2c89b69c2b068fc378daa952ba7f163c4a11628f55a4df523b3ef866040518082815260200191505060405180910390a360019250505092915050565b6000600960008473ffffffffffffffffffffffffffffffffffffffff1673ffffffffffffffffffffffffffffffffffffffff16815260200190815260200160002060008373ffffffffffffffffffffffffffffffffffffffff1673ffffffffffffffffffffffffffffffffffffffff16815260200190815260200160002054905092915050565b600b60019054906101000a900473ffffffffffffffffffffffffffffffffffffffff1681565b6000809054906101000a900473ffffffffffffffffffffffffffffffffffffffff1673ffffffffffffffffffffffffffffffffffffffff163373ffffffffffffffffffffffffffffffffffffffff161461216057600080fd5b80600b60006101000a81548160ff02191690831515021790555050565b6000809054906101000a900473ffffffffffffffffffffffffffffffffffffffff1681565b6000811415612215578173ffffffffffffffffffffffffffffffffffffffff168373ffffffffffffffffffffffffffffffffffffffff167fddf252ad1be2c89b69c2b068fc378daa952ba7f163c4a11628f55a4df523b3ef836040518082815260200191505060405180910390a3612519565b436006541061222357600080fd5b600073ffffffffffffffffffffffffffffffffffffffff168273ffffffffffffffffffffffffffffffffffffffff161415801561228c57503073ffffffffffffffffffffffffffffffffffffffff168273ffffffffffffffffffffffffffffffffffffffff1614155b61229557600080fd5b60006122a1844361139a565b9050818110156122b057600080fd5b6122da6000809054906101000a900473ffffffffffffffffffffffffffffffffffffffff16610d5c565b15612400576000809054906101000a900473ffffffffffffffffffffffffffffffffffffffff1673ffffffffffffffffffffffffffffffffffffffff16634a3931498585856040518463ffffffff1660e01b8152600401808473ffffffffffffffffffffffffffffffffffffffff1673ffffffffffffffffffffffffffffffffffffffff1681526020018373ffffffffffffffffffffffffffffffffffffffff1673ffffffffffffffffffffffffffffffffffffffff1681526020018281526020019350505050602060405180830381600087803b1580156123bb57600080fd5b505af11580156123cf573d6000803e3d6000fd5b505050506040513d60208110156123e557600080fd5b81019080805190602001909291905050506123ff57600080fd5b5b61244a600860008673ffffffffffffffffffffffffffffffffffffffff1673ffffffffffffffffffffffffffffffffffffffff168152602001908152602001600020838303612736565b6000612456844361139a565b905080838201101561246757600080fd5b6124b1600860008673ffffffffffffffffffffffffffffffffffffffff1673ffffffffffffffffffffffffffffffffffffffff168152602001908152602001600020848301612736565b8373ffffffffffffffffffffffffffffffffffffffff168573ffffffffffffffffffffffffffffffffffffffff167fddf252ad1be2c89b69c2b068fc378daa952ba7f163c4a11628f55a4df523b3ef856040518082815260200191505060405180910390a350505b505050565b600081831061252d578161252f565b825b905092915050565b6000808380549050141561254e5760009050612730565b8260018480549050038154811061256157fe5b9060005260206000200160000160009054906101000a90046fffffffffffffffffffffffffffffffff166fffffffffffffffffffffffffffffffff1682106125f957826001848054905003815481106125b657fe5b9060005260206000200160000160109054906101000a90046fffffffffffffffffffffffffffffffff166fffffffffffffffffffffffffffffffff169050612730565b8260008154811061260657fe5b9060005260206000200160000160009054906101000a90046fffffffffffffffffffffffffffffffff166fffffffffffffffffffffffffffffffff168210156126525760009050612730565b60008090506000600185805490500390505b818111156126e357600060026001848401018161267d57fe5b0490508486828154811061268d57fe5b9060005260206000200160000160009054906101000a90046fffffffffffffffffffffffffffffffff166fffffffffffffffffffffffffffffffff16116126d6578092506126dd565b6001810391505b50612664565b8482815481106126ef57fe5b9060005260206000200160000160109054906101000a90046fffffffffffffffffffffffffffffffff166fffffffffffffffffffffffffffffffff16925050505b92915050565b6000828054905014806127965750438260018480549050038154811061275857fe5b9060005260206000200160000160009054906101000a90046fffffffffffffffffffffffffffffffff166fffffffffffffffffffffffffffffffff16105b15612843576000828380548091906001016127b191906128a5565b815481106127bb57fe5b906000526020600020019050438160000160006101000a8154816fffffffffffffffffffffffffffffffff02191690836fffffffffffffffffffffffffffffffff160217905550818160000160106101000a8154816fffffffffffffffffffffffffffffffff02191690836fffffffffffffffffffffffffffffffff160217905550506128a1565b60008260018480549050038154811061285857fe5b906000526020600020019050818160000160106101000a8154816fffffffffffffffffffffffffffffffff02191690836fffffffffffffffffffffffffffffffff160217905550505b5050565b8154818355818111156128cc578183600052602060002091820191016128cb91906128d1565b5b505050565b61293391905b8082111561292f57600080820160006101000a8154906fffffffffffffffffffffffffffffffff02191690556000820160106101000a8154906fffffffffffffffffffffffffffffffff0219169055506001016128d7565b5090565b9056fea165627a7a723058204eaf11b2746c5e02ada80530235cf2fa592a3837737a6ceea2613f9c28fd18440029a165627a7a72305820082e1245609be7482cdd7f78290a07d9bd7adb8234242ed0dd51bb3bb753f15d0029",
  "source": "pragma solidity ^0.5.0;\n\n/*\n    Copyright 2016, Jordi Baylina\n\n    This program is free software: you can redistribute it and/or modify\n    it under the terms of the GNU General Public License as published by\n    the Free Software Foundation, either version 3 of the License, or\n    (at your option) any later version.\n\n    This program is distributed in the hope that it will be useful,\n    but WITHOUT ANY WARRANTY; without even the implied warranty of\n    MERCHANTABILITY or FITNESS FOR A PARTICULAR PURPOSE.  See the\n    GNU General Public License for more details.\n\n    You should have received a copy of the GNU General Public License\n    along with this program.  If not, see <http://www.gnu.org/licenses/>.\n */\n\n/// @title MiniMeToken Contract\n/// @author Jordi Baylina\n/// @dev This token contract's goal is to make it easy for anyone to clone this\n///  token using the token distribution at a given block, this will allow DAO's\n///  and DApps to upgrade their features in a decentralized manner without\n///  affecting the original token\n/// @dev It is ERC20 compliant, but still needs to under go further testing.\n\ncontract Controlled {\n    /// @notice The address of the controller is the only address that can call\n    ///  a function with this modifier\n    modifier onlyController { require(msg.sender == controller); _; }\n\n    address public controller;\n\n    constructor () public { controller = msg.sender;}\n\n    /// @notice Changes the controller of the contract\n    /// @param _newController The new controller of the contract\n    function changeController(address _newController) public onlyController {\n        controller = _newController;\n    }\n}\n\n/// @dev The token controller contract must implement these functions\ncontract TokenController {\n    /// @notice Called when `_owner` sends ether to the MiniMe Token contract\n    /// @param _owner The address that sent the ether to create tokens\n    /// @return True if the ether is accepted, false if it throws\n    function proxyPayment(address _owner) public payable returns(bool);\n\n    /// @notice Notifies the controller about a token transfer allowing the\n    ///  controller to react if desired\n    /// @param _from The origin of the transfer\n    /// @param _to The destination of the transfer\n    /// @param _amount The amount of the transfer\n    /// @return False if the controller does not authorize the transfer\n    function onTransfer(address _from, address _to, uint _amount) public returns(bool);\n\n    /// @notice Notifies the controller about an approval allowing the\n    ///  controller to react if desired\n    /// @param _owner The address that calls `approve()`\n    /// @param _spender The spender in the `approve()` call\n    /// @param _amount The amount in the `approve()` call\n    /// @return False if the controller does not authorize the approval\n    function onApprove(address _owner, address _spender, uint _amount) public\n        returns(bool);\n}\n\ncontract ApproveAndCallFallBack {\n    function receiveApproval(address from, uint256 _amount, address _token, bytes memory _data) public;\n}\n\n/// @dev The actual token contract, the default controller is the msg.sender\n///  that deploys the contract, so usually this token will be deployed by a\n///  token controller contract, which Giveth will call a \"Campaign\"\ncontract MiniMeToken is Controlled {\n\n    string public name;                //The Token's name: e.g. DigixDAO Tokens\n    uint8 public decimals;             //Number of decimals of the smallest unit\n    string public symbol;              //An identifier: e.g. REP\n    string public version = 'MMT_0.2'; //An arbitrary versioning scheme\n\n\n    /// @dev `Checkpoint` is the structure that attaches a block number to a\n    ///  given value, the block number attached is the one that last changed the\n    ///  value\n    struct  Checkpoint {\n\n        // `fromBlock` is the block number that the value was generated from\n        uint128 fromBlock;\n\n        // `value` is the amount of tokens at a specific block number\n        uint128 value;\n    }\n\n    // `parentToken` is the Token address that was cloned to produce this token;\n    //  it will be 0x0 for a token that was not cloned\n    MiniMeToken public parentToken;\n\n    // `parentSnapShotBlock` is the block number from the Parent Token that was\n    //  used to determine the initial distribution of the Clone Token\n    uint public parentSnapShotBlock;\n\n    // `creationBlock` is the block number that the Clone Token was created\n    uint public creationBlock;\n\n    // `balances` is the map that tracks the balance of each address, in this\n    //  contract when the balance changes the block number that the change\n    //  occurred is also included in the map\n    mapping (address => Checkpoint[]) balances;\n\n    // `allowed` tracks any extra transfer rights as in all ERC20 tokens\n    mapping (address => mapping (address => uint256)) allowed;\n\n    // Tracks the history of the `totalSupply` of the token\n    Checkpoint[] totalSupplyHistory;\n\n    // Flag that determines if the token is transferable or not.\n    bool public transfersEnabled;\n\n    // The factory used to create new clone tokens\n    MiniMeTokenFactory public tokenFactory;\n\n////////////////\n// Constructor\n////////////////\n\n    /// @notice Constructor to create a MiniMeToken\n    /// @param _tokenFactory The address of the MiniMeTokenFactory contract that\n    ///  will create the Clone token contracts, the token factory needs to be\n    ///  deployed first\n    /// @param _parentToken Address of the parent token, set to 0x0 if it is a\n    ///  new token\n    /// @param _parentSnapShotBlock Block of the parent token that will\n    ///  determine the initial distribution of the clone token, set to 0 if it\n    ///  is a new token\n    /// @param _tokenName Name of the new token\n    /// @param _decimalUnits Number of decimals of the new token\n    /// @param _tokenSymbol Token Symbol for the new token\n    /// @param _transfersEnabled If true, tokens will be able to be transferred\n    constructor (\n        address _tokenFactory,\n        address payable _parentToken,\n        uint _parentSnapShotBlock,\n        string memory _tokenName,\n        uint8 _decimalUnits,\n        string memory _tokenSymbol,\n        bool _transfersEnabled\n    ) public {\n        tokenFactory = MiniMeTokenFactory(_tokenFactory);\n        name = _tokenName;                                 // Set the name\n        decimals = _decimalUnits;                          // Set the decimals\n        symbol = _tokenSymbol;                             // Set the symbol\n        parentToken = MiniMeToken(_parentToken);\n        parentSnapShotBlock = _parentSnapShotBlock;\n        transfersEnabled = _transfersEnabled;\n        creationBlock = block.number;\n    }\n\n\n///////////////////\n// ERC20 Methods\n///////////////////\n\n    /// @notice Send `_amount` tokens to `_to` from `msg.sender`\n    /// @param _to The address of the recipient\n    /// @param _amount The amount of tokens to be transferred\n    /// @return Whether the transfer was successful or not\n    function transfer(address _to, uint256 _amount) public returns (bool success) {\n        require(transfersEnabled);\n        doTransfer(msg.sender, _to, _amount);\n        return true;\n    }\n\n    /// @notice Send `_amount` tokens to `_to` from `_from` on the condition it\n    ///  is approved by `_from`\n    /// @param _from The address holding the tokens being transferred\n    /// @param _to The address of the recipient\n    /// @param _amount The amount of tokens to be transferred\n    /// @return True if the transfer was successful\n    function transferFrom(address _from, address _to, uint256 _amount\n    ) public returns (bool success) {\n\n        // The controller of this contract can move tokens around at will,\n        //  this is important to recognize! Confirm that you trust the\n        //  controller of this contract, which in most situations should be\n        //  another open source smart contract or 0x0\n        if (msg.sender != controller) {\n            require(transfersEnabled);\n\n            // The standard ERC 20 transferFrom functionality\n            require(allowed[_from][msg.sender] >= _amount);\n            allowed[_from][msg.sender] -= _amount;\n        }\n        doTransfer(_from, _to, _amount);\n        return true;\n    }\n\n    /// @dev This is the actual transfer function in the token contract, it can\n    ///  only be called by other functions in this contract.\n    /// @param _from The address holding the tokens being transferred\n    /// @param _to The address of the recipient\n    /// @param _amount The amount of tokens to be transferred\n    /// @return True if the transfer was successful\n    function doTransfer(address _from, address _to, uint _amount\n    ) internal {\n\n        if (_amount == 0) {\n            emit Transfer(_from, _to, _amount);    // Follow the spec to louch the event when transfer 0\n            return;\n        }\n\n        require(parentSnapShotBlock < block.number);\n\n        // Do not allow transfer to 0x0 or the token contract itself\n        require((_to != address(0x0)) && (_to != address(this)));\n\n        // If the amount being transfered is more than the balance of the\n        //  account the transfer throws\n        uint previousBalanceFrom = balanceOfAt(_from, block.number);\n\n        require(previousBalanceFrom >= _amount);\n\n        // Alerts the token controller of the transfer\n        if (isContract(controller)) {\n            require(TokenController(controller).onTransfer(_from, _to, _amount));\n        }\n\n        // First update the balance array with the new value for the address\n        //  sending the tokens\n        updateValueAtNow(balances[_from], previousBalanceFrom - _amount);\n\n        // Then update the balance array with the new value for the address\n        //  receiving the tokens\n        uint previousBalanceTo = balanceOfAt(_to, block.number);\n        require(previousBalanceTo + _amount >= previousBalanceTo); // Check for overflow\n        updateValueAtNow(balances[_to], previousBalanceTo + _amount);\n\n        // An event to make the transfer easy to find on the blockchain\n        emit Transfer(_from, _to, _amount);\n\n    }\n\n    /// @param _owner The address that's balance is being requested\n    /// @return The balance of `_owner` at the current block\n    function balanceOf(address _owner) public view returns (uint256 balance) {\n        return balanceOfAt(_owner, block.number);\n    }\n\n    /// @notice `msg.sender` approves `_spender` to spend `_amount` tokens on\n    ///  its behalf. This is a modified version of the ERC20 approve function\n    ///  to be a little bit safer\n    /// @param _spender The address of the account able to transfer the tokens\n    /// @param _amount The amount of tokens to be approved for transfer\n    /// @return True if the approval was successful\n    function approve(address _spender, uint256 _amount) public returns (bool success) {\n        require(transfersEnabled);\n\n        // To change the approve amount you first have to reduce the addresses`\n        //  allowance to zero by calling `approve(_spender,0)` if it is not\n        //  already 0 to mitigate the race condition described here:\n        //  https://github.com/ethereum/EIPs/issues/20#issuecomment-263524729\n        require((_amount == 0) || (allowed[msg.sender][_spender] == 0));\n\n        // Alerts the token controller of the approve function call\n        if (isContract(controller)) {\n            require(TokenController(controller).onApprove(msg.sender, _spender, _amount));\n        }\n\n        allowed[msg.sender][_spender] = _amount;\n        emit Approval(msg.sender, _spender, _amount);\n        return true;\n    }\n\n    /// @dev This function makes it easy to read the `allowed[]` map\n    /// @param _owner The address of the account that owns the token\n    /// @param _spender The address of the account able to transfer the tokens\n    /// @return Amount of remaining tokens of _owner that _spender is allowed\n    ///  to spend\n    function allowance(address _owner, address _spender\n    ) public view returns (uint256 remaining) {\n        return allowed[_owner][_spender];\n    }\n\n    /// @notice `msg.sender` approves `_spender` to send `_amount` tokens on\n    ///  its behalf, and then a function is triggered in the contract that is\n    ///  being approved, `_spender`. This allows users to use their tokens to\n    ///  interact with contracts in one function call instead of two\n    /// @param _spender The address of the contract able to transfer the tokens\n    /// @param _amount The amount of tokens to be approved for transfer\n    /// @return True if the function call was successful\n    function approveAndCall(address _spender, uint256 _amount, bytes memory _extraData\n    ) public returns (bool success) {\n        require(approve(_spender, _amount));\n\n        ApproveAndCallFallBack(_spender).receiveApproval(\n            msg.sender,\n            _amount,\n            address(this),\n            _extraData\n        );\n\n        return true;\n    }\n\n    /// @dev This function makes it easy to get the total number of tokens\n    /// @return The total number of tokens\n    function totalSupply() public view returns (uint) {\n        return totalSupplyAt(block.number);\n    }\n\n\n////////////////\n// Query balance and totalSupply in History\n////////////////\n\n    /// @dev Queries the balance of `_owner` at a specific `_blockNumber`\n    /// @param _owner The address from which the balance will be retrieved\n    /// @param _blockNumber The block number when the balance is queried\n    /// @return The balance at `_blockNumber`\n    function balanceOfAt(address _owner, uint _blockNumber) public view\n        returns (uint) {\n\n        // These next few lines are used when the balance of the token is\n        //  requested before a check point was ever created for this token, it\n        //  requires that the `parentToken.balanceOfAt` be queried at the\n        //  genesis block for that token as this contains initial balance of\n        //  this token\n        if ((balances[_owner].length == 0)\n            || (balances[_owner][0].fromBlock > _blockNumber)) {\n            if (address(parentToken) != address(0x0)) {\n                return parentToken.balanceOfAt(_owner, min(_blockNumber, parentSnapShotBlock));\n            } else {\n                // Has no parent\n                return 0;\n            }\n\n        // This will return the expected balance during normal situations\n        } else {\n            return getValueAt(balances[_owner], _blockNumber);\n        }\n    }\n\n    /// @notice Total amount of tokens at a specific `_blockNumber`.\n    /// @param _blockNumber The block number when the totalSupply is queried\n    /// @return The total amount of tokens at `_blockNumber`\n    function totalSupplyAt(uint _blockNumber) public view returns(uint) {\n\n        // These next few lines are used when the totalSupply of the token is\n        //  requested before a check point was ever created for this token, it\n        //  requires that the `parentToken.totalSupplyAt` be queried at the\n        //  genesis block for this token as that contains totalSupply of this\n        //  token at this block number.\n        if ((totalSupplyHistory.length == 0)\n            || (totalSupplyHistory[0].fromBlock > _blockNumber)) {\n            if (address(parentToken) != address(0x0)) {\n                return parentToken.totalSupplyAt(min(_blockNumber, parentSnapShotBlock));\n            } else {\n                return 0;\n            }\n\n        // This will return the expected totalSupply during normal situations\n        } else {\n            return getValueAt(totalSupplyHistory, _blockNumber);\n        }\n    }\n\n////////////////\n// Clone Token Method\n////////////////\n\n    /// @notice Creates a new clone token with the initial distribution being\n    ///  this token at `_snapshotBlock`\n    /// @param _cloneTokenName Name of the clone token\n    /// @param _cloneDecimalUnits Number of decimals of the smallest unit\n    /// @param _cloneTokenSymbol Symbol of the clone token\n    /// @param _snapshotBlock Block when the distribution of the parent token is\n    ///  copied to set the initial distribution of the new clone token;\n    ///  if the block is zero than the actual block, the current block is used\n    /// @param _transfersEnabled True if transfers are allowed in the clone\n    /// @return The address of the new MiniMeToken Contract\n    function createCloneToken(\n        string memory _cloneTokenName,\n        uint8 _cloneDecimalUnits,\n        string memory _cloneTokenSymbol,\n        uint _snapshotBlock,\n        bool _transfersEnabled\n        ) public returns(address) {\n        if (_snapshotBlock == 0) _snapshotBlock = block.number;\n        MiniMeToken cloneToken = tokenFactory.createCloneToken(\n            address(this),\n            _snapshotBlock,\n            _cloneTokenName,\n            _cloneDecimalUnits,\n            _cloneTokenSymbol,\n            _transfersEnabled\n            );\n\n        cloneToken.changeController(msg.sender);\n\n        // An event to make the token easy to find on the blockchain\n        emit NewCloneToken(address(cloneToken), _snapshotBlock);\n        return address(cloneToken);\n    }\n\n////////////////\n// Generate and destroy tokens\n////////////////\n\n    /// @notice Generates `_amount` tokens that are assigned to `_owner`\n    /// @param _owner The address that will be assigned the new tokens\n    /// @param _amount The quantity of tokens generated\n    /// @return True if the tokens are generated correctly\n    function generateTokens(address _owner, uint _amount\n    ) public onlyController returns (bool) {\n        uint curTotalSupply = totalSupply();\n        require(curTotalSupply + _amount >= curTotalSupply); // Check for overflow\n        uint previousBalanceTo = balanceOf(_owner);\n        require(previousBalanceTo + _amount >= previousBalanceTo); // Check for overflow\n        updateValueAtNow(totalSupplyHistory, curTotalSupply + _amount);\n        updateValueAtNow(balances[_owner], previousBalanceTo + _amount);\n        emit Transfer(address(0x0), _owner, _amount);\n        return true;\n    }\n\n\n    /// @notice Burns `_amount` tokens from `_owner`\n    /// @param _owner The address that will lose the tokens\n    /// @param _amount The quantity of tokens to burn\n    /// @return True if the tokens are burned correctly\n    function destroyTokens(address _owner, uint _amount\n    ) onlyController public returns (bool) {\n        uint curTotalSupply = totalSupply();\n        require(curTotalSupply >= _amount);\n        uint previousBalanceFrom = balanceOf(_owner);\n        require(previousBalanceFrom >= _amount);\n        updateValueAtNow(totalSupplyHistory, curTotalSupply - _amount);\n        updateValueAtNow(balances[_owner], previousBalanceFrom - _amount);\n        emit Transfer(_owner, address(0x0), _amount);\n        return true;\n    }\n\n////////////////\n// Enable tokens transfers\n////////////////\n\n\n    /// @notice Enables token holders to transfer their tokens freely if true\n    /// @param _transfersEnabled True if transfers are allowed in the clone\n    function enableTransfers(bool _transfersEnabled) public onlyController {\n        transfersEnabled = _transfersEnabled;\n    }\n\n////////////////\n// Internal helper functions to query and set a value in a snapshot array\n////////////////\n\n    /// @dev `getValueAt` retrieves the number of tokens at a given block number\n    /// @param checkpoints The history of values being queried\n    /// @param _block The block number to retrieve the value at\n    /// @return The number of tokens being queried\n    function getValueAt(Checkpoint[] storage checkpoints, uint _block\n    ) view internal returns (uint) {\n        if (checkpoints.length == 0) return 0;\n\n        // Shortcut for the actual value\n        if (_block >= checkpoints[checkpoints.length-1].fromBlock)\n            return checkpoints[checkpoints.length-1].value;\n        if (_block < checkpoints[0].fromBlock) return 0;\n\n        // Binary search of the value in the array\n        uint min = 0;\n        uint max = checkpoints.length-1;\n        while (max > min) {\n            uint mid = (max + min + 1)/ 2;\n            if (checkpoints[mid].fromBlock<=_block) {\n                min = mid;\n            } else {\n                max = mid-1;\n            }\n        }\n        return checkpoints[min].value;\n    }\n\n    /// @dev `updateValueAtNow` used to update the `balances` map and the\n    ///  `totalSupplyHistory`\n    /// @param checkpoints The history of data being updated\n    /// @param _value The new number of tokens\n    function updateValueAtNow(Checkpoint[] storage checkpoints, uint _value\n    ) internal  {\n        if ((checkpoints.length == 0)\n        || (checkpoints[checkpoints.length -1].fromBlock < block.number)) {\n               Checkpoint storage newCheckPoint = checkpoints[ checkpoints.length++ ];\n               newCheckPoint.fromBlock =  uint128(block.number);\n               newCheckPoint.value = uint128(_value);\n           } else {\n               Checkpoint storage oldCheckPoint = checkpoints[checkpoints.length-1];\n               oldCheckPoint.value = uint128(_value);\n           }\n    }\n\n    /// @dev Internal function to determine if an address is a contract\n    /// @param _addr The address being queried\n    /// @return True if `_addr` is a contract\n    function isContract(address _addr) view internal returns(bool) {\n        uint size;\n        if (_addr == address(0x0)) return false;\n        assembly {\n            size := extcodesize(_addr)\n        }\n        return size>0;\n    }\n\n    /// @dev Helper function to return a min betwen the two uints\n    function min(uint a, uint b) pure internal returns (uint) {\n        return a < b ? a : b;\n    }\n\n    /// @notice The fallback function: If the contract's controller has not been\n    ///  set to 0, then the `proxyPayment` method is called which relays the\n    ///  ether and creates tokens as described in the token controller contract\n    function () external payable {\n        require(isContract(controller));\n        require(TokenController(controller).proxyPayment.value(msg.value)(msg.sender));\n    }\n\n////////////////\n// Events\n////////////////\n\n    event ClaimedTokens(address indexed _token, address indexed _controller, uint _amount);\n    event Transfer(address indexed _from, address indexed _to, uint256 _amount);\n    event NewCloneToken(address indexed _cloneToken, uint _snapshotBlock);\n    event Approval(\n        address indexed _owner,\n        address indexed _spender,\n        uint256 _amount\n    );\n\n}\n\n\n////////////////\n// MiniMeTokenFactory\n////////////////\n\n/// @dev This contract is used to generate clone contracts from a contract.\n///  In solidity this is the way to create a contract from a contract of the\n///  same class\ncontract MiniMeTokenFactory {\n\n    /// @notice Update the DApp by creating a new token with new functionalities\n    ///  the msg.sender becomes the controller of this clone token\n    /// @param _parentToken Address of the token being cloned\n    /// @param _snapshotBlock Block of the parent token that will\n    ///  determine the initial distribution of the clone token\n    /// @param _tokenName Name of the new token\n    /// @param _decimalUnits Number of decimals of the new token\n    /// @param _tokenSymbol Token Symbol for the new token\n    /// @param _transfersEnabled If true, tokens will be able to be transferred\n    /// @return The address of the new token contract\n    function createCloneToken(\n        address payable _parentToken,\n        uint _snapshotBlock,\n        string memory _tokenName,\n        uint8 _decimalUnits,\n        string memory _tokenSymbol,\n        bool _transfersEnabled\n    ) public returns (MiniMeToken) {\n        MiniMeToken newToken = new MiniMeToken(\n            address(this),\n            _parentToken,\n            _snapshotBlock,\n            _tokenName,\n            _decimalUnits,\n            _tokenSymbol,\n            _transfersEnabled\n            );\n\n        newToken.changeController(msg.sender);\n        return newToken;\n    }\n}\n",
  "sourcePath": "/home/joe/Documents/github/chicobitcoinjoe/medao/contracts/external/MiniMeToken.sol",
  "compiler": {
    "name": "solc",
    "version": "0.5.8+commit.23d335f2.Emscripten.clang"
  },
  "schemaVersion": "3.0.11",
  "updatedAt": "2019-08-06T00:16:25.869Z",
  "devdoc": {
    "details": "This contract is used to generate clone contracts from a contract.  In solidity this is the way to create a contract from a contract of the  same class",
    "methods": {
      "createCloneToken(address,uint256,string,uint8,string,bool)": {
        "params": {
          "_decimalUnits": "Number of decimals of the new token",
          "_parentToken": "Address of the token being cloned",
          "_snapshotBlock": "Block of the parent token that will  determine the initial distribution of the clone token",
          "_tokenName": "Name of the new token",
          "_tokenSymbol": "Token Symbol for the new token",
          "_transfersEnabled": "If true, tokens will be able to be transferred"
        },
        "return": "The address of the new token contract"
      }
    }
  },
  "userdoc": {
    "methods": {
      "createCloneToken(address,uint256,string,uint8,string,bool)": {
        "notice": "Update the DApp by creating a new token with new functionalities  the msg.sender becomes the controller of this clone token"
      }
    },
    "notice": "/////////////"
  }
}