{
  "contractName": "MoneyPool",
  "abi": [
    {
      "constant": false,
      "inputs": [
        {
          "name": "_from",
          "type": "address"
        },
        {
          "name": "_to",
          "type": "address"
        },
        {
          "name": "_amount",
          "type": "uint256"
        }
      ],
      "name": "onTransfer",
      "outputs": [
        {
          "name": "",
          "type": "bool"
        }
      ],
      "payable": false,
      "stateMutability": "nonpayable",
      "type": "function"
    },
    {
      "constant": true,
      "inputs": [],
      "name": "maxTokenSupply",
      "outputs": [
        {
          "name": "",
          "type": "uint256"
        }
      ],
      "payable": false,
      "stateMutability": "view",
      "type": "function"
    },
    {
      "constant": true,
      "inputs": [],
      "name": "shareToken",
      "outputs": [
        {
          "name": "",
          "type": "address"
        }
      ],
      "payable": false,
      "stateMutability": "view",
      "type": "function"
    },
    {
      "constant": true,
      "inputs": [],
      "name": "baseShareValue",
      "outputs": [
        {
          "name": "",
          "type": "uint256"
        }
      ],
      "payable": false,
      "stateMutability": "view",
      "type": "function"
    },
    {
      "constant": true,
      "inputs": [],
      "name": "useBaseValue",
      "outputs": [
        {
          "name": "",
          "type": "bool"
        }
      ],
      "payable": false,
      "stateMutability": "view",
      "type": "function"
    },
    {
      "constant": true,
      "inputs": [],
      "name": "blockInitialized",
      "outputs": [
        {
          "name": "",
          "type": "uint256"
        }
      ],
      "payable": false,
      "stateMutability": "view",
      "type": "function"
    },
    {
      "constant": false,
      "inputs": [
        {
          "name": "_owner",
          "type": "address"
        },
        {
          "name": "_spender",
          "type": "address"
        },
        {
          "name": "_amount",
          "type": "uint256"
        }
      ],
      "name": "onApprove",
      "outputs": [
        {
          "name": "",
          "type": "bool"
        }
      ],
      "payable": false,
      "stateMutability": "nonpayable",
      "type": "function"
    },
    {
      "constant": true,
      "inputs": [],
      "name": "reserveToken",
      "outputs": [
        {
          "name": "",
          "type": "address"
        }
      ],
      "payable": false,
      "stateMutability": "view",
      "type": "function"
    },
    {
      "constant": false,
      "inputs": [
        {
          "name": "_owner",
          "type": "address"
        }
      ],
      "name": "proxyPayment",
      "outputs": [
        {
          "name": "",
          "type": "bool"
        }
      ],
      "payable": true,
      "stateMutability": "payable",
      "type": "function"
    },
    {
      "anonymous": false,
      "inputs": [
        {
          "indexed": false,
          "name": "collectedAmount",
          "type": "uint256"
        }
      ],
      "name": "Collect_event",
      "type": "event"
    },
    {
      "anonymous": false,
      "inputs": [
        {
          "indexed": false,
          "name": "msgSender",
          "type": "address"
        },
        {
          "indexed": false,
          "name": "reserveAmount",
          "type": "uint256"
        },
        {
          "indexed": false,
          "name": "shareClaim",
          "type": "uint256"
        }
      ],
      "name": "Deposit_event",
      "type": "event"
    },
    {
      "anonymous": false,
      "inputs": [
        {
          "indexed": false,
          "name": "msgSender",
          "type": "address"
        },
        {
          "indexed": false,
          "name": "shareAmount",
          "type": "uint256"
        },
        {
          "indexed": false,
          "name": "reserveClaim",
          "type": "uint256"
        }
      ],
      "name": "Withdraw_event",
      "type": "event"
    },
    {
      "anonymous": false,
      "inputs": [
        {
          "indexed": false,
          "name": "account",
          "type": "address"
        },
        {
          "indexed": false,
          "name": "reserveAmount",
          "type": "uint256"
        }
      ],
      "name": "Transfer_event",
      "type": "event"
    },
    {
      "anonymous": false,
      "inputs": [
        {
          "indexed": false,
          "name": "account",
          "type": "address"
        },
        {
          "indexed": false,
          "name": "shareAmount",
          "type": "uint256"
        }
      ],
      "name": "Issue_event",
      "type": "event"
    },
    {
      "anonymous": false,
      "inputs": [
        {
          "indexed": false,
          "name": "account",
          "type": "address"
        },
        {
          "indexed": false,
          "name": "shareAmount",
          "type": "uint256"
        }
      ],
      "name": "Destroy_event",
      "type": "event"
    },
    {
      "constant": false,
      "inputs": [
        {
          "name": "_reserveToken",
          "type": "address"
        },
        {
          "name": "_shareToken",
          "type": "address"
        },
        {
          "name": "_maxTokenSupply",
          "type": "uint256"
        },
        {
          "name": "_baseShareValue",
          "type": "uint256"
        },
        {
          "name": "_useBaseValue",
          "type": "bool"
        }
      ],
      "name": "setupMoneyPool",
      "outputs": [],
      "payable": false,
      "stateMutability": "nonpayable",
      "type": "function"
    },
    {
      "constant": true,
      "inputs": [
        {
          "name": "reserveAmount",
          "type": "uint256"
        }
      ],
      "name": "calculateShareClaim",
      "outputs": [
        {
          "name": "",
          "type": "uint256"
        }
      ],
      "payable": false,
      "stateMutability": "view",
      "type": "function"
    },
    {
      "constant": true,
      "inputs": [
        {
          "name": "shareAmount",
          "type": "uint256"
        }
      ],
      "name": "calculateReserveClaim",
      "outputs": [
        {
          "name": "",
          "type": "uint256"
        }
      ],
      "payable": false,
      "stateMutability": "view",
      "type": "function"
    },
    {
      "constant": false,
      "inputs": [
        {
          "name": "reserveAmount",
          "type": "uint256"
        }
      ],
      "name": "deposit",
      "outputs": [
        {
          "name": "shareClaim",
          "type": "uint256"
        }
      ],
      "payable": false,
      "stateMutability": "nonpayable",
      "type": "function"
    },
    {
      "constant": false,
      "inputs": [
        {
          "name": "shareAmount",
          "type": "uint256"
        }
      ],
      "name": "withdraw",
      "outputs": [
        {
          "name": "reserveClaim",
          "type": "uint256"
        }
      ],
      "payable": false,
      "stateMutability": "nonpayable",
      "type": "function"
    }
  ],
  "bytecode": "0x608060405234801561001057600080fd5b50611304806100206000396000f3fe6080604052600436106100dd5760003560e01c806395a1e3031161007f578063b6b55f2511610059578063b6b55f25146103fa578063da682aeb14610449578063f4325d67146104dc578063f48c305414610533576100dd565b806395a1e303146103515780639bc40c4c14610380578063b163ecd2146103ab576100dd565b80634a393149116100bb5780634a3931491461021157806350f7c204146102a45780636c9fa59e146102cf578063761537ad14610326576100dd565b8063071e899a146100e25780632e1a7d4d14610173578063327ca4a8146101c2575b600080fd5b3480156100ee57600080fd5b50610171600480360360a081101561010557600080fd5b81019080803573ffffffffffffffffffffffffffffffffffffffff169060200190929190803573ffffffffffffffffffffffffffffffffffffffff169060200190929190803590602001909291908035906020019092919080351515906020019092919050505061058f565b005b34801561017f57600080fd5b506101ac6004803603602081101561019657600080fd5b8101908080359060200190929190505050610655565b6040518082815260200191505060405180910390f35b3480156101ce57600080fd5b506101fb600480360360208110156101e557600080fd5b8101908080359060200190929190505050610986565b6040518082815260200191505060405180910390f35b34801561021d57600080fd5b5061028a6004803603606081101561023457600080fd5b81019080803573ffffffffffffffffffffffffffffffffffffffff169060200190929190803573ffffffffffffffffffffffffffffffffffffffff16906020019092919080359060200190929190505050610c2d565b604051808215151515815260200191505060405180910390f35b3480156102b057600080fd5b506102b9610c3a565b6040518082815260200191505060405180910390f35b3480156102db57600080fd5b506102e4610c40565b604051808273ffffffffffffffffffffffffffffffffffffffff1673ffffffffffffffffffffffffffffffffffffffff16815260200191505060405180910390f35b34801561033257600080fd5b5061033b610c66565b6040518082815260200191505060405180910390f35b34801561035d57600080fd5b50610366610c6c565b604051808215151515815260200191505060405180910390f35b34801561038c57600080fd5b50610395610c7f565b6040518082815260200191505060405180910390f35b3480156103b757600080fd5b506103e4600480360360208110156103ce57600080fd5b8101908080359060200190929190505050610c85565b6040518082815260200191505060405180910390f35b34801561040657600080fd5b506104336004803603602081101561041d57600080fd5b8101908080359060200190929190505050610e15565b6040518082815260200191505060405180910390f35b34801561045557600080fd5b506104c26004803603606081101561046c57600080fd5b81019080803573ffffffffffffffffffffffffffffffffffffffff169060200190929190803573ffffffffffffffffffffffffffffffffffffffff1690602001909291908035906020019092919050505061129b565b604051808215151515815260200191505060405180910390f35b3480156104e857600080fd5b506104f16112a8565b604051808273ffffffffffffffffffffffffffffffffffffffff1673ffffffffffffffffffffffffffffffffffffffff16815260200191505060405180910390f35b6105756004803603602081101561054957600080fd5b81019080803573ffffffffffffffffffffffffffffffffffffffff1690602001909291905050506112ce565b604051808215151515815260200191505060405180910390f35b600080541461059d57600080fd5b84600560016101000a81548173ffffffffffffffffffffffffffffffffffffffff021916908373ffffffffffffffffffffffffffffffffffffffff16021790555083600660006101000a81548173ffffffffffffffffffffffffffffffffffffffff021916908373ffffffffffffffffffffffffffffffffffffffff160217905550826007819055508160088190555080600960006101000a81548160ff021916908315150217905550436000819055505050505050565b600061066082610c85565b9050600660009054906101000a900473ffffffffffffffffffffffffffffffffffffffff1673ffffffffffffffffffffffffffffffffffffffff1663d3ce77fe33846040518363ffffffff1660e01b8152600401808373ffffffffffffffffffffffffffffffffffffffff1673ffffffffffffffffffffffffffffffffffffffff16815260200182815260200192505050602060405180830381600087803b15801561070b57600080fd5b505af115801561071f573d6000803e3d6000fd5b505050506040513d602081101561073557600080fd5b81019080805190602001909291905050506107b8576040517f08c379a00000000000000000000000000000000000000000000000000000000081526004018080602001828103825260188152602001807f6661696c656420746f2064657374726f7920746f6b656e73000000000000000081525060200191505060405180910390fd5b600560019054906101000a900473ffffffffffffffffffffffffffffffffffffffff1673ffffffffffffffffffffffffffffffffffffffff1663a9059cbb33836040518363ffffffff1660e01b8152600401808373ffffffffffffffffffffffffffffffffffffffff1673ffffffffffffffffffffffffffffffffffffffff16815260200182815260200192505050602060405180830381600087803b15801561086157600080fd5b505af1158015610875573d6000803e3d6000fd5b505050506040513d602081101561088b57600080fd5b810190808051906020019092919050505061090e576040517f08c379a00000000000000000000000000000000000000000000000000000000081526004018080602001828103825260128152602001807f6661696c656420746f207472616e73666572000000000000000000000000000081525060200191505060405180910390fd5b7ffc66b0b1bed0c04059e1367b6de8a81a90429a81bc9ba512980aad725fb5632c338383604051808473ffffffffffffffffffffffffffffffffffffffff1673ffffffffffffffffffffffffffffffffffffffff168152602001838152602001828152602001935050505060405180910390a1919050565b6000600960009054906101000a900460ff1680610a7c57506000600560019054906101000a900473ffffffffffffffffffffffffffffffffffffffff1673ffffffffffffffffffffffffffffffffffffffff166370a08231306040518263ffffffff1660e01b8152600401808273ffffffffffffffffffffffffffffffffffffffff1673ffffffffffffffffffffffffffffffffffffffff16815260200191505060206040518083038186803b158015610a3f57600080fd5b505afa158015610a53573d6000803e3d6000fd5b505050506040513d6020811015610a6957600080fd5b8101908080519060200190929190505050145b15610a9e57600854670de0b6b3a7640000830281610a9657fe5b049050610c28565b600560019054906101000a900473ffffffffffffffffffffffffffffffffffffffff1673ffffffffffffffffffffffffffffffffffffffff166370a08231306040518263ffffffff1660e01b8152600401808273ffffffffffffffffffffffffffffffffffffffff1673ffffffffffffffffffffffffffffffffffffffff16815260200191505060206040518083038186803b158015610b3d57600080fd5b505afa158015610b51573d6000803e3d6000fd5b505050506040513d6020811015610b6757600080fd5b810190808051906020019092919050505082600660009054906101000a900473ffffffffffffffffffffffffffffffffffffffff1673ffffffffffffffffffffffffffffffffffffffff166318160ddd6040518163ffffffff1660e01b815260040160206040518083038186803b158015610be157600080fd5b505afa158015610bf5573d6000803e3d6000fd5b505050506040513d6020811015610c0b57600080fd5b81019080805190602001909291905050500281610c2457fe5b0490505b919050565b6000600190509392505050565b60075481565b600660009054906101000a900473ffffffffffffffffffffffffffffffffffffffff1681565b60085481565b600960009054906101000a900460ff1681565b60005481565b6000600660009054906101000a900473ffffffffffffffffffffffffffffffffffffffff1673ffffffffffffffffffffffffffffffffffffffff166318160ddd6040518163ffffffff1660e01b815260040160206040518083038186803b158015610cef57600080fd5b505afa158015610d03573d6000803e3d6000fd5b505050506040513d6020811015610d1957600080fd5b810190808051906020019092919050505082600560019054906101000a900473ffffffffffffffffffffffffffffffffffffffff1673ffffffffffffffffffffffffffffffffffffffff166370a08231306040518263ffffffff1660e01b8152600401808273ffffffffffffffffffffffffffffffffffffffff1673ffffffffffffffffffffffffffffffffffffffff16815260200191505060206040518083038186803b158015610dca57600080fd5b505afa158015610dde573d6000803e3d6000fd5b505050506040513d6020811015610df457600080fd5b81019080805190602001909291905050500281610e0d57fe5b049050919050565b600080600660009054906101000a900473ffffffffffffffffffffffffffffffffffffffff1673ffffffffffffffffffffffffffffffffffffffff166318160ddd6040518163ffffffff1660e01b815260040160206040518083038186803b158015610e8057600080fd5b505afa158015610e94573d6000803e3d6000fd5b505050506040513d6020811015610eaa57600080fd5b8101908080519060200190929190505050600754039050610eca83610986565b915081811015610f42576040517f08c379a00000000000000000000000000000000000000000000000000000000081526004018080602001828103825260168152602001807f696e76616c6964207265736572766520616d6f756e740000000000000000000081525060200191505060405180910390fd5b600560019054906101000a900473ffffffffffffffffffffffffffffffffffffffff1673ffffffffffffffffffffffffffffffffffffffff166323b872dd3330866040518463ffffffff1660e01b8152600401808473ffffffffffffffffffffffffffffffffffffffff1673ffffffffffffffffffffffffffffffffffffffff1681526020018373ffffffffffffffffffffffffffffffffffffffff1673ffffffffffffffffffffffffffffffffffffffff1681526020018281526020019350505050602060405180830381600087803b15801561101f57600080fd5b505af1158015611033573d6000803e3d6000fd5b505050506040513d602081101561104957600080fd5b81019080805190602001909291905050506110cc576040517f08c379a00000000000000000000000000000000000000000000000000000000081526004018080602001828103825260128152602001807f6661696c656420746f207472616e73666572000000000000000000000000000081525060200191505060405180910390fd5b600660009054906101000a900473ffffffffffffffffffffffffffffffffffffffff1673ffffffffffffffffffffffffffffffffffffffff1663827f32c033846040518363ffffffff1660e01b8152600401808373ffffffffffffffffffffffffffffffffffffffff1673ffffffffffffffffffffffffffffffffffffffff16815260200182815260200192505050602060405180830381600087803b15801561117557600080fd5b505af1158015611189573d6000803e3d6000fd5b505050506040513d602081101561119f57600080fd5b8101908080519060200190929190505050611222576040517f08c379a00000000000000000000000000000000000000000000000000000000081526004018080602001828103825260198152602001807f6661696c656420746f2067656e657261746520746f6b656e730000000000000081525060200191505060405180910390fd5b7f48ac3b6d8a059a533cd86121b6616d2b78cc16910bc22eafff12e1f166591a22338484604051808473ffffffffffffffffffffffffffffffffffffffff1673ffffffffffffffffffffffffffffffffffffffff168152602001838152602001828152602001935050505060405180910390a150919050565b6000600190509392505050565b600560019054906101000a900473ffffffffffffffffffffffffffffffffffffffff1681565b600080905091905056fea165627a7a723058207b6ce304f7de986f9c521039548c78ddd492ecef6d384811193a765949da1ccc0029",
  "source": "pragma solidity ^0.5.0;\n\nimport \"./external/CloneFactory.sol\";\nimport \"./Interfaces.sol\";\n\ncontract MoneyPool is Initialized, IMoneyPool {\n\n    ERC20Token public reserveToken; // A reserve token to hold the value of a person\n    MiniMeToken public shareToken;  // A cloneable token that represents a person\n    uint public maxTokenSupply;     // The maximum amount of shares that can be created\n    uint public baseShareValue;     // Sets a base value for each sold token at\n    bool public useBaseValue;       // Determines which formula is used when depositing\n\n    function setupMoneyPool (\n        ERC20Token _reserveToken,\n        MiniMeToken _shareToken,\n        uint _maxTokenSupply,\n        uint _baseShareValue,\n        bool _useBaseValue\n    ) public runOnce {\n        reserveToken = _reserveToken;\n        shareToken = _shareToken;\n        maxTokenSupply = _maxTokenSupply;\n        baseShareValue = _baseShareValue;\n        useBaseValue = _useBaseValue;\n    }\n\n    function calculateShareClaim (uint reserveAmount) public view returns (uint) {\n        if(useBaseValue || reserveToken.balanceOf(address(this)) == 0) {\n            return reserveAmount * 1 ether / baseShareValue;\n        }\n        else {\n            return shareToken.totalSupply() * reserveAmount / reserveToken.balanceOf(address(this));\n        }\n    }\n\n    function calculateReserveClaim (uint shareAmount) public view returns (uint) {\n        return reserveToken.balanceOf(address(this)) * shareAmount / shareToken.totalSupply();\n    }\n\n    function deposit (uint reserveAmount) public returns (uint shareClaim) {\n        uint availableTokens = maxTokenSupply - shareToken.totalSupply();\n        shareClaim = calculateShareClaim(reserveAmount);\n        require(availableTokens >= shareClaim, \"invalid reserve amount\");\n        require(reserveToken.transferFrom(msg.sender, address(this), reserveAmount), \"failed to transfer\");\n        require(shareToken.generateTokens(msg.sender, shareClaim), \"failed to generate tokens\");\n        emit Deposit_event(msg.sender, reserveAmount, shareClaim);\n    }\n\n    function withdraw (uint shareAmount) public returns (uint reserveClaim) {\n        reserveClaim = calculateReserveClaim(shareAmount);\n        require(shareToken.destroyTokens(msg.sender, shareAmount), \"failed to destroy tokens\");\n        require(reserveToken.transfer(msg.sender, reserveClaim), \"failed to transfer\");\n        emit Withdraw_event(msg.sender, shareAmount, reserveClaim);\n    }\n\n    function transfer (address account, uint reserveAmount) internal {\n        require(reserveToken.transfer(account, reserveAmount));\n        emit Transfer_event(account, reserveAmount);\n    }\n\n    function issue (address account, uint shareAmount) internal {\n        require(shareToken.generateTokens(account, shareAmount));\n        maxTokenSupply += shareAmount;\n        emit Issue_event(account, shareAmount);\n    }\n\n    function destroy (address account, uint shareAmount) internal {\n        require(shareToken.destroyTokens(account, shareAmount));\n        maxTokenSupply -= shareAmount;\n        emit Destroy_event(account, shareAmount);\n    }\n\n    event Collect_event (uint collectedAmount);\n    event Deposit_event (address msgSender, uint reserveAmount, uint shareClaim);\n    event Withdraw_event (address msgSender, uint shareAmount, uint reserveClaim);\n    event Transfer_event (address account, uint reserveAmount);\n    event Issue_event (address account, uint shareAmount);\n    event Destroy_event (address account, uint shareAmount);\n\n}\n",
  "sourcePath": "/home/joe/Documents/github/chicobitcoinjoe/medao/contracts/MoneyPool.sol",
  "compiler": {
    "name": "solc",
    "version": "0.5.8+commit.23d335f2.Emscripten.clang"
  },
  "schemaVersion": "3.0.11",
  "updatedAt": "2019-08-06T03:13:26.822Z",
  "devdoc": {
    "methods": {}
  },
  "userdoc": {
    "methods": {}
  }
}