{
  "contractName": "NameRegistry",
  "abi": [
    {
      "constant": false,
      "inputs": [
        {
          "name": "name",
          "type": "string"
        }
      ],
      "name": "register",
      "outputs": [
        {
          "name": "id",
          "type": "uint256"
        }
      ],
      "payable": false,
      "stateMutability": "nonpayable",
      "type": "function"
    },
    {
      "constant": true,
      "inputs": [
        {
          "name": "name",
          "type": "string"
        },
        {
          "name": "id",
          "type": "uint256"
        }
      ],
      "name": "lookup",
      "outputs": [
        {
          "name": "",
          "type": "address"
        }
      ],
      "payable": false,
      "stateMutability": "view",
      "type": "function"
    },
    {
      "constant": true,
      "inputs": [
        {
          "name": "_address",
          "type": "address"
        }
      ],
      "name": "from",
      "outputs": [
        {
          "name": "",
          "type": "string"
        },
        {
          "name": "",
          "type": "uint256"
        }
      ],
      "payable": false,
      "stateMutability": "view",
      "type": "function"
    },
    {
      "constant": false,
      "inputs": [
        {
          "name": "name",
          "type": "string"
        },
        {
          "name": "id",
          "type": "uint256"
        },
        {
          "name": "_address",
          "type": "address"
        }
      ],
      "name": "transfer",
      "outputs": [],
      "payable": false,
      "stateMutability": "nonpayable",
      "type": "function"
    }
  ],
  "bytecode": "0x608060405234801561001057600080fd5b50610b65806100206000396000f3fe608060405234801561001057600080fd5b506004361061004c5760003560e01c806387b1082214610051578063c335848314610115578063f2c298be146101fa578063f924d329146102c9575b600080fd5b6100936004803603602081101561006757600080fd5b81019080803573ffffffffffffffffffffffffffffffffffffffff1690602001909291905050506103ce565b6040518080602001838152602001828103825284818151815260200191508051906020019080838360005b838110156100d95780820151818401526020810190506100be565b50505050905090810190601f1680156101065780820380516001836020036101000a031916815260200191505b50935050505060405180910390f35b6101f86004803603606081101561012b57600080fd5b810190808035906020019064010000000081111561014857600080fd5b82018360208201111561015a57600080fd5b8035906020019184600183028401116401000000008311171561017c57600080fd5b91908080601f016020809104026020016040519081016040528093929190818152602001838380828437600081840152601f19601f82011690508083019250505050505050919291929080359060200190929190803573ffffffffffffffffffffffffffffffffffffffff1690602001909291905050506104e9565b005b6102b36004803603602081101561021057600080fd5b810190808035906020019064010000000081111561022d57600080fd5b82018360208201111561023f57600080fd5b8035906020019184600183028401116401000000008311171561026157600080fd5b91908080601f016020809104026020016040519081016040528093929190818152602001838380828437600081840152601f19601f8201169050808301925050505050505091929192905050506106ff565b6040518082815260200191505060405180910390f35b61038c600480360360408110156102df57600080fd5b81019080803590602001906401000000008111156102fc57600080fd5b82018360208201111561030e57600080fd5b8035906020019184600183028401116401000000008311171561033057600080fd5b91908080601f016020809104026020016040519081016040528093929190818152602001838380828437600081840152601f19601f820116905080830192505050505050509192919290803590602001909291905050506109d2565b604051808273ffffffffffffffffffffffffffffffffffffffff1673ffffffffffffffffffffffffffffffffffffffff16815260200191505060405180910390f35b606060006103da610a7a565b600160008573ffffffffffffffffffffffffffffffffffffffff1673ffffffffffffffffffffffffffffffffffffffff168152602001908152602001600020604051806040016040529081600082018054600181600116156101000203166002900480601f0160208091040260200160405190810160405280929190818152602001828054600181600116156101000203166002900480156104bd5780601f10610492576101008083540402835291602001916104bd565b820191906000526020600020905b8154815290600101906020018083116104a057829003601f168201915b505050505081526020016001820154815250509050806000015181602001518191509250925050915091565b3373ffffffffffffffffffffffffffffffffffffffff166000846040518082805190602001908083835b602083106105365780518252602082019150602081019050602083039250610513565b6001836020036101000a0380198251168184511680821785525050505050509050019150509081526020016040518091039020838154811061057457fe5b9060005260206000200160009054906101000a900473ffffffffffffffffffffffffffffffffffffffff1673ffffffffffffffffffffffffffffffffffffffff16146105bf57600080fd5b604051806040016040528084815260200183815250600160008373ffffffffffffffffffffffffffffffffffffffff1673ffffffffffffffffffffffffffffffffffffffff168152602001908152602001600020600082015181600001908051906020019061062f929190610a94565b5060208201518160010155905050806000846040518082805190602001908083835b602083106106745780518252602082019150602081019050602083039250610651565b6001836020036101000a038019825116818451168082178552505050505050905001915050908152602001604051809103902083815481106106b257fe5b9060005260206000200160006101000a81548173ffffffffffffffffffffffffffffffffffffffff021916908373ffffffffffffffffffffffffffffffffffffffff160217905550505050565b6000610709610a7a565b600160003373ffffffffffffffffffffffffffffffffffffffff1673ffffffffffffffffffffffffffffffffffffffff168152602001908152602001600020604051806040016040529081600082018054600181600116156101000203166002900480601f0160208091040260200160405190810160405280929190818152602001828054600181600116156101000203166002900480156107ec5780601f106107c1576101008083540402835291602001916107ec565b820191906000526020600020905b8154815290600101906020018083116107cf57829003601f168201915b505050505081526020016001820154815250509050600081602001511461081257600080fd5b6000836040518082805190602001908083835b602083106108485780518252602082019150602081019050602083039250610825565b6001836020036101000a03801982511681845116808217855250505050505090500191505090815260200160405180910390203390806001815401808255809150509060018203906000526020600020016000909192909190916101000a81548173ffffffffffffffffffffffffffffffffffffffff021916908373ffffffffffffffffffffffffffffffffffffffff160217905550506000836040518082805190602001908083835b6020831061091557805182526020820191506020810190506020830392506108f2565b6001836020036101000a0380198251168184511680821785525050505050509050019150509081526020016040518091039020805490509150604051806040016040528084815260200183815250600160003373ffffffffffffffffffffffffffffffffffffffff1673ffffffffffffffffffffffffffffffffffffffff16815260200190815260200160002060008201518160000190805190602001906109be929190610a94565b506020820151816001015590505050919050565b600080836040518082805190602001908083835b60208310610a0957805182526020820191506020810190506020830392506109e6565b6001836020036101000a03801982511681845116808217855250505050505090500191505090815260200160405180910390208281548110610a4757fe5b9060005260206000200160009054906101000a900473ffffffffffffffffffffffffffffffffffffffff16905092915050565b604051806040016040528060608152602001600081525090565b828054600181600116156101000203166002900490600052602060002090601f016020900481019282601f10610ad557805160ff1916838001178555610b03565b82800160010185558215610b03579182015b82811115610b02578251825591602001919060010190610ae7565b5b509050610b109190610b14565b5090565b610b3691905b80821115610b32576000816000905550600101610b1a565b5090565b9056fea165627a7a7230582058e15ee4ea999a7fdfc50e0c3b360f85077d9c8e95438ba40797e6ccf14dc3750029",
  "source": "pragma solidity ^0.5.0;\n\ncontract NameRegistry {\n\n    struct Account {\n        string name;\n        uint id;\n    }\n\n    mapping (string => address[]) registry;\n    mapping (address => Account) reverseLookup;\n\n    function register (string memory name) public returns (uint id) {\n        Account memory account = reverseLookup[msg.sender];\n        require(account.id == 0);\n\n        registry[name].push(msg.sender);\n        id = registry[name].length;\n        reverseLookup[msg.sender] = Account(name, id);\n    }\n\n    function lookup (string memory name, uint id) public view returns (address){\n        return registry[name][id];\n    }\n\n    function from (address _address) public view returns (string memory, uint) {\n        Account memory account = reverseLookup[_address];\n        return (account.name, account.id);\n    }\n\n    function transfer (string memory name, uint id, address _address) public {\n        require(registry[name][id] == msg.sender);\n        reverseLookup[_address] = Account(name, id);\n        registry[name][id] = _address;\n    }\n\n}\n",
  "sourcePath": "/home/joe/Documents/github/chicobitcoinjoe/medao/contracts/NameRegistry.sol",
  "compiler": {
    "name": "solc",
    "version": "0.5.8+commit.23d335f2.Emscripten.clang"
  },
  "schemaVersion": "3.0.11",
  "updatedAt": "2019-08-04T03:58:25.033Z",
  "devdoc": {
    "methods": {}
  },
  "userdoc": {
    "methods": {}
  }
}