{
  "contractName": "Pledge",
  "abi": [
    {
      "constant": true,
      "inputs": [],
      "name": "pledgedReserveTokens",
      "outputs": [
        {
          "name": "",
          "type": "uint256"
        }
      ],
      "payable": false,
      "stateMutability": "view",
      "type": "function"
    },
    {
      "constant": true,
      "inputs": [],
      "name": "fundraiser",
      "outputs": [
        {
          "name": "",
          "type": "address"
        }
      ],
      "payable": false,
      "stateMutability": "view",
      "type": "function"
    },
    {
      "constant": true,
      "inputs": [],
      "name": "owner",
      "outputs": [
        {
          "name": "",
          "type": "address"
        }
      ],
      "payable": false,
      "stateMutability": "view",
      "type": "function"
    },
    {
      "constant": true,
      "inputs": [],
      "name": "blockInitialized",
      "outputs": [
        {
          "name": "",
          "type": "uint256"
        }
      ],
      "payable": false,
      "stateMutability": "view",
      "type": "function"
    },
    {
      "constant": true,
      "inputs": [],
      "name": "claimedShareTokens",
      "outputs": [
        {
          "name": "",
          "type": "uint256"
        }
      ],
      "payable": false,
      "stateMutability": "view",
      "type": "function"
    },
    {
      "constant": false,
      "inputs": [
        {
          "name": "newOwner",
          "type": "address"
        }
      ],
      "name": "transferOwnership",
      "outputs": [],
      "payable": false,
      "stateMutability": "nonpayable",
      "type": "function"
    },
    {
      "anonymous": false,
      "inputs": [
        {
          "indexed": false,
          "name": "msgSender",
          "type": "address"
        },
        {
          "indexed": false,
          "name": "reserveTokens",
          "type": "uint256"
        },
        {
          "indexed": false,
          "name": "shareClaim",
          "type": "uint256"
        }
      ],
      "name": "Deposit_event",
      "type": "event"
    },
    {
      "anonymous": false,
      "inputs": [
        {
          "indexed": false,
          "name": "msgSender",
          "type": "address"
        },
        {
          "indexed": false,
          "name": "shareTokens",
          "type": "uint256"
        },
        {
          "indexed": false,
          "name": "reserveClaim",
          "type": "uint256"
        }
      ],
      "name": "Withdraw_event",
      "type": "event"
    },
    {
      "constant": false,
      "inputs": [
        {
          "name": "_pledgedReserveTokens",
          "type": "uint256"
        },
        {
          "name": "_claimedShareTokens",
          "type": "uint256"
        }
      ],
      "name": "initialize",
      "outputs": [],
      "payable": false,
      "stateMutability": "nonpayable",
      "type": "function"
    },
    {
      "constant": false,
      "inputs": [
        {
          "name": "reserveTokens",
          "type": "uint256"
        }
      ],
      "name": "pledgeReserveTokens",
      "outputs": [
        {
          "name": "shareClaim",
          "type": "uint256"
        }
      ],
      "payable": false,
      "stateMutability": "nonpayable",
      "type": "function"
    },
    {
      "constant": false,
      "inputs": [
        {
          "name": "shareTokens",
          "type": "uint256"
        }
      ],
      "name": "reclaimReserveTokens",
      "outputs": [
        {
          "name": "reserveClaim",
          "type": "uint256"
        }
      ],
      "payable": false,
      "stateMutability": "nonpayable",
      "type": "function"
    }
  ],
  "bytecode": "0x608060405233600160006101000a81548173ffffffffffffffffffffffffffffffffffffffff021916908373ffffffffffffffffffffffffffffffffffffffff16021790555061073b806100546000396000f3fe608060405234801561001057600080fd5b50600436106100935760003560e01c806392b7a3631161006657806392b7a3631461018c5780639bc40c4c146101ce578063b1180206146101ec578063e4a301161461020a578063f2fde38b1461024257610093565b80633528cfcd14610098578063688319e3146100da57806389585d10146100f85780638da5cb5b14610142575b600080fd5b6100c4600480360360208110156100ae57600080fd5b8101908080359060200190929190505050610286565b6040518082815260200191505060405180910390f35b6100e261028d565b6040518082815260200191505060405180910390f35b610100610293565b604051808273ffffffffffffffffffffffffffffffffffffffff1673ffffffffffffffffffffffffffffffffffffffff16815260200191505060405180910390f35b61014a6102b9565b604051808273ffffffffffffffffffffffffffffffffffffffff1673ffffffffffffffffffffffffffffffffffffffff16815260200191505060405180910390f35b6101b8600480360360208110156101a257600080fd5b81019080803590602001909291905050506102df565b6040518082815260200191505060405180910390f35b6101d6610573565b6040518082815260200191505060405180910390f35b6101f4610579565b6040518082815260200191505060405180910390f35b6102406004803603604081101561022057600080fd5b81019080803590602001909291908035906020019092919050505061057f565b005b6102846004803603602081101561025857600080fd5b81019080803573ffffffffffffffffffffffffffffffffffffffff1690602001909291905050506105e7565b005b6000919050565b60045481565b600260009054906101000a900473ffffffffffffffffffffffffffffffffffffffff1681565b600160009054906101000a900473ffffffffffffffffffffffffffffffffffffffff1681565b6000600260009054906101000a900473ffffffffffffffffffffffffffffffffffffffff1673ffffffffffffffffffffffffffffffffffffffff16632e1a7d4d836040518263ffffffff1660e01b815260040180828152602001915050602060405180830381600087803b15801561035657600080fd5b505af115801561036a573d6000803e3d6000fd5b505050506040513d602081101561038057600080fd5b81019080805190602001909291905050509050600260009054906101000a900473ffffffffffffffffffffffffffffffffffffffff1673ffffffffffffffffffffffffffffffffffffffff1663f4325d676040518163ffffffff1660e01b815260040160206040518083038186803b1580156103fb57600080fd5b505afa15801561040f573d6000803e3d6000fd5b505050506040513d602081101561042557600080fd5b810190808051906020019092919050505073ffffffffffffffffffffffffffffffffffffffff1663a9059cbb600160009054906101000a900473ffffffffffffffffffffffffffffffffffffffff16836040518363ffffffff1660e01b8152600401808373ffffffffffffffffffffffffffffffffffffffff1673ffffffffffffffffffffffffffffffffffffffff16815260200182815260200192505050602060405180830381600087803b1580156104de57600080fd5b505af11580156104f2573d6000803e3d6000fd5b505050506040513d602081101561050857600080fd5b810190808051906020019092919050505061056e576040517f08c379a00000000000000000000000000000000000000000000000000000000081526004018080602001828103825260218152602001806106ef6021913960400191505060405180910390fd5b919050565b60005481565b60035481565b600080541461058d57600080fd5b33600260006101000a81548173ffffffffffffffffffffffffffffffffffffffff021916908373ffffffffffffffffffffffffffffffffffffffff1602179055508160048190555080600381905550436000819055505050565b600160009054906101000a900473ffffffffffffffffffffffffffffffffffffffff1673ffffffffffffffffffffffffffffffffffffffff163373ffffffffffffffffffffffffffffffffffffffff16146106aa576040517f08c379a00000000000000000000000000000000000000000000000000000000081526004018080602001828103825260178152602001807f6d73672073656e646572206973206e6f74206f776e657200000000000000000081525060200191505060405180910390fd5b80600160006101000a81548173ffffffffffffffffffffffffffffffffffffffff021916908373ffffffffffffffffffffffffffffffffffffffff1602179055505056fe6661696c656420746f207472616e73666572207265736572766520746f6b656e73a165627a7a723058200e13d9edefbe3d773f45bd6d35bb7fa079cf08d93b686e317755480159eb12cc0029",
  "source": "pragma solidity ^0.5.0;\n\nimport \"./external/AddressListLib.sol\";\nimport \"./external/CloneFactory.sol\";\nimport \"./MoneyPool.sol\";\nimport \"./Interfaces.sol\";\n\ncontract Fundraiser is Owned, MoneyPool, CloneFactory {\n\n    using AddressListLib for AddressListLib.AddressList;\n\n    Pledge public blueprint;\n    AddressListLib.AddressList pledges;\n    mapping (address => AddressListLib.AddressList) pledgesFor;\n\n    uint public baseShareValue;\n    uint public totalFundsCollected;\n    uint public lastCollectedTimestamp;\n\n    function availableFunds () public view returns (uint) {\n        uint elapsedSeconds = now - lastCollectedTimestamp;\n        return elapsedSeconds * 1 ether * 40 / 168;\n    }\n\n    function collectFunds (uint reserveTokens) public onlyOwner {\n        require(availableFunds() >= reserveTokens, \"invalid amount of reserve tokens\");\n        require(transfer(owner, reserveTokens), \"failed to transfer reserve tokens\");\n        totalFundsCollected += reserveTokens;\n        lastCollectedTimestamp = now;\n    }\n\n    function createPledge (uint reserveTokens) public returns (Pledge pledge) {\n        require(reserveToken.transferFrom(msg.sender, address(this), reserveTokens), \"failed to transfer reserve tokens\");\n        uint shareClaim = calculateShareClaim(reserveTokens);\n        require(issue(msg.sender, shareClaim), \"failed to issue share tokens\");\n        pledge = Pledge(createClone(address(blueprint)));\n        pledge.initialize(reserveTokens, shareClaim);\n        require(pledges.add(address(pledge)), \"failed to add pledge to pledge list\");\n        require(pledgesFor[msg.sender].add(address(pledge)), \"failed to add pledge to account list\");\n    }\n\n    function totalPledgesCreated () public view returns (uint) {\n        return pledges.getLength();\n    }\n\n    function getPledgesFor (address account) public view returns (address[] memory) {\n        return pledgesFor[account].get();\n    }\n\n}\n\ncontract Pledge is Initialized, Owned {\n\n    uint constant ONE_YEAR = 11486966400; // 365.25 days\n    Fundraiser public fundraiser;\n    uint public claimedShareTokens;\n    uint public pledgedReserveTokens;\n\n    function initialize (uint _pledgedReserveTokens, uint _claimedShareTokens) public runOnce {\n        fundraiser = Fundraiser(msg.sender);\n        pledgedReserveTokens = _pledgedReserveTokens;\n        claimedShareTokens = _claimedShareTokens;\n    }\n\n    function pledgeReserveTokens (uint reserveTokens) public returns (uint shareClaim) {\n\n\n        /*\n        require(reserveToken.transferFrom(msg.sender, address(this), reserveTokens), \"failed to transfer reserve tokens\");\n        require(reserveToken.approve(address(fundraiser), reserveTokens), \"failed to approve transfer of reserve tokens\");\n        shareClaim = fundraiser.deposit(reserveTokens);\n        claimedShareTokens += shareClaim;\n        require(fundraiser.shareToken().transfer(owner, shareClaim));\n        */\n    }\n\n    function reclaimReserveTokens (uint shareTokens) public returns (uint reserveClaim){\n        reserveClaim = fundraiser.withdraw(shareTokens);\n        require(fundraiser.reserveToken().transfer(owner, reserveClaim), \"failed to transfer reserve tokens\");\n    }\n\n    event Deposit_event (address msgSender, uint reserveTokens, uint shareClaim);\n    event Withdraw_event (address msgSender, uint shareTokens, uint reserveClaim);\n\n}\n",
  "sourcePath": "/home/joe/Documents/github/chicobitcoinjoe/medao/contracts/Fundraiser.sol",
  "compiler": {
    "name": "solc",
    "version": "0.5.8+commit.23d335f2.Emscripten.clang"
  },
  "schemaVersion": "3.0.11",
  "updatedAt": "2019-08-09T01:17:58.778Z",
  "devdoc": {
    "methods": {}
  },
  "userdoc": {
    "methods": {}
  }
}