{
  "contractName": "SimpleTokenController",
  "abi": [
    {
      "constant": false,
      "inputs": [
        {
          "name": "_owner",
          "type": "address"
        }
      ],
      "name": "proxyPayment",
      "outputs": [
        {
          "name": "",
          "type": "bool"
        }
      ],
      "payable": true,
      "stateMutability": "payable",
      "type": "function"
    },
    {
      "constant": false,
      "inputs": [
        {
          "name": "_from",
          "type": "address"
        },
        {
          "name": "_to",
          "type": "address"
        },
        {
          "name": "_amount",
          "type": "uint256"
        }
      ],
      "name": "onTransfer",
      "outputs": [
        {
          "name": "",
          "type": "bool"
        }
      ],
      "payable": false,
      "stateMutability": "nonpayable",
      "type": "function"
    },
    {
      "constant": false,
      "inputs": [
        {
          "name": "_owner",
          "type": "address"
        },
        {
          "name": "_spender",
          "type": "address"
        },
        {
          "name": "_amount",
          "type": "uint256"
        }
      ],
      "name": "onApprove",
      "outputs": [
        {
          "name": "",
          "type": "bool"
        }
      ],
      "payable": false,
      "stateMutability": "nonpayable",
      "type": "function"
    }
  ],
  "bytecode": "0x608060405234801561001057600080fd5b5061020b806100206000396000f3fe6080604052600436106100345760003560e01c80634a39314914610039578063da682aeb146100cc578063f48c30541461015f575b600080fd5b34801561004557600080fd5b506100b26004803603606081101561005c57600080fd5b81019080803573ffffffffffffffffffffffffffffffffffffffff169060200190929190803573ffffffffffffffffffffffffffffffffffffffff169060200190929190803590602001909291905050506101bb565b604051808215151515815260200191505060405180910390f35b3480156100d857600080fd5b50610145600480360360608110156100ef57600080fd5b81019080803573ffffffffffffffffffffffffffffffffffffffff169060200190929190803573ffffffffffffffffffffffffffffffffffffffff169060200190929190803590602001909291905050506101c8565b604051808215151515815260200191505060405180910390f35b6101a16004803603602081101561017557600080fd5b81019080803573ffffffffffffffffffffffffffffffffffffffff1690602001909291905050506101d5565b604051808215151515815260200191505060405180910390f35b6000600190509392505050565b6000600190509392505050565b600080905091905056fea165627a7a72305820706841a669136990dfe2a4437f6206c9d596b08984ac319c7c84ba32a7ce82430029",
  "source": "pragma solidity ^0.5.0;\n\nimport \"./../external/MiniMeToken.sol\";\n\ncontract SimpleTokenController is TokenController {\n\n    function proxyPayment (address _owner) public payable returns(bool) {\n        _owner;\n        return false;\n    }\n\n    function onTransfer (address _from, address _to, uint _amount) public returns(bool) {\n        _from; _to; _amount;\n        return true;\n    }\n\n    function onApprove (address _owner, address _spender, uint _amount) public returns(bool) {\n        _owner; _spender; _amount;\n        return true;\n    }\n    \n}\n",
  "sourcePath": "/home/joe/Documents/github/chicobitcoinjoe/medao/contracts/helpers/SimpleTokenController.sol",
  "compiler": {
    "name": "solc",
    "version": "0.5.8+commit.23d335f2.Emscripten.clang"
  },
  "schemaVersion": "3.0.11",
  "updatedAt": "2019-08-09T00:18:13.072Z",
  "devdoc": {
    "methods": {}
  },
  "userdoc": {
    "methods": {}
  }
}