{
  "contractName": "TimeScheduler",
  "abi": [
    {
      "constant": true,
      "inputs": [],
      "name": "owner",
      "outputs": [
        {
          "name": "",
          "type": "address"
        }
      ],
      "payable": false,
      "stateMutability": "view",
      "type": "function"
    },
    {
      "constant": true,
      "inputs": [],
      "name": "blockInitialized",
      "outputs": [
        {
          "name": "",
          "type": "uint256"
        }
      ],
      "payable": false,
      "stateMutability": "view",
      "type": "function"
    },
    {
      "constant": false,
      "inputs": [
        {
          "name": "newOwner",
          "type": "address"
        }
      ],
      "name": "transferOwnership",
      "outputs": [],
      "payable": false,
      "stateMutability": "nonpayable",
      "type": "function"
    },
    {
      "constant": false,
      "inputs": [
        {
          "name": "baseTask",
          "type": "address"
        },
        {
          "name": "baseTime",
          "type": "uint256"
        }
      ],
      "name": "initialize",
      "outputs": [],
      "payable": false,
      "stateMutability": "nonpayable",
      "type": "function"
    },
    {
      "constant": false,
      "inputs": [
        {
          "name": "time",
          "type": "uint256"
        },
        {
          "name": "taskA",
          "type": "address"
        },
        {
          "name": "taskB",
          "type": "address"
        }
      ],
      "name": "assign",
      "outputs": [],
      "payable": false,
      "stateMutability": "nonpayable",
      "type": "function"
    },
    {
      "constant": true,
      "inputs": [
        {
          "name": "task",
          "type": "address"
        }
      ],
      "name": "getTime",
      "outputs": [
        {
          "name": "time",
          "type": "uint256"
        }
      ],
      "payable": false,
      "stateMutability": "view",
      "type": "function"
    },
    {
      "constant": true,
      "inputs": [],
      "name": "getSchedule",
      "outputs": [
        {
          "name": "",
          "type": "address[]"
        },
        {
          "name": "",
          "type": "uint256[]"
        }
      ],
      "payable": false,
      "stateMutability": "view",
      "type": "function"
    }
  ],
  "bytecode": "0x6080604052336000806101000a81548173ffffffffffffffffffffffffffffffffffffffff021916908373ffffffffffffffffffffffffffffffffffffffff160217905550610c57806100536000396000f3fe608060405234801561001057600080fd5b506004361061007d5760003560e01c80639bc40c4c1161005b5780639bc40c4c146101cb578063cd6dc687146101e9578063e485a6d814610237578063f2fde38b146102a55761007d565b806326fadbe2146100825780634b70cec4146101295780638da5cb5b14610181575b600080fd5b61008a6102e9565b604051808060200180602001838103835285818151815260200191508051906020019060200280838360005b838110156100d15780820151818401526020810190506100b6565b50505050905001838103825284818151815260200191508051906020019060200280838360005b838110156101135780820151818401526020810190506100f8565b5050505090500194505050505060405180910390f35b61016b6004803603602081101561013f57600080fd5b81019080803573ffffffffffffffffffffffffffffffffffffffff169060200190929190505050610659565b6040518082815260200191505060405180910390f35b6101896106a2565b604051808273ffffffffffffffffffffffffffffffffffffffff1673ffffffffffffffffffffffffffffffffffffffff16815260200191505060405180910390f35b6101d36106c7565b6040518082815260200191505060405180910390f35b610235600480360360408110156101ff57600080fd5b81019080803573ffffffffffffffffffffffffffffffffffffffff169060200190929190803590602001909291905050506106cd565b005b6102a36004803603606081101561024d57600080fd5b8101908080359060200190929190803573ffffffffffffffffffffffffffffffffffffffff169060200190929190803573ffffffffffffffffffffffffffffffffffffffff1690602001909291905050506107ed565b005b6102e7600480360360208110156102bb57600080fd5b81019080803573ffffffffffffffffffffffffffffffffffffffff169060200190929190505050610b26565b005b6060806060600273__AddressListLib________________________631ecb748690916040518263ffffffff1660e01b81526004018082815260200191505060206040518083038186803b15801561034057600080fd5b505af4158015610354573d6000803e3d6000fd5b505050506040513d602081101561036a57600080fd5b81019080805190602001909291905050506040519080825280602002602001820160405280156103a95781602001602082028038833980820191505090505b5090506060600273__AddressListLib________________________631ecb748690916040518263ffffffff1660e01b81526004018082815260200191505060206040518083038186803b15801561040057600080fd5b505af4158015610414573d6000803e3d6000fd5b505050506040513d602081101561042a57600080fd5b81019080805190602001909291905050506040519080825280602002602001820160405280156104695781602001602082028038833980820191505090505b50905060008090505b600273__AddressListLib________________________631ecb748690916040518263ffffffff1660e01b81526004018082815260200191505060206040518083038186803b1580156104c457600080fd5b505af41580156104d8573d6000803e3d6000fd5b505050506040513d60208110156104ee57600080fd5b810190808051906020019092919050505081101561064c576000600273__AddressListLib________________________63492d214c9091846040518363ffffffff1660e01b8152600401808381526020018281526020019250505060206040518083038186803b15801561056257600080fd5b505af4158015610576573d6000803e3d6000fd5b505050506040513d602081101561058c57600080fd5b81019080805190602001909291905050509050808483815181106105ac57fe5b602002602001019073ffffffffffffffffffffffffffffffffffffffff16908173ffffffffffffffffffffffffffffffffffffffff1681525050600560008273ffffffffffffffffffffffffffffffffffffffff1673ffffffffffffffffffffffffffffffffffffffff1681526020019081526020016000205483838151811061063257fe5b602002602001018181525050508080600101915050610472565b5081819350935050509091565b6000600560008373ffffffffffffffffffffffffffffffffffffffff1673ffffffffffffffffffffffffffffffffffffffff168152602001908152602001600020549050919050565b6000809054906101000a900473ffffffffffffffffffffffffffffffffffffffff1681565b60015481565b6000600154146106dc57600080fd5b600273__AddressListLib________________________6390c158cb9091846040518363ffffffff1660e01b8152600401808381526020018273ffffffffffffffffffffffffffffffffffffffff1673ffffffffffffffffffffffffffffffffffffffff1681526020019250505060206040518083038186803b15801561076257600080fd5b505af4158015610776573d6000803e3d6000fd5b505050506040513d602081101561078c57600080fd5b81019080805190602001909291905050505080600560008473ffffffffffffffffffffffffffffffffffffffff1673ffffffffffffffffffffffffffffffffffffffff16815260200190815260200160002081905550436001819055505050565b6000809054906101000a900473ffffffffffffffffffffffffffffffffffffffff1673ffffffffffffffffffffffffffffffffffffffff163373ffffffffffffffffffffffffffffffffffffffff16146108af576040517f08c379a00000000000000000000000000000000000000000000000000000000081526004018080602001828103825260178152602001807f6d73672073656e646572206973206e6f74206f776e657200000000000000000081525060200191505060405180910390fd5b600273__AddressListLib________________________6390c158cb9091846040518363ffffffff1660e01b8152600401808381526020018273ffffffffffffffffffffffffffffffffffffffff1673ffffffffffffffffffffffffffffffffffffffff1681526020019250505060206040518083038186803b15801561093557600080fd5b505af4158015610949573d6000803e3d6000fd5b505050506040513d602081101561095f57600080fd5b810190808051906020019092919050505050600273__AddressListLib________________________631a65cb959091836040518363ffffffff1660e01b8152600401808381526020018273ffffffffffffffffffffffffffffffffffffffff1673ffffffffffffffffffffffffffffffffffffffff1681526020019250505060206040518083038186803b1580156109f757600080fd5b505af4158015610a0b573d6000803e3d6000fd5b505050506040513d6020811015610a2157600080fd5b8101908080519060200190929190505050610a3b57600080fd5b82600560008373ffffffffffffffffffffffffffffffffffffffff1673ffffffffffffffffffffffffffffffffffffffff168152602001908152602001600020541015610a8757600080fd5b82600560008373ffffffffffffffffffffffffffffffffffffffff1673ffffffffffffffffffffffffffffffffffffffff1681526020019081526020016000206000828254039250508190555082600560008473ffffffffffffffffffffffffffffffffffffffff1673ffffffffffffffffffffffffffffffffffffffff16815260200190815260200160002060008282540192505081905550505050565b6000809054906101000a900473ffffffffffffffffffffffffffffffffffffffff1673ffffffffffffffffffffffffffffffffffffffff163373ffffffffffffffffffffffffffffffffffffffff1614610be8576040517f08c379a00000000000000000000000000000000000000000000000000000000081526004018080602001828103825260178152602001807f6d73672073656e646572206973206e6f74206f776e657200000000000000000081525060200191505060405180910390fd5b806000806101000a81548173ffffffffffffffffffffffffffffffffffffffff021916908373ffffffffffffffffffffffffffffffffffffffff1602179055505056fea165627a7a7230582024e673a791c3cd065e1f932edb4d01967f09338b0f4c35e5c9cb0ef89d75f06c0029",
  "source": "pragma solidity ^0.5.0;\n\nimport \"./external/AddressListLib.sol\";\nimport \"./external/CloneFactory.sol\";\nimport \"./Interfaces.sol\";\n\ncontract TimeScheduler is ITimeScheduler {\n\n    using AddressListLib for AddressListLib.AddressList;\n\n    uint public blockInitialized;\n    AddressListLib.AddressList tasks;\n    mapping (address => uint) scheduledTime;\n\n    function initialize (address baseTask, uint baseTime) public runOnce {\n        tasks.add(baseTask);\n        scheduledTime[baseTask] = baseTime;\n    }\n\n    // Assign 'time' to 'taskA' from 'taskB'\n    function assign (uint time, address taskA, address taskB) public onlyOwner {\n        tasks.add(taskA);\n        require(tasks.contains(taskB));\n        require(scheduledTime[taskB] >= time);\n        scheduledTime[taskB] -= time;\n        scheduledTime[taskA] += time;\n    }\n\n    function getTime (address task) public view returns (uint time) {\n        return scheduledTime[task];\n    }\n\n    function getSchedule () public view returns (address[] memory, uint[] memory) {\n        address[] memory currentTasks = new address[](tasks.getLength());\n        uint[] memory currentTimes = new uint[](tasks.getLength());\n        for(uint i = 0; i < tasks.getLength(); i++) {\n            address task = tasks.index(i);\n            currentTasks[i] = task;\n            currentTimes[i] = scheduledTime[task];\n        }\n\n        return (currentTasks, currentTimes);\n    }\n\n    // Modifiers and Events\n\n    modifier runOnce () {\n        require(blockInitialized == 0);\n        _;\n        blockInitialized = block.number;\n    }\n\n}\n\ncontract TimeSchedulerFactory is CloneFactory {\n\n    TimeScheduler public blueprint;\n\n    function create (\n        address baseTask,\n        uint baseTime\n    ) public returns (TimeScheduler Scheduler) {\n        Scheduler = TimeScheduler(createClone(address(blueprint)));\n        Scheduler.initialize(baseTask, baseTime);\n    }\n\n}\n",
  "sourcePath": "/home/joe/Documents/github/chicobitcoinjoe/medao/contracts/TimeScheduler.sol",
  "compiler": {
    "name": "solc",
    "version": "0.5.8+commit.23d335f2.Emscripten.clang"
  },
  "schemaVersion": "3.0.11",
  "updatedAt": "2019-08-06T03:13:26.826Z",
  "devdoc": {
    "methods": {}
  },
  "userdoc": {
    "methods": {}
  }
}