{
  "contractName": "TimeScheduler",
  "abi": [
    {
      "constant": true,
      "inputs": [],
      "name": "owner",
      "outputs": [
        {
          "name": "",
          "type": "address"
        }
      ],
      "payable": false,
      "stateMutability": "view",
      "type": "function"
    },
    {
      "constant": true,
      "inputs": [],
      "name": "blockInitialized",
      "outputs": [
        {
          "name": "",
          "type": "uint256"
        }
      ],
      "payable": false,
      "stateMutability": "view",
      "type": "function"
    },
    {
      "constant": false,
      "inputs": [
        {
          "name": "newOwner",
          "type": "address"
        }
      ],
      "name": "transferOwnership",
      "outputs": [],
      "payable": false,
      "stateMutability": "nonpayable",
      "type": "function"
    },
    {
      "constant": false,
      "inputs": [
        {
          "name": "baseTask",
          "type": "address"
        },
        {
          "name": "baseTime",
          "type": "uint256"
        }
      ],
      "name": "initialize",
      "outputs": [],
      "payable": false,
      "stateMutability": "nonpayable",
      "type": "function"
    },
    {
      "constant": false,
      "inputs": [
        {
          "name": "time",
          "type": "uint256"
        },
        {
          "name": "taskA",
          "type": "address"
        },
        {
          "name": "taskB",
          "type": "address"
        }
      ],
      "name": "assign",
      "outputs": [],
      "payable": false,
      "stateMutability": "nonpayable",
      "type": "function"
    },
    {
      "constant": true,
      "inputs": [
        {
          "name": "task",
          "type": "address"
        }
      ],
      "name": "getTime",
      "outputs": [
        {
          "name": "time",
          "type": "uint256"
        }
      ],
      "payable": false,
      "stateMutability": "view",
      "type": "function"
    },
    {
      "constant": true,
      "inputs": [],
      "name": "getTasks",
      "outputs": [
        {
          "name": "",
          "type": "address[]"
        }
      ],
      "payable": false,
      "stateMutability": "view",
      "type": "function"
    },
    {
      "constant": true,
      "inputs": [],
      "name": "getSchedule",
      "outputs": [
        {
          "name": "",
          "type": "address[]"
        },
        {
          "name": "",
          "type": "uint256[]"
        }
      ],
      "payable": false,
      "stateMutability": "view",
      "type": "function"
    }
  ],
  "bytecode": "0x6080604052336000806101000a81548173ffffffffffffffffffffffffffffffffffffffff021916908373ffffffffffffffffffffffffffffffffffffffff160217905550610e02806100536000396000f3fe608060405234801561001057600080fd5b50600436106100885760003560e01c80639bc40c4c1161005b5780639bc40c4c14610235578063cd6dc68714610253578063e485a6d8146102a1578063f2fde38b1461030f57610088565b806304a87e381461008d57806326fadbe2146100ec5780634b70cec4146101935780638da5cb5b146101eb575b600080fd5b610095610353565b6040518080602001828103825283818151815260200191508051906020019060200280838360005b838110156100d85780820151818401526020810190506100bd565b505050509050019250505060405180910390f35b6100f461059b565b604051808060200180602001838103835285818151815260200191508051906020019060200280838360005b8381101561013b578082015181840152602081019050610120565b50505050905001838103825284818151815260200191508051906020019060200280838360005b8381101561017d578082015181840152602081019050610162565b5050505090500194505050505060405180910390f35b6101d5600480360360208110156101a957600080fd5b81019080803573ffffffffffffffffffffffffffffffffffffffff169060200190929190505050610804565b6040518082815260200191505060405180910390f35b6101f361084d565b604051808273ffffffffffffffffffffffffffffffffffffffff1673ffffffffffffffffffffffffffffffffffffffff16815260200191505060405180910390f35b61023d610872565b6040518082815260200191505060405180910390f35b61029f6004803603604081101561026957600080fd5b81019080803573ffffffffffffffffffffffffffffffffffffffff16906020019092919080359060200190929190505050610878565b005b61030d600480360360608110156102b757600080fd5b8101908080359060200190929190803573ffffffffffffffffffffffffffffffffffffffff169060200190929190803573ffffffffffffffffffffffffffffffffffffffff169060200190929190505050610998565b005b6103516004803603602081101561032557600080fd5b81019080803573ffffffffffffffffffffffffffffffffffffffff169060200190929190505050610cd1565b005b606080600273__AddressListLib________________________631ecb748690916040518263ffffffff1660e01b81526004018082815260200191505060206040518083038186803b1580156103a857600080fd5b505af41580156103bc573d6000803e3d6000fd5b505050506040513d60208110156103d257600080fd5b81019080805190602001909291905050506040519080825280602002602001820160405280156104115781602001602082028038833980820191505090505b50905060008090505b600273__AddressListLib________________________631ecb748690916040518263ffffffff1660e01b81526004018082815260200191505060206040518083038186803b15801561046c57600080fd5b505af4158015610480573d6000803e3d6000fd5b505050506040513d602081101561049657600080fd5b810190808051906020019092919050505081101561059657600273__AddressListLib________________________63492d214c9091836040518363ffffffff1660e01b8152600401808381526020018281526020019250505060206040518083038186803b15801561050857600080fd5b505af415801561051c573d6000803e3d6000fd5b505050506040513d602081101561053257600080fd5b810190808051906020019092919050505082828151811061054f57fe5b602002602001019073ffffffffffffffffffffffffffffffffffffffff16908173ffffffffffffffffffffffffffffffffffffffff1681525050808060010191505061041a565b505090565b6060806060600273__AddressListLib________________________631ecb748690916040518263ffffffff1660e01b81526004018082815260200191505060206040518083038186803b1580156105f257600080fd5b505af4158015610606573d6000803e3d6000fd5b505050506040513d602081101561061c57600080fd5b810190808051906020019092919050505060405190808252806020026020018201604052801561065b5781602001602082028038833980820191505090505b50905060008090505b600273__AddressListLib________________________631ecb748690916040518263ffffffff1660e01b81526004018082815260200191505060206040518083038186803b1580156106b657600080fd5b505af41580156106ca573d6000803e3d6000fd5b505050506040513d60208110156106e057600080fd5b81019080805190602001909291905050508110156107f15760056000600273__AddressListLib________________________63492d214c9091856040518363ffffffff1660e01b8152600401808381526020018281526020019250505060206040518083038186803b15801561075657600080fd5b505af415801561076a573d6000803e3d6000fd5b505050506040513d602081101561078057600080fd5b810190808051906020019092919050505073ffffffffffffffffffffffffffffffffffffffff1673ffffffffffffffffffffffffffffffffffffffff168152602001908152602001600020548282815181106107d857fe5b6020026020010181815250508080600101915050610664565b506107fa610353565b8192509250509091565b6000600560008373ffffffffffffffffffffffffffffffffffffffff1673ffffffffffffffffffffffffffffffffffffffff168152602001908152602001600020549050919050565b6000809054906101000a900473ffffffffffffffffffffffffffffffffffffffff1681565b60015481565b60006001541461088757600080fd5b600273__AddressListLib________________________6390c158cb9091846040518363ffffffff1660e01b8152600401808381526020018273ffffffffffffffffffffffffffffffffffffffff1673ffffffffffffffffffffffffffffffffffffffff1681526020019250505060206040518083038186803b15801561090d57600080fd5b505af4158015610921573d6000803e3d6000fd5b505050506040513d602081101561093757600080fd5b81019080805190602001909291905050505080600560008473ffffffffffffffffffffffffffffffffffffffff1673ffffffffffffffffffffffffffffffffffffffff16815260200190815260200160002081905550436001819055505050565b6000809054906101000a900473ffffffffffffffffffffffffffffffffffffffff1673ffffffffffffffffffffffffffffffffffffffff163373ffffffffffffffffffffffffffffffffffffffff1614610a5a576040517f08c379a00000000000000000000000000000000000000000000000000000000081526004018080602001828103825260178152602001807f6d73672073656e646572206973206e6f74206f776e657200000000000000000081525060200191505060405180910390fd5b600273__AddressListLib________________________6390c158cb9091846040518363ffffffff1660e01b8152600401808381526020018273ffffffffffffffffffffffffffffffffffffffff1673ffffffffffffffffffffffffffffffffffffffff1681526020019250505060206040518083038186803b158015610ae057600080fd5b505af4158015610af4573d6000803e3d6000fd5b505050506040513d6020811015610b0a57600080fd5b810190808051906020019092919050505050600273__AddressListLib________________________631a65cb959091836040518363ffffffff1660e01b8152600401808381526020018273ffffffffffffffffffffffffffffffffffffffff1673ffffffffffffffffffffffffffffffffffffffff1681526020019250505060206040518083038186803b158015610ba257600080fd5b505af4158015610bb6573d6000803e3d6000fd5b505050506040513d6020811015610bcc57600080fd5b8101908080519060200190929190505050610be657600080fd5b82600560008373ffffffffffffffffffffffffffffffffffffffff1673ffffffffffffffffffffffffffffffffffffffff168152602001908152602001600020541015610c3257600080fd5b82600560008373ffffffffffffffffffffffffffffffffffffffff1673ffffffffffffffffffffffffffffffffffffffff1681526020019081526020016000206000828254039250508190555082600560008473ffffffffffffffffffffffffffffffffffffffff1673ffffffffffffffffffffffffffffffffffffffff16815260200190815260200160002060008282540192505081905550505050565b6000809054906101000a900473ffffffffffffffffffffffffffffffffffffffff1673ffffffffffffffffffffffffffffffffffffffff163373ffffffffffffffffffffffffffffffffffffffff1614610d93576040517f08c379a00000000000000000000000000000000000000000000000000000000081526004018080602001828103825260178152602001807f6d73672073656e646572206973206e6f74206f776e657200000000000000000081525060200191505060405180910390fd5b806000806101000a81548173ffffffffffffffffffffffffffffffffffffffff021916908373ffffffffffffffffffffffffffffffffffffffff1602179055505056fea165627a7a72305820d680465a3fe209b9f62413f14cf93d62e70c6b45688aaabde16f2210d6480e420029",
  "source": "pragma solidity ^0.5.0;\n\nimport \"./external/AddressListLib.sol\";\nimport \"./external/CloneFactory.sol\";\nimport \"./Interfaces.sol\";\n\ncontract TimeScheduler is ITimeScheduler {\n\n    using AddressListLib for AddressListLib.AddressList;\n\n    uint public blockInitialized;\n    AddressListLib.AddressList tasks;\n    mapping (address => uint) scheduledTime;\n\n    function initialize (address baseTask, uint baseTime) public runOnce {\n        tasks.add(baseTask);\n        scheduledTime[baseTask] = baseTime;\n    }\n\n    // Assign 'time' to 'taskA' from 'taskB'\n    function assign (uint time, address taskA, address taskB) public onlyOwner {\n        tasks.add(taskA);\n        require(tasks.contains(taskB));\n        require(scheduledTime[taskB] >= time);\n        scheduledTime[taskB] -= time;\n        scheduledTime[taskA] += time;\n    }\n\n    function getTime (address task) public view returns (uint time) {\n        return scheduledTime[task];\n    }\n\n    function getTasks () public view returns (address[] memory) {\n        address[] memory allTasks = new address[](tasks.getLength());\n        for(uint i = 0; i < tasks.getLength(); i++) {\n            allTasks[i] = tasks.index(i);\n        }\n    }\n\n    function getSchedule () public view returns (address[] memory, uint[] memory) {\n        uint[] memory taskTimes = new uint[](tasks.getLength());\n        for(uint i = 0; i < tasks.getLength(); i++) {\n            taskTimes[i] = scheduledTime[tasks.index(i)];\n        }\n\n        return (getTasks(), taskTimes);\n    }\n\n    modifier runOnce () {\n        require(blockInitialized == 0);\n        _;\n        blockInitialized = block.number;\n    }\n\n}\n\ncontract TimeSchedulerFactory is CloneFactory {\n\n    TimeScheduler public blueprint;\n\n    function create (\n        address baseTask,\n        uint baseTime\n    ) public returns (TimeScheduler Scheduler) {\n        Scheduler = TimeScheduler(createClone(address(blueprint)));\n        Scheduler.initialize(baseTask, baseTime);\n    }\n\n}\n",
  "sourcePath": "/home/joe/Documents/github/chicobitcoinjoe/medao/contracts/TimeScheduler.sol",
  "compiler": {
    "name": "solc",
    "version": "0.5.8+commit.23d335f2.Emscripten.clang"
  },
  "schemaVersion": "3.0.11",
  "updatedAt": "2019-08-09T00:35:49.996Z",
  "devdoc": {
    "methods": {}
  },
  "userdoc": {
    "methods": {}
  }
}