{
  "contractName": "TimeRegulatedFundraiser",
  "abi": [
    {
      "constant": false,
      "inputs": [
        {
          "name": "shareTokens",
          "type": "uint256"
        }
      ],
      "name": "withdraw",
      "outputs": [
        {
          "name": "reserveClaim",
          "type": "uint256"
        }
      ],
      "payable": false,
      "stateMutability": "nonpayable",
      "type": "function"
    },
    {
      "constant": true,
      "inputs": [
        {
          "name": "reserveTokens",
          "type": "uint256"
        }
      ],
      "name": "calculateShareClaim",
      "outputs": [
        {
          "name": "",
          "type": "uint256"
        }
      ],
      "payable": false,
      "stateMutability": "view",
      "type": "function"
    },
    {
      "constant": false,
      "inputs": [
        {
          "name": "_from",
          "type": "address"
        },
        {
          "name": "_to",
          "type": "address"
        },
        {
          "name": "_amount",
          "type": "uint256"
        }
      ],
      "name": "onTransfer",
      "outputs": [
        {
          "name": "",
          "type": "bool"
        }
      ],
      "payable": false,
      "stateMutability": "nonpayable",
      "type": "function"
    },
    {
      "constant": false,
      "inputs": [
        {
          "name": "_reserveToken",
          "type": "address"
        },
        {
          "name": "_shareToken",
          "type": "address"
        },
        {
          "name": "_maxTokenSupply",
          "type": "uint256"
        },
        {
          "name": "_baseShareValue",
          "type": "uint256"
        }
      ],
      "name": "setupMoneyPool",
      "outputs": [],
      "payable": false,
      "stateMutability": "nonpayable",
      "type": "function"
    },
    {
      "constant": true,
      "inputs": [],
      "name": "maxTokenSupply",
      "outputs": [
        {
          "name": "",
          "type": "uint256"
        }
      ],
      "payable": false,
      "stateMutability": "view",
      "type": "function"
    },
    {
      "constant": true,
      "inputs": [],
      "name": "shareToken",
      "outputs": [
        {
          "name": "",
          "type": "address"
        }
      ],
      "payable": false,
      "stateMutability": "view",
      "type": "function"
    },
    {
      "constant": true,
      "inputs": [],
      "name": "baseShareValue",
      "outputs": [
        {
          "name": "",
          "type": "uint256"
        }
      ],
      "payable": false,
      "stateMutability": "view",
      "type": "function"
    },
    {
      "constant": true,
      "inputs": [],
      "name": "owner",
      "outputs": [
        {
          "name": "",
          "type": "address"
        }
      ],
      "payable": false,
      "stateMutability": "view",
      "type": "function"
    },
    {
      "constant": true,
      "inputs": [],
      "name": "useBaseValue",
      "outputs": [
        {
          "name": "",
          "type": "bool"
        }
      ],
      "payable": false,
      "stateMutability": "view",
      "type": "function"
    },
    {
      "constant": true,
      "inputs": [],
      "name": "blockInitialized",
      "outputs": [
        {
          "name": "",
          "type": "uint256"
        }
      ],
      "payable": false,
      "stateMutability": "view",
      "type": "function"
    },
    {
      "constant": true,
      "inputs": [],
      "name": "endTimestamp",
      "outputs": [
        {
          "name": "",
          "type": "uint256"
        }
      ],
      "payable": false,
      "stateMutability": "view",
      "type": "function"
    },
    {
      "constant": true,
      "inputs": [
        {
          "name": "shareTokens",
          "type": "uint256"
        }
      ],
      "name": "calculateReserveClaim",
      "outputs": [
        {
          "name": "",
          "type": "uint256"
        }
      ],
      "payable": false,
      "stateMutability": "view",
      "type": "function"
    },
    {
      "constant": false,
      "inputs": [
        {
          "name": "reserveTokens",
          "type": "uint256"
        }
      ],
      "name": "deposit",
      "outputs": [
        {
          "name": "shareClaim",
          "type": "uint256"
        }
      ],
      "payable": false,
      "stateMutability": "nonpayable",
      "type": "function"
    },
    {
      "constant": true,
      "inputs": [],
      "name": "collectedTimestamp",
      "outputs": [
        {
          "name": "",
          "type": "uint256"
        }
      ],
      "payable": false,
      "stateMutability": "view",
      "type": "function"
    },
    {
      "constant": true,
      "inputs": [],
      "name": "fundedTokenSupply",
      "outputs": [
        {
          "name": "",
          "type": "uint256"
        }
      ],
      "payable": false,
      "stateMutability": "view",
      "type": "function"
    },
    {
      "constant": false,
      "inputs": [
        {
          "name": "_owner",
          "type": "address"
        },
        {
          "name": "_spender",
          "type": "address"
        },
        {
          "name": "_amount",
          "type": "uint256"
        }
      ],
      "name": "onApprove",
      "outputs": [
        {
          "name": "",
          "type": "bool"
        }
      ],
      "payable": false,
      "stateMutability": "nonpayable",
      "type": "function"
    },
    {
      "constant": true,
      "inputs": [],
      "name": "startTimestamp",
      "outputs": [
        {
          "name": "",
          "type": "uint256"
        }
      ],
      "payable": false,
      "stateMutability": "view",
      "type": "function"
    },
    {
      "constant": false,
      "inputs": [
        {
          "name": "newOwner",
          "type": "address"
        }
      ],
      "name": "transferOwnership",
      "outputs": [],
      "payable": false,
      "stateMutability": "nonpayable",
      "type": "function"
    },
    {
      "constant": true,
      "inputs": [],
      "name": "reserveToken",
      "outputs": [
        {
          "name": "",
          "type": "address"
        }
      ],
      "payable": false,
      "stateMutability": "view",
      "type": "function"
    },
    {
      "constant": false,
      "inputs": [
        {
          "name": "_owner",
          "type": "address"
        }
      ],
      "name": "proxyPayment",
      "outputs": [
        {
          "name": "",
          "type": "bool"
        }
      ],
      "payable": true,
      "stateMutability": "payable",
      "type": "function"
    },
    {
      "anonymous": false,
      "inputs": [
        {
          "indexed": false,
          "name": "collectedAmount",
          "type": "uint256"
        }
      ],
      "name": "Collect_event",
      "type": "event"
    },
    {
      "anonymous": false,
      "inputs": [
        {
          "indexed": false,
          "name": "msgSender",
          "type": "address"
        },
        {
          "indexed": false,
          "name": "reserveTokens",
          "type": "uint256"
        },
        {
          "indexed": false,
          "name": "shareClaim",
          "type": "uint256"
        }
      ],
      "name": "Deposit_event",
      "type": "event"
    },
    {
      "anonymous": false,
      "inputs": [
        {
          "indexed": false,
          "name": "msgSender",
          "type": "address"
        },
        {
          "indexed": false,
          "name": "shareTokens",
          "type": "uint256"
        },
        {
          "indexed": false,
          "name": "reserveClaim",
          "type": "uint256"
        }
      ],
      "name": "Withdraw_event",
      "type": "event"
    },
    {
      "anonymous": false,
      "inputs": [
        {
          "indexed": false,
          "name": "account",
          "type": "address"
        },
        {
          "indexed": false,
          "name": "reserveTokens",
          "type": "uint256"
        }
      ],
      "name": "Transfer_event",
      "type": "event"
    },
    {
      "anonymous": false,
      "inputs": [
        {
          "indexed": false,
          "name": "account",
          "type": "address"
        },
        {
          "indexed": false,
          "name": "shareTokens",
          "type": "uint256"
        }
      ],
      "name": "Issue_event",
      "type": "event"
    },
    {
      "anonymous": false,
      "inputs": [
        {
          "indexed": false,
          "name": "account",
          "type": "address"
        },
        {
          "indexed": false,
          "name": "shareTokens",
          "type": "uint256"
        }
      ],
      "name": "Destroy_event",
      "type": "event"
    },
    {
      "constant": false,
      "inputs": [
        {
          "name": "_startTimestamp",
          "type": "uint256"
        },
        {
          "name": "_endTimestamp",
          "type": "uint256"
        },
        {
          "name": "_maxTokenSupply",
          "type": "uint256"
        },
        {
          "name": "_fundedTokenSupply",
          "type": "uint256"
        }
      ],
      "name": "setupFundraiser",
      "outputs": [],
      "payable": false,
      "stateMutability": "nonpayable",
      "type": "function"
    },
    {
      "constant": false,
      "inputs": [],
      "name": "collectFunds",
      "outputs": [
        {
          "name": "collectedFunds",
          "type": "uint256"
        }
      ],
      "payable": false,
      "stateMutability": "nonpayable",
      "type": "function"
    },
    {
      "constant": true,
      "inputs": [],
      "name": "getAvailableFunds",
      "outputs": [
        {
          "name": "availableFunds",
          "type": "uint256"
        }
      ],
      "payable": false,
      "stateMutability": "view",
      "type": "function"
    },
    {
      "constant": true,
      "inputs": [],
      "name": "getFundedTime",
      "outputs": [
        {
          "name": "",
          "type": "uint256"
        }
      ],
      "payable": false,
      "stateMutability": "view",
      "type": "function"
    },
    {
      "constant": true,
      "inputs": [],
      "name": "getFundedPercent",
      "outputs": [
        {
          "name": "p",
          "type": "uint256"
        },
        {
          "name": "q",
          "type": "uint256"
        }
      ],
      "payable": false,
      "stateMutability": "view",
      "type": "function"
    }
  ],
  "bytecode": "0x6080604052336000806101000a81548173ffffffffffffffffffffffffffffffffffffffff021916908373ffffffffffffffffffffffffffffffffffffffff160217905550611367806100536000396000f3fe6080604052600436106101665760003560e01c80639bc40c4c116100d1578063d8c7db4c1161008a578063e804641811610064578063e804641814610736578063f2fde38b14610768578063f4325d67146107b9578063f48c30541461081057610166565b8063d8c7db4c1461064d578063da682aeb14610678578063e6fd48bc1461070b57610166565b80639bc40c4c14610503578063a85adeab1461052e578063a9e0b91414610559578063b163ecd214610584578063b6b55f25146105d3578063c65ad5411461062257610166565b80635195bd29116101235780635195bd29146103a55780635b980628146103d05780636c9fa59e146103fb578063761537ad146104525780638da5cb5b1461047d57806395a1e303146104d457610166565b80632e1a7d4d1461016b578063327ca4a8146101ba5780633eb7816e146102095780634a393149146102625780634be78fab146102f557806350f7c2041461037a575b600080fd5b34801561017757600080fd5b506101a46004803603602081101561018e57600080fd5b810190808035906020019092919050505061086c565b6040518082815260200191505060405180910390f35b3480156101c657600080fd5b506101f3600480360360208110156101dd57600080fd5b8101908080359060200190929190505050610907565b6040518082815260200191505060405180910390f35b34801561021557600080fd5b506102606004803603608081101561022c57600080fd5b8101908080359060200190929190803590602001909291908035906020019092919080359060200190929190505050610926565b005b34801561026e57600080fd5b506102db6004803603606081101561028557600080fd5b81019080803573ffffffffffffffffffffffffffffffffffffffff169060200190929190803573ffffffffffffffffffffffffffffffffffffffff16906020019092919080359060200190929190505050610a0a565b604051808215151515815260200191505060405180910390f35b34801561030157600080fd5b506103786004803603608081101561031857600080fd5b81019080803573ffffffffffffffffffffffffffffffffffffffff169060200190929190803573ffffffffffffffffffffffffffffffffffffffff1690602001909291908035906020019092919080359060200190929190505050610a17565b005b34801561038657600080fd5b5061038f610ac3565b6040518082815260200191505060405180910390f35b3480156103b157600080fd5b506103ba610ac9565b6040518082815260200191505060405180910390f35b3480156103dc57600080fd5b506103e5610ad8565b6040518082815260200191505060405180910390f35b34801561040757600080fd5b50610410610b26565b604051808273ffffffffffffffffffffffffffffffffffffffff1673ffffffffffffffffffffffffffffffffffffffff16815260200191505060405180910390f35b34801561045e57600080fd5b50610467610b4c565b6040518082815260200191505060405180910390f35b34801561048957600080fd5b50610492610b52565b604051808273ffffffffffffffffffffffffffffffffffffffff1673ffffffffffffffffffffffffffffffffffffffff16815260200191505060405180910390f35b3480156104e057600080fd5b506104e9610b77565b604051808215151515815260200191505060405180910390f35b34801561050f57600080fd5b50610518610b8a565b6040518082815260200191505060405180910390f35b34801561053a57600080fd5b50610543610b90565b6040518082815260200191505060405180910390f35b34801561056557600080fd5b5061056e610b96565b6040518082815260200191505060405180910390f35b34801561059057600080fd5b506105bd600480360360208110156105a757600080fd5b8101908080359060200190929190505050610bf5565b6040518082815260200191505060405180910390f35b3480156105df57600080fd5b5061060c600480360360208110156105f657600080fd5b8101908080359060200190929190505050610d85565b6040518082815260200191505060405180910390f35b34801561062e57600080fd5b50610637610d8c565b6040518082815260200191505060405180910390f35b34801561065957600080fd5b50610662610d92565b6040518082815260200191505060405180910390f35b34801561068457600080fd5b506106f16004803603606081101561069b57600080fd5b81019080803573ffffffffffffffffffffffffffffffffffffffff169060200190929190803573ffffffffffffffffffffffffffffffffffffffff16906020019092919080359060200190929190505050610d98565b604051808215151515815260200191505060405180910390f35b34801561071757600080fd5b50610720610da5565b6040518082815260200191505060405180910390f35b34801561074257600080fd5b5061074b610dab565b604051808381526020018281526020019250505060405180910390f35b34801561077457600080fd5b506107b76004803603602081101561078b57600080fd5b81019080803573ffffffffffffffffffffffffffffffffffffffff169060200190929190505050610e5c565b005b3480156107c557600080fd5b506107ce610f61565b604051808273ffffffffffffffffffffffffffffffffffffffff1673ffffffffffffffffffffffffffffffffffffffff16815260200191505060405180910390f35b6108526004803603602081101561082657600080fd5b81019080803573ffffffffffffffffffffffffffffffffffffffff169060200190929190505050610f87565b604051808215151515815260200191505060405180910390f35b600061087782610bf5565b90506108833383610f91565b5061088e338261116e565b507ffc66b0b1bed0c04059e1367b6de8a81a90429a81bc9ba512980aad725fb5632c338383604051808473ffffffffffffffffffffffffffffffffffffffff1673ffffffffffffffffffffffffffffffffffffffff168152602001838152602001828152602001935050505060405180910390a1919050565b6000600a54670de0b6b3a764000083028161091e57fe5b049050919050565b6000809054906101000a900473ffffffffffffffffffffffffffffffffffffffff1673ffffffffffffffffffffffffffffffffffffffff163373ffffffffffffffffffffffffffffffffffffffff16146109e8576040517f08c379a00000000000000000000000000000000000000000000000000000000081526004018080602001828103825260178152602001807f6d73672073656e646572206973206e6f74206f776e657200000000000000000081525060200191505060405180910390fd5b83600c8190555082600d8190555081600e8190555080600f8190555050505050565b6000600190509392505050565b600060015414610a2657600080fd5b83600860006101000a81548173ffffffffffffffffffffffffffffffffffffffff021916908373ffffffffffffffffffffffffffffffffffffffff16021790555082600960006101000a81548173ffffffffffffffffffffffffffffffffffffffff021916908373ffffffffffffffffffffffffffffffffffffffff1602179055508160048190555080600a819055504360018190555050505050565b600e5481565b6000610ad3610b96565b905090565b6000600c54421015610ae957600080fd5b600d544210610af757600080fd5b610b226000809054906101000a900473ffffffffffffffffffffffffffffffffffffffff168261116e565b5090565b600960009054906101000a900473ffffffffffffffffffffffffffffffffffffffff1681565b600a5481565b6000809054906101000a900473ffffffffffffffffffffffffffffffffffffffff1681565b600660009054906101000a900460ff1681565b60015481565b600d5481565b600080600b5442039050600060a86028670de0b6b3a764000084020281610bb957fe5b049050600080610bc7610dab565b9150915080821115610bdf5782945050505050610bf2565b8082840281610bea57fe5b049450505050505b90565b6000600960009054906101000a900473ffffffffffffffffffffffffffffffffffffffff1673ffffffffffffffffffffffffffffffffffffffff166318160ddd6040518163ffffffff1660e01b815260040160206040518083038186803b158015610c5f57600080fd5b505afa158015610c73573d6000803e3d6000fd5b505050506040513d6020811015610c8957600080fd5b810190808051906020019092919050505082600860009054906101000a900473ffffffffffffffffffffffffffffffffffffffff1673ffffffffffffffffffffffffffffffffffffffff166370a08231306040518263ffffffff1660e01b8152600401808273ffffffffffffffffffffffffffffffffffffffff1673ffffffffffffffffffffffffffffffffffffffff16815260200191505060206040518083038186803b158015610d3a57600080fd5b505afa158015610d4e573d6000803e3d6000fd5b505050506040513d6020811015610d6457600080fd5b81019080805190602001909291905050500281610d7d57fe5b049050919050565b6000919050565b600b5481565b600f5481565b6000600190509392505050565b600c5481565b600080600960009054906101000a900473ffffffffffffffffffffffffffffffffffffffff1673ffffffffffffffffffffffffffffffffffffffff166318160ddd6040518163ffffffff1660e01b815260040160206040518083038186803b158015610e1657600080fd5b505afa158015610e2a573d6000803e3d6000fd5b505050506040513d6020811015610e4057600080fd5b8101908080519060200190929190505050600f54915091509091565b6000809054906101000a900473ffffffffffffffffffffffffffffffffffffffff1673ffffffffffffffffffffffffffffffffffffffff163373ffffffffffffffffffffffffffffffffffffffff1614610f1e576040517f08c379a00000000000000000000000000000000000000000000000000000000081526004018080602001828103825260178152602001807f6d73672073656e646572206973206e6f74206f776e657200000000000000000081525060200191505060405180910390fd5b806000806101000a81548173ffffffffffffffffffffffffffffffffffffffff021916908373ffffffffffffffffffffffffffffffffffffffff16021790555050565b600860009054906101000a900473ffffffffffffffffffffffffffffffffffffffff1681565b6000809050919050565b6000600960009054906101000a900473ffffffffffffffffffffffffffffffffffffffff1673ffffffffffffffffffffffffffffffffffffffff1663d3ce77fe84846040518363ffffffff1660e01b8152600401808373ffffffffffffffffffffffffffffffffffffffff1673ffffffffffffffffffffffffffffffffffffffff16815260200182815260200192505050602060405180830381600087803b15801561103c57600080fd5b505af1158015611050573d6000803e3d6000fd5b505050506040513d602081101561106657600080fd5b81019080805190602001909291905050506110e9576040517f08c379a00000000000000000000000000000000000000000000000000000000081526004018080602001828103825260188152602001807f6661696c656420746f2064657374726f7920746f6b656e73000000000000000081525060200191505060405180910390fd5b816004600082825403925050819055507fdca8ac541f3122219a8ce761979abda51a4c19d9253a3d080922cab77554c93f8383604051808373ffffffffffffffffffffffffffffffffffffffff1673ffffffffffffffffffffffffffffffffffffffff1681526020018281526020019250505060405180910390a16001905092915050565b6000600860009054906101000a900473ffffffffffffffffffffffffffffffffffffffff1673ffffffffffffffffffffffffffffffffffffffff1663a9059cbb84846040518363ffffffff1660e01b8152600401808373ffffffffffffffffffffffffffffffffffffffff1673ffffffffffffffffffffffffffffffffffffffff16815260200182815260200192505050602060405180830381600087803b15801561121957600080fd5b505af115801561122d573d6000803e3d6000fd5b505050506040513d602081101561124357600080fd5b81019080805190602001909291905050506112c6576040517f08c379a00000000000000000000000000000000000000000000000000000000081526004018080602001828103825260128152602001807f6661696c656420746f207472616e73666572000000000000000000000000000081525060200191505060405180910390fd5b7f26b19003e2e652d09d099c0553e2c2f11684c2f05132fcd563734efb905d50da8383604051808373ffffffffffffffffffffffffffffffffffffffff1673ffffffffffffffffffffffffffffffffffffffff1681526020018281526020019250505060405180910390a1600190509291505056fea165627a7a72305820355d09991bce150fa4c8ff78169fd1d7b54b9840f69dc9daae79ac2d0a3ec0ef0029",
  "source": "pragma solidity ^0.5.0;\n\nimport \"./external/CloneFactory.sol\";\nimport \"./Interfaces.sol\";\n\ncontract MoneyPool is Initialized, IMoneyPool {\n\n    ERC20Token public reserveToken; // A reserve token to hold the value of a person\n    MiniMeToken public shareToken;  // A cloneable token that represents a person\n    uint public baseShareValue;     // Sets a base value for each token\n\n    function setupMoneyPool (\n        ERC20Token _reserveToken,\n        MiniMeToken _shareToken,\n        uint _maxTokenSupply,\n        uint _baseShareValue\n    ) public runOnce {\n        reserveToken = _reserveToken;\n        shareToken = _shareToken;\n        maxTokenSupply = _maxTokenSupply;\n        baseShareValue = _baseShareValue;\n    }\n\n    function calculateShareClaim (uint reserveTokens) public view returns (uint) {\n        return reserveTokens * 1 ether / baseShareValue;\n    }\n\n    function calculateReserveClaim (uint shareTokens) public view returns (uint) {\n        return reserveToken.balanceOf(address(this)) * shareTokens / shareToken.totalSupply();\n    }\n\n    function deposit (uint reserveTokens) public returns (uint shareClaim) {\n        //uint availableTokens = maxTokenSupply - shareToken.totalSupply();\n        //shareClaim = calculateShareClaim(reserveTokens);\n        //require(availableTokens >= shareClaim, \"invalid reserve amount\");\n        //require(reserveToken.transferFrom(msg.sender, address(this), reserveTokens), \"failed to transfer\");\n        //require(shareToken.generateTokens(msg.sender, shareClaim), \"failed to generate tokens\");\n        //emit Deposit_event(msg.sender, reserveTokens, shareClaim);\n    }\n\n    function withdraw (uint shareTokens) public returns (uint reserveClaim) {\n        reserveClaim = calculateReserveClaim(shareTokens);\n        destroy(msg.sender, shareTokens);\n        transfer(msg.sender, reserveClaim);\n        emit Withdraw_event(msg.sender, shareTokens, reserveClaim);\n    }\n\n    function transfer (address account, uint reserveTokens) internal returns (bool) {\n        require(reserveToken.transfer(account, reserveTokens), \"failed to transfer\");\n        emit Transfer_event(account, reserveTokens);\n        return true;\n    }\n\n    function issue (address account, uint shareTokens) internal returns (bool) {\n        require(maxTokenSupply >= shareToken.totalSupply() + shareTokens, \"invalid share amount\");\n        require(shareToken.generateTokens(account, shareTokens), \"failed to generate tokens\");\n        maxTokenSupply += shareTokens;\n        emit Issue_event(account, shareTokens);\n        return true;\n    }\n\n    function destroy (address account, uint shareTokens) internal returns (bool) {\n        require(shareToken.destroyTokens(account, shareTokens), \"failed to destroy tokens\");\n        maxTokenSupply -= shareTokens;\n        emit Destroy_event(account, shareTokens);\n        return true;\n    }\n\n    event Collect_event (uint collectedAmount);\n    event Deposit_event (address msgSender, uint reserveTokens, uint shareClaim);\n    event Withdraw_event (address msgSender, uint shareTokens, uint reserveClaim);\n    event Transfer_event (address account, uint reserveTokens);\n    event Issue_event (address account, uint shareTokens);\n    event Destroy_event (address account, uint shareTokens);\n\n}\n\ncontract TimeRegulatedFundraiser is IFundraiser, MoneyPool {\n\n    uint public collectedTimestamp; // The timestamp when funds were last collected\n    uint public startTimestamp;\n    uint public endTimestamp;\n    uint public maxTokenSupply;\n    uint public fundedTokenSupply;\n\n    function setupFundraiser (\n        uint _startTimestamp,    // 0 == now\n        uint _endTimestamp,      // 0 == infinite\n        uint _maxTokenSupply,    // 0 == infinite\n        uint _fundedTokenSupply\n    ) public onlyOwner {\n        startTimestamp = _startTimestamp;\n        endTimestamp = _endTimestamp;\n        maxTokenSupply = _maxTokenSupply;\n        fundedTokenSupply = _fundedTokenSupply;\n    }\n\n    function collectFunds () public returns (uint collectedFunds) {\n        require(now >= startTimestamp);\n        require(now < endTimestamp);\n\n        //collectedFunds = availableFunds();\n        transfer(owner, collectedFunds);\n    }\n\n    function getAvailableFunds () public view returns (uint availableFunds) {\n        availableFunds = getFundedTime();\n    }\n\n    function getFundedTime () public view returns (uint) {\n        uint elapsedSeconds = now - collectedTimestamp;\n        uint workTime = elapsedSeconds * 1 ether * 40 / 168; // 40 hours per week\n        (uint p, uint q) = getFundedPercent();\n        if(p > q) {\n            return workTime;\n        }\n        else {\n            return workTime * p / q;\n        }\n    }\n\n    function getFundedPercent () public view returns (uint p, uint q) {\n        //return (shareToken.totalSupply(), maxTokenSupply);\n        return (shareToken.totalSupply(), fundedTokenSupply);\n    }\n\n}\n",
  "sourcePath": "/home/joe/Documents/github/chicobitcoinjoe/medao/contracts/MoneyPool.sol",
  "compiler": {
    "name": "solc",
    "version": "0.5.8+commit.23d335f2.Emscripten.clang"
  },
  "schemaVersion": "3.0.11",
  "updatedAt": "2019-08-09T00:35:49.992Z",
  "devdoc": {
    "methods": {}
  },
  "userdoc": {
    "methods": {}
  }
}