{
  "contractName": "TimeSchedulerFactory",
  "abi": [
    {
      "constant": true,
      "inputs": [],
      "name": "blueprint",
      "outputs": [
        {
          "name": "",
          "type": "address"
        }
      ],
      "payable": false,
      "stateMutability": "view",
      "type": "function"
    },
    {
      "constant": false,
      "inputs": [
        {
          "name": "baseTask",
          "type": "address"
        },
        {
          "name": "baseTime",
          "type": "uint256"
        }
      ],
      "name": "create",
      "outputs": [
        {
          "name": "Scheduler",
          "type": "address"
        }
      ],
      "payable": false,
      "stateMutability": "nonpayable",
      "type": "function"
    }
  ],
  "bytecode": "0x608060405234801561001057600080fd5b506102a1806100206000396000f3fe608060405234801561001057600080fd5b50600436106100365760003560e01c80630ecaea731461003b578063c05efa15146100c9575b600080fd5b6100876004803603604081101561005157600080fd5b81019080803573ffffffffffffffffffffffffffffffffffffffff16906020019092919080359060200190929190505050610113565b604051808273ffffffffffffffffffffffffffffffffffffffff1673ffffffffffffffffffffffffffffffffffffffff16815260200191505060405180910390f35b6100d16101e6565b604051808273ffffffffffffffffffffffffffffffffffffffff1673ffffffffffffffffffffffffffffffffffffffff16815260200191505060405180910390f35b600061013f6000809054906101000a900473ffffffffffffffffffffffffffffffffffffffff1661020b565b90508073ffffffffffffffffffffffffffffffffffffffff1663cd6dc68784846040518363ffffffff1660e01b8152600401808373ffffffffffffffffffffffffffffffffffffffff1673ffffffffffffffffffffffffffffffffffffffff16815260200182815260200192505050600060405180830381600087803b1580156101c857600080fd5b505af11580156101dc573d6000803e3d6000fd5b5050505092915050565b6000809054906101000a900473ffffffffffffffffffffffffffffffffffffffff1681565b6000808260601b90506040517f3d602d80600a3d3981f3363d3d373d3d3d363d7300000000000000000000000081528160148201527f5af43d82803e903d91602b57fd5bf3000000000000000000000000000000000060288201526037816000f09250505091905056fea165627a7a72305820bb9fa934b14bc100c6dd0b8ee3a608bd726e95a0c23d7dcc6b19b4b45a59b3040029",
  "source": "pragma solidity ^0.5.0;\n\nimport \"./external/AddressListLib.sol\";\nimport \"./external/CloneFactory.sol\";\nimport \"./Interfaces.sol\";\n\ncontract TimeScheduler is ITimeScheduler, Owned {\n\n    using AddressListLib for AddressListLib.AddressList;\n\n    uint public blockInitialized;\n    AddressListLib.AddressList tasks;\n    mapping (address => uint) scheduledTime;\n\n    function initialize (address baseTask, uint baseTime) public runOnce {\n        tasks.add(baseTask);\n        scheduledTime[baseTask] = baseTime;\n    }\n\n    function register (address task) public onlyOwner {\n        tasks.add(task);\n    }\n\n    // Assign 'time' to 'taskA' from 'taskB'\n    function assign (uint time, address taskA, address taskB) public onlyOwner {\n        require(tasks.contains(taskA));\n        require(tasks.contains(taskB));\n        require(scheduledTime[taskB] >= time);\n        scheduledTime[taskB] -= time;\n        scheduledTime[taskA] += time;\n    }\n\n    function getTime (address task) public view returns (uint time) {\n        return scheduledTime[task];\n    }\n\n    function getSchedule () public view returns (address[] memory, uint[] memory) {\n        address[] memory currentTasks = new address[](tasks.getLength());\n        uint[] memory currentTimes = new uint[](tasks.getLength());\n        for(uint i = 0; i < tasks.getLength(); i++) {\n            address task = tasks.index(i);\n            currentTasks[i] = task;\n            currentTimes[i] = scheduledTime[task];\n        }\n\n        return (currentTasks, currentTimes);\n    }\n\n    // Modifiers and Events\n\n    modifier runOnce () {\n        require(blockInitialized == 0);\n        _;\n        blockInitialized = block.number;\n    }\n\n}\n\ncontract TimeSchedulerFactory is CloneFactory {\n\n    TimeScheduler public blueprint;\n\n    function create (\n        address baseTask,\n        uint baseTime\n    ) public returns (TimeScheduler Scheduler) {\n        Scheduler = TimeScheduler(createClone(address(blueprint)));\n        Scheduler.initialize(baseTask, baseTime);\n    }\n\n}\n",
  "sourcePath": "/home/joe/Documents/github/chicobitcoinjoe/medao/contracts/TimeScheduler.sol",
  "compiler": {
    "name": "solc",
    "version": "0.5.8+commit.23d335f2.Emscripten.clang"
  },
  "schemaVersion": "3.0.11",
  "updatedAt": "2019-08-06T00:16:25.841Z",
  "devdoc": {
    "methods": {}
  },
  "userdoc": {
    "methods": {}
  }
}