{
  "contractName": "TimeManager",
  "abi": [
    {
      "constant": true,
      "inputs": [],
      "name": "owner",
      "outputs": [
        {
          "name": "",
          "type": "address"
        }
      ],
      "payable": false,
      "stateMutability": "view",
      "type": "function"
    },
    {
      "constant": true,
      "inputs": [],
      "name": "blockInitialized",
      "outputs": [
        {
          "name": "",
          "type": "uint256"
        }
      ],
      "payable": false,
      "stateMutability": "view",
      "type": "function"
    },
    {
      "constant": false,
      "inputs": [
        {
          "name": "newOwner",
          "type": "address"
        }
      ],
      "name": "transferOwnership",
      "outputs": [],
      "payable": false,
      "stateMutability": "nonpayable",
      "type": "function"
    },
    {
      "constant": false,
      "inputs": [
        {
          "name": "baseTask",
          "type": "address"
        }
      ],
      "name": "initialize",
      "outputs": [],
      "payable": false,
      "stateMutability": "nonpayable",
      "type": "function"
    },
    {
      "constant": false,
      "inputs": [
        {
          "name": "taskA",
          "type": "address"
        },
        {
          "name": "time",
          "type": "uint256"
        },
        {
          "name": "taskB",
          "type": "address"
        }
      ],
      "name": "assign",
      "outputs": [],
      "payable": false,
      "stateMutability": "nonpayable",
      "type": "function"
    },
    {
      "constant": false,
      "inputs": [
        {
          "name": "task",
          "type": "address"
        },
        {
          "name": "time",
          "type": "uint256"
        }
      ],
      "name": "assign",
      "outputs": [],
      "payable": false,
      "stateMutability": "nonpayable",
      "type": "function"
    },
    {
      "constant": false,
      "inputs": [
        {
          "name": "task",
          "type": "address"
        }
      ],
      "name": "lock",
      "outputs": [],
      "payable": false,
      "stateMutability": "nonpayable",
      "type": "function"
    },
    {
      "constant": false,
      "inputs": [
        {
          "name": "task",
          "type": "address"
        }
      ],
      "name": "unlock",
      "outputs": [],
      "payable": false,
      "stateMutability": "nonpayable",
      "type": "function"
    }
  ],
  "bytecode": "0x6080604052336000806101000a81548173ffffffffffffffffffffffffffffffffffffffff021916908373ffffffffffffffffffffffffffffffffffffffff160217905550610e05806100536000396000f3fe608060405234801561001057600080fd5b50600436106100885760003560e01c8063be7604881161005b578063be760488146101a7578063c4d66de8146101f5578063f2fde38b14610239578063f435f5a71461027d57610088565b80630935996c1461008d5780632f6c493c146100fb5780638da5cb5b1461013f5780639bc40c4c14610189575b600080fd5b6100f9600480360360608110156100a357600080fd5b81019080803573ffffffffffffffffffffffffffffffffffffffff16906020019092919080359060200190929190803573ffffffffffffffffffffffffffffffffffffffff1690602001909291905050506102c1565b005b61013d6004803603602081101561011157600080fd5b81019080803573ffffffffffffffffffffffffffffffffffffffff1690602001909291905050506104eb565b005b61014761061a565b604051808273ffffffffffffffffffffffffffffffffffffffff1673ffffffffffffffffffffffffffffffffffffffff16815260200191505060405180910390f35b61019161063f565b6040518082815260200191505060405180910390f35b6101f3600480360360408110156101bd57600080fd5b81019080803573ffffffffffffffffffffffffffffffffffffffff16906020019092919080359060200190929190505050610645565b005b6102376004803603602081101561020b57600080fd5b81019080803573ffffffffffffffffffffffffffffffffffffffff1690602001909291905050506107ab565b005b61027b6004803603602081101561024f57600080fd5b81019080803573ffffffffffffffffffffffffffffffffffffffff169060200190929190505050610817565b005b6102bf6004803603602081101561029357600080fd5b81019080803573ffffffffffffffffffffffffffffffffffffffff16906020019092919050505061091c565b005b6000809054906101000a900473ffffffffffffffffffffffffffffffffffffffff1673ffffffffffffffffffffffffffffffffffffffff163373ffffffffffffffffffffffffffffffffffffffff1614610383576040517f08c379a00000000000000000000000000000000000000000000000000000000081526004018080602001828103825260178152602001807f6d73672073656e646572206973206e6f74206f776e657200000000000000000081525060200191505060405180910390fd5b600273__AddressListLib________________________631a65cb959091836040518363ffffffff1660e01b8152600401808381526020018273ffffffffffffffffffffffffffffffffffffffff1673ffffffffffffffffffffffffffffffffffffffff1681526020019250505060206040518083038186803b15801561040957600080fd5b505af415801561041d573d6000803e3d6000fd5b505050506040513d602081101561043357600080fd5b810190808051906020019092919050505061044d57600080fd5b61045683610af6565b61049e600560008373ffffffffffffffffffffffffffffffffffffffff1673ffffffffffffffffffffffffffffffffffffffff16815260200190815260200160002083610d80565b6104e6600560008573ffffffffffffffffffffffffffffffffffffffff1673ffffffffffffffffffffffffffffffffffffffff16815260200190815260200160002083610da7565b505050565b6000809054906101000a900473ffffffffffffffffffffffffffffffffffffffff1673ffffffffffffffffffffffffffffffffffffffff163373ffffffffffffffffffffffffffffffffffffffff16146105ad576040517f08c379a00000000000000000000000000000000000000000000000000000000081526004018080602001828103825260178152602001807f6d73672073656e646572206973206e6f74206f776e657200000000000000000081525060200191505060405180910390fd5b6000600560008373ffffffffffffffffffffffffffffffffffffffff1673ffffffffffffffffffffffffffffffffffffffff1681526020019081526020016000209050600081600201544203905062278d0081101561060b57600080fd5b60008260020181905550505050565b6000809054906101000a900473ffffffffffffffffffffffffffffffffffffffff1681565b60015481565b6000809054906101000a900473ffffffffffffffffffffffffffffffffffffffff1673ffffffffffffffffffffffffffffffffffffffff163373ffffffffffffffffffffffffffffffffffffffff1614610707576040517f08c379a00000000000000000000000000000000000000000000000000000000081526004018080602001828103825260178152602001807f6d73672073656e646572206973206e6f74206f776e657200000000000000000081525060200191505060405180910390fd5b6107a78282600273__AddressListLib________________________63492d214c909160006040518363ffffffff1660e01b8152600401808381526020018281526020019250505060206040518083038186803b15801561076757600080fd5b505af415801561077b573d6000803e3d6000fd5b505050506040513d602081101561079157600080fd5b81019080805190602001909291905050506102c1565b5050565b6000600154146107ba57600080fd5b6107c381610af6565b61080d600560008373ffffffffffffffffffffffffffffffffffffffff1673ffffffffffffffffffffffffffffffffffffffff16815260200190815260200160002061e100610da7565b4360018190555050565b6000809054906101000a900473ffffffffffffffffffffffffffffffffffffffff1673ffffffffffffffffffffffffffffffffffffffff163373ffffffffffffffffffffffffffffffffffffffff16146108d9576040517f08c379a00000000000000000000000000000000000000000000000000000000081526004018080602001828103825260178152602001807f6d73672073656e646572206973206e6f74206f776e657200000000000000000081525060200191505060405180910390fd5b806000806101000a81548173ffffffffffffffffffffffffffffffffffffffff021916908373ffffffffffffffffffffffffffffffffffffffff16021790555050565b6000809054906101000a900473ffffffffffffffffffffffffffffffffffffffff1673ffffffffffffffffffffffffffffffffffffffff163373ffffffffffffffffffffffffffffffffffffffff16146109de576040517f08c379a00000000000000000000000000000000000000000000000000000000081526004018080602001828103825260178152602001807f6d73672073656e646572206973206e6f74206f776e657200000000000000000081525060200191505060405180910390fd5b600273__AddressListLib________________________63492d214c909160006040518363ffffffff1660e01b8152600401808381526020018281526020019250505060206040518083038186803b158015610a3957600080fd5b505af4158015610a4d573d6000803e3d6000fd5b505050506040513d6020811015610a6357600080fd5b810190808051906020019092919050505073ffffffffffffffffffffffffffffffffffffffff168173ffffffffffffffffffffffffffffffffffffffff161415610aac57600080fd5b42600560008373ffffffffffffffffffffffffffffffffffffffff1673ffffffffffffffffffffffffffffffffffffffff1681526020019081526020016000206002018190555050565b600273__AddressListLib________________________631a65cb959091836040518363ffffffff1660e01b8152600401808381526020018273ffffffffffffffffffffffffffffffffffffffff1673ffffffffffffffffffffffffffffffffffffffff1681526020019250505060206040518083038186803b158015610b7c57600080fd5b505af4158015610b90573d6000803e3d6000fd5b505050506040513d6020811015610ba657600080fd5b810190808051906020019092919050505015610bc157610d7d565b600273__AddressListLib________________________6390c158cb9091836040518363ffffffff1660e01b8152600401808381526020018273ffffffffffffffffffffffffffffffffffffffff1673ffffffffffffffffffffffffffffffffffffffff1681526020019250505060206040518083038186803b158015610c4757600080fd5b505af4158015610c5b573d6000803e3d6000fd5b505050506040513d6020811015610c7157600080fd5b81019080805190602001909291905050505060405180608001604052808273ffffffffffffffffffffffffffffffffffffffff168152602001600081526020016000815260200160001515815250600560008373ffffffffffffffffffffffffffffffffffffffff1673ffffffffffffffffffffffffffffffffffffffff16815260200190815260200160002060008201518160000160006101000a81548173ffffffffffffffffffffffffffffffffffffffff021916908373ffffffffffffffffffffffffffffffffffffffff160217905550602082015181600101556040820151816002015560608201518160030160006101000a81548160ff0219169083151502179055509050505b50565b8082600101541015610d9157600080fd5b8082600101600082825403925050819055505050565b8160030160009054906101000a900460ff1615610dc357600080fd5b808260010160008282540192505081905550505056fea165627a7a723058203dcf43f27c1df2df562943ec4c4c30407ad6beb620956e6a4b41b016277e19980029",
  "source": "pragma solidity ^0.5.0;\n\nimport \"./external/AddressListLib.sol\";\nimport \"./external/Owned.sol\";\nimport \"./Interfaces.sol\";\n\ncontract TimeManager is ITimeManager, Owned {\n\n    using AddressListLib for AddressListLib.AddressList; // Import the data structure AddressList from the AddressListLib contract\n\n    struct Task {\n        address task;\n        uint time;\n        uint lockedTimestamp;\n        bool isLocked;\n    }\n\n    uint public blockInitialized;\n    AddressListLib.AddressList tasks;\n    mapping (address => Task) schedule;\n\n    function initialize (address baseTask) public runOnce {\n        register(baseTask);\n        increase(schedule[baseTask], 16 hours);\n    }\n\n    function assign (address task, uint time) public onlyOwner {\n        assign(task, time, tasks.index(0));\n    }\n\n    function assign (address taskA, uint time, address taskB) public onlyOwner {\n        // Assign 'time' to 'taskA' from 'taskB'\n        require(tasks.contains(taskB));\n        register(taskA);\n\n        decrease(schedule[taskB], time);\n        increase(schedule[taskA], time);\n    }\n\n    function lock (address task) public onlyOwner {\n        require(task != tasks.index(0));\n\n        schedule[task].lockedTimestamp = now;\n    }\n\n    function unlock (address task) public onlyOwner {\n        Task storage scheduled = schedule[task];\n        uint elapsedSeconds = now - scheduled.lockedTimestamp;\n        require(elapsedSeconds >= 30 days);\n        scheduled.lockedTimestamp = 0;\n    }\n\n    function register (address task) internal {\n        if(tasks.contains(task)) return;\n\n        tasks.add(task);\n        schedule[task] = Task(task, 0, 0, false);\n    }\n\n    function increase (Task storage task, uint time) internal {\n        require(!task.isLocked);\n        task.time += time;\n    }\n\n    function decrease (Task storage task, uint time) internal {\n        require(task.time >= time);\n        task.time -= time;\n    }\n\n    // Modifiers and Events\n\n    modifier runOnce () {\n        require(blockInitialized == 0);\n        _;\n        blockInitialized = block.number;\n    }\n\n}\n",
  "sourcePath": "/home/joe/Documents/github/chicobitcoinjoe/medao/contracts/TimeManager.sol",
  "compiler": {
    "name": "solc",
    "version": "0.5.8+commit.23d335f2.Emscripten.clang"
  },
  "schemaVersion": "3.0.11",
  "updatedAt": "2019-08-04T03:12:14.113Z",
  "devdoc": {
    "methods": {}
  },
  "userdoc": {
    "methods": {}
  }
}